:04000000803116280D
:100008007E14803120007F08F4002100931D112800
:100018002000931D112880314A2074082000FF0019
:100028007E10090080311828F001F101F2017E10DC
:1000380020008031682822008D018C018E01173044
:1000480023008C0030308D00CF308E003F302400EC
:100058008C00F0308D00FF308E00703021008D0054
:10006800FF308E003F308C00951322009E019D01C9
:1000780008007B3028009E00FF309D009C01200076
:1000880093112100931580316E20080022008D1FE6
:100098004F288D1354288D170130F3007308F20789
:1000A80020009311080080311F20803180316020AA
:1000B800803180313D2008007030210099009A017C
:1000C80098011A1B080065288031572080318B174A
:0A00D8000B176D2828001E15080004
:020000040001F9
:04000E00E4FFFFDF2D
:00000001FF
