:0400000044EF00F0D9
:100008001882FACF02F0FBCF03F0E9CF04F0EACF71
:1000180005F0E1CF06F0E2CF07F0D9CF08F0DACF4C
:1000280009F0F3CF0AF0F4CF0BF0F6CF0CF0F7CFCE
:100038000DF0F8CF0EF0F5CF0FF0A0B2A1A202D0CC
:1000480091EC00F00FC0F5FF0EC0F8FF0DC0F7FFF0
:100058000CC0F6FF0BC0F4FF0AC0F3FF09C0DAFFBB
:1000680008C0D9FF07C0E2FF06C0E1FF05C0EAFFEC
:1000780004C0E9FF03C0FBFF02C0FAFF1892110099
:10008800A5EF00F08CB403D0016A012A01D0016AFF
:10009800014601468C500118FB0B01188C6E12505A
:1000A8001310D8B4120001D812000500FA6E1250CD
:1000B800FD6E1350FE6EF850FF6EFA501200000EDF
:1000C8008A6E000E896E000E8D6E000E8C6E1F0EED
:1000D8007F6E000E8B6E7C68EF0E7E6EF90E956E4D
:1000E800070E966E936894689268F18EF2961200E5
:1000F800300EB16E000EB36E000EB26EB2CF14F0B9
:10010800B3CF15F0A192A082960E106E010E116E5B
:10011800BCEC00F0C9EC00F01200A1921550B36ECF
:1001280014C0B2FF164A172A175004E1040E165CD1
:10013800D8A0120046EC00F0000E176E000E166EE6
:100148001200176A166A18901892000EF86E0001CD
:10015800B7EF00F0C6EC00F063EC00F0C1EC00F083
:100168007CEC00F01200AEEC00F0F28EF28CFFD7BF
:1001780010C012F011C013F01200620ED36E400EC0
:100188009B6E1200D09EA2921200B1801200120043
:020000040020DA
:08000000FFFFFFFFFFFFFFFF00
:020000040030CA
:0E000000FF081F1EFF8B85FF0FC00FE00F4093
:00000001FF
