:0400000044EF00F0D9
:100008001682FACF02F0FBCF03F0E9CF04F0EACF73
:1000180005F0E1CF06F0E2CF07F0D9CF08F0DACF4C
:1000280009F0F3CF0AF0F4CF0BF0F6CF0CF0F7CFCE
:100038000DF0F8CF0EF0F5CF0FF0A0B2A1A202D0CC
:1000480046EC00F00FC0F5FF0EC0F8FF0DC0F7FF3B
:100058000CC0F6FF0BC0F4FF0AC0F3FF09C0DAFFBB
:1000680008C0D9FF07C0E2FF06C0E1FF05C0EAFFEC
:1000780004C0E9FF03C0FBFF02C0FAFF169211009B
:100088009EEF00F08CB203D0016A012A01D0016A08
:1000980001468C500118FD0B01188C6EA192155069
:1000A800B36E14C0B2FF12501310D8B4120001D8A6
:1000B80012000500FA6E1250FD6E1350FE6EF850D5
:1000C800FF6EFA501200000E8A6E000E896E000E46
:1000D8008D6E000E8C6E1F0E7F6E000E8B6E7C6810
:1000E800EF0E7E6EFD0E956E070E966E9368946801
:1000F8009268F18EF2961200300EB16E9E0EB36EBB
:10010800580EB26EB2CF14F0B3CF15F0A192A08200
:10011800720E106E010E116EAAEC00F0B7EC00F032
:100128001200B4EC00F067EC00F0AFEC00F080ECEB
:1001380000F0120016901692000EF86E0001A5EF5E
:1001480000F095EC00F0F28EF28CFFD710C012F0A0
:1001580011C013F01200620ED36E400E9B6E120097
:0C016800D09EA2921200B1801200120082
:020000040020DA
:08000000FFFFFFFFFFFFFFFF00
:020000040030CA
:0E000000FF081F1EFF8B85FF0FC00FE00F4093
:00000001FF
