:020000040000FA
:10000000873A6024022A212C48379603282440315D
:100010009501E61F02022713D20018207430842BAA
:10002000BC0E902333342D12DA051C218A3FB6030F
:10003000F12DB7003F0E3D318E2A1835020F1A34CC
:10004000E002312A0B3432336B1F2517D500D51649
:100050006801E4211821DD1ECD10BB0C6815432377
:1000600049393B222C1C1F30C53B9B1EC901633004
:100070001C2933343101D9312E3CCF1C3726D734DB
:10008000820C3E0D5C05D82C02284C14E728B317CF
:10009000A019222E91194923E90BC31505393031D6
:1000A000CA217010050F941E131D121EF83D7F23E8
:1000B0007E09C93224228C2C4634C602EA36950ABF
:1000C000930BEA2FB50F07333A266D35870E1F3A8B
:1000D000B13B91203C18BA0C240D4B10042751332E
:1000E000033C39289F1544219017CD136222D50473
:1000F0002B1A963F0C079F337330D13EF32A5906D3
:100100007607A0101937772F8014FF091D00333BA5
:100110005020A1362C206C2DBA280E295D0B8A04A4
:10012000FA36CC131C33DA3A4A2683018E01A8171B
:10013000791524051824B310922FC90D6B14D81803
:10014000D12ACF17C72184198122BD035238CD3A55
:100150007317A83FB11A631E283C0B3F4A02F70DE4
:10016000F30C9A21DD34F13F8D2136284722093FD7
:10017000FD348633BA1BCF39BF217831AC3D5620D0
:1001800089135A1B4208752E2A057538102E8602CF
:100190004D18F3255C27F61C2C3EF4274428851FB8
:1001A00073135D288102E30CE70E202D950FAF3904
:1001B0008C01A219A20E9E335838DA204D39412203
:1001C000C3227B1C49052305A8065E258024A33095
:1001D00055119025FE2BF615C20E7C3B042AD8281B
:1001E000400B1300EB2D881F2531BD1EC0284C3E4F
:1001F0003A23B72EC22BC731FA35AC0529329629DE
:10020000E40C1D05DE250A1E69160A010A3B1510BD
:100210003F38C705A8247C0F2707730283146B2B74
:100220005E30EF343C03D4155318E30653316B2191
:100230005D3113014B007106823E5604593B0403A5
:100240009129A2294239B4101819EC28573D782673
:10025000001A522AAB335F22D909B426F924FA3E98
:10026000130A4019D4185B12BF31F1361621D62D6E
:100270008A02FA3EAD07E0310D27250B3420DC0F52
:10028000AF032714F6209237A3386937513318018A
:10029000CE2A3611993145349412ED00E018300120
:1002A000E43A491B541FB807F5170E3B1134761872
:1002B000953CC90E9A3B4723F805DA255534BA28F0
:1002C0006329341EBB20373B38348D0F2131F309AD
:1002D0001D166612423D5F2355063421F13D9509F6
:1002E00094100D049D31D42BC32283218F3AC03842
:1002F0009424462B0324AD3BDF0289129423FC088F
:10030000123CE61D922EEF1D4330442B2F27CB2DA0
:10031000A10E0936B70BCA145A03792F2402C53A25
:100320002A141604D1241D14363721031829A32EAC
:10033000DC2E25391827FC23A026D7140B02F53B09
:100340006100882BBB02C52870062F392432331C6C
:10035000511E7B3648388B161F31C200B403E609A4
:10036000EB1921335118913B9A17C0397428F61EA6
:10037000020FC60A4B193C07582B8004111CEA04D3
:10038000342EA604B927E71AAE150E17EA2AA12AB9
:100390006236060389143B066110453E1821681534
:1003A0005B11D227BD05BB337D33D231AE25702F13
:1003B000DA071F074D0DE601640C36144106D13AE9
:1003C000B2008A114B0A6E3C2912BC35AA3688232A
:1003D000473F431848384D2D1E0B493B0A0901245D
:1003E0004015480CF6108A01AB3709040E22232B66
:1003F0007A3BE1280E245E176116D30D732DD110C0
:100400003F063A1273098B354E15BA33CC16740A6F
:10041000B7283B039711FF039204EA16830AF724D7
:100420009E3BB4141D181227321E0F041D0377388B
:10043000373BCF0AC01C9B3E2B37E600C126890400
:100440007F30E03772061C0BCA2D593BFA38251E47
:10045000A6393824C834E80B3A29A906BB24A30AD4
:10046000BA25DC3C9403301B5E3E5231A322AC091A
:10047000A5174436D324E216E10D8420823F1D2BBC
:100480005924A82FC93499218A2F6E311C07B8210D
:10049000492046066A2C3533D43ECC262C17431807
:1004A0001A109531FC150E30BD1CED36AB1EE03038
:1004B0009A30F728F927B415DE3A800D510D03164E
:1004C000F0091724392A7527BB039F015C37CB3508
:1004D00015026D2050097B315C349B2D8F31053C1A
:1004E0008222300B353C92291C3B96277D299A00AD
:1004F0002B05EA062320D93EC02FE709073E9408C2
:10050000AB1CCF39C32ED807CA384215221CAC0AFF
:10051000C00B9D158A323A0F0F326C1EDD23600E20
:10052000F83FDC3D601DAA048728AD22A219D42122
:10053000AC03902D82258F37643FDB12BB276737D2
:100540002D3BCC0CA80CBF066512D30118348334A4
:100550003D0151086935FF086B2985194E0EAA0F18
:10056000C116FA24DE2A7F304C11550FE33990086A
:10057000B3192A1D863EDD05E62DBE1DC818660A84
:100580005D371433692082277719F83B263A8D2A84
:10059000C30DDF167F15273F2C25CB255D11F83CB9
:1005A0006030680E51308F3AF70EAD1A4819EC2FB3
:1005B0001504512DE02F0D0DA500AB35C627B11A3E
:1005C0005E26D809C628BE3E2F2C211C76354D3A12
:1005D000C61381159B1C4C234F195511C11D38158D
:1005E0009C01BC2A9923A42E56380D261C1BBD063F
:1005F000E71EBE01830C4A183C0E51368E033E2581
:1006000096300C12C116A010F80DB6017009CA3749
:10061000FB3C141BCF2A53141233BD0573049E27D1
:100620007A3A7907D834B72B75316812E706A935BD
:100630007D353A349E055A04890E14213A03402B25
:10064000AA2174219C1D991C8137D921BE05D03364
:10065000580A88356D061B1AF1285C2DAE06440435
:100660003E1630386E1EB12EA23BB3157218CC2741
:100670006D12CE28A23A8819A92A8B09223653393D
:100680008038232DD6026F37B526C10E483631018A
:100690001124021B052CD831A90A4606E9251E287B
:1006A0006E2B9D13FD3412146A056D07C60FDE3ED6
:1006B0008C0F1E014109AA26F90C4C16DF33690E76
:1006C0003B376C32312EBA14C32EA30438330E12CA
:1006D0009B29B42C681E081C37112800DE33253DE9
:1006E000CE3BB02965377D11993A2F112C01DA1BC9
:1006F000EE25FB236C1D4A2E163110134A2C7D1B50
:1007000041334B03AE39C02017083509F630243683
:10071000AB016D20A736141DD92EF4018622D10716
:1007200063049417C71E25283D145B302D252A2508
:10073000E93D2C0E5401FC36DC332D117D370A15B2
:100740003725403B8E01B40B5E20BE2A2C101803C7
:10075000362AD525133492210C1F5E341A14CA1A76
:10076000730DA01E852E2311A228D4359228613343
:10077000123F6721692DCE0F69235B13CF25460FEA
:100780000239A12151345D27852AC22BC22DCC2FDD
:100790007108671C3D0C29378B36372E122BEC293C
:1007A000823A41233F04AB24563BD730643C650D6D
:1007B0003D207D265D18E0191A0FD701DC0F1D1EA4
:1007C000C71D563EBA221F38B92E3928E232BA2B3D
:1007D000D238122FF73A1F0B5533921F281A85155E
:1007E000561AD938D627273D260DDB31EC25311D89
:1007F0008137C037200722288C17D4237A26FA3174
:10080000EB151A26C90F671A671A6301F4244A3BCD
:100810000D1F9A2A5112811FA60CC0185534D806F4
:10082000F3368F1F6C1B39171E2C8D12B30E110659
:10083000300A9708E41C33069C3E431BC402472A37
:1008400013071E03BE007E1D3D102A1DA235342253
:100850001736A8239B0AFD27FC02240AD23CE53662
:100860009F251419612B9A2F8B03DD2F82146105AC
:10087000E21C493F1A2B64376737EE1F1236BB164E
:10088000230A2D1F1B0DBC3426381A06D512E72467
:1008900026208E016812503F1330D51917377B3848
:1008A000DE165D39573EE21FFC2B22036219D20689
:1008B0006A03FD157201E53E4936E336FD196A20EB
:1008C000423B3E34A12E2220500FED38B536E829A8
:1008D000AD36BE02881E6526E816182CDF36821E4D
:1008E000762651182E25363B3C3B4C079C133A1577
:1008F000DE30E837DE3D0702E0003E235E20941341
:10090000D4097B085211572D2938AA2CAB3748043B
:10091000631AF70F0D3A133EB833AD3B21309317EE
:100920006B2B6809072BD42B58143317B91DDA1019
:100930009307B70F8F1CB9150A3E370D4F233D03A0
:100940007D08BD1A6D2308325C0A5A2261180C30EA
:100950003C03283346167C2C010CF01E1607D017DA
:100960000208443E442587129E37EF318206341434
:100970001D29293CF5071208E105961C2835883FFA
:10098000243D7B247325B020D8224F09C017A2092B
:100990006D10FE06C51A171F803ECC163920012A9D
:1009A000C13935398503FE289B124F1200215E3074
:1009B0005306DC1FC2280B37C53169038230D517B7
:1009C000ED302C36273ABE18C9330005F0005D091A
:1009D0006B1833345C35561A301387044130F400F9
:1009E0006D29BC34AC1F08281B105B067C14DE2963
:1009F000472F5001E7356005522C1F363708A521D7
:100A00003C002233893623139C1479215A3BE80B8E
:100A1000EC3887111B2AF707500B5C23280C222285
:100A20000A3BF924D90DB1322B28EF33802C071F54
:100A300051231C3094048B3E6401E90D5F173E3D49
:100A4000B82AD131D931440CFE116003A81AD03034
:100A5000E326713B5323F6345C31EC2227399402B0
:100A6000DD1D11386D2C46071A306B37D328D7009F
:100A700004215B243B18E93A192E751253311811E1
:100A8000442390059A154D0CDB3D8820C32EFF179B
:100A9000873E8338950121301229853FB73C182FB6
:100AA0006C1C873A0A343F37732A71097F0D63073C
:100AB0003636480D8C320415CE300228AC3109355B
:100AC0000620CE368B2DED2E633F250ED313470720
:100AD0004D13823FB22B543A6D3F3835902CA818F5
:100AE0007B2C8A04900705270317BE18CD32BC0A59
:100AF000FC0F12047A23FE002019BD1E440C3C0694
:100B0000642AB72EAE37710B002384314102EF0007
:100B1000E83F3334BB1E5539AD3ACA2AAC3E241ED9
:100B2000103F36152004A316D802110546155C297E
:100B3000AA0AE11733191F17EC177A20321DE21C9D
:100B4000012F4F1B4434451E602A6320B71E4014FA
:100B50004E36DB2F023E581E4C2A6E3144194C2C67
:100B60006F10C9001C115C343F182D28B4251A25BC
:100B7000D60110282B308D224F0FC039D238B01C2F
:100B8000C30D0611CE35DA14701CD73D1E0A18317C
:100B9000B50F742A1623273109376036D122F60C97
:100BA0001D38CE1625301E3AC42EE5191E19A11F78
:100BB00055209D0111032105A522273BBA3B1D1994
:100BC000D029B32E0D31EE1C5D15C9209E3185074D
:100BD000911C9519CA2DE630E0324D030B12963E5A
:100BE000E03836251A0DDF16351B481CCE38651F38
:100BF0003B30C934D63A63018C060A30C51A640604
:100C00008B391409020D3B1895160511A11E5F3C86
:100C100097340B1A2E14863B0F298C2AEC3DFC2CA2
:100C2000BD106F3D1E0EDB249E3FD51C4D322306AA
:100C3000DE2AF317AD1EAE3BE1108E270B334B308F
:100C40009A16B322EE328415C316E127CF06E53B90
:100C5000BD0632399332D52C112E323CAD2D622493
:100C6000F80866209223B82D4D1BCE376527E22168
:100C7000D3089B2C05246E03C108FD0CE519AE2F8B
:100C8000E20D4935511E1130D6116D21111C65330D
:100C90003629ED328A1B3726A52FF820C728B6172C
:100CA00016067F3616188F3DCE1A972A1D3E7C01F8
:100CB000EF11A61B8F3E8E358936750CEC2CCC17A8
:100CC000882F8F11EE2C8036FA18482B921CDF3AB1
:100CD00079296B39E527FB2FC804EF37F2062A1371
:100CE000DD1786388B20D305EF272A22BF30A135A8
:100CF000462DCF3D3E30FF08D533EE00FA215C147F
:100D0000F11E881AC42E093A9B22FB3DB822B53742
:100D10003A1C891BB3065D25B63D11142800093421
:100D200051098F2E132C2011BD39A512D41D6A270D
:100D30002E314D2541196B16833B882827176131C9
:100D4000C222392115361927681AEB0D2F355701A4
:100D50006E2DF81E470D271CEC33A136A23CD13E68
:100D6000B830C9290E34F5088424E7042618682D04
:100D70003C33AD1D09080B2CB139401CCC22C605F3
:100D8000E034D92562275D084D31E520DD16F910E4
:100D90004B3011233007F638271A5F23D9248F2CC4
:100DA000963F4B1E1D0C420ED2293E07BC363B0817
:100DB0004418DF164809983EBA1BE9078323BC395B
:100DC0006F1279036C092615772D3915EE16490532
:100DD000442F5C2141062721650C922B86317E0829
:100DE000B112CD012232E8257408312EE124AB2F57
:100DF0005C247D30EF376E083B207F1F2310DF21FE
:100E0000D60B150B3415392C533A6827C8202B0301
:100E1000103CCA208A32613BE21FE10CA13BEC3658
:100E20000D025D143D1E183A750C58121C32431900
:100E3000D90A3B1A2F0DCB271327CF0EC807162828
:100E4000B9142013FB05FF1B8E386803170C793C7F
:100E5000A33FAA305C1ACB2F1C330A01640C643EFA
:100E6000F0300438D0129631251F4B3837227921C3
:100E70004F3E973E78302F0D5E017420C821463BCF
:100E8000FD138A0042291B19150E7E2EC12CC62582
:100E9000320A4C004902DF18CE3D631B482D1B2C43
:100EA000DE1D5E3C7B2CDD1D0F17A10F3C3D4B0072
:100EB0009400B32C7B07E90A78012119BD3DBC3EA3
:100EC000C6332B0EC92E63041636A616F22226242C
:100ED000332356282035E515F720321105389D2C8F
:100EE0009C3225031F322F0101080936721F71320F
:100EF000BD326A362B06BE16FF0A460481135D32E8
:100F00007B31AE1793383921FC109714102BF93B25
:100F10005919D53AF4131230D436DD099626C63164
:100F20003014BA22DE247F2D0713732B64090500C9
:100F30001F259637B73EBE0ED0220A2F2C03A40CD5
:100F4000BF2DEE2CDF2A541D7634562DC72DBB093C
:100F50009B12FA2E14264A03E122E7133223F73EAE
:100F6000DF32902B1810493D6F364C24D92FB5092C
:100F70004E27883B90313712083F900E1825553F79
:100F8000793CC1322F3CDD0A6F3B5A20FE0FD80D51
:100F90002D1C8F3D1329831BDB21C91B5318933450
:100FA0002C1A9F356E194527C51DD226DC0B7D05F1
:100FB0002018BA35691DC93F03179B0EDC190020A4
:100FC000CC3441164405FE2D16164C0FDE02821459
:100FD000843A2103C120D637BF199701B200C43328
:100FE000DF00B91AC210042ED7317A20B42AD913DF
:100FF000AA35AE02310FA82960337D05531A422D60
:101000001F017C171F11CC3ED619560CD1138F022D
:101010005639D93C2F272324CB297F2A47377933C8
:10102000FA18E30235006E2CB2286620EC3D8A16D1
:10103000402D06261932F510FA3D600A9507CD2994
:10104000152FA730012D97005E11061C7F3C57100D
:10105000963B1135AF3C6D1A7B3A1A2B4C07B41FE7
:10106000C51F9327263C2800A215F9234B2BD4310A
:10107000782BCF3A941F4C39EF11E02AFC3A2F0617
:10108000943FB81E6B38A40F9A0CC437D232963BEB
:101090007B0B9434D017CB1C8C0D8F273A3C111C42
:1010A000C22DF0323933D61235397322DC1C44217B
:1010B000272CFD0A502F61259C0BFA3C2016671245
:1010C000C2367C101E354106B730E21DF338573961
:1010D000792A980D65350039FC0D8E06CA319E02BD
:1010E000B806FB1F4C3E4C033711A904E610F80864
:1010F000620A20034107D40D9E184F0ADA122F30DE
:10110000022C1B011A17441A2208393C4A2DDE30E2
:1011100045216A157D28BF2607201B14F423E737D5
:10112000AC29AF008230972FB628D235F429712C24
:101130007D104637962B1E23D107BA1143131B3F50
:10114000FA191803A214EC1388125E02801A96088A
:10115000D50FD1216B2A89312A312F31F23E572DFB
:10116000E2201E0F3B27F520FF275E3ACD3EDF33FE
:101170000E081C2EC10EA52B54193E1CB4316C3B1D
:101180008F2EBD003536263FD61469287F07070EFF
:101190005C3D1B1FBF2A331F23082F2D3D2FCF2A55
:1011A000DF11702E191AA91A9E24EF397C2AFA2809
:1011B000E90936277221F40E820E3E22C710B708C5
:1011C000E61AFF369526373839294F377007CC0194
:1011D0005128F0134A1F1204EE1432268E3186383D
:1011E000690DE900FC2AB70C60315A29491C5C14CE
:1011F000250E95119B221A1FF939173E542B3F21BA
:101200006423D82FC302C7341F0FD81FBB09901007
:101210006816C5271E14C835C9001E0DDE2232020D
:10122000851FD4370536862B542EC101BC275D247B
:10123000153C5B276D2F2431960F0429742420233D
:10124000AE2F0B01002A552A333B1C2D092A0C0214
:10125000962410018A3BB50D2F3E9C2A65106E0C1A
:10126000771F6D0296215C2DC418C531A01473063A
:101270004E3ABA235813C8157634573F81173A347B
:10128000A91A6E14CD0D083363279D1F44000B2748
:1012900011172D10213E102CDF18DA019D0766155D
:1012A000C43FB700502ECD2E401BC335FD2E1D1C54
:1012B000A73E09080E182703F50E0B091328DF3582
:1012C0007A02933EEB01EC11DD22F43D9530730F71
:1012D0004D29F61BB20A9F2CD605232E3F26C8396E
:1012E000321E4D1F1207003F931D2C041B1745345F
:1012F000331E22258015BE00B216A403031244013A
:101300008618F5285B0C8D370D221228643B4D1191
:10131000FE1D0D255026143E4F334E18442AFB3631
:10132000C5131E01FF10E214CA14EE3A85113532BE
:10133000481DDE1DDE0173268824692A6A39B72517
:10134000723193145D35F9279F0E103A5A0DDA2940
:101350001B0FDF344B3C100DC9180021E40193230F
:10136000C204271C783B362E3313F53A0317040BBF
:101370007A3FD7179A01C93F9502EB39A23AA021CB
:101380002215FF39741724238217990B610FA001CE
:10139000D93D592D342ECD330107BB1C991B113774
:1013A000B0301A2E1C1090195B18B61E9D248D02A9
:1013B000A017500F65373B24363CE62B433A360FD7
:1013C000BD0EDF0B5F2FB130E200E518A236891C9D
:1013D000AB224B2EDC23611FF237CD3E1C36E239A7
:1013E0005102FD2DCF022B2C0E21DC389E0BE71075
:1013F000CC175D032F14B415072E75282635093E2A
:10140000A73CE720212C21302C344B228514F83EB8
:10141000483D8C25551BB01BDB1E0B106630A636D5
:10142000AC1FB81FAF01AC245A37FF078E016619F5
:101430005621352F2A273236E71596296410443273
:101440008420430AF93E620E0D10620FB426EB10A1
:10145000A424C51EEE3800373838600EAF19B40525
:10146000063A9F2E1F05C53B8C02700C3630181CA7
:10147000D114BF05C62D8B25F122070E5729BC02BA
:101480003B2F781B692BC5017238BA221727200819
:10149000F416F4273A172A2EC71935127101EB0BEF
:1014A000E21DE833C01FB72330171D2D9F05D10A59
:1014B00014224E24B5234F18830574189725BB0EAC
:1014C000EF20B3283217572D88262A0BD81B3B2232
:1014D000AD09AB1F091778128402A4166507C00571
:1014E0000803180E710EC637130786181104AB2AAD
:1014F00031189831E812DD383A3FF817FD029104AF
:1015000007019700551A9E0CBC38AA1F5F27F137B8
:101510008539F6016C2F221AAC2A8D01842B943761
:101520007B1C672E5508801C4331C80E17121E2BDA
:101530008035D41D90238A23F332F936A327F23164
:10154000263E7226120FBA08BC02CD125618393246
:101550006F3AFE08B43D6F0CBD137008071E4C1C9B
:1015600080281301CD0EF2110D12B901790A8B1BDF
:1015700094371C391D2CFD0ECB344D2DE03107174F
:10158000323AF111EC21E917731DC62AA539802AD8
:10159000A2075D3672157D3A7318260F660F2E2B43
:1015A0009D00AB15793DC338FD121B38400C522805
:1015B000432BFA144001A3311E1ABB1250085535B3
:1015C000511A3F39A22173081037020B7522DE3EF3
:1015D0009213261A7710AA35CB3C661D5B00FE0DD0
:1015E00096294A2C3A1A2B0BE11AE120B50A6E080B
:1015F000A13C2626EC0548358B09D00EC929591384
:10160000E616A02A370FF417FE225E1C310654237B
:10161000F517A32CD51EA234033E2608DF116A203D
:101620007023CB0C3225D20AC61D8A03611D920499
:101630000507801B503BDF09ED0A0323653DF32DB1
:10164000970B7A3AEA2D0F38EC29E3208004093908
:10165000BE25C00FDC160F189722C92B2A15AA1118
:101660007139EC0CC1289624F82C8D3A0D10CA0063
:1016700002253B1FDD10602862172F0C7E228F1081
:101680004907D80A3D138021C51923004B399334EB
:101690002435380D1C05F53F440A2414B61B75018A
:1016A0001E126A2A89092F0B0407DF24C1329E31DA
:1016B0006D0038374534D11647296538AC00130D15
:1016C000221C5631F1369B16B8152219BC0C361C5B
:1016D0009B356626683CA522083E592F3D072A31D6
:1016E0003B3F0A1E6916BD09B927813BC829C125A0
:1016F0005D229A397921743E380C0F0EC917930C6C
:10170000852F9000070324363126DA263B0339273C
:10171000D81DD30AD02560161F008128B51949228B
:10172000CD0DA00C8518330F21183338AA3D3B0D81
:1017300025038E0AAA321525142D6301EC0FC4313E
:10174000180AF939C0238F3FDD084A04720D2D07AE
:10175000D03B780AA610983E061C2E075A052B3B54
:101760001A16FF3A3B23B0338C3E293A302B1A2706
:101770005A1A44184830801AF6292F3570093D0648
:10178000C0272C2D9D17AC29A9001F1D49184724DF
:10179000B904B3187902D40D7A36C030A33CFC0AE0
:1017A000A70BE6292E24AF38852EE6156333A93E14
:1017B000D32E1A0A0521162B3C22FB23ED2C6F2B6E
:1017C000A207AF095E3FA82CC225F317EA1CB31588
:1017D0000625EA341B073B0D791D8E284B020106B6
:1017E000370DDB3E3F332805D9381A3D8C2B2B2192
:1017F000A3260518D1198D288306790E3D3B6B0869
:10180000233C2928062E802095351707BD30F51E6C
:101810006E10EF0D9E00C51A3F18E22B48391613C3
:10182000D234FD1E8E228D1E963B9E2B340D153517
:101830002017213FDE0DCE19A8284C2C771D692DCD
:10184000E73A0F10D438CE10D022FE2C6C15413B55
:10185000E51109355237080F4A37CC06D6347B03D9
:10186000BA27CB207C0EAA1F093286062406D21B7B
:10187000DF1480089D1EF822C70B221CF6341026A8
:10188000D52CC33E4B0701275E252F21E008E63FFC
:10189000A11BBF35C829B33B5624C23E6D08DF0DDE
:1018A0007726DB39AA2D722EBE043C1A650809077B
:1018B000B4032417BE2B89363F342710522B8733AD
:1018C000113E26352A23F50B6D0AD2224115B11E91
:1018D00015174927D11CA53360321E30C517B12515
:1018E000CB1C880DFA20A6318319BB24401A642A28
:1018F000B52637323323AD20AB37C23365024627D6
:10190000002EA1107308EE216B04D225F820591186
:10191000F834C50C7E2BAB0DA62D683BD826B50739
:10192000BD3194018D0363076423D6183F26E0324E
:1019300037306A002D11A93DE90CB1074724AE17D5
:10194000461FA1346735FE37033B9027AF3EF13683
:101950003E3D0E192017E312A42B791FDF29D9145D
:101960009217BC3DC33A9A3DAF329907290B9E2C82
:10197000CE1197291C30712C161C6E315133612702
:10198000CA278209873AC617241B29184E3D592CAD
:101990001C1F572B4917C409171B6C1D52155914CE
:1019A000CE1B423B3D06620DF104B61C082C3800EC
:1019B000500C8913B238630E8F0EF63A1C1A641855
:1019C000AF20F715930A9E0EFA265325FF37B72846
:1019D00007017319C929C30EFC136B03EB2D1836CD
:1019E00036376C09DC0F371AF614101B25009A30B5
:1019F000D23F002FE0311E25F01ED23F811B002474
:101A00005C36E1378E0A2713F205CF332B26F226F8
:101A1000B510CC1CB022A62B9127493BA318482E09
:101A2000D01DF22BC23B1536CC2A50060923620288
:101A3000A83BED09D600851F182987049A22671054
:101A400074389501B8213728B81467147A2B3125DA
:101A50001A131837513C741E5230F439B32A530309
:101A6000E00E663850387E2BBF2B96267D24BF357E
:101A7000690ED21B0639E526223A4A35BF12203DAF
:101A8000DE29A3009109331E3B358C01D627610363
:101A90006A34BF233C270B01FD21BB2C9439072757
:101AA000EC248C17250E630E5D2A3B138A18D63B57
:101AB000E8156801202C383D6C2013098A17381F5F
:101AC000BD100433DB1DC313A71E80326707B9099D
:101AD0001D18EC2A421A5A028E196201FE2A043499
:101AE000B825A90F2530E8147236A4317927B11032
:101AF0003A0F711C173A953D933BFF05D2342E26C1
:101B00007806C32F972CF3166A2D141196124920CC
:101B1000E528612B75223F22422D1526EB047628FD
:101B20004A12C03C6E0B1B390C2D2E15D41DA5225C
:101B3000B626B90C1921BF0F740C0324B216B102DA
:101B4000B20717080706B1072F33FD1E0D3E8500AB
:101B5000B928F22F24330B21963C271E943D0737DA
:101B6000E636CC1B6317812478082E2D623C483062
:101B7000EF0756379A0DD81F2B05FD0A822117084B
:101B80005104F525AA0CB41CE406BB17B53ADF29AD
:101B9000CC00BE25E235A5134800A208720B24072D
:101BA000123BE90DA42592264230FB2D2D08E705B6
:101BB000BA2D1311492A3C2B17190F29DC019A2140
:101BC0007A2F112D4105C62BB614171CB6055922C4
:101BD000951112087F1A560D541AB7353D35733DCD
:101BE00092316E3813320F3738091E227E1A7E0367
:101BF0002E32152117307833D30C521E973C5C14CB
:101C0000920F5723CF266F16132E31347A38230CB8
:101C1000C80209170C273710F825F627EF21A12550
:101C20006B280127D032470566058310DF30351455
:101C30009E1EAE30373671283D06DD3ACE3E320765
:101C40003F0ED325942A053CA6192335A9183B1924
:101C50005B13DC2DDA074135B007621EC12864161C
:101C6000E3389B143D2835151A34CE24173D630004
:101C7000A03B6A1D1802A01A721C220CD92D26093D
:101C80006408172F101C26125E233D172C280E26E1
:101C90008129E50D7A1F063D393D50042C21CD28C0
:101CA0007F178200F92C872BE111B606303512031D
:101CB00008214A026B178106CE2798365237CB0F80
:101CC000271E053406298B04672CCA092E352304E8
:101CD000B1225833BD160A3A902D2924E832D41B7C
:101CE00002243734E8058E098718820D74230D0C01
:101CF000ED053D2D23081C0AF011C51811215126B0
:101D0000ED021E1C75314A3D2D3B7711152AC33D4E
:101D10009F23B008B42CC105F338EF39F0252E3DD0
:101D20007439551F2832093A1A0F8B3C6A366517E9
:101D3000A110BD156F04B415B3258D342F195606A7
:101D40005B0D3C1A9F1773365F0B413E8C1DAE1B1B
:101D50004028CD0DB1063131DE08A0027B3268305B
:101D6000183E692E1C3BD82FE619E235DC108C0397
:101D7000BC26B309C02A9E28351FE21B0506861320
:101D80005507BD2A05101936E91D00067C22C63507
:101D9000CA13CC07440035220F206D250211402DB7
:101DA0007333BB0165049537790AF90FD419E40E32
:101DB000123D7C05C817372BD33BC01D2C16F632BD
:101DC000023E2A3C6831B815F80883100D18CF1769
:101DD000B0008B0E3E3B6E0E812AC013400A460EA9
:101DE0004A060829E31B0F3D9F2F723B990CDC2507
:101DF000B727332C783600372A0A84307E104937CB
:101E0000C6114F07C9040436F9073E02A939270352
:101E1000A910E90CB02FCC04730D1A3D2C07C4088F
:101E2000A41E3609B709A6256625F225B5088B2A12
:101E3000002A24150110DF1D173A8C161324931A5B
:101E40004606C51B69151800990B9012F82E8416CA
:101E5000A93CB508EB3BBF366237C6330021E32609
:101E6000C32FFC10422092001A251207F221D41E23
:101E700084067523D31B8401B62C393A4438093FB4
:101E80006612EE25C9000E15C509963AE41BBB245F
:101E9000E5245107803412320A30581F3531181D9D
:101EA0002E087521260C090E4A155E0457300C1AAF
:101EB000160F071D9F0FEC0B6604393EAB3C6C2FD1
:101EC0004D306F33A906F50CAB0D9F099630840396
:101ED000D3200D244134613C68280B1A8421D81387
:101EE000AA21B20F4424461EC0196E192F201E339A
:101EF000CC348535582F161AC2342A3F2039391868
:101F00005F2D123B0C193026B607252C7539491B5D
:101F1000260F302D3D2C3801B90AEE15E53B863EE3
:101F20003B313A24BC3980098C231131010241082C
:101F3000FA17B1022D1DC929A8129603BC1DA7329C
:101F4000403A252D312C3706951D61322D2FF30097
:101F5000D525BA1CC733D6037B0AE126923AB318BB
:101F60002637803DEF27B601F800841C981A220D11
:101F70003718D50E8F29901B34243517D8125A1ACA
:101F8000D73A45119A06BA2C333A7823A506BE22D1
:101F90001402DC016F1892056A346B0E0418942247
:101FA000F10E4A3A7E24683F942DCA15FB329E08F2
:101FB0005624783E3123CE19C530950E0E09E6061B
:101FC0004716A53608112D3ABF1D322A06011311F6
:101FD00058381830062EE711833E6626F41EC935A0
:101FE000603F11114B0F350A2B22123A7428FC2A3C
:101FF0006C0A3E3E0227FB35F610073036091122E7
:10200000F606C43B7D26B42AA42D4C28BA3B5F2C8F
:10201000572424099D1E1E21041879075A3A5A0B89
:10202000790A51397702551ECA242C298D3CA525E1
:10203000D007012E3330040DA63EE63E6904D733A7
:102040008A2A98323724722691045A3D6900F80092
:1020500004397A36853AA502693968087005080C92
:10206000803DCF0B61220030C0181A370E256E2D2F
:102070001519143E3728D003F02435260124391DC4
:10208000E6112F26BA3942087202420EFD14FB19DE
:1020900096109827500801006F343A33AF1BD203D3
:1020A000FB00D13EAC2DB60D970EB31CFF1B551097
:1020B000110ACC33BC36E62C32308B3F9519C71A47
:1020C0003011BF06C638CD3B741C441A9F0B39141F
:1020D000813CFD29CD146B291404340DD028C9117D
:1020E000AE284D23390D64221F145714AB2FD1078E
:1020F000D805290AB6113C28091E5833002FF507C8
:10210000CE0F32015B250714042D9C2AB6121D3A0E
:102110007A15D12F0F030D3D941CA20ECB38272D1D
:102120009E030808282479186304B60F99129C307E
:10213000C026C023540D230E510D792F5A16331C7F
:1021400063181B07BC05113BCF03B729EE04A03170
:10215000770B4A1A661CE2196D3B7A27DB07A21837
:10216000112CAF27DA1FD81EB017B633942B0611E7
:102170005E06D702082C6036280E2731FD39C21AB8
:10218000D5282D0C6832811CC235F72E2E393C051E
:10219000AB35BC1C6320412F5A37D12D77120E1D51
:1021A0008C17DD06F107AC1094335A07A325CC1623
:1021B000870DB03C822E5F2CEC312F1F810C592EE5
:1021C0004902173E2226042B0A2D120C9F12E01002
:1021D0008D22640DD714001A5A1021135825382463
:1021E000D32618274D0E2701DC3AD30211006D3596
:1021F0004F040E1DB4239421381B8E31BF1886293D
:102200002439E03BE90D722215390229AB10F11B8C
:10221000D127E538D3154A20AA3F6B3D792D110D02
:10222000EB35C6330F1F1D2C941D912B661E0B0E14
:102230000C22EA2ECF38F62EEA0D4F23D011CF24F0
:102240000B05B111FF183C278E1E873BFB1E44294E
:102250006D32740DA8250B3DC507222111081212FD
:102260001A2C100E99308D0C0A29732A6A18CE097F
:10227000531D5D1F4309A9361E3FCC2B0E23A633E9
:10228000E310133EE5083F2463273E277725250604
:102290009416C232E83C092C6A04F5389A12E71AFF
:1022A000E40BB91C8B13001ACA170E09280AC50FB4
:1022B000F83BBE2FC22EBF363325393C10000F2904
:1022C000D10AA6055B010308C232501349186021E8
:1022D000BD1F8E23631A9D27963A6338CD3A671245
:1022E0000F03F004C702DC2DA221FC02E823543FB7
:1022F0001223F82B3D112B1EC4078A3EB234182539
:102300003A34431A641852021705B002D90747330A
:102310009C20F91D2A13100984282D16A30EC0191C
:102320009F3A0E316D338D119F0B4818323A1E18AB
:10233000F3260A1AE436CC34B00FA7120A350C245F
:10234000C2319C1A40263C230E18EF3BD030C63FCA
:1023500026037E3F8E22A23CB315920B540CF6311D
:10236000DA264C0ADE249C360D38EE0DD1157A386B
:10237000331BC7172914A4271217F706732D7108EA
:10238000501B492F6F157B3C962AA40D180C783BE7
:102390009018AE21203A283AE02265255A329C3422
:1023A00044176E0ABC30A3197A366B09CD03651B3E
:1023B000A522C21BBD1B2D0A473942098412C4182D
:1023C000080C4B0AB4323F26DB10653CDA1EB91C00
:1023D0004F29920CB1115F33061AFA036E0FD534F0
:1023E000A2065E0AE71A2C11B21362346F25FF3E73
:1023F0005F3F6E0E900EDA1DEE22E00C1931FB29C4
:102400004E32040E0E3D55084A045E277E0AC62150
:102410001905CB135237D128643EDC268912992145
:10242000FA2ABD3281216D09C32957153F00851C49
:10243000B6227B30D40BB130E3214223483ED02F6B
:10244000C91FA520BF35BF0890336C30AE1CD9140E
:10245000E2126233551F7016771C6421E31A4002A2
:1024600091056B33EA0CE92DF92F7E0A080ED61A76
:102470003E3D5703F92016244235CB036C27C62B6B
:102480005D1908314830A4009A12DB34521F5317EB
:10249000DF204A014934C428FA191915F6074A26DB
:1024A000EB320027C33FFE01E20A9A13D20C7624D6
:1024B000CD0EF528B119AB2C691D03001D22FA338E
:1024C0002E2706326A22AC18952AB0239428DC3CC9
:1024D00085349C080127CB2BEC05ED0E7B0973217D
:1024E000CD3A3507EE064A294B1CF417E60E1A0AB8
:1024F0007836B92FED0F641CF52B1321343CB70A45
:10250000A32440112634BB2DEE29873EDC2A923FBE
:102510008A1A81238D3E74248A2845246B2F042D2A
:102520003D204C178B29FC2040136615CD0AB31AA9
:102530009302A53FDE3BB107C313A22BCA2BCB3FAF
:102540005F10582EBC0F141F53340C12D3043916CD
:10255000E136D0283E28C4054F13DF2CFF39710720
:102560007F315F29FC38062B0F3C78254F2B001A52
:10257000B400AA1DF403D516F038FD06391FA014C7
:10258000481C9F17AF31DB26AF32FA326411703529
:10259000C1146802A6079632FA308336AF29322B6F
:1025A0001918AD23E120372C44109105771FA73E61
:1025B000B00D3F3AE00C5D14D8009604190D1E1CB6
:1025C000843D3E11BF38041E3023C20CB537E204EF
:1025D0009E36340194060B3D87158E0F350FE2357C
:1025E000CF28D72A1B37333EAD063D0F8D2AC82092
:1025F0009C2520009509BF091922D80443044B0FDC
:10260000763CC62BEC35970C4429AF0E323B8B1130
:102610002E26E8031A259814340E4D058A1BA71898
:10262000A7331016CC0B54365623890D1A342102C9
:10263000CC334118420B143B91344B36D13BB30F92
:10264000C404422F783C6C27971DB504810BEF051D
:10265000640473058A09B4137D313033E62FDA2A16
:10266000E513441254396B228D076E1CE717AD1821
:10267000D6220018581102135B01122C1B23921052
:102680005335AF1FE431351C151EBF288E1464313D
:102690007719212874102F1E1F2FCC3FC42DF1371E
:1026A0000E00301954346A3CDF01543FFD35C80434
:1026B0008F2C7A0E8919C20FD412B908BA31C21FF1
:1026C0004830F91FF11D000DED1DA3397F0E542771
:1026D000DB247612A91C31011820B824DB06B321B3
:1026E000E8196D21AE1BED15181EA71BA502DC1BFA
:1026F0000B2A2726C62F4B029B04563A87376E07B4
:10270000092B5938A03A0F1C8B359C24C00D8E3FE5
:10271000452DB6323A27D005A416341E250DA92F13
:10272000783E792C8208A83C4635830468168B30A5
:10273000A023980F403EA2308B1302059C2C8901E8
:10274000393E340532041A299C32610EF812910088
:10275000AA102B3E780F5B27402EAF1FDA02DB2436
:102760000216A417321EBD18B53D70040F3E62015B
:10277000E320752A671D502CC32DA218510109367C
:10278000BE356D132809F7200D28CB08101BE23C3D
:1027900040141501F52A381EAA1B1A2A752AC734B7
:1027A0000B24FC145E1AF205F31A3412A30A123732
:1027B000A838AD21ED23FA2D9E02092F3F2EE23CD1
:1027C000BC20232F433A9D000B3E1102322F652C73
:1027D0007A34551480157230DD3C0F21AD16A830C7
:1027E00059172E31E824CA28CD2DB81D6D21211B83
:1027F0000621D52FC2361907BA12652F3F04D01C07
:102800009A21EE29833A982C03029B3AC634B30AE4
:102810000F35C50D2C01E8381929D23B7C3AF30558
:10282000F019510BEF1F87004F240422F60B3130B3
:10283000503FC0001819E13AF43F0C146B3CD43FF0
:10284000FC3D841D2B2FD53DA336600E763D7F03C6
:10285000F3304F0048061C16D8001D2F1A392727C1
:102860001621B123D7370B37C6094C290708BD14E9
:102870001B384825603C3E0F681D950F1B088816C5
:10288000C72EDF2FBA0FD924D623E41E2B17FA3513
:102890005C2AAC206733AD31D93DC72C0236D53721
:1028A0004F3D84263E33A12FC1161030A9175D1964
:1028B0003D3F4F0E4A100127753F432EE820242349
:1028C0002030CA1DF2355B04CA26BE2A0C1C3418FF
:1028D000BD1ADD23591D6C1118034116EB24F214A7
:1028E000602A9B170703A6150A0154142511943377
:1028F000CB27EF03C8122936B60BCD30AC185A25BA
:102900006B11EE10D42D3D24ED01BD1F85028F0308
:10291000CD02592C302F1F23D32CD83ECF196B1248
:10292000501FFF035312192CB10BE93D042F193628
:102930001A34E00D0B2055210909721D7E29E61F6E
:102940004F054A06A105F51DEA2C98343D2D293383
:10295000803AEE1A3B3ADF338620E31AE718FF0687
:10296000611E8B1E81160E1F0117CB2C0F20AC375A
:10297000BF251402830259198B2F6504B905EB306A
:10298000B031200ADA1D4723B02438171D3B553DCE
:102990000B0153180C062304EE1CAC38AB26593F30
:1029A0001A05732C351F06188730921A4F176B11B2
:1029B0008E0D862EE202F20399388934F6271236FC
:1029C000B23F600E403979006B3B923C4F170E11BD
:1029D000E30C702C75206329080A4320D517733146
:1029E0003F1CC0264D2627161223FB1B0D1CA81DBD
:1029F0009D1B38131938A502CF2E8A1D0C236C3568
:102A0000BC2B7720D30CDA3A88281A1F3C097200B5
:102A1000BE1B5C38862D6D2E120912375F213A09D4
:102A2000D627C335EC1F600BAC067B2FD2194C2088
:102A3000402F6D215817C0280C3E3C1C163216043E
:102A40007115A003D60FB32CB318C2388C044821DB
:102A500090020F2890375323880455047F28752748
:102A600024377C2B720A683FA510F4256830B50125
:102A70000D27153511047D316B035C2E6C08A823DE
:102A8000B80F9F34C80B9D3FDB3D970528397C0C60
:102A90008E3DC130243F030E28005833B112F32B72
:102AA000AC34EF21813EA63987237512D6031D056C
:102AB000D930663DF41F46074A1D9C0AA721630FC3
:102AC000B430F91B6C2C3D262C1FEA1B3A23AA05B7
:102AD0002D000831130B802CEE289630AC15FD2309
:102AE00036367522F93EFD32221F0B2E660C8223EC
:102AF000B919B309F41A2A2D463B051AA1111E3241
:102B0000CB219833C10F5C3614290D272B1BAB1337
:102B10002205A0076E38BF391725A43E6A0707367D
:102B2000C40CFB3AFC087A108130B21CA126163482
:102B3000011E6D2F3F03631B3B2EB30F7214053E26
:102B4000A32FE52409166C043E3DAE11A3252213E4
:102B5000631EEE35870A2C262124EF1F242EAB237B
:102B60009D143926EA23E727F2214D0050232E0B2E
:102B70004739663E491513204838D61B731E0B1F74
:102B80001F1A5D24C5316A219802BA2C8C03110CDE
:102B900023053423ED3ACF34C72E52325310E53A91
:102BA0004605DB2B6431450F012BBC067D17BB3876
:102BB00060363638C10B1615C81C1D373D2C310147
:102BC00065248F0FB6372B1C4F35D71F0E026E139F
:102BD000D92976157309132E08378419AF04940F79
:102BE00083019D1D4C3D22387B0000206F2C3D0F42
:102BF000603FE23F982F003C59305D03AA128223C8
:102C0000DA249312DC2E0427D1367830920AC301DD
:102C10003A041D35290C391921284B1532023C166E
:102C20005A275E16C20DDC176F247209B02F4A1C9A
:102C30009D2DB43601283D11D928A23ED20EDC309C
:102C40002315FC197A20DF02C91D812CC332CB0762
:102C500039234030603F662D8E3697201530153968
:102C60000F2023202733C31D2836171B0923863B3B
:102C7000AC19403B6B0A5627622D82050E167A1757
:102C800025222F161028B01026067B05870C142A43
:102C90000C3DAE12A9155C2B0C305E36D1354E00C2
:102CA000273014261D181F383302FD03840C312DE4
:102CB000622BA73F872A571B5426D121F72544189A
:102CC000053C3B155E034B2A142161290936AA2CC9
:102CD000293FA227D607D210980B5D191F0BA826F3
:102CE0006807671784111C295E12B2226806291929
:102CF000D329082C482A5F334B0DA0226714E10624
:102D0000282620386622A323FF040326B229C037D1
:102D1000441E333AF624731670399E3BF70741334D
:102D2000D6103F207E2E992CB63DCE263F0F7D2714
:102D3000550B2502DD094A38233D963A761F8C3320
:102D4000330789086A376D15963DF5232A0E613ED3
:102D5000522672095C2281291033DC229334B4316B
:102D6000B702861D6B08DD2F87389228D3197D178F
:102D70007D053D37B7378A1BFA019E217D3DB0376F
:102D80000B39FC33E9062212C51B1C065B062230F8
:102D9000890A3D05972B1712360BB7266B19702140
:102DA0008F2EB430ED12291C5F2497232B1D4E3E2D
:102DB0001F1D1F3988201E3A2D29DC36162D471E6F
:102DC000D5187D31A5376726B905C53A6D01DB3EBB
:102DD0005C35CC287A321A37DE3DBF253A0F5E3596
:102DE00024118C18E32B38350A20970191240716FB
:102DF00051366513413FAC0D59110B201905FC20CC
:102E0000F616A7169F22E005DF06570BCA0A6301D4
:102E10008218EA07153FBF3045004D0EF70EBF3C44
:102E20007A22CD33712B9C0C961744228F1F4906B2
:102E30006824F229132DC51C5A3A1D239F040F3311
:102E40001307342117235A05E41F99371A1A4E3CE9
:102E5000EF3CE523B93FC51AE8103618DC015C0EDB
:102E6000D625D912F533010B5014390DEC31680F0A
:102E7000F839953D6E31453B4F1538370123051321
:102E80001030FF3990266603B51684294723B119FF
:102E9000D812331DF81845178507510C6211EC0E36
:102EA000BE394D3D12025510C40CF83AB303080167
:102EB000D818EE2F0312DC2B9314050AD91F121C0D
:102EC000141C7736CA3C4C208006B40E7926EA18CA
:102ED000B301CB16A1352D331825CD364237C82B7B
:102EE000F7279010A93CD02BC03402222B1150257B
:102EF0001A027A3BC522BC33C43B5036FF124D1038
:102F00008228851DC5277026B02F68241A006C3FC3
:102F100033383020C716631DDE236021740DE02294
:102F20008535511CD904EA2C500D0235DE3A8E0944
:102F30001626DE14E3156931BF2F05298C3CA71432
:102F40000116E934C32B0B04F3071103D3388C1398
:102F50004F3C353BB923812155074732321EF030B3
:102F6000AD32FE210506260EC234073F9615700DC0
:102F70005F34602ACF0BAA07A1067431D914A517B4
:102F80007418071C461F5437370A7E368B15582A8B
:102F90003B3B6A120A3A3D17392C190DF533023FB3
:102FA000F50A301CCE05CD3AA236DB0A5A3AB721D3
:102FB000CB2B96363923A22DC717F339801CE01B83
:102FC00002272D390D3B090EA806972F6E276E118B
:102FD0006C194B358A3D75378818761276292A2860
:102FE0002115053314348930BE1B630275166E1F1C
:102FF0006F2A441B13091135CD0BD225592C451FBF
:103000000E0C4A3E1A2A5D19B232AB1CE31BD41DCA
:1030100098021C2F4A28DB077D0B7B1BAD398B30B8
:1030200037237002F83AE43D233A1F336E3BAC205D
:103030009F3D7A398D08AD17912C9E117D051D1885
:103040003F35160AAE19473704395735930CDC283B
:10305000B239720D9C1A470E970D190ED40FA406A3
:103060007B128417DC0EAC1E1D05B224102FD40376
:10307000F131D63B1A1BAA1C3135C2324521D8008A
:103080007803B52A490936128A09FC06680F060436
:10309000F128832B0F2BAF3C930038276417D527DB
:1030A000731BA709603E36373A1D882E623B5602D5
:1030B0003A2308086838602707226F134B019A2BC0
:1030C000DF1AC906AE1A2E387129C80E8A06E72CF7
:1030D000C93113177636C0066C2FB117160C37019D
:1030E000E321C41466028E2F46208939AF3E0204C4
:1030F0008F0C850C6B261B00B300E127673F9016F1
:10310000D932F931DD21432A26035C2E6330120ABD
:10311000EF3C2824E02F1912611E1811E309AD2598
:10312000D1046A190E0E842F4F39E41A7F3BCC1755
:103130004418661F520907281100FA39B21D043AD3
:103140000C26EE31163579055636FB079C37103ABA
:10315000590A6704A0303332EF1A601F031D3B3257
:10316000812EE227B91E9E3CA230EF349A28243BE0
:10317000EF2F8B238F3344093D00272886163A0909
:103180005B02BE38DC3C0926EE27530F1D03493D88
:103190003B0128374608E320D20B4D2CF011A6390D
:1031A0007824373B080CF03ACB3B150B0B01C918C0
:1031B000640CE528D23522149522A2347A2C0C1FF7
:1031C000EC18D619EE030F261B12DA1B0F060304A8
:1031D00009004027A30C84240701BF09630554108C
:1031E0007C173509DE17D911970DDD351914202804
:1031F000BA05F83C0D2F791AB7190422693A4F0F16
:10320000240E4A3E4E078F184B14BC09DC0F5B2975
:103210007A2C7C0BC929C714CB03CE1F54346D11F3
:1032200091335B0C593E9E35152605244F15191612
:1032300044239220711C2B3A7D392B1A6C03F7150D
:10324000A829A61D3D06ED21290360362D1C432427
:103250008303D31E0732252F9C26BA1BFD0B49364C
:10326000FD2FBD2CDC05F1168F22AF15752C8820A3
:10327000982BB6176E29C8270707781CDA02031D9A
:103280005D262B003C12BD0EA3388025EA2289372B
:1032900057294705F02DF22B3615B13CD7391819AF
:1032A000451FE12C070F5539950DA43E9305120DCE
:1032B0008A34BB08B63F542AB10859304E3C2E120E
:1032C0006802820F0C1F010AE723D41B3C28DD296A
:1032D0006D398332532C1C059624691B9B3BD43BD0
:1032E0002C3F8A3FBC246B31F22EA73CF420902463
:1032F00030339B1F3A17381917162F19A00B5D058D
:103300002D0FE43AAD12C1136119513C8D0CDC0E46
:10331000791621274312841FFA228909422F782C1B
:10332000B908792B1B0C220CB31BE20E2023011CC5
:10333000DF0B7D2A2A064D2D17288508EA34D70889
:103340005301B63362151119BD220135861C1D2AA1
:10335000703AAC19102B0308DE27EC250423731FE9
:10336000310026228514C51F2606613BDF24FA138F
:103370002B226C24F8101036CE289A0B8334420C82
:10338000BE009607AA21710EEA0E64080F214D3582
:10339000870659204B381135FF23B8025B256C197D
:1033A0001805632E9C27F807D80DA60F3C039D1720
:1033B000EB284923553A000499033E31060F5F2B51
:1033C0009338E01C48149B2D14027200522F3C12BB
:1033D00033136A30C5010B3E5B31433A00153C01A3
:1033E0003422FF1F4019920D950F4E297F2F0E0496
:1033F0003232EB1D31131319153509254B218D2957
:103400003627A6163B3CAB37A8052718B73801323C
:103410002A004A08902525392E23D20FEC30363366
:10342000891D56199337573B6B35CA33313F7801A5
:10343000553F753FBE0A5B301E1BDD3C6C301013E0
:103440004E2E1A25C52AB61C5318AB28E81A143A72
:1034500060046319FB27FB30F51528395728AE2E79
:103460005C08D523F51AA220A60630081B3C883636
:10347000EB10E03C6C3EC72DD304C535C0391D3D73
:10348000BE226D076703BA29023E0327CD2F753090
:103490000A3E9C069903C7226E3FEE2DBC2AC63613
:1034A000330F72300736E802D437171C4534761FC5
:1034B000C736BD21ED090D078F02211DE202A51DB2
:1034C000AD1C2504E20BF81DE20F643F8F1DD237BF
:1034D0009D02950C3A393836943EE919D237813F2E
:1034E000D2091D29AB25223FC23A932CFA098C310F
:1034F000FE1F23093217B436F0352A23AB29EA33ED
:103500007E07DF1C373CB308600C0F1B9926B324E1
:10351000CF2E9228EF1FF71FA72B080F922F130013
:103520003F0B20380101221C7C0E3A12C2033734B3
:10353000E72AD7376C2E470AD321C9133234D63A3B
:10354000D8319102A70E50102A27C31D9139A834F3
:1035500093361C130935C11F2128451437227D03DA
:10356000BF31712A6B29BD0E500F462B661C963851
:103570001535A60C0B06A61C543AC232D220141ED6
:103580009E1D340FB20FDC032B19CB276301803053
:1035900020355423192C330BC12E572E3820681098
:1035A000D5360212881AEC30CA06C308EF129018FA
:1035B0005E2BF43BC012810DD23430382336F02A12
:1035C000F60FEA091B2EF3179130932935357E0249
:1035D000EA3CFE2FF03E33168423413F4F0A470159
:1035E000483FF70C3C3ABF2CB83BD60BA63A6E26A8
:1035F000D6197F0B7E17F206E8175C2AFE12F83503
:103600004621943AE10A0E30CA20DD157328950947
:10361000A7273A03A03DFA09A523A7197521BA25C2
:103620001D2BDD16A5283F1C27021B20130BF93587
:10363000D43B510374353C22740BE2117D3E642E61
:10364000310DDE11470934158212823FC31AA632AA
:103650004A26F535791ECD1BA3150625E21636063A
:103660009825CC082710351F630B09000130192855
:10367000EB0BF008133CB33C93282A05F7373F18AF
:103680009D02BF2ACC1E113BA533CA2F1108C820AA
:103690000A1110080B0E4B143A39B32F111CF522E6
:1036A0003F35812D6035C827F935803078190022E3
:1036B000F013BB190D39C10DA2093B0808075826A4
:1036C000AF336A2A32236B346207590283388C2D58
:1036D0005B37370A293F6F386837B90BB93224078F
:1036E000D60B6D0E3307123FB71D5520C10BCD18F9
:1036F000FA3C77195308130F3E1AD83D860BF22C6B
:10370000CC25BA037A2005382536AE138510470A32
:10371000F22F6A2EE33A282569328113D43C5509E9
:103720006216B31EC02E8802AA2B0119652FBE1A7D
:103730005C1F1D2A1624E7074327FE268B0D3D2616
:1037400099010523E522D8169B1D370FBE20680B73
:10375000C42842148B309F0EBA1556339A0C3F1270
:10376000290D2129691F501B1F265D2D2D21DF3EAC
:10377000AC12D001C634840CCF2EA92D710D8D0151
:10378000FB227607F308C104B120F8291736C426B6
:103790000737E325B0051A141926B9148634B10287
:1037A000AF031826CE267830A200751322024324D8
:1037B000BE3D0B341521D0024030F337D1135C36B7
:1037C0001729C60E671382149437C816BA29F22D2A
:1037D0002E27A61A2526881982118A084F17DC1170
:1037E000BA38671ED03C1115002C6A168D07B8290F
:1037F000A8260623F31D0B3D313C8B0082010D14DE
:1038000052067B3840353408B13F22010F31A70DF5
:10381000F00C7234F913AF17323F020DEF37D13C81
:103820004E261F0091132D334726730DF70A0C0700
:10383000BF02480E923EB03B7F047A319F1F6D0756
:1038400051109025C1231817B60B851BC02D131BD3
:103850004113CF0C7F37FE13A61F8A0C9E094C2004
:10386000B111590A7127C234C40AE304291AC630B7
:103870009806773363047C27492C3A3E802F060F45
:10388000F90F94196926C9098E336F0EB53D453875
:10389000570CA906472F01319C3C5A32D73FBF1520
:1038A000671BEC34120F742B032252062C07752F62
:1038B00007365236162F8E14EA172C3ABE3A2517C1
:1038C0006F113F02FA26D80D6724E714180B9518DC
:1038D000A501CC3922207F081109F431511EA72CF3
:1038E000360F1C39540B3C38D231CC2C493870136C
:1038F0002234E4049D0CBD1F013D52283223B4360E
:103900001734760A7501C821AF309F13521C0D2E53
:10391000E203092D210534004031711E06091919F1
:1039200022343D205817FA333D0D1F3209382A2E14
:103930003E13EC2C2909023769327001F632CA05B0
:10394000983ACB3D1B146E3A1120A6370B24D908A8
:10395000023B1E34953F350AA82AA12E2F14A4300D
:10396000701C463D8038E719922439223505033A08
:10397000EF2475172A3F0B1E40006D2D622C0B079C
:10398000D61A6A016D0FB8027C3FAF292C11BC31E9
:103990003A3644061027F8010504010B4414630E5F
:1039A000A6355B366C0EEC345E159821D6229A193A
:1039B0000B0AA81F5207FB3FE22F182D0F1AC31C3A
:1039C000F50D7A272C06D5161C31F022DF1E85084E
:1039D000FF3B7E226219FB1655358302002E6837A5
:1039E00089184C03FE22DD106D3ACF333628AA1712
:1039F000A702C93992083A1FEE1B3B31D71ECB02F2
:103A00005C20F921593DC11B5D3C8F308D248E2FE8
:103A1000071A8E169B0A1136D42F2B035A265918D3
:103A20001D190106563A9730CD3B252FDC10671043
:103A3000183E721F1A0880343F00FC1BD2052E0668
:103A4000AE01051A343C3A14EE1DA732DE25390DBD
:103A50004635A93D0E155822FF2D80338B325C353B
:103A6000A716E721D522080ACA1E3A0A920C5D2D34
:103A7000F22AFA355C39F40DF3099F29591294336F
:103A8000D2149830401C0F14BB17DE23BB22732CBA
:103A9000F119DF0B4B09CE2E9303D0090E084225F6
:103AA000AD0B43371D050D09F215D330610FDA1C3C
:103AB0000B071724080E733F68278F3D05106F35DD
:103AC000EB3FC12D3C19DF32F10095364E273E0504
:103AD0007D0B2B3B233E89098E2D4A3E9A2CF830D4
:103AE000F31D82270E34481A1111A70C9221D22DF2
:103AF000772FAC0B110600353818C510B022F11A1B
:103B00005F3C4A232A21321FFD15A314001C3C36BA
:103B10009F14452FA82097092C22EA3429063E300D
:103B20007F2E7C07CA3CC53E350D4F2FAE2F533933
:103B30008D30D31CA53F5038433D7D3E7116C000EB
:103B4000D426CF074B24FB328D08AC0E79153C38B8
:103B50004D17232529047F30EB20393CF42A9B3C68
:103B60009529A424B1369429AB24400A7F1A720205
:103B7000E01514373807823AA528402CA42F711479
:103B80002D0F540F2025812A8C0F0808A324D1144F
:103B9000BA1C2A03393267108702E63D74319E133E
:103BA000BA16370264133D28FF1EDE210C07BF350D
:103BB000453AD70D7927F332BA2D450ADF3AC82B9B
:103BC000900840066A08A01E28373C2CA626E82844
:103BD0005D25161FA83ADF07FD08273E61005C013E
:103BE000B4285633C52E1B17FF00A3289F2E46313D
:103BF000D31704055A393D2420312129FD1CB8284A
:103C00006239DE332A257D23CF30113BEB14633C30
:103C1000EB389C0E870350048A2FFE06B61E332C09
:103C2000880D1937F41E9D22B71C572FC12E053E53
:103C3000DD17D83A0B345618B438D12115232B236D
:103C4000482B4109A014952C2C232F381D15B9376A
:103C50005736B3172719093CAC3A461CA903D81AA2
:103C60007A3E933B5204671675215F173C19F12386
:103C7000F922F233FE3CD324933B120D83128D11B3
:103C8000271BA6214F0232172E3A5B0B22099B00FD
:103C9000D8239D15193EFD101F089715B6269E0DB9
:103CA0000F10CB2C81195A3BC62B1F3417047A01F5
:103CB000FB30911EE33755081A321207DD381A29F6
:103CC00024094719F63B433C0037401E251F99063F
:103CD000E13E9E272E3B160DE11EFF3A950F0A048A
:103CE0000D02AB3461037F0576156E089C19990FA0
:103CF000FA180622AD160C32E525713CFE3BF02E7B
:103D0000A408A13F98019A2A1100D2048F21CE085D
:103D1000290C673E782F37292D3F93013E26A507B2
:103D2000780FE1101421D6129205210D5528553B2C
:103D30004921572F8B297104D301993DFE29E63281
:103D40004C10342A74158D2A0D313C3D0807941D02
:103D5000A4273A1D4620DC0F8232C904EB02191554
:103D6000963EB323FA1B083C6900AB2D0933DF3DB7
:103D70007D0F2008EE2E1224FF2168153609292D0B
:103D8000010AAB2C0C0CFC2BE12A6D147A023005D5
:103D90008814B9232B09610C9D1BB319153E853C72
:103DA000EB30CA24B43701388537CB27C2001F1C3B
:103DB0006D389B3088239023C723302040289437C8
:103DC000E822873B211CB73FBA23333C0D139010E8
:103DD000480D7435F72BEE177A06031974002A1272
:103DE0003D33ED1624226813B619523BCA2CD13646
:103DF0002C10E6014A12B71DC8350920F32DDC1B33
:103E0000661B2F3EB42E513D0537E71F2B140425AA
:103E10009B132114BB2001355638EB3C021342089A
:103E2000900DB5276A03FF3C07230217A836231419
:103E3000103A78116524C10EDE27760B6A296E2FA1
:103E40001F178215062F49366F35B7047C0DFB25E9
:103E500075008E01C825A20AAE3FCE2FF92E340B75
:103E60002A13301EE80DE627C52C752F2712D70B15
:103E7000AD18CB224931B63D283B6513FE211D36D6
:103E8000FA2CD11B971AA617E5347902EA02CD0D58
:103E90000B14443EAF2F3B304004C228CF0DFA38FC
:103EA0008F327C3D3E0EC5047F3D232D4E37E53ECF
:103EB000D91D3C18A70EFB060132791D4627910437
:103EC0001B3756232A11ED1A952019229D047D3E99
:103ED000D305E43942390E1B0817EB324039D20CB6
:103EE000840555004D3BD112FF18781E6732AA0396
:103EF000A91A1A187220F6180720AC2F1D217B1B57
:103F0000E6221938BE247D27EA08962EFF3E851347
:103F100080142C0A9013581E4402A63C431B3718E9
:103F20000F2192123706C1095510FA1AFC33902F4F
:103F3000720FF11AD928E333173A4C0A9B1F8834C1
:103F400002014D2A9629540592339A05B80AAA3DD2
:103F50000916BD3DEC350E2F6F198C0B120E132276
:103F60007525A02D5C2A9C1DCB118A04D4204427E2
:103F7000C83BFF174E18C83D4E263F2D1A2B1B3A43
:103F800052151C2631062F027B2B9F34B23CCA31BE
:103F9000A2078D1FE60D471C48094732262C410514
:103FA000390EE63C5E3D751DF138B813FA21691EE5
:103FB000812EE904811D8B3B080CA7053114D32207
:103FC000FD26EF1D5103172AD110AE2F1636B73339
:103FD000C01D10004F0F442DCC27392538204B270A
:103FE0002302282F1D3F032E921E221CB534D32FEF
:103FF000B215941D64352F00E423D100BB03C329FF
:020000040001F9
:04000E00FFFFFFFFF2
:08000000FF3FFF3FFF3FFF3F00
:00000001FF
