:020000040000FA
:1000000043016A2DB122862819150A0C24221A3BB5
:1000100049145405021B492DB735FA3F0310C42C6F
:10002000EE0D103992296B2461248213BC2BB01F72
:10003000CF00FF19691EBF347F1EAB1F261669074C
:100040007A1CB216C71B481DEA2C9E0DAA1BF42B66
:10005000410359176819BC28E21FC20E2933DC1B63
:1000600052295F1F0818651F44167C031D07FF27D0
:10007000041196122809603BFC03FB3EFD2CFA2676
:1000800073387132122FFD0EB82B9316E62E5038AE
:100090004E0CC4161B39DF22DD3F3C02770BF637CE
:1000A000EE3389062820EE31BE1E2A3DFC0F750373
:1000B000AB0A813572075E380B1E1100CD30A738B0
:1000C0006B1A872C8D255C318719443EF803C735A0
:1000D0007B2B1E39A5394708FD38201A1D02F00078
:1000E000A13DB7360B11861F7421E8179931C4243E
:1000F000713E2E36EF20AB13A105342FE71FF42EEF
:10010000DF10F3276F3875069C09F52D420D042684
:10011000153ABD3FD00E4B3ED62D98138D2E283468
:1001200087076C270A3244044A35F13A7729D30706
:100130004302A62E89194A29F33AD524DA2E7805E6
:100140008D035A3732211E027D2A673F6417E53B33
:10015000AA3EC201A330AC063F101F167826072323
:10016000FC13D015BF1243236734DB175617B72E85
:100170004F01F41969011F067635EB317818513AB1
:1001800071035E008E29A021EF1568343F1989386C
:10019000073D323A692BBB174A319514CF0DA73B67
:1001A0009E36550C011BD42D2F0C7B28360D110FBC
:1001B000000C2B01F604B225E033FD12D32D491AB1
:1001C000C81AC9267D3BAF10F620552CF5034021F7
:1001D00038061E07A92F0C124F118617C226AA1423
:1001E0004A24AC18EB1A793C460D3E35591FCE1007
:1001F0000428F727DC3C053A250CE43E3B26921008
:10020000101D941C3931A134D72B8D3CE6125A0FA6
:100210008B08E0062D22A03CE12F9F25C2212A0D4C
:100220001D03132DD61A9832933BFB2841344E3FC1
:100230004920C305023E68067A3B3C26402F2F2BFF
:100240000537B4333825EC361832DD10B31BE21A0B
:100250008D1F7200FF2BA230D61B643F822DD2115E
:10026000733AF1295A2B0006391E3837AD14E90DBF
:10027000FA14791891294A1654369238B53CFE047E
:10028000A53EC90E3602E5277D1ADA383E1E382112
:100290000A24CC03660A9C1D43030D23F00619189B
:1002A000EB02C80C4F352A239F0FDB199F3BE1104F
:1002B000860BCD1DF33C1A1968383B04AB18660653
:1002C0002B03980D2B13C4120C073607A8148F2884
:1002D0000F3C642FED1E360F7C039C0D4009A620B9
:1002E00060367F01D1093F27680D5E2B5826B10B80
:1002F000993E2400D021262CAC14E7057133A72D9C
:10030000161D5B124F13F01B0925032850035121C2
:10031000EB2AB8075B3F781D17392B2EE13DCD1135
:10032000F01FFB123632DF287A0866225824BF35C8
:10033000202E0C04123E7C1B5405E43C9933D30F51
:10034000233EEA3C1C3E8702FA3CED12DA086606C0
:100350002821F40DBB058F30E90F6700852C403B49
:10036000F80B0E381900B708FA34DC3362277B1615
:10037000482F4603E203D722D53B1819F50566033B
:100380004E01AE384A1F321EA302673E242E5E1D68
:10039000960CA30255201501071346031D2BD213FB
:1003A0001518B939521DCF024E1A72207613D7197B
:1003B0007E3C6702A7018237E430AC17952D852576
:1003C000D43A713AD42239320925CB3851368317C1
:1003D0003F287C01B121E23DC53CE700D92D6E02EA
:1003E0002303C52FFA1B9E3919239E32D40E2B3EB0
:1003F0006F050A2E0D324F2476346B23C913E22A7F
:100400003208020BF124D92E721E740CC12EC814AE
:10041000730C3E239A105B00B906B51C2B172703FB
:10042000413DAB106A06ED33412D0B32FE11783C95
:10043000083F9C0CFB0B8900C13DDA0D24183C2DB4
:100440002620A13B1B02E5396304C213163FA30912
:10045000BD3EA31217384838B839AC1CC3077339EE
:10046000CA37D6113C2F6A06EB197A11B637130C2E
:100470007633B2319A12E80A393BFE35772090265E
:10048000AC2251210B27A117A01719223039C70818
:10049000EB01670173372F38D63DE222932E83009C
:1004A0005C353215480117227C1D1B1CFB0CB32246
:1004B0002612FE3F542591319322D731D128E40AE8
:1004C0000129EF33B920EC0C2E14D4263029C43185
:1004D00009265E2A36122E0B692A3C0CCC18CA0A51
:1004E000D4191621A80F6700990F58270F21DB1187
:1004F000C63FD106D20F1210C400940F8413B73137
:10050000A315282E602CA6135301282F78258805C3
:100510006518A60D2800623D06165729DE019821B0
:100520004F3A7D1FB3252B26273B150E7315BB2293
:1005300041263108FC196A2C020A720322391B0079
:100540004E24350B77075B3A9301002CA91EC82176
:100550008B33E513543DC73F8126A5067B23E91560
:10056000292D9821041744364B2E623AE82D5C1150
:10057000C6048634FB170B3CC0295B177A386E041F
:10058000FF397F3FB83F3808B422C720A22F4A2442
:10059000490FA305021AA510F020C33894054F3364
:1005A000011AAA24730F130D6A0AA2026E204908C9
:1005B000C03FDD283A3AEA39B5122D319F06B534ED
:1005C000F43404091B033B3EBA2D2B20862D15372E
:1005D000AC10B003BA0A7E11A839FD21590E0106EC
:1005E000B20948151923AE1D2814281F4825863D39
:1005F000DE30B63C5F1D8B16D50EBC04E13EA1007B
:10060000A93C9834DB2FAD0EEB36D33BB6378406CE
:10061000003AA32D47387B333D240A263C121005AF
:100620005A36DA0D501EDD096C03453DF506FD1105
:100630000C37702C551A1A0B550F8706D1323728F4
:10064000DB11FF346F24E123CB2D080CD1073B22B3
:10065000D23A6E23B10F68238623F500EE23C13111
:10066000561B840DB015D82D5A13CC343832411492
:100670007706442D45167B18AB3C1F34413A1408CD
:10068000881ED128910F310F202D5134BB01060A4D
:10069000F13F010F4112291E961949365F24033D8F
:1006A00042054E241236C918571209251006BF07F5
:1006B0008C38D23797126D3B8B0644074003620C8F
:1006C000EC053A2C39004539ED0A060A92039327C6
:1006D000670304237F25B816C2175D0DC1121704E6
:1006E000FD21B5119014132B07322D3EBF234F115E
:1006F000F81B4C16F53CA31EE933B7282122623BB8
:1007000084348613A235992C7A28D301B935193649
:10071000841CA63B3623A916A12EE50F841C4F3559
:10072000A2107F12813E5D1351172B3CC63E252A35
:10073000A8042403473FEE13FC32BB377321AC08F7
:100740000E308E2B432F4D134A023509D11AE01873
:10075000D30F800E6E292E02063EAF3F5A2DF62D86
:100760009031EB1A80096023582A1018E62C2F3A92
:10077000C91B5F25B60F5F1D39294F3B09120022A7
:100780008627E71CD63C34012200E430B91FA6219D
:10079000211F8716702A9F2806059338343F5E2252
:1007A0006236393A652378358326C4342036CF3A09
:1007B000C82F7337AD00750F53031B12F31ACA26E7
:1007C0002903F60E540E28230805360D942BF40742
:1007D0007D191929C53C8A0AF8319C33422A102117
:1007E000F53177244A22FE1B752A4A0CB524FD02F6
:1007F0005204BB25D2104E1541050F368209403BED
:100800007534D027F503A12C403F7231C32F50120D
:10081000312B1B21352B443E6F326120F6342002F0
:100820006828B61F87146013140870222515CE1D82
:1008300055227B31113BD81F371AB82847212C2865
:100840002506EB05333E961C50381E2BE6375232F8
:10085000CD2D280DCB04FE1B410393090124A213C7
:10086000171F8211B51000308614EC013306570CA7
:10087000FC27842590060909AA24491D142C533805
:10088000392CA910C72D9B32FC243722DE399F1446
:100890001C38D80DCF2C601A8200C139530A4B1472
:1008A0009E2CB829AD05D8002E38FA08DE2802148F
:1008B000B6185A29BB161B344F0E5635F809840456
:1008C000EB13B73CAA23432D4A356703CD25CB252F
:1008D0002B2E1E11CA2AA20489354B151E192D0D67
:1008E000DB08AA27880ADE1FB23E670A68303B3A57
:1008F0002F2D0000383BCE331C18442546014A1FDB
:10090000BA333B211521CF2A7E24251913361B0D1E
:100910004811AD17853A3633E92C931ED32F9E1B11
:10092000EB1C9F36A02E3029F7260A085322820E90
:1009300053234B3FF33FA63F442A6F158E0E4211BF
:10094000631BD83A802713051D09D538513F281E4F
:1009500000108231091CE32F77005119222C3E3CF4
:100960002B139C1E8D0904122333BE0B5E26EB2332
:10097000510ED10C123D38013E240215A134161738
:10098000E1038B39A508AD01ED24CE286900710281
:100990001F16771E9F23792E4A292F02FD392428FE
:1009A00037278906290B58189938C7238B16F71A49
:1009B0009526652D01277302BE2C8233900C1C12E4
:1009C000731F53367D36762FF33461247C32C41B7B
:1009D000B31CEC3FD009F702B50F8B0F95232E15F2
:1009E000EE35AB048B0B6A04FF2FAC071A0FD21C39
:1009F000CC192E34671EEF05BA010F16AC15921CE8
:100A00009529B62D41133B0A7301CE22E918952092
:100A1000083A8308653B3E3E4E1B71305A21732ACB
:100A20006B0D693A0E1BF2343A05882A8E3E012975
:100A3000E31A4E1E2D0043126508581D86058C32A0
:100A40000537121C6901BB3DF22D270653113333C4
:100A5000AC31F81667294C1AE902C93EFE29E13982
:100A60000C3D6E384A12202F6F27CC3FA7356116F8
:100A700007321C287D355939361D4631F01779204B
:100A8000BF05C918AF33E520360936179B23E43478
:100A90006B0402291F19ED1E9C1CBD197102F20F77
:100AA0006E251E281922612B0219783765379B287D
:100AB000A50CF928BF03CE24E1235307F91E5428BF
:100AC000000D3C0D0C3D6002431D4833E111E4155F
:100AD00054004B131634FF27BC2D4B1DE50D8F2AF8
:100AE0006E0857379223E3179A3FC6360B09F21A5E
:100AF0006A0DAC029D1C4D305B179F38F412730ECB
:100B0000460D9B24B920501F5F3FF61086284623D0
:100B1000B110832B15183136DE3A102CCB1D162858
:100B2000291993031028E0091B34471218027A018F
:100B3000441C6131002EF51AD919B33C7122FF3ED5
:100B40004C208E112E22651D0E20DC002B0EBF13B3
:100B5000110E801125274A33D6174A00D3017F3F53
:100B6000FB0B4F012C09AF16AA127A0E4E1CAE21B8
:100B70005E3630090F32C318D104F81D4102103D12
:100B80001209A80625152C21161B480FB2134E1466
:100B9000410E73048F17F012BA370639EF17AA12F5
:100BA0008226D51CBD38920DAC0ACE2BAE03702325
:100BB000273E402E363FF80CF738E43C753D650C77
:100BC000D203B93E972DA0197B07D82B3C04CB1537
:100BD0004E342F31DC03F838DF3C8818501CCE2B04
:100BE0009B0F4F11DE10510BC52E250379266A3B52
:100BF0004A0B78141C188B363F2EDC365F05CD0669
:100C00000B16EB31BD0F071A8207163C29355E1C07
:100C100084008F26D53A360ED908E52866390C3778
:100C2000631F3033E7239120DC04BC373005D02F1D
:100C3000B63ACA13AA3BA017E103C6058E01290ED6
:100C4000791EB91410200B1BB118F93D1A16D011DA
:100C50007020DD1C830FD52C7E0CD23BE3172C09B2
:100C6000372FF82A710CF6031416920394028C188D
:100C7000973E0C1E0A35FA204F10522DD51F160C28
:100C80001A25B73D48131C3CCC23691FF000CA1B32
:100C9000E03E633D2F292D0DE317A73AB82E7204CD
:100CA000B329431D563D0409D43E3E23A633CB3B16
:100CB000592E6923A52B7A2A3F31F70A44243E3066
:100CC0002A2B2F0F5F3E171ED90CAC2FCD09F536FE
:100CD000E113FC166213231C5D2A913B1513A42C0F
:100CE000B61A313DAD11C414BF3E3D26A62FEC27E8
:100CF000AB16643223339E01A71BA31D2B39471E5D
:100D0000263B92018E262A301D03CF0F120FF817B3
:100D1000BF34C52CE50D0A24800203116C082A3B60
:100D20005B3F2206D11C3009BC08AC281620D82B0A
:100D3000790973206D1B0317BB2B1E1A1E3F6A3CDB
:100D4000CB38BC2B4D1103081B11FC065E09661342
:100D50000824E00BC21C0831222E4E086D105804E6
:100D60000016C0195B3A6220EE12813BB810B70E34
:100D7000F02D2508AD00EF13F0342621EB1CAE1347
:100D800017310E265714401E9B2CC81F951B830D30
:100D900089214A154018021A571A790C0A3BDC3E81
:100DA000422E6A3F221E8830BC2630008B3F11281D
:100DB0007D10E7294C1BDA20FC11352CA40FC4321E
:100DC000462A5A25A32525089F067833D522F532D1
:100DD0004E3AC028E93C0517762342227436493E34
:100DE000FE38E10141249511C930C33CD12C4D3965
:100DF000CE32573CF20F0226D23409069A3A8D04BD
:100E0000D633A42A6B2B93076F1B2F0881065A3BFE
:100E1000A418C31D863B3C0E12255C321B1FD0312B
:100E200050185D281021C11DFB10712D0B2B982926
:100E3000CE1B2939893FF80EA936D2235F373B0BE9
:100E40008336B724270C460A8D021F273908BB3684
:100E50001A14A73720096300000ADB16B20F1438F2
:100E6000972FE4072931C805772A9818FA2E2B0501
:100E7000AB27A43339173D1AF5271D34C3251F317D
:100E80004A048E20923E5131C03EA20FDF13E92664
:100E90007A01B901012FC23D571CD92027312A19E7
:100EA0006E33FE296309E631A2333D2A9F1FFA20E3
:100EB000D317B5056B20DA3D6B207038D73B132074
:100EC00068288F25A319EA390D0E4B2C930FBB25EB
:100ED000D4027800B01AA90C6A15490BAE0AB637CD
:100EE000B339C205D906A5282206F21B3A26C40347
:100EF000F1228E20CA10032A000F9C3EEC1593109D
:100F00005B379F1A94246E20B839EF2EB72B331914
:100F10007317E324F72D722ACF2D0310B611300A70
:100F200083092808E43E6334DA2E362E4E3E8B3594
:100F3000F404E10D3C1AB832EA09BD0E93066C01C7
:100F4000DF1E0411DE26AC1646269938EA328436B6
:100F5000E42BDD2EE00E0A105A2D0514F0394E2D2B
:100F60003A2BBD281B0FA400F03D4A389A056A169B
:100F7000070FAB2EEC3A6D299D1EF7229D2617090F
:100F8000F235201239387A267D237C32101AFA1471
:100F9000F529A22BB237F322223BDF1F4E058B200F
:100FA0007738A707592D2028C9167613210CD11D93
:100FB00099379104430DB72FCE21E03D1C25BD315B
:100FC000D00CFC0C9F108819613CD23C4710D11109
:100FD000B3084D3DF706DB3B7A2D5F190114DE3D6A
:100FE000152CF711B6379D2C0900C72622242A2379
:100FF000562ADC12E917F80B723F9F345F17D210A4
:10100000F63CA9004918743F3807B218F20EDE0505
:101010006A1C7B18790FA52BF71969337A34893D3F
:10102000323258298B048B1197333D181F32DC1054
:101030002B18F523C81D1709BE0AC401F908600B57
:1010400021397700B0372F2B8635D931B2292E0EB2
:10105000A826FB243F2803287025060969331117A9
:101060002B380A0C71325C12972E6D28D93CB422B1
:1010700045078C00082E352A280ECD35BA0BEC37E3
:101080004F1DFA2E8C2797001124672D671E7D288F
:101090003926922E933C9108F813A418C02B5D10AA
:1010A0009D3C3B3A4238AF2D6E019A3D513DB21006
:1010B0001123402513346A3B641B631AB307090FDD
:1010C000BC3EEA0CD8005E2BDD2A91223225982402
:1010D0002B27D712FF1B6E3DE5189014AF16F60BA9
:1010E000651FA71516352F3EC11F4223C82E3A078C
:1010F0003C0CE60391078308671B4D1D350B8A1BCB
:10110000E53BD438CB0C3118302D472274009D2B91
:10111000CB1221194A0A6128CB269E3DA81B6627BF
:101120009F3195384700451A74301703BE1EA90D2C
:10113000B328631D6C3CC402661E1018D11A521BE2
:10114000880C9C3CDF1428098E29CB32CF0C221E40
:10115000A53F86217F0F7C01803F083D5C20C83A77
:10116000AA0529016C397E33AE1D7B1CF63C503C30
:10117000A4331201CC32B61ED62B4B095901D7012C
:10118000A111D705CC32721EBC0941242411430A97
:101190008701F517E5074B3019048032BC186C0A3B
:1011A000213F030E6018C52ED3245F3F6F2BCD2245
:1011B0007A0DC93E1B27EC326D12C114DC1F360DAF
:1011C0006E25FA258D204E2CC0322C23930E913A99
:1011D0007D395B1806347802EB04762BF816AD3BAC
:1011E000E22237293B3D552E8726A60F6C0ED13FB4
:1011F000E30B6B180202D4201F38191FAD3DFF1EF0
:101200006A2B583759084037DE14EA2D7D10DF1E4F
:10121000D525E630AC0808298A119338811BE41DD6
:101220000927991E57007806B136EC156C1C422B25
:10123000CD090F0068288D10212A551A5C189509D0
:101240005420F803AA148F2F9C3B1812833C0310E0
:101250001B32522FDE3E0525CC0867160A257B1867
:10126000F502593A4B02FF15742CD122312EC213CC
:101270006337BC2F790BBE08E82CF917BA33390352
:10128000292A3D0B38000705BE1DF1168722682F5D
:101290001D075226E723C30CC6284B1E8100320FC0
:1012A000423FF82CF23B8B3B3632AD09BC0EA330EB
:1012B000142ABC279C386D2B290CE635D829B82F69
:1012C00025286603FE25FA2B4A2D9E39AA0C912368
:1012D000E81A09184E299412CC1E7A341A19750D81
:1012E000CC059111640E91209D15BA374E0B300933
:1012F0008C2C7B207A29E720DA2AEB3A073BBF3196
:10130000C502D83333118D2C84277F204B0F7E32BA
:10131000C8009832DE340F36741755284408EB099C
:10132000B1316D13FB1222138C17B52C6803683290
:10133000B80E013DFD139A392F130C38D91DD03446
:10134000C63B4B05510D3F15F224612A0D19EE3AAB
:101350004B39BE0B9E30D308930EE93BB1251213D7
:101360004E1FFA2F4E2B7E27293CF119CA3815241F
:10137000C535FF0A4D3A05109D0674031D0FDA208E
:10138000263EBD241136C1295829AA3ED102900D0E
:101390003D029008D91AD32F3D1F9C0752171736CC
:1013A000403C06123811651AD91ADF2C771F470600
:1013B000202C6D1DD43A9E33D90D2922E6217A289E
:1013C000212E41166B070427BC338003B71F0C275F
:1013D000AC26411E1716210AC913142F5721BC3001
:1013E00063175D03D2262C2D422E080AAE2D381825
:1013F0007631BE0E3B20C325D8086635840FDC222B
:101400003439A014992D9235620ED81E200DFB0B95
:10141000E40E041920394126C935541C3236723F76
:10142000D630AE317306993447247E3DF22B9211AB
:10143000B40AA9376A31B031D03EB40088074122DE
:101440001D26CD1A14153223CF1E8427AE02BB07EA
:101450007310F815FF1EFF2E151E083693069218FE
:10146000F409CE03B61281130E2EBC250205131FFC
:10147000071284278A017328352EAF1DC33F2738F2
:10148000D8242E34953ABD3CC9352C2B41222C0F43
:10149000263E301DFB36C638C00408066C11B22546
:1014A0005B35483C73062C1AFC0F031EE0159E1B8F
:1014B000DC06342B0500E909BC1C843246041D18E7
:1014C000A21EB930153B4C21551F452EFA074E0878
:1014D0000938CF089F14821820110C05EE332C0C0C
:1014E000E8264626C3047903B6311E2DCD3DAE262F
:1014F000E11DAF2F8408BE235A27210063072E0A5F
:10150000F905E619CC239E27B632F10A3B1AC437F7
:101510006A3B3426B33FFC2CCA299D008939C1158A
:10152000B703C9090029CB08212EA83D4A2E253929
:101530000111190DEF32702F4512171DA931FB1D36
:10154000992670053402C02E7422DA13A4193B15B3
:10155000D6323B3E3F04C60393042B10EF2B5D0AAB
:1015600027323A24C216B6056223BB24183B8919D8
:101570006B2F6A076F235938F0183832EB31740F2C
:101580007F35F32206340633510C01201731B7079B
:10159000180694318E029D028F36630E1123080CBB
:1015A000D3294D22E2097324DD021B3C382AA21004
:1015B0008A2DAF116E1AB412123EDD0D390D380EA0
:1015C000E92054213A37360055097C24B405BE0A77
:1015D000402A2C16283F5E3E1404BA0B1F15F20554
:1015E0009A0338187926130C3921CC14EA03783F72
:1015F0000D35E1209504B62C9F1BEB22E42E9318A9
:10160000532007090B3A0A1AC23D3101DC06703D2E
:101610009931AE02D5327328B6301C2F8B26AB3FE2
:1016200097093A35E10880095A062607B122BA37E8
:10163000E0344B1BCC0A9802CD3283087D38291B3D
:101640007A041E28F02AE6331F297725313E7A1CBA
:10165000B11B0E35A01AC93B4B0FE739063A772567
:101660002707802FB215352C653D58254C03883748
:10167000303185313D22B53E0F3C700FD5113B0610
:101680005C07362DA308D9103136BC31931FF427DF
:1016900054253701D1074C12E81104248000CD16DF
:1016A000E9185325C509C50FBE245C15BD149C2936
:1016B0006A13022E501CA50E1C373D02FE389909F4
:1016C000351C320E1C32E524FC0A0F3B24191D3652
:1016D0009018BF34F12FE10BE21942052B09F60BEC
:1016E000B93C9F30330A1E0B0C3E65174508DF0AD4
:1016F0003B3A3B08AF365936E83A0A2547123228BA
:10170000823FCC1796368510C518AA15442301349C
:10171000B11CB51CC83CEB2FCD07DE007711D223DE
:10172000B321D3295634973E323EBF3D65215E1624
:1017300090095D08422B412AA8050F0A43384C1432
:101740000107FC0288257C0F122C6B0B9410FF14F0
:101750004506881A611C4E327F0B44281615BE2A96
:1017600035380817C62DBD39571D1F1BDE05A118BA
:10177000963A9E0832007439D10CD20FC20B5B0529
:10178000AE312C2DAC1EE233A83C3E23F61D333285
:101790001927F6340411FB040D34FD09F91DA12BA2
:1017A000DC018A045C34E531DE266E2CB10D680B59
:1017B000BA2B1621EA17DB10180D171ED403833835
:1017C000C6374A10FB217A068A3D821E8A02C61A53
:1017D000391E1B123A01FA1ECB3FDB2150141F1C8D
:1017E0008521AB03312E83026E0901031F13CE1A2C
:1017F000A930370B10015F20731A7E36CD3DB50C32
:10180000C71AA517AD1F4B25002D5C11B23F22163C
:10181000F3278C07CC070022502C4E1F8D0EE73487
:101820004D2BF30C9F394630EA264C34A902CE34B6
:101830005122D2098F06212B1630D82D3B0D7B2B40
:101840006D35A62E3D087F398C24013B0E310919D8
:10185000D32D8A2DC30380076E06F536612130072C
:10186000903497023E3DF427792401140F2B28046D
:10187000DD2EB522903FAB0B76003023F00B5C2FB2
:10188000B50B5226621C7F1DF528F4027F1C8B2E9F
:10189000A71648226728483E3D3A6134BC2F5520A0
:1018A000ED235210E8370F327E3AAC3D530DB53779
:1018B000BC29D9367B1F313548058409FE29F0380B
:1018C000DD1AAF0E153D580C403A36002702EF15D1
:1018D0007B16422A430D9E2110230901D03A910C18
:1018E0003F018B25B41038149F04BA32B72C12373D
:1018F000991B2806FA05CF3A820F3B19B43D8E2377
:101900006029ED20913B6933B1236E2F662C6A1656
:101910009E3EB01A1F3EE0327D1B76150E32E8095E
:10192000A405CC06FD265E19C111FB11BA1EB8250F
:101930006312D32BF60ECA255717443EA513A20AED
:10194000FE1673174D29493FCE0BFE3CDD3FD309F0
:101950009A0D053B040BAB3E590DA00926032B3C09
:10196000782B96335B22AC390934932D1E1B7415EA
:1019700046313D209622DE233E0CF117A13EAA10EF
:10198000B12CB0100328FC3C5B0413086E0B221F23
:101990003E3F810A3B188416B80182390A2A263351
:1019A0005A3E801DA702361BDC106604E40B450975
:1019B000AF007E0D46058016EB24841FB927D11891
:1019C000B82CCB19AC3964285D1AA7033918E61571
:1019D000971CE2164D2E0508F030E032EB00F213B2
:1019E000262BAF2DFB2F7724DF30ED234D1D9C29B7
:1019F0004B3E7403AD27380C542F6C0A3E1E342422
:101A00008F22283E8110FC001A26751AA0399933BE
:101A1000F10B1E11030A903A9612402139106336D9
:101A2000F80FA215AF0A8719F70F8B37D90D010BE5
:101A3000072D6C18B436EC2CAC203D3DC227C503F5
:101A4000F432B338FA1ED63D161BE33A431DD233A7
:101A5000DA20340D662C841C7F2D172DA61EA807B6
:101A60002E0C4F285C3B1A3D492D4B0A4B3E1E283D
:101A700010255F03852B3C226A2557241410D70FAD
:101A8000E32B1524D127D7391718DE2F041B633415
:101A90001F2C141ABF2AF508BF27320322010103A5
:101AA00065109638DB02462E3A1B1D00A3012A3032
:101AB000D323BD3C881BDD0442313F0747394C1618
:101AC0009914A506FF0D40312137AB2B0205581E96
:101AD000CC0B971E973EEC0EAC164439DF2AA111B1
:101AE0007A2E0A3A460A043C6F0F7C0B212DBB0A62
:101AF000FD1BD7326708F917290FB72BAB2B6630C0
:101B0000943D4117BD2472297A1DB229A137D90C01
:101B10002F3B8E28B7152703DA0EB5044E3DB322AE
:101B200089290921F5327F27CD3291244728FB31BD
:101B30007C05D31E0A30901B5431791DD1253E31CE
:101B40009010F017833F011CA60B2E0C7F29F53255
:101B5000D422E31A2822600520349F381F18810CF4
:101B6000F1052C3F8126200E7931C406D63C400475
:101B70007B2D39079B1CE13E3901B82F8A2CDE1DD5
:101B80008A205A230C02FE3D6B2DE11A7F3B460151
:101B90008928D127332A1422910901004429C0073A
:101BA0004D190A19C4266434D70AC739D0260A2E1B
:101BB0006906143D8334D93B8C2F450DE71AFE1F6F
:101BC000BF39180A4F308F3CCD29B507C208860CA3
:101BD0005A3F29046118D33982012609EE3C0016C8
:101BE0007B1A4F32D51D6C2A8E210A2B7424660D68
:101BF000F137A1206A0A7C244204752C393268240A
:101C0000AD31CF1C853EC80711334E1EA7360036B6
:101C10009537B6007B0B11178A0D3D178D0D4224A9
:101C20009831260D0F2E6003820BB31C4306AE2F96
:101C3000022F9E3A392D5D2B902EB13B122AFD15B5
:101C400010372A002921C604BD169503D204E616D2
:101C5000C70EA9368A267B1B7C2E282FD313AD3ABC
:101C60000108F8190B028718D721FC2E003FB70A8C
:101C7000C82D20371A381630EB14C21B41005D26E0
:101C8000E621A327F21C0E00960D372A211D8E2F68
:101C9000BC3F2434D820D02D6E048014B1166C0AB9
:101CA00052188114A01C2B11F4100B09AB335D12D8
:101CB000AF1B050F7622C0180925CB3CD9083A1571
:101CC0006B031C14DA163739A00B1221B723911BB2
:101CD0008212CF15EC154011B41EC90B573BAD2A2B
:101CE0006A3E320BE92843287C283E26840B710B80
:101CF0006615F92CF50F7601DD23F8322A3E4527CB
:101D00001C3651331A24CD202010A120F406CC0B10
:101D1000652C893A90154E0FE40BE0163715C71560
:101D20006407F00D3E0ADA28562BEB0C0E00123D2C
:101D3000D93C0B1B8020D70A9E3DE717C510C73D35
:101D4000B72D1F3D2B1A81219C354D3C7A0F48073A
:101D5000F31F2B3ECD33331DD32994200136813719
:101D60009E012201382C3D1AA51F9333082D6421B2
:101D70003509DC0541008E10C015BC0D7B37DA3FFC
:101D800037079C2BC51E960DD801C21C293007347D
:101D9000F83C5728EC18CA2596357C0CA73D7B1DCE
:101DA000B50C1312B112F114CF1E86197420AD3682
:101DB000E7165A22A137DC10F916EF385E3F4806C5
:101DC000DC18012BE2379B09DA352B282316B128C2
:101DD00082206C3C7611FC20811BFD1F5A2AC41AFC
:101DE0008529A909C12967397A250318932AD611AB
:101DF0009D371B03483B2B0E3C03CB05BD1B0D3B06
:101E000020026F1EBB1B5F0DE61D6A3DC838260809
:101E1000DE047A17351EB3212A0784398A28892FD0
:101E20002D0A703AC11576018923C730E62D531368
:101E300042023E2A203C9E33C003A50E2B36791D5C
:101E4000C23B8216C8002E1481214227B929F927E6
:101E500098115A0930044D036633F30AEA22F0055B
:101E60000822F8064A039D25220C0D1F2E2F671FFE
:101E70000423EB245137AA05F938C237773E011CF9
:101E8000BE27B816C42D54157113712CD824C7025F
:101E90007E2BD215B11C9A1F4A3A450C68121315B5
:101EA000B5358A3D3637020FAA2506306C25D53A5E
:101EB000512B603D4406B3279C0AF515B43AAA3469
:101EC0005221B006A609E01DBB01C3214520783789
:101ED0009C04D00A412555362A25631B380E203B29
:101EE0000F2B2C069D1E3B0FC619C727E109EF2CAF
:101EF000D4219710A32EA83F9F37ED343217170D2A
:101F0000F90C3C2CA82BAC24A3051823611C6316E8
:101F1000402CB418AA0F282F9B3C303EC91B9C1F95
:101F20003319FE1FD81ED5165B05A8370D280D08DE
:101F30007C127E145732AC0035263B128236463373
:101F40007228420B432BAB31AE135F18CE33513D99
:101F5000F71EB619F311301F7418C63BCC3ECE2EB7
:101F60008018E92A8125A8238E08120BB32D643925
:101F7000741EC11B881FB725D53309227601E537AA
:101F8000BA1A77082F307731A20B7E2B6C2B6F0398
:101F90008D165A3566360A3BC82FE8013309483F8B
:101FA00092129E3A6F38E41FC416CE2FD23A4401E3
:101FB0002B0C2924A020462533058B321D375313C3
:101FC0000D04ED2B66022B0E840839145D021536C4
:101FD0000F1AFA0C8D2B5C1EED28AA0B2F2B9A32B0
:101FE0004512F22FBD05ED2AA206BB1EAC31BA3454
:101FF0004D17943C470C0A2744161703CA3C410668
:10200000E80D7220211A73269730021F01028027E3
:10201000CC0D641E2F14E9117829493E3103222288
:10202000B7138615C433F0040D22002AC206912985
:10203000C700790F67359A043D0A00240D2EF62655
:10204000083BC50CD92FF33B6205C813FA0D63108A
:102050004E038B09561728393D263B31E92D0929B6
:102060004514C63C1B3146162A36AC15D510C32D77
:10207000C61E061F283B2D1E943B1C34B62C3D0C5F
:102080006B37A023470CDE31AA33B0212734690512
:1020900065094F264C3059105233721649165B1C95
:1020A0008C223C189D04950B5E23D31FE6183C2B15
:1020B000B72CCD3FF418530CFD0B0211D830F106AC
:1020C0004D2893076318DF347323C834AC3C8E016A
:1020D0001C3C5417983E27240C14D0378105490224
:1020E000692E3610621DB33F4D2D133D362A15194A
:1020F000471B0C1F7336B5376D34F70EC4182E1BF3
:102100002C3CB51F672D44250308AB1AE73964063C
:10211000C014F2060416C92B000BD33E03338C19EE
:10212000F818C40EC3225A2CDE0A970E4622201B32
:10213000632081218F37DC1F1915930D0939292A56
:10214000C33A2D3ACC24641CDE2F1E1B7B183B1394
:10215000DF39343B9A0EA52E022A713B8014F00120
:10216000970402005A048B1A35368A16D600EA30D4
:102170003807D827700CF21976051E3E792CA93D38
:10218000111584194A285726C9149729492F2C3428
:10219000460FF22DA1147A1E2822301FE92DFC16BD
:1021A000E324BF03FF09C80BB63CFE2FE9370F1528
:1021B0003400AA05800195103A249630262425265D
:1021C0005335D609DC01E308CA2BC514700F062A63
:1021D0000106F815A438120FC61364216E21C30D31
:1021E000B90E720DCB230B15080F460FBE3B022E06
:1021F00002311038670FA00D5927743C6037881CD6
:10220000050FD41AB92BBC30263502195314232CD0
:102210005E2C430E6A3F6D34721EB201803FDA2697
:102220003608832F173A7A240E11C70FD7122F3191
:102230009104CE280F2B0217082C1B1AB7339318C2
:10224000E42E931B5B20FC1D610CBB3A93332005ED
:10225000EA3D5608FE317B100131B61DD2167105DC
:10226000B718EF0E7D3DEE2AEF293C14F5258519B0
:102270000C3B0A0BA1159827BC060902FE2CEC0C9E
:10228000ED0A3D357A2AE2284038CF0D100D760B45
:1022900071339E36A72D56398819EC0E5204893CAD
:1022A000D818363CD5362E220E146A3E191062120A
:1022B000E239A11E852C020D2A13A926460DC83924
:1022C0005E1287011135DC37C93AE20EEB3AF83677
:1022D0000013E91BF033FA205C15C30534035B23BC
:1022E0007702A12E3817FA28122D4F03842EE537D6
:1022F000BF1B0627643987334804EB1DDE243F07E4
:10230000B33D043A571BCD3F4021A03386213914F9
:10231000E53FFB2CA03A8E071121E816E73CD901D6
:10232000B200E41EFF07D52DDE05BF20B730A30D98
:102330009000BD222802FA284A34850F583A4218E4
:10234000A91E4B1DC63897272A14F516813FD416AF
:10235000AD0A2731C23B24017C08C52F1D19552623
:10236000E43F033EC43A9321983277397328C00C76
:10237000821D6510F9189C1FA534ED3C861A3407A0
:102380003E30EF261739EF274E273F26BE3D910BF3
:1023900024010D0F9D050738B4363127C70D4F3581
:1023A000AA3D9F055F39AB2AA51AA81CB8196C2A4B
:1023B000020D5B0E412C0D3A0E1E03387828293D84
:1023C000AE264B3742287000AE296A345D3F7A2B27
:1023D000583E5C32BC0A82140C06591F152F640447
:1023E000E318821EE9354E12AA08ED3DC90AC4372A
:1023F000BD1EE921A91639297B20721D7E2DCA1424
:10240000763F25088102F61A91350A18BF31CD10A2
:10241000963AB937E7313A331A10D92D793F63111B
:10242000AA21951ABC1A44248D3ABE222514153CC3
:10243000A0271033192F4C251F13C6272B29D53958
:102440005411200B4D0434367C006039851CD10EAC
:102450006A1BA80B2626FD12B33D0B3FA33F852622
:102460005D29143F6F1A843A7131530A8E308B2ADA
:10247000D811E709BA18A80A71043430502150362F
:10248000441C060F5F3A9E30322B5A359231912D03
:10249000A2039529C4261E23EB168929853EC83C34
:1024A0009A122B1CDE3F9E2DBC01F914050D381429
:1024B000D22C851AF612E623250A1432FC314D1E61
:1024C0008319E508B011850CBB11853A041D7E0AFD
:1024D0004A23F1274817521B1813E22650296E2D64
:1024E0003B21D32E1F3EDF221323E02FCB1887374B
:1024F0003C3D882C7609CD2930111426811D640BB2
:102500008F0B021E782786065A1BF0043E15F01E1C
:10251000B0075C3E7D0F1406CF288626741BA403EB
:10252000600A170A8C0039315B00590A6115110ED7
:10253000010D302B22245D02C82D190A711CC71809
:10254000240E980B31193117940A071EE02A8D2D9D
:10255000602BE7326B2B8626E41DE42FA32E4B3F26
:1025600065049904BF3AF315B8078A198826D83943
:10257000503B012B2317D307602BDD2A9B2DF8102E
:102580003F2677099414FE382F0D5E05CC1894175A
:1025900028066B1B5A1BDF226D17BD08CE0ADD19FA
:1025A000E6167B2790381F32913A932F4122E13271
:1025B000940C1032E332B620AF1C350412262E3EA6
:1025C0001E126E049A27810B2F0C762722140D1BE6
:1025D000141DF51FD533551CBF29A8142536871E99
:1025E000C12A941B192ECB098A3D2D2BCC203816DD
:1025F0007C3ACB0F0B34E631A92B140D2601510E7A
:102600003D198B0D7B10DE2CDA3B6E07431CDD3A47
:1026100073123D2BA43D911D6F28CF221A255326FE
:10262000131AFC11B107FF3D8828B704AC0C5337CF
:10263000F40368118313AE33842942046830A43B49
:10264000591C321BB10D8C22B42BB300D10AB81126
:10265000CF354036D005A5085136DA1E5E0A8A0904
:102660003900E924F3397C3AB016BA3DA032D914C6
:10267000293DDD1F7516DF32B31EBF12AA2B0B2BAF
:1026800070250339F52D512A82169305AC230311C9
:10269000F813E11BA12D822D7B15161AE1262617B2
:1026A000D009E22DB7113B106636DF37AB11D611DA
:1026B000881F7514491EE706ED1AE318FB00FF306A
:1026C000BE379A0340208A0C4A32D93FF6248E2C1A
:1026D000F806A221A23AFA314137C721D5197C2345
:1026E000B404460E1704B93551195C380C2B461446
:1026F000BE19EB10A838F70526052E3BAE241A2E7E
:10270000C01F1E0DCA03AF0851004B380F173934D4
:102710001F0675229B263D343A0CB417AA30F73EAB
:10272000043029276A3EFA255404D31C45120A2A8C
:10273000B81F2B287D2F1E00932BCB035201513441
:102740003403A5070D3823351B1D272A981C7C1C34
:10275000F8359D08952FE4103914E7011237072644
:102760001B0C7F3D4B366117963FA506173D45155F
:10277000A33A9824EE187A0AA913C82DBA07CD25D2
:1027800016317012C22C472B6D108E277302D03673
:102790005038A303D8277535542E9B06FE06293BD7
:1027A000972AA30793393B037A26B901831317218C
:1027B000EC18EF3866275C231D0A062FF63E673EAD
:1027C000A331F506E231C7184D1DE933C00FFE1ADB
:1027D000363C6027EF057528DF2867099E18181C0E
:1027E000553E2A21593E1737A737B72BC93FBD1F82
:1027F000401EB8288E397B38E532D3155714CE38B1
:102800005916BE22A507390FFF113839E0155502B8
:10281000F40D1921A234F62F7011951E6412242391
:10282000712B1022F832E5280025BA206C3E1833AF
:102830008D3350354E2A27183519450F6E2B4A0017
:10284000F409242B862EF72A0918623D7500BE155F
:102850001A27B52FFA22B13FDC04B3090119A425C8
:102860004A173616080ECE06AB2370322B2E940074
:10287000FE16841CD0208116823F3E2B0D2E272071
:102880007120D2273C37402A2F046F3C6025B82F97
:10289000723E000C40149917383F533C651F970057
:1028A0007B383512621EDD3B0E3CB12E092077319C
:1028B000022CC1357C20B52F812F2933431CC42124
:1028C0000E272511C0129F0D7626B90CC01438139F
:1028D0000C18042EFD2FFF3BD82B010AC2366504CD
:1028E000E2268622201B5F22CC198E3A45279120B2
:1028F000440BD83AFC183C30280A6C28631C430A65
:1029000047345B0F4D228D1A251A1232F9286B18A5
:1029100033157B1CFA11303052357006891EBC10FD
:102920009C2BF9119A33131DCB1BCE06612952162D
:10293000B312540938361E2CAB178A3FFD0AE02823
:10294000D93798275A076519BE15DE04A9165C10F9
:1029500075044A33401A9D1C7B15D8026A14A131B4
:1029600006118A04691F17103024E2221E2E4034FB
:102970007B356A295A30390E7E17FD2CE20AEC2687
:10298000C20AC333A1338F27083B2012B33C8320F4
:102990009E311E0E183D82096725841F5724950E0F
:1029A000BD327E23662E9932602849337D2FDB307D
:1029B000090C7327CB1B8E085910C31823156B0AFB
:1029C0003D3F29021B39F9360727791937342F176C
:1029D000BC3512040A1313176C2D9D268138E93C6F
:1029E0009D0DDD17AB184E3200017110BF29D404C4
:1029F0000A24050D32398F2E2E209A0D1109541CF0
:102A0000CA300B3A011ACD130102220E9720DE398B
:102A10001B076B21E128321C1F352325582932065C
:102A2000C50F3B108F0EB021F5390313652BBC2A5F
:102A30006B1099067B057602330CFA383D3C7923FE
:102A40002314E621CB186C097B0FD13F733F6F0E27
:102A500049096F0CA50FA11454131C378E0DDD33DB
:102A60009028D90EAE08F7296422A6122F25071246
:102A70005939C502CD09973EDE10BA10790A1125E1
:102A80004707A6243308B43F383E9710AC3842209D
:102A9000121D46029F2CBA07213EF33B130AF13068
:102AA0009C18153DDE17DF39B21C371C203A7926F9
:102AB000412C1018912BC023E3316D33D425E51B35
:102AC00072219B32321B7D294038B51C642E3202A4
:102AD0008430F7185809B310DB1A12281922EB12A8
:102AE000C50135013A352E2A842E7624770FFC0C49
:102AF000D02B4F3E713C9715370A7318A126231728
:102B00002203501B01356A1DD5325C39FB0C7E0E49
:102B1000EC0E763399235831170EAB281107C41ADF
:102B20002A377D131A120011BF10213CB71CD03672
:102B3000F43FA528550AFE0D0F1CBC24701BD33191
:102B400013262B3D1939EE317F3E6A2F131B8B253F
:102B5000D630C0146C3D5518A90BB70EAB28153FE5
:102B6000260DA00F1728D23C883F8B0A9F3B262CAE
:102B7000D8050A0D672F7A30E1203F391219F41376
:102B8000422DE927321BA135001716178C09902C0E
:102B9000100C1A3F182D0004A7262536D9046B10F7
:102BA0005829843F0A095710430AA51331381C2FAE
:102BB000EB3F6A2610229F0661192D10980A342EC9
:102BC000ED34EB0E462FD31C5F3392398703290D6A
:102BD000A723520C272DA32A6621471ECC37AF0806
:102BE0009B12571C0D2F0F389723730EAE202218FF
:102BF000D8255B3EF804802E841DC83D5401592120
:102C00008F2252288D39663DE1159E1D663EC336E2
:102C1000E717252C622C51117A3D6428F40BBF165E
:102C20000D01FA02780CA032683101119715B80C29
:102C30008E34660B083720047F2CFE29D50443020E
:102C4000E834FC15823EE8310A1C1624C909FC222E
:102C50005D36AA35D21D3A3AB90B8E31030A2437B4
:102C60000A2EC018E41BF524DA1CC316AC199F31D8
:102C7000383EDF306A23EE0EC73CB017EE22982BA9
:102C8000F2134335DC12F73C9F0E6919921FD41DD5
:102C9000D709DA38C0088413383C9F3CEA08EF2A89
:102CA0003124841D2B30223354226F26F0215F39CA
:102CB000453A582D87113D3C120CAB0EAF3F0E0E1E
:102CC000EC20A432952BE205A6311121E133D51277
:102CD000622A2D3DB518AC0F4C2E7121D93DB71D80
:102CE0005D0F0928650409177921461CA3253E308C
:102CF0006115A3040735C52F532F5D3D682564304A
:102D00005206273EE62D93076314F31F1705112083
:102D10004A0D421A7A2D611089004A36420CC10BC5
:102D2000AD0CBB09EB0BC42D2F2DD31D452E9126C9
:102D300079016C32D33D2433C1223727AD14F30F10
:102D4000E207A93D483FBD0A5C21BB0AD62B0A30E9
:102D50001D15A517182BF20CC5207728D515443959
:102D60007C3ABB165602D5349C1B233C9827751A17
:102D7000BA05613215286C0DD019C5344C14E71210
:102D80009812F41973154A04552E283DFE2A7D1B0E
:102D9000A821A600D9092E1D151C2239840AD80B9A
:102DA0006708420F803B1930231665099D2FF101FA
:102DB000910EF72A360CA80B360F7A3A5701223DAE
:102DC000B10CAB0361061331540C4F3FB13F1414E7
:102DD000F71F3E194426DC11CD2E551380380317FA
:102DE0004D07572780337D316A290B2796266F16AA
:102DF000AB3DB707DE2E6C03E614310B201FBA186B
:102E0000AA25090D4B18D3079D17D01D4F31F41873
:102E1000571A0F212311A20383143730391CF22CC7
:102E20004A39DE29B21E783B57155811023FAA02D3
:102E3000F6392E10F6106E181724642B362722034D
:102E400041267B35AA116B1AB607FB397921373633
:102E5000560878117F1F85010C18773E62304B04AD
:102E6000BA21F233AC394E370D1D612DA20DEF138F
:102E70009D3F6308A93F180E3D2D103A6C19F00FC5
:102E80007200050436095B3F633FF636111C47109C
:102E9000C11EB803A23AD8077C23F201E93D2E04F3
:102EA0003B15990549190C38F216891E7919D00F6E
:102EB0000F30E7275D24272E0D285124D20B5132E5
:102EC0007B1F7C0DE9358D1CA91CC52837271D3CAF
:102ED000A51F2A2C1330C42829108820022C530740
:102EE000AA09CC24A13A5303AB3C6528C72B330F66
:102EF000F7217C34BD14480D7D23B838B93A141E2F
:102F0000D8379F03FC3E592CCE08552A4C13642514
:102F10004E2A8F179C01400FA83625111C104C27F4
:102F20002426D00F0D13E3181D3B24220C20C43F90
:102F30004431490DB222BD36C0154A2FB21867116F
:102F40004617F529E80BD3155708753FF20A7F039A
:102F5000490B751746359E05CE3E0022E83DF1200F
:102F60000613EA3B2620E5316D025B000B34D42CBE
:102F7000210FAC33642C03084D2C383B8E1E2B38AC
:102F8000C234870D65145E31080BC1270923761EF4
:102F9000640CAA0A5B259128AF2F100B5817EB225F
:102FA000EC09581DC63704310016513AC317913049
:102FB000FD11901E3D2C8305D81B523B5F1BF7195A
:102FC0008A006F1C6D307B12E63B8407B32AC22453
:102FD000AC04C32E6210BA2FA13FAC019D1C621736
:102FE000B525B23505183E3C7B1CB90F763DAA2E9F
:102FF00084056B25E508383156301E1E7404B6036F
:103000001A34383A3928E72F37118F0B503B041305
:103010006D28C2272529BB3438246D02283CD439B9
:103020007C3290253C378039C32FDF33A5295339B3
:10303000A33ABE0F46256C2CFD1CB30E6005F01D97
:103040002F22112E4204F7027F1C012D8108992E98
:103050003519BE2AAE26CE214B223706A922090AEF
:103060009F3D863E05140927FD2C4E231103AE011A
:103070008717381688306A2D400C3F3FF30FB32076
:10308000C706D707411D3437831A033A283018146E
:10309000D035AF384414DB30ED1D7C17120B332DC7
:1030A000BB257E12380584088E04E828BB2297349D
:1030B0009D275D2215363B12D62F43263E2C221625
:1030C0001E17F4182E2C44034A037C08650AAD1A17
:1030D0004C2A491671211824742AB53C930E2E0EE1
:1030E000AC2A593DEE09F6211A0A6F17E423D824B9
:1030F000922BD319952D6719B31085039208A51C3F
:10310000B2110C1E431A1104161AB5379A395E0D06
:10311000F63FE32DFF312A21741A092D9E34DF0D6D
:10312000913DEC25801967398804843C0D34BD231A
:1031300053293302F20AB5090C1FB2018009BF19E5
:103140003F0E8336F91037336E3DF225673A353B33
:103150005A2D7F08F52DC917C30F2E04E402C5149C
:10316000C5104E3387334D18FC3D1D12F622092938
:103170000D3C790A540EF6115602B909DA198C0E73
:10318000C20DDA06090AB1111737003FAD33471FE8
:103190004626DD0A9E11EF1C760B782A560D9A16EC
:1031A000E6277C33DD2FC305DA136A33A232592BAD
:1031B0002E2400072514D0294729D31CAF3ADA3E24
:1031C000780AD3226B1FD21F150CB6088E06A421D5
:1031D000C62BA723813D7D23E23D242624062E19FC
:1031E000D1274F309A0E7E32C906321A5027E30992
:1031F00061171A2D0D258C3CD319490A5213EF1B68
:10320000DF077C1C591B7A3BAD0C69126A1E2A32FF
:10321000281CAC176906743B9B16D00ABF0D520FD1
:10322000A326C72F1808840FAC0AA1298217992852
:103230009510351BF605EB262F01E3155301EE2300
:10324000B322FB144C08953D6524582CE3003F3E07
:10325000F80234195D05A8007714253CDA02F61847
:10326000B83BA91CEE1CB108AA168C0BFA3BB41F84
:10327000F51F973A0908FD10D00315248328DD2691
:10328000F1203D2CFD00D92F012A090CD91D670220
:1032900004296317A827F7218B15C23864126339F4
:1032A000AF0F7414F725F61B26352725B73FA21F4D
:1032B000F03AAF07AD18FB2C6C0DD800F3025B227F
:1032C000D7016F2C6400CF33872F96026D1FC7384C
:1032D0005924B832D13E0B2A2B274B228E079B1440
:1032E000632CA4174C245E06C6133228FA0F532A07
:1032F000320CF90D8E112B24F6203A16F430EA2404
:10330000E10D530EBB3115343B12F929013A8825E2
:1033100043289503A3109932ED15B837CA1BDC0476
:10332000F20C53194411DD3F70139905462CF3023A
:10333000A80374249308C03AA528A6271809EC29E5
:10334000CC265E337B00F238A30A3E2E353C1A02AF
:103350005015E41F2527262BA63DCE36C9064B194E
:10336000B92D202B7A2EDA3E471884065B360135BC
:103370007F26AE37E51FBF33ED05D9262E28361F31
:103380009617B8325D281F39833CB917EA1E6508C5
:103390004C09CE0CA220531C6B19D9197C0EBE0E01
:1033A000551C7802C615853CB119E1103902CB13C2
:1033B000241F662EEE15F33D83218E3749015705F4
:1033C0007B2404165905E43FE0061E3B4215D21E3D
:1033D000452F8109A13FA91090138A261317AB131B
:1033E000A3072A144109EB325332601C23265113E0
:1033F000440DBF355715D4325D3BE236B92D6F1BF6
:10340000F91A0523AA23660100149D349E1C432645
:10341000870F1120ED3AE90BAB15180300333E2856
:10342000BF0F53034403D20D1230DF1C980A871BD1
:10343000CC15060208057F30AE3A641B0F3DBF076E
:10344000CB210D0FC70F50366829E9129D0CE72AD2
:10345000A01F67298E0DE63990188A06F332922B49
:1034600007169C2069065807132450275B3A023739
:10347000E9320F112A18AD17ED3DE0021C05CE2DE3
:10348000F0084B396926A817DC3736172227F83899
:103490005D124A31CC06D83D56343B39DE3509271A
:1034A000180DCC36882D5329BC3210166B32043ED1
:1034B0000804263B271EAC36CE2ADA02F131372328
:1034C000A519E7088B24FA13612B282F4E285716CD
:1034D000CA277827321A420B5030913AF238D12855
:1034E000CF08B221BA3B7D2CAF23B2310A32E91E9C
:1034F000D71D901FA812632A463EC010E0151E3447
:103500006526EF0B6437C2163D3BBA0D81160F22BC
:10351000353DD10A872F4C311313E6009F27853E96
:10352000490E5C2C592C582ED4313C23B90A032562
:10353000411AA739952D533E8B1CCC167839432858
:10354000EF1A21346E0C113BF4391B085C12C01ABF
:103550002A1D9D3BD632AB017632A628972BF5204B
:10356000E223A833FD02DF364F1BE0343830CD1E96
:103570007528822B17339E1410219E0A8C2BBE397E
:10358000400C810E622186024C25721BC026E40C81
:10359000770FDE2167240E3C8C03A507CB3C12225B
:1035A0003921270A7F1BFC0685311E268A088B04D9
:1035B000DE1C340B9803141F8C2E881A2C115B2EE2
:1035C0009308C51239147E294936AA00D018062A54
:1035D0002929BD14C3280627AB2A9E396B31022E38
:1035E000293F511AF839B8281B296018EF3B4B00C6
:1035F0002B01A73FC12B4132F33E8D06A9359F0415
:10360000672798272B338B3131312033EA37CD09A7
:103610008C1C0530B2187B3F670BF61AE90D4E3053
:10362000D0271504C21A3E3AF6290C19E704493886
:103630004824F9397A34813B7B33173A941A6B2545
:103640007919AE38B20C383B88354E0FB12DF715CD
:103650002E09B8043F11A1279618A326F6143E2E72
:103660008B06B2327502902C3A1F060E3500B93C1B
:10367000622A8218ED321B2397245F3BBE074A0B58
:10368000C438AC3B873FFF07130E6B2E050E352267
:10369000DB0BB011B203713E4D24532C821754271B
:1036A000F717EE27EA0D112F4E07A609D83CF3397C
:1036B000E61C5D0082185723FE318A05391B58101D
:1036C0008718E600A30A983DD800F8230727E830BA
:1036D000A10E60319305A708E12FC013BF04ED0CC4
:1036E000F0399C393A02C800D603250B120C07109A
:1036F000813A903AE202A11DA41276225419DE13F7
:103700003F15EF2C3E1D78031C1F49021911C525DA
:10371000CC189929AD204514E63B3C221D3A0222E3
:10372000943B743EBF1C6B20B6297C306411AC30D6
:103730002007C121F70BAB36BE244219A23C8028DA
:10374000A724FF37D226A7136315FC0ADC3E5B27AC
:10375000EA1E740A0823933F32186D374E1315146E
:10376000412D4627112331141511B61E8F12A024A6
:10377000F01B812DEA199602C13D8506F305193C1F
:10378000BE2529101827C817723B6830300D8130CC
:10379000C8124309ED2EB20CDA334136433A381ED3
:1037A00092307A0109335D025625BA2594076219D1
:1037B0005E373128232F1E0A623A3A33580C3B2ACF
:1037C000C1306B3B093E732B4F24FD0C3613A01206
:1037D00072339B04E50A9F2A332D140F2C374107BF
:1037E0006408E91FC1129E1320358224B42A5018A0
:1037F000170D721C4C3AC531970E613F220D502AAD
:103800002B278E16DE3BCC1C3E2E9A354F32EC29F0
:10381000361D751EB931CD1CD1210C207B001B0C2F
:10382000D6280327910020185602CF326F0832089D
:1038300009162A074D260E0C94155335E23B5F0AF4
:10384000BB03DA0D0F316004C512D60B1D267604BA
:10385000A0195C197122362A8A3EA120E10A41078B
:1038600044075439120372281E124A15880F1F1A72
:103870005F20261B502AAE1FCE21C91A6912792754
:103880006D2A9D2C563E440DA8363D358114293DA8
:103890007E2FB5255830F63C720F6A0D4E1956260C
:1038A0004A2A55011D39263BDD3C1C01FE20CC0275
:1038B000881F4723BD19CB2AFA0C9A14C920C414B7
:1038C0007F388E20AC247B06ED39831C9A1DAC0B0F
:1038D000DC32180CF612681BDF0F0809F40CEC3E02
:1038E000C6398F15CB293628393EF73313203B21B3
:1038F0002F3C44103E343A2C0E082C32511D2C2201
:103900006D14F70D49159E16D807A621CB2B1F0A5B
:103910000815C0211436CA23663A572744355F1369
:10392000D50E1B347614321315059A254802D2336E
:103930004324053FBB35C53B3E2B97359434BF33FD
:10394000F43DBC11A801C82AEE260B1EB503C831F0
:103950008F340734BB095E33DC18CD17EE1FE51832
:10396000D4036C12B6002A359703BE175E1FD43CF1
:10397000F01A8C045E266E3AFF057B2D6219A11A9F
:10398000121E380E802BCA39F5088A213814990F77
:103990003D2D04183412162255140824E428B40FBF
:1039A0005F04783E650E653F243F840956013C372D
:1039B000A308780C8F2AC023062F9235CC14AC2094
:1039C0000317E21FCA349A34F21A6C0D7506A3313C
:1039D00020282E0B0838C43B28059637570A593E35
:1039E000551D280E9A05D50F61204B137134003DEB
:1039F000090B1517F8121A094814EB322316B437BD
:103A00004414D416C12F113D29156832CE0D680E0D
:103A1000842B1D120018C81FE702F125B72C2321A3
:103A2000D10C271AB0265230330304303017B73F79
:103A30000F050824822C0600FA0AE220F9026A3DEA
:103A4000921A1F12DC2EE13B1F0B8416E3370F275F
:103A5000F72A5C02251346306A34AB23B636C41EFF
:103A6000311200013F3A9919BF06F038542A9F34A9
:103A7000E22E851655108E0C921FC4031D07E90413
:103A8000EB17F019D614DF2E9A3BF607953C8625E6
:103A900046174B24C01EE039C41FD427441D07130A
:103AA000123E8F2F21210F336A1DDB18DD200C15EC
:103AB000EF252620DA339910C4253216A224E21607
:103AC0008C339215A6247D089E20F821060E7837A7
:103AD0007D2E201A5A14F73C4B3A892A9333B200B0
:103AE0005102CD2B6D244608D91CC73B0E3039142A
:103AF000E33C4A3FBB384A0985082906D8036D19BB
:103B0000F01D3B3A85119B39713F8828962838274C
:103B1000EA0BEF38BC0166019438C835143B8B3B87
:103B20000B02E41E7E05492DF10D0A00661F7D2B58
:103B3000AC0B0D1EE03C64230B1ACF165003831010
:103B4000D620B20FEE0E903E97382520E722833321
:103B50001938CB00EF38CC1D731E673D77337F1BC0
:103B60009C21A11BEC0DA80AD63CE32DA718E31D50
:103B7000753FD71E732AB12FC923E33BDB071528F6
:103B80003A2FC92798207808D6177A06D93D2F27CB
:103B9000D83801213C20561BFE0E4733AE2AEF09D0
:103BA000A216381E911F510AEF087F3AD2372A1405
:103BB000AC2A7723DD076E007636F0038A0CCA380C
:103BC0005A35A6257D2ACF1B322401118D34B631FA
:103BD00033215F352C020A1F8A1CBE0CEA0C1F3AE7
:103BE000FA375A0285041E1EE034761B281B213248
:103BF000FF14DB1BC607BB38063A2A26AE326338F1
:103C0000B228EA31D600433DF02F9916650CAC017D
:103C100078219129881D9801AB182F2E9B34C81D3F
:103C2000C10D9F2C213F35198D36BA2F2A337206CC
:103C30005A0B562917190D17AE3D0109D911C006A7
:103C4000FF17A1381B38D60596280E090125142226
:103C50003417942F5935B53E3724D931733AD626C7
:103C600054214424FE1927151D07FC029912C6355C
:103C7000E92F7D23FA36A703E3076F16DA078A08D0
:103C80003E3B0B0E06353B37E826932343089F1B2C
:103C9000331D3B36E820EE24433FD83E63054027E2
:103CA000500D411AF537CE1BF3327F30753E550269
:103CB0001B0A950BD738162C5B26EC32C4087F0004
:103CC000AD033C17903C7B29EC3E3C334B3AC41A85
:103CD000821BC90CBF1B092F23195C259B1A0620C8
:103CE000910DAC1A2024F80EB629672A013ED71090
:103CF0009C16963B5922AD34093E262CE72E6A18B5
:103D0000C82B8813F203DF2AE70F5A1E7A09CB1B50
:103D10007017A120A515E72F6E2015358D2D5A108F
:103D2000350F7825D721D106490E772ABC2AD80B22
:103D30005917C81D66330E09241B6334D40AB10A0F
:103D40004D07CF23A5001A2B5C14DA0F721EAF1D8E
:103D500088030502A402E739F612CD02E92FE61521
:103D600099007F2BB43C0E20D306451169006F06E5
:103D70007F23E9392938AE142101943F5C33971D24
:103D800038138C2C6138BF0A1332902B130CE91CAA
:103D9000970FEA1C052BD22AD30D4012A121362FF2
:103DA0005A21E82C8E18E332B70CE138072D613F19
:103DB0007B37F0240B19602CB33A2A179115132185
:103DC000C605CB2F2011EE270E0A7A307E1F23174F
:103DD000AB38EA12513B4705581D1E19E6204B31FE
:103DE0005512E0358001BB2B9B3CEE3FD8209C2533
:103DF000FA045F20B42AE931D0299139C20459204C
:103E0000741EE63B1B2153019508F32D1530C7188E
:103E1000111937235114AF001B0D4710293A4F01D8
:103E2000A6259D36E23BAC3E652636125D1E213F3F
:103E3000EA022E360D3E8D3AAE17641A820AF93721
:103E40000036170CCB3E5F082A35DF30792F781506
:103E50005538B60D0F1BAD38F13739081A386923BC
:103E6000AC2EC6334E14BE2E381DAA33570A481343
:103E7000763D411E4030AC01C1045918A036AF0157
:103E8000660EE837E810CA3B9402C60D89396D0CFE
:103E9000451B1F1ED2082025EF17B435AA33C02FAB
:103EA0000212200C9B2FE6217A07DA12C63B7039EA
:103EB0000C267E3AB63A5C30BE38D83D2F2FCD0660
:103EC000E422660E6C1E5523D81EE62C6824AE39FB
:103ED000ED13390C243B990369168B2B0C24933E6C
:103EE00086159510E41AD23AD02EDF27ED0B132D4C
:103EF0005A236F36170306039B1252217F00502A64
:103F0000F6373C3A901ED8053A03393D77103C15F8
:103F10009B11291ECE03601BF51BB536AF2E831CEB
:103F20005530922B811B70311F10BF244C26330853
:103F30004C2177174D2B0E168B183E3A212D943BB2
:103F4000592B920BCD088A323F046F33563811211A
:103F5000DB30D039DA38F804672087114437FB1793
:103F6000CB1AB4140C3F40238C2B393CA3183C05CE
:103F70000E219F0A802178220508D83FE73DAD2217
:103F80000A04C504DB249236AD21D739E6001307B5
:103F90007C0B45128F042C1ED53A2923BD2FB8382F
:103FA000871EC90D5D2B63147C141404F4223A2976
:103FB0000F09FB3C1A309233BD258926E0116B179F
:103FC0004702F706B51ADC17881647364909DB079A
:103FD00088085D1E7735981394313A004B287C325F
:103FE00064262B268D2E731A9401D53781077F37CF
:103FF000FB34940BC30DA71EA80D08115F2EF513FB
:020000040001F9
:04000E00FFFFFFFFF2
:08000000FF3FFF3FFF3FFF3F00
:00000001FF
