:020000040000FA
:10000000C2EA6A713339FD98A057060841F43F9E51
:1000100053C36591DFB28D957401C1C26C3F570720
:10002000BCBD7950538A3835FC10A6CF3C11D8D4CA
:10003000EF46159B9908BC430927BBD0B13264DB5E
:10004000B402A5264C1A35DD9DD58664AF440A79E5
:10005000F478BC0A8F2DCCE2D4580458165158FCC1
:1000600033D3C568407B7D72017A9F2C0FD9DD9B0D
:100070005E6EB1B46C2F80EF1701693DA9F48FABB0
:10008000C64466D9042513B94A58D6A6A3579789FA
:100090006C744070D128AD36F54565248B4F392CF2
:1000A0007E65FB13A5F7F97DBDE0A679070F0AFC75
:1000B000215539C1D26BEC17F721C32E72DAA7F99B
:1000C0007148B281E08DC19146BAB88DAAE9232A60
:1000D000C5AB30D7797C57CC880CB3EB27133712DC
:1000E00037222291A85FF6CAF3720A8B5094AD238F
:1000F0006349E7BE42DBD8F97A322155098B567B3A
:100100006D757522A3B4A41775C0918190F4780D14
:1001100049A989FE9E9FDBA2803E49108945995CD2
:10012000364FDCF9AE6657A0A250730056EF775FEA
:100130008A75B97970E263F1B1B1CA04AC66E23094
:10014000B59359B255743C22F5293461637F753BF0
:100150007F1B936692F8D9730CCCBFC38C31099680
:10016000945A3D1B5C6359F10C9C8696C81B6B50DE
:1001700041702151517D1221EE049926D7568E34BB
:10018000805BDE223973F98629C094606F6EAC8380
:100190003165F1A6ED2C5DE09D13BF034E933C123B
:1001A000AA6A6471969FBF1BB289EA62925A63C6BB
:1001B00071CCB7081B8FA461C1873DD5489ECE6323
:1001C0004705B69ED4720690B266613A4253161342
:1001D000692D3BAC8371E8C8E5F1F7B32C68F49A5C
:1001E00011EEDA7E83A877D05570AF5BE101338CD6
:1001F00042A9F36C41329D0FFB9B2B18FAA851FFCB
:10020000C5D96558EB9F05F8702B7C35A83CD719EC
:100210006EEF12C668DAB905D5D13F66C3BE4F9AF4
:10022000A32BB7F8879EB0ABF6D81CCB224D52B2A9
:100230001E42E6D47A087F8BADB9266D2CDCDC9E9D
:10024000F1C12A8285E2C18F84565ABFAF8618AEAB
:10025000CA8AC4AEF1AA40F49EBCD0A1F08672BF97
:1002600078D2828047856641D68EE290022D232582
:10027000AD7EFAC9BA8ABC81287F74115B66FD1510
:1002800005D72148E42DD4F24F7A479CA3AAF6580B
:1002900047D366F5B5A5C78EB069ADBACF61805AB0
:1002A000E989E5E4A79361A376AFAD516E17C99BC9
:1002B000D982B85E36595C4FFDC0B23B430F8D26E4
:1002C0007AF2B4E58FD03CF073838CEE130F83FA8F
:1002D000EC208173875C5303BC4E298ABF71EBEC21
:1002E00090811322CE83A9A596BA21F694D7942C97
:1002F000CB3E8DFD648B5118FE9951B7E1070B1E63
:10030000093E4B2F4BC4F08BD1C87A95C9D7D9F190
:1003100004E034B77D80B4FEB5AF94995B2A17AB87
:100320004501009B20E36C6639A2351ADF5D041499
:10033000EAFE95B8F7FF87643A7BB19272BAC8BA01
:10034000AAC33D291CFE5ABE891B5BA5D5B54BB679
:100350001621EB8AEB31CE20CAAE0C9081204FECF7
:1003600021F9534441625CDE9EDAF44DFE8F567BE8
:10037000E2FB6F63E6ACA458043CE5D0749AEAF55E
:1003800097FD0F8547BED156FCD640F981B79B4EED
:10039000ED2886036850104F6C5C6FF44DDA11C67F
:1003A0007D9128BA18257A7E476AA448DC18B34B99
:1003B0009AEA0B0065EF79DFEC291850A3F43C8F23
:1003C0004966EC1D52E0FFA5CBF0C01F5D185153EC
:1003D000900017BEC7CA25DA4EC773941E9FAF4F51
:1003E000F3BA8579C8125D20F5F94B6FA838E65A43
:1003F0003B8C8547E9DB2F59C3189855FCBEDC7749
:10040000790865CD012B42D5D8088D2334111D699B
:10041000490517361DEFD6AB5F0CE6218F473D4BE4
:100420005BBEA4B6B725E8CDAAE4A24FCD94B07EBA
:100430002F3EFF57288E20A59A728370BD68B4782E
:100440001F0F78315AA0F80F4479F2F013A85460C6
:10045000A278255DC1BA1FF2D06607D77F0DDB30C9
:10046000CECCF6888BBB7525A44761F0FA07AB5359
:100470001E8A81D01579689BC2471BA462AACCB1A1
:100480007555D83CA1CDCBE36E663D5949807E665B
:10049000631049DD462A7AFC14401233095C4FD9B7
:1004A000A68FEF6527E5765F6712F5171B72BEC44E
:1004B000F2B5DEE3E7B62A4BCD5EB90AA85571CF97
:1004C000F4F679AA5C1BE67CF9CEFFF460AAF4F698
:1004D0009486B5AE82895C40D93FE21F8B9FF5447C
:1004E0007AB89323B1B6863AB3169BEA5D882FA0FB
:1004F000D4539A2B125989928A446A628D252A1202
:1005000055DF62AD4F1D21A3C69B3C6628749A77C8
:10051000802915EA89C3EBB9135CC011A215013C0F
:100520002591CBFB8F97F1528818DC802DA53EC713
:100530002BD2D4434BB851E50C5C2B344D8E8786BF
:10054000905ABF757FE2269DF5AF76BBAC38A6AE5C
:10055000AE6B5600B1B2E11DF1E852F22A9D13C50F
:10056000BF8B79496492B0AA29DE6D5738985BC574
:10057000A30B3B7988C45C57A3EECC86668DC30978
:10058000E0A43A643245875EE7F8A3F439307F7E11
:10059000E973FDC08F70A791E5A8B1E7418628AF48
:1005A000A2D254F816A5D866154078B96B76EDDB63
:1005B00023D7F911FC54A33FE03B784E937936F8EA
:1005C000BC7A9B04ED3AC1A53E7E04EB5D40AF943E
:1005D00038ADF9D7F8A5A3DE9FDC9D484562D3ABC3
:1005E00066D887E0CA107E070F393E86F369AECF22
:1005F000D497B5FA1E7806099489D909D3D29FA257
:10060000DDA8A428742440EFDA71DD1CE5CBE8F8FE
:10061000E656FFAB00DBBC551153DE4ED1D3D2B64C
:10062000E4E71287E5A90B9F16F62AF33E829B04A6
:1006300020CD85E0A2C3CB05D033EE3D631243E766
:100640003E9C39BCCC1D4D62DC3F181EDD8220A9CA
:100650007B1465C6FDC60FD86C79BF58C35EF7C75B
:1006600035B4F2FB0C280ECE6CE6422BF78378B53E
:10067000B0A2F4007EA4CD5AE5BC76C1BE7AD88B78
:1006800016F2C62B3B4EF41CA69EC5AE9332BBAFF2
:10069000BF7D852D84A0D9B9206BB7CA37385E0CD1
:1006A000B3E80ACF2476738892CBF8EC0CB9E75301
:1006B0006C800239E5AE5F5765DD0C09A3E7513563
:1006C000DF07EF754538DE83D89E84B89395CF60F9
:1006D000BDAEA45A696D9674DF012EE28C1600241B
:1006E000F5B8D45452023EE948C96687ABC0155EDE
:1006F0007E9A2D1C4EEEE6CE2094DDE40F9E731AFA
:10070000528B7A41B0091D7B54BBCDB3AB237CAB7C
:10071000BDD759B4C352535D9AE5680A5D01942070
:10072000D770D1B3FB0DAC999175EBD7405FF9361B
:100730004E817D1C6D352649273607613D1C41CE13
:10074000680A8D9080EBEDAC3AE92136E8E150ACD7
:1007500047CD7CB6E4E434D4819C9B848921C64295
:100760006F04C173C3FDD290ADE82A29774E27CE1E
:1007700085B1920C376E3E1ECB7E9BB9ACE93DBF76
:1007800059831DEAFB516E43EBA71DAA9632CDEDAE
:1007900026989730647731A2069B1B742B91C2B2C6
:1007A00018A09C8791A9AE301CCD73143F0D3A243C
:1007B0000D24BA84E1E962D39D9F4593196782486D
:1007C0009FF4B212A54C45BA0911707243A5F1030A
:1007D0006205DC43166DFF79DA53B89FA02B14B184
:1007E0006938550B89ACA405A16F88C6C4AFCDF894
:1007F0000FDE04F4E0B0414D6E5094E97F9EA47189
:10080000F3EC64AD43D640AD74E8B5F8BBC6E56F14
:1008100044369D09108837D1ED473779875DD7FC7D
:100820003E1A562E0FB57BAD3BCFCB4873AF0F2F83
:10083000F3806366EAD21FAD4FDFE7631D1375BA1D
:100840004E1B205EDB24E7C84EAC38690CF1B1F8D2
:1008500054304D0BA739AB867116F43BBCF4406C99
:10086000AD7ACB03CAD4C6AA2CADD2AFF9BAE2B5E1
:1008700063DAC548F3B6A9ED9240040270918F8FF8
:10088000E8DE2E46B2F9FB41F7A4911C821B0DE66F
:100890005D6DFEF46FF2EE0AD68CA4335BF078F453
:1008A0001107AD319ED0C429F59C5850438696005F
:1008B00047743EB4306B7794C61E475133FFBF4434
:1008C0003BD705F44CF1F97810F530F0ABAA3ECAED
:1008D000676B692B3E721800CEB6407CC250C99D32
:1008E00002758CB7AF70B3FB5714995B7E9A335D7A
:1008F000C9242A0916F5440DBEEA819B652B3BB23B
:100900000074541F6ED37FAE7BA9C80E544014C828
:10091000BB3C762E2918B1854AEE0ECC8EE72021FD
:100920005912284664D0964D537B0C8417265BB52C
:10093000519E5BE35BA1DE838AEB77C0439EABD124
:10094000308559CA1EE3B1ED58C99BE9898BEB810B
:10095000E2174AF18432DCA57BEBD3189C27EA2B03
:100960002F55C1E060AE74DF293C898BBCCCBA86C0
:1009700088FF4AB0F253C1517B4E00AB486912F870
:1009800004CB7BA1A02E8F910966B1639818D01E6D
:10099000A4E7D890E54EB198D1D4262909F535873A
:1009A000DE6B37C189BC03C15CD3C8DB5877142028
:1009B0005963497012D86E542337CC9233F77B8930
:1009C000F48526B27ADF3A0A2EABEB6F0D21AD1219
:1009D0000CDBFA11218ACAD2FD4EE96231753A9FC9
:1009E000FECCE5B705F0CED8ACDF508A1924DA6F1B
:1009F000EA70B86B2F3076C151CFD07B00DC8843D2
:100A0000BA06EAD1708A39C7A8EE02A3B65B9396FC
:100A100062F505104DE00614F28CE367B2DE25287E
:100A200068C7468037D1CCBA1932C0686DB65DF15F
:100A3000A7EB45E5FFE52F4D175755A4EDA4CA7B5D
:100A40004F3EE04E887FA26B99C0647A9FCC12FE25
:100A50002F9EEB84BD7C80EBDF5F84516A4945DDCE
:100A600036125AC3C5CB6A93E5DD7F0200C7948571
:100A700036432B12755A2EB9C734A5D276A8F4EE98
:100A8000EB4D55C2061A45B161FBF6581695A856AE
:100A90003C31DA13070AB7653547C59C747E7F97EA
:100AA000C05CCFC0947E0C2C9148D8A8BE73704413
:100AB000832371E1C815621FF10466B358D6E0FDC7
:100AC0000917B41E6F10C29FA1D3BE7AA8C340FEFF
:100AD000928E627F0002EED9A68032172DC823388D
:100AE0009FDEF4D7C90BFF4DDE396AEED62FC993CE
:100AF000B404375B6C17F28E66AA91B9918768755A
:100B000060CBB65189C498FC3BE86B602124CC1DB6
:100B10007AAA2134BCFDBE0B2318175E34C20C2503
:100B2000ACE76969CA68E008CDEB0B33B493DE101B
:100B300035BBFEA01626C8CF375E14315D4E113E80
:100B4000EA7CDB13599328194F52C7738F0FEA348D
:100B50007D1DEE109105E015DDF7CCC0642917531B
:100B6000017095CA3AAE7AA19F1A0A21052D6B1918
:100B7000AD07FCD7BB1FD161B5BF0E7539C68D90CF
:100B8000DFAD1CBE2325A6633FB506E63E3CA6238B
:100B900064B489D514E11DD344F83097DCABEC1B69
:100BA000F6A7E043FF67132ED514CD3CB64E4C019B
:100BB000052768869149F10C72E4BB7AE363128CD5
:100BC000BAE0ED3E6CBD0460AB4E0309BC8D4A5FDC
:100BD0003800D7E019678ABA0AF03A5DF7B8225CA4
:100BE0002488B5523DE52E2530CBE1E7F4E0BD4148
:100BF0006762D92C0BA0AC963D68FB2156457E4B15
:100C000032287C87FA8AD3ED750655A4D6E4443F92
:100C100042E69227B7CDDE631FC4B9245351AD9687
:100C2000646141A85B88C763B0E066782C312A2FE5
:100C30003B9F9E24E0268372297D7FFCD20158D6FB
:100C400041B7320AD1F70E00BC7E510798EF208FD2
:100C50000B30928C41FA1129B577332ECDD6A51AD7
:100C6000D06CFB9DFD16F96F98BADD450CC28D0264
:100C70002BEF1E0C0439018285FB9E7CD1799E8A64
:100C80001F71832337F9E52BE423EFD84FF995D271
:100C90005C1B83034CD1229A3D3CE9B981DC656839
:100CA000C05BEF18080A20FD67905FCC7F1B6F4385
:100CB00020203D4AADD88339E471CBBC12A76DDC4E
:100CC0004779F385B05F73B38B3C8CE68ABAA8E8AA
:100CD0003EEA3227AE8616B86781FF61CEF6F5523E
:100CE000CDE7CB14A1DD6CF6DF7B3647B39A6ADF24
:100CF000414CBF714EFFB0BE1635AB50916C77883A
:100D000070C36B0201276BF194F999721329E1FA10
:100D1000FA72572C7CED2A2C2505CA8E4F8BD09A5F
:100D2000D162B54F2C61EB940189DA631642527C93
:100D3000FA69BA8D9EEDA3D52D70D7D08C665096EA
:100D400094A3CD4531C6BB4A20862BC4FA4794E50F
:100D500019B0DC590BC83CF0A8E33BD6E2A0F8FE82
:100D6000E346DCCF5007FE450EC652EE5389E1D173
:100D7000F2DB01A0917BCDB178343E127FBA90C7EF
:100D8000EC5DCB64827F230B8E1769F88AF741866E
:100D90006450B66FF017621D60A77B57A4AF640163
:100DA0005EC6D73BF1354D678753FA97592D051825
:100DB00012019BDA5C6888FF8989283A27E7C850C6
:100DC000F0B6044F7BB0B9D182FDE65650C5069D02
:100DD000E44635A5FF6DB8D5FF589B63F270BDDBC7
:100DE000DB5BC43E33962A1D2D74A9395400B7D657
:100DF00084C4345D74AA61BB327DE41F81944AF9D6
:100E00005A836782E0216C72DAB1E0A91BBC212E03
:100E1000E25AE1274E3A677E768F740468AF7061BC
:100E2000315A26717D6468C8009D4232B1B96DA403
:100E3000B12DA37F8FBF14AC833313ADCB63C5FE3D
:100E40002438D497B7577071B9E8575BF5338E9053
:100E5000E7B7D643311CD6BEF57FA832E51618CCCD
:100E60007B7C907F72C0A4E04385A3C21CC620A0F7
:100E700041F05EF2A1FC3B94CDF69A2D81BFB759AB
:100E8000847A068245E1A87D7FA017582EA2B196EC
:100E9000BD7DA79E3E3217FAEE0DC4CB840434AF5D
:100EA00011760E88F9FC08387536FA878417E0B396
:100EB0001DFC083EDFDDB470A1473DC061ABB33F10
:100EC000F6AFC1970DA9FE8ECE319BF950691D7EFC
:100ED0006B50C12D4A6A853711DB8799A3563A902A
:100EE0008C8253E735F07CED591C7E7515F5FFECCF
:100EF0006F0DF26ABE56B858D0ECD05867947700A0
:100F0000318E41C2D744AE8D865FD9772BA96493C9
:100F10003BE856D16AD196AF515754FBDF3CF9DF1D
:100F2000C6F5ACEE8C434E92EE148DEE3DCBD876EA
:100F3000A03CA6D9F321A7D46B032005D020DB9ACF
:100F40002FABEE68A54589A7C966F3A3CA0E06B7FD
:100F5000B6A1CDBCF2E3E271DCD0B90214084E5266
:100F6000D7CBB83BA4C34B4876802CE2A7FB1A052D
:100F7000588E7C9574118AC0C40E6A651A0090A6BA
:100F8000290D57F3BE872BB8F70EC8EC7BA4693048
:100F9000A50DAF1578DD5CD926842C1461FA2FD10C
:100FA0001839E0AA60B054DD7251EE0841ADB6BA0E
:100FB00081832AAA745E460F6A088A8900BBB66FCD
:100FC00098BA6AFAA7822469B1B96AEECAA1F27B1B
:100FD00012811E72D108C2C3DEABDC5C21170F8800
:100FE000223A961DE60C5C29A31C3AA6389C57DAD7
:100FF00043A95B456AF985033070C0A381834761CB
:10100000344AFC81249914EFD9727E0D843B25016A
:1010100044A5D21F11103CC1F590B2AEF2F286C4C5
:10102000CF235A8D9BEFDF330929FA6DFAE974CD8E
:1010300007294DAD0BDA53B3265C2142DA044F1B6E
:10104000F77285D33B69BE888F0075DFB873E0DD2A
:10105000C507935C8E4C37B19E9A6E93B28365A997
:1010600037337E2424D2D4E5E77FAC6F32EDF44EE3
:1010700078586D554A4F6CEB9D88A6FF8733FFD19A
:101080001A9C2FD3301C0C2534F3B160B1E9AB337B
:101090005EAA39E9DD166D81485EEDA77BF005F1AA
:1010A000B31DB25566E1044DBDFCD727CF0165C61F
:1010B0007C49FF995D4F41C72668E5DD451D94D207
:1010C000166D20E888B608D56AB59139FCA919A42F
:1010D000199338A0D3162204A4AF8F90AD61FF3BC3
:1010E000DCA0512B864DE3B54B5DE518FD58C520BE
:1010F0003E5AC2EBBAC7B292933369B811B90C4BDE
:10110000A45D0AD10968CDEE119C549367FE3BE9BA
:101110003D5CA3F884939812A5B0C617E4D027A924
:101120008C127747E999D32093515C8C28C9E8B396
:1011300027C59D7415ED7ACAF3F9B08229B7B7B106
:10114000BC4501FEB7DB62064BF6ED3DFF3D2FB718
:1011500054C4BC9E46C3B6707AE1C347FCD8EAB318
:10116000DBF0D14D34EDE4D7D78B845DFF9D68F97A
:10117000DF30507E638B4E5099B0D1410951946954
:1011800098ED9248D8879621781DB727109DB753C0
:10119000283E088BAE1BE12694304D901386F495C3
:1011A000227241B04C61012A96D06AEE6E682C2EF4
:1011B00050402324DA55B1271443BCF26F198780BD
:1011C000B09D2323F0FDC3CB3A85066828FDF2903D
:1011D000C080DF4090A10847A50AB549862530A9FF
:1011E000FB1433175653919092064AA8A2CE85233A
:1011F000A222A318ED367E5037A327CE57CC62A487
:10120000BFAE8E98C53A92EE70CBAA5D13BD1E1884
:1012100066178C1D0239ED519E6AF625F2151B8763
:101220003E30C5DEB7B392C4CC4658A8085CE0CEC9
:101230003F235A8853A0239412D91E9BFE1EC5AB90
:10124000BC190BB55BF6A4943EC849A2DF88713186
:10125000A4F1E4E059F593B1B0E9F46033976BE29F
:101260000483AD611456248884ECF7794D510565EB
:10127000CF39906200DB935AF6123301E18FC74FEA
:10128000E1075431F7F341FB029EA3D3D929097634
:1012900041F36FD82969F1FD4BCFE0C0689A0B5834
:1012A000A6C4E30A514185293DA54CFF5E74F30DA8
:1012B0003C9A0E912957E9DB75B5510BBE3684F384
:1012C000A76215791F52EA975FC9B9738D56EC185A
:1012D0004884075649F6C7002021BFB7EC9167B490
:1012E000BE34106795FF8704B78034E969E04A7E11
:1012F000AE44E7E744FCBE435E6B3E4C91946E9671
:10130000C7639C6598DAE7F63631DA60C98220B4A3
:101310000021045BCB1DBAAD22B315375D41116AC4
:10132000242BBEAE43EE7987F200A55FD9D54C03DE
:101330008F9540D604793C9BC435B1559763804E58
:101340003925CC456652CE97A6368EA699AFD3C620
:10135000F3E9E9A007D090838037BB06988DB636B5
:10136000F1A75282028E7E80302A6CBB5C8A6FCEDF
:1013700088D524216093D68EF67B18734E673AE7A2
:101380003731560CCEC9F02C12C56DA84B3B9A5183
:10139000EB339A6890BCB50BAC4ECBAFBA4C6C3308
:1013A0007EE3C6D0B5D25EB8F3925572E0F8858D73
:1013B00080C955318C78C364871BFFD8723C798211
:1013C0003A1237BD56ECCAE21B62D6E76BB1C03D9C
:1013D000EF1709B93CA2E16C5697BE4C20164DCDD3
:1013E00065DE26228373CC1FFA73B39691B17B9C82
:1013F000A34224BDFD0C23B9477816BA01291E5813
:10140000FBE27673C2505E94A13D86E5C79AB17C3B
:101410004A0377F6209FFE4570BEA6CF66126C6326
:101420007EF1D3BECF3A191447B84B8BDBA9A45D2C
:1014300058AE4BD7693CDBD4478CE4F236EC8BF1E9
:1014400072DE2D9818C98311C5411BE06C4D6F0CDD
:1014500083472EFB90803E462A8F8E8F6ACB1B8758
:10146000E25D8B6C405662801B0DA9CC6D0CA18592
:1014700048A6D1ABC34928B4D9F7153D908EF77D66
:10148000D9EFCC239CB230DCE9227670A6BC214E89
:1014900065AAC41A22136537F702FE2D4AFC881B81
:1014A000EADC30BAB9A62FE0F6F1CFF03309D56700
:1014B0005D80E973421FE1118C11741BCC318D1CCE
:1014C000A942AA02D445B001AD6F01450349B85BFA
:1014D000F7F5E0B8AB72466F8551A2256061A9D1DE
:1014E00030305D13601087689BC8573E5AA57490D2
:1014F000BFDEDB695A9E6F0C33F67EEFE5E068399C
:101500009BD2D1F584E6D0F4F3A0DC7C4F909F49C8
:101510008488845C405A79DDC8001A934C887EBD6B
:101520008CB1B0149ACA73DC0AE5E77B4F8B233980
:10153000D83FF2C5C0EF7C39DD98ABE91A60635A39
:10154000A8FB1989B273058EDB29EB63983D8B816B
:1015500094E4D86835743D2AEFF4E408EA9FAC01BE
:1015600017E3E9D90DB001D2839D18D9BFDA2865F8
:10157000518E660D6AD3513DDDD245C5E8FCB2F807
:10158000080A7CF7A2977A96C687C7902BD953A3EF
:10159000EF4081E420AA959B6C80787F564865CE09
:1015A0002BFFBF3E9C8EAC6C895AB81197F836B2AF
:1015B00012B1563C8CF0EA3AC373F6800B5E60447D
:1015C00035CAB016D917208355529AA59498E89831
:1015D000A01870F8D57496B5EF7377B2EE62A630A6
:1015E0005F88814B6D7743D2DBA6742C045FC72ADA
:1015F000441BBC939A25C1B16051ED8480538FEE9A
:10160000E81811A31D25A6446B4BD534A02E55CA4E
:10161000EEBA400F6B2CE8CA6A2E0E7C50E2CC6EFC
:101620008ED97646E50E40DF7B3FE775746D0AA7DD
:10163000515C67144BD8459EC657AFE784A69B57AD
:101640001973BA8472AB6E51266FD28A5E9BDB9E91
:1016500064DB14BE35587DF20EAD72FF569A7BEFF7
:10166000D1B50823A9DC91DFAA23079992386B89A9
:10167000E2AFFFEF944513F2449988C295E909BEA1
:101680000286F7E61EA2724EE903575D18FC21B8E8
:10169000CA21F6DFC9FE7C174B9B88B32010D6E722
:1016A0007FD8AA479E9BDD50E9A4FDF54C5AA7E3DD
:1016B000DF8D0679A8D1D0B86D5EA2C66F484C4BBD
:1016C0001CBFEC3AA65B1BFC54AAFAA15E5B7494A7
:1016D00028BABB8CFBF56018D362A99E0A4A0F4E4C
:1016E00033858AE3E98930F3F9765F98D0C17A517E
:1016F000713ADF5AFE57CB7E1036BD830F585B1B05
:1017000020DC887ECDD50F4C496D720CFB801A858C
:10171000C9E473D4E132482A973B9054B09F4CCD32
:10172000C517014DEEB827ADDABFC96D8A83DF1545
:101730000256DA224A7B41CE40058F11B3E6229C45
:10174000077BB9609A09F6C4E8D1BFF5FCC1C12591
:1017500035865168D0197DF5C73B6A87F089DCB7BB
:101760004F94CA21545D8B08CF27E39D26A9E147FA
:101770003B6D456381F563D84D17C50CD7CBC2E1EE
:1017800009AAE31B523B289992E743ADAFD0FAC1B7
:1017900034B71D9A5CCE2F20D5670A3DE772C1345D
:1017A00028370022FF1E5E4C57E9C0249301071C16
:1017B00004897EF9D8E7099FC82DAA1838B8A3CCA8
:1017C000A077A01F794A5E15E957B674A18CCB5556
:1017D000D1542D5B5C83643C72C241F9F285902543
:1017E000EB04D7FE1469607935E1AF10FDF04A973C
:1017F00087BE0B40C42A193482907056D405601EEF
:101800008582BDE2D5014B4CCD7600A89ED2541600
:101810005490DA23E3CA154E8E5C5B6EAE7FA481D2
:10182000705A2296F7B907AE689E6104D140AE386F
:101830002CBFB635FB9DA2E38D1D2083E78780DAA0
:10184000B18981766A672D246052FCD1B44C8CAF8B
:10185000467F82EC46E68A5E5B65BC84F77DA42306
:10186000D17C9A534FF3E9B632727DDEBCEF5A66F3
:101870009D68ACE27178B25D385928ADEE5A0D9092
:101880005CFC34B47D0C562B02C317AF2F420AA464
:1018900070AB06A11C16E2D1493AA8CAECCF5E464D
:1018A0006529E7B0FFA99CD0148095A7AB015CAB7C
:1018B000C254A0845B98D434167E96B2A7B4F26862
:1018C000018AEE1D945DA0D8547BDB5E9D67EB7BA7
:1018D000DAA2D2B738EACE730A77289DE8C5F72D89
:1018E000C7256E0D2E7608E0CFCD7F27CB4FE912AE
:1018F000C469F44A2ED34C46F78CEFF80DB4391C6A
:1019000057B2A3CB73F2DF1C38185645CBAEC6AF27
:10191000CF8765D5AF918C708F05199B89816CBA83
:10192000D0CFE5563F4330A6645313C38958472EA2
:101930000E6AE4ABA04503E1EC5CAE0F603115200C
:1019400057557DFD20DE416ACE306B5DC516B77CF4
:10195000D7A05FA5D82A04AF092E5833ACC569E0DB
:1019600097ADAB3BD99F6CB4140B4983930F3B925B
:101970004684B59BA4A324C046AB652E1A8EC2B87C
:101980003C43702CE0FEA196786606FDD97B790E6B
:10199000BBE8135246132741E8A61A5F6DC6764589
:1019A00077FDDEDFDF0D1B265F01C166D4AD11D9E7
:1019B00058E3E92E7188762E962B86BFFA843EC1B5
:1019C0007DCC19B2364ED43DD574324C93679EAC63
:1019D000849E9D43CF377DDFDDA463D92BF9737CD3
:1019E00008463F4E7752C1640865AB5E7A813C760B
:1019F0006A3E78707BC65FE7AD97C868FDF9CD4A4F
:101A0000D451E060E930E288C94114F0C1E0CFD799
:101A10007BD5790F8764E7A4DBEAA06481E46D9F3E
:101A200023E6CE1D07C6A47B0E971598F3BD80E86C
:101A3000E868077578B7A48A9DBF3B425ECA5A70B2
:101A40003AD457A5FEC63B7F72EDC9AA703B2B84E2
:101A50002805A5C1C594957F11DA6AEF4DF0C343FF
:101A6000E2A4390532A4D5BFB43A9BF2EB4BBB17C5
:101A700078E22DF45B8CD7B7B699F62C9C9CA4FA2F
:101A8000E784EA09B93BDD4634E22DF1ECE8AEDD4E
:101A900056993CE81C43310CF08168A9AC35A3058C
:101AA0009C41FF54DE5BAED179457BC54E9938EB46
:101AB0000667B5F05B9D7C2688526E7A73B045B29E
:101AC0005655C535A01568F8ADE47DB7C247BC438F
:101AD0000D82A40A61B93BD02AB05759FB4ED527D5
:101AE000ED03629130DFC63C1F0F11544B69A065B6
:101AF000B87EE238ECB9E24FE65C7055E1AE8B7C23
:101B00003E8708C0778630ECC023E6F5C073AD6829
:101B100096C33075AB60A008B0003985D727E304C1
:101B2000AB4B19A58DF35B3BA761B1924EA475D366
:101B3000FA0DC0C7C378AF7FE081C09D227A24A090
:101B4000993C3C7043BB3EA58D48F0A5F3157FC280
:101B50007A0653824D117B81B3ED9F3D1CCD8B4E98
:101B6000F020C8659A812A625289EB1C04282AD980
:101B700073E56E50D5871F60C8F05A27B3FD9ECE1F
:101B80009F0709C54A2C44BF7686D639A8348EB93A
:101B900082274CCADD62122CA3DF269DE83C8F58B9
:101BA00016C437633CE5BE39A0642E7E5A97C66DD5
:101BB0000C52797C58FCFA562D4F5A8E52FEBFCFEC
:101BC000CB7A34DA10ED84841BABBACE6B036A4255
:101BD000B7C761E22FFC0568323D074D9936CDEB62
:101BE000B63D563A983D380A5474D12D7D2A260FB9
:101BF000EFAC2AA6BFA23D48E2C88110FBE9AAEBE0
:101C0000D4B8E1065BFCB4105D2EC19A09B3B9CF1C
:101C100062DC979459E3B034507BD59FCA0AB85E12
:101C2000A7EEF8E413BD7F5E6DEB81DFDA7EC6BC04
:101C300084EBEA17C14E7393F61F6B1DEBA7DE70A2
:101C4000B40416CD2F94C9255E421058904136C970
:101C50000C3FEEB8B0CDBFBF2F2D6113586B1BF0FA
:101C6000042063BF52F9F3032EBF13091F672B86AD
:101C7000752F9E19522BC860BCBC588E9F6806F306
:101C8000A35181F3D279BE177EE3B2AD4D4AB8F4C9
:101C90007E3D2219C96FFB054014B94A623B37A14A
:101CA0002593903C3A3B888B16B7B6BE37BBD6B966
:101CB000AA560855A80ACD92C4BDABB6D5759E1FCD
:101CC0001CD38AE2C84D4F745FE85FD7CCD5597EEC
:101CD000C129F40778CD467B333053D1435F2E0CB6
:101CE000A3114482F0CE5791E77C8F465028D4014F
:101CF0004D8B345A36B6EFF1DF07FEBD8A026D45D3
:101D0000D68CA19DD7DBA44BE111250DDB29AC8C32
:101D10001EEAF094D389D1EEFACE58389A8CC9F3E2
:101D200057FDD965D853AD4FA2ACB404D800D9FA49
:101D3000C7D3E04CB33EA7661E56E0F4F9FACEEBEB
:101D4000CBE2D0F1036BF63E251BF66B8699018E34
:101D50001E89BF852F377E20C69C165F421A8E894A
:101D60005BE0DE82990C7E4288E48FA07A0CF81248
:101D7000C0A2ED03134C5457D2493C15A1D4D81638
:101D8000342999B2910D1FBA8DC91F601B55CBAB79
:101D90008AC5F27D20A77CBC07B490F759D028A74C
:101DA00007FD6964172F59E01AD5A2842558E9BCAC
:101DB0002167D1238B6DD57E8D7A5A9F3E5E4B1560
:101DC00089340C1E07F126FDB9FC9ED2273A0B116F
:101DD0006BA25EFE7C3A18B26FAD3A983BB82C7895
:101DE000F4DD3BFA7634CBAD1951B0190506E64463
:101DF000141C10FD9069CFD01F868CC4CE8F5CF56B
:101E000085E92DC12AAEC0DA8BBE5B9A76A3D9F0E4
:101E10000BF7F1245831BA1AEFAFD3EB87EC255109
:101E2000FCE5A0D21D293530865D495E861D18D49B
:101E300002D9B637D88DA94098207B908D5A54FD91
:101E40001FCD9875FE98BA50235348F21639FF7982
:101E5000F1FE135609FB1F26B78066D0186900B142
:101E600037E017D2AFFC1785A141BEBB575B9E6F11
:101E70009361DB9457FF3D804B241842F878FDC4F2
:101E800090946651C810645FE24864F553C0A22480
:101E9000E7E985382386C5C039936D760CDBC2A986
:101EA000FE8FBC6113D2D3A2ED9673396401240076
:101EB000B0B51F4F420A3E0BC8A13405CC3EEACC58
:101EC00053B55CA20ED0E6C46A88A361BBEB0A07D7
:101ED000F66BC8AC7C9083E925191BD1C1709D2D90
:101EE000EA40764D6C4FDB8729599B6FDAA60CAF21
:101EF00083A139E30E724A14E0EFBA7D07698DB011
:101F00001FF55C4D943C94819B64B9221A2B741E7E
:101F1000674D05A928F761EB6E12C5E8D1A94CFD04
:101F2000D556EACA20EE5ADD57F651DA260834268D
:101F3000754D7E4970C1BF28A5BB8CD5E5ED2650F7
:101F4000EEF9192B60B7264A97AAC7657E7BFAB8C7
:101F5000C3FA7C227E069EF0425D75E01C27D034D9
:101F6000D6DD3262D54A54D2B85E1F6EF6D6417FB6
:101F70002ECE71E95E9A36A06618053EE4CC848FB9
:101F8000F9D90F3BB6ECF64CBEB1F1363437976D4C
:101F9000D414786D11CAE4A315C69DBFBE7A75B37B
:101FA000491A59B16E752D34CD14DC8E358A91EFF6
:101FB00098B45AD00B06B82CB68F1E16C0DE978682
:101FC000B9ABC0C51B2425EFB16BD3E9C8E5324FCF
:101FD000A100BDBCB65CC1D49617F05013F836DC36
:101FE000C41894431141B409573DFAC9112EAE7D6E
:101FF000DB9DD9F3EEC4A52065313D2676A5DC40F6
:10200000E61535C75590B6665274DCCD080CCB4743
:10201000747789A984383F54B72A5AA7B9836E6B5D
:10202000223E4BF52394953557AF32F5F833624D88
:1020300060C38489BC9E563F84A39CA2431C9868BD
:102040007BDFC03A699FA656C1218FEF00FCABC869
:10205000D61610EDCE86C07EA8F6251A8D63DC5EFE
:102060007AD7DC9D49B848E50D04969295425B4FBE
:10207000D28A87BC68B2662D643262E5A587E87AA9
:10208000AE7F0B219B4AECD15F94A3E7FEA4BE3C3C
:1020900091F079B42A700828DBA03DC9AC0E022D5E
:1020A00028AA28F868AA6ED1FCA6019BD705626110
:1020B0001716464A29C6BBD596E052115845AA6163
:1020C000FBAD5C597066736ACEC60EF98F63EAE9A0
:1020D000AC1A6C386C6C79DE008D93FA73FDD0C845
:1020E000C283DE02A56AA594E3E5F80FE9FE252C7C
:1020F0005AD304CF72973D58EB762D0E5A9C3090F0
:102100001AF22CA7AEF20931EE9DEDFE7FD18A2E98
:10211000713F1181AB9287BA0A6DAEE17E79AD2E27
:1021200023CA9051654CCF9DC500E2F53A549D4BB2
:10213000040D94CBFA2A42577594A88FE68CD2FFEF
:102140000334FA7C596A41CBE1F853EBDB95F9474C
:102150006A2DA77F3AE95E2F285159A2AC6DC57749
:10216000630B8B074D46CE82E139A79776A1F88E97
:10217000BD79FFACB51CAEB883BE14187BA04BA9CB
:10218000F04B6065B713440407C1FFD7F2342C0F3E
:102190005E6790E6AEB5BD91CBB7779F1836BBB002
:1021A000DB8D6C754242B3B8B9E5BB348AC72A5D92
:1021B0006FCC415FD9EFC82FA870A227D6B9F057CE
:1021C0005A9275234C509E7D01FAEFE94EE0655816
:1021D00057B4E968DECC024AA59DFD662070A4F0E4
:1021E00025E08692696D61F60E7B857AA3BC048B2F
:1021F0004244FC33D95EC524B42C4C09F3E4B8F353
:10220000F96F6BE3DEECFB64B1D1DF88BF46FDE222
:102210009FAFA34ADDE26FE6A78D0BCC61CA5C6D70
:10222000186900CB2788A5C6E1A2286A2E5CE52F95
:10223000A03C32266CABFDCEB88A64EE0F271A9F05
:10224000C7ED72147171D95337B0A5AB506436061F
:10225000BD58206A01DB9F8202B12E00B7D42C8AC0
:10226000CFF7BADB2036C10E7348BA8BD836FD459E
:1022700031BD08C486EEE3960549C849A74EBA4564
:10228000FE44E5C44B7129BEF547763A4E5230887C
:102290007CA3542CDE17313926DFC4BC41D0C41DC9
:1022A000A353FEB43B4E6A8E44A9D48F8E6226237C
:1022B000DF098A475C68A6142C5CB49B79C3F37869
:1022C000146FB099F0DAED948BA50BC84817E74B63
:1022D000E3076EF44ACBA394C4AD84CD5A7F8B6CD4
:1022E0002BCCE69C9C2A3E9E176590C07E4A5017D8
:1022F000D2326DA764D08740FFFE3F1F81562EB7B4
:10230000C5B507BA2548C501DA3FB022087749C3E9
:102310003C12FC0F5A466C34CF80298DA0F54094B6
:1023200042C9970AA7F8A8B1EB8DE1E2137F7FBD00
:1023300074A4E1A851A5EBA98DC27A0AFD110C7B0A
:1023400008435848F04D6C6004082E7E9EC26252CD
:1023500011F39D406349391B769A4325F067F56573
:10236000005B32F30309416103B85869FB8561CC16
:102370006DB75E3B1A7D16CA299E2E5268096AAF58
:1023800017B1814196CC32DB6979A13754A89810F6
:10239000290F344CF9536E5B2B2B2CA267FC53EBAB
:1023A000BFC98F81931F9602DE09481924AA74734E
:1023B000A74077A7F354A2C763FF4522812935655B
:1023C0006B9A52DB9A3F654FABA93074BA03FD9408
:1023D0008F8F953CF2F4D1169E611D2C619A4114A9
:1023E0001626C0717EC374123E4C4C83BACBC39187
:1023F0004B21B15951E1A63F0CDAD57B450813E8D2
:10240000BD2949BBC40DAA5EAA58A61B9BADB3BA91
:102410008AF1C937631A7006C17A6EF67DBACF4960
:10242000E0D84C89278F9DF624FA39F029303653AD
:10243000C1D66052EADD95E935B8CBA9EFB4DE8E9E
:1024400005AA979E16D952D28700F1EF044C6C8AE8
:10245000A596C619A061B0FFC4D1F3B5963683E343
:1024600035333FE53480F0DBD1506EA32052730149
:10247000B20A8983B15DCB2A2FCA3F7DFF87F9E479
:102480007E166D4CD8CEA1B5A4E585C24422F0B528
:10249000A754B0383F67A02B1AF082AFCA19EFBB20
:1024A0006FFEEA168B470CB6C65F84938BB15A1544
:1024B0000823BEA5DD1AD2EE8CF66A822FF36F09CF
:1024C0009EAA81EB8CF702CCA126A808E5E0C352B6
:1024D0009B05A1FC151772E5719D9AAF7670A361FB
:1024E000260C7D484F9961A5C3186EFA97A30FD6A5
:1024F000EBD10D4DE2C65B591BEA409F7E51F26065
:102500002172E713F98639485FCC934FB775DDC068
:10251000C817F13336FC2D75BDEF2E7C371870A12E
:1025200033C64DE2E67CBA48CB5FF15DB122991229
:10253000C5A5EA46765AED26EF27AECC28B7A1F717
:10254000FFD81E36242C81E900DA8C51C5DB6DEAF8
:10255000B91D054DF990991B2D5B9991E98FFB668B
:10256000AFBEF769F59C35BF1D1B89F1869E15C36B
:102570003F991B8A8C653FD158197ADBAAC1B02FCD
:10258000703B6F305161A3E3E55CD2AC5CEBBE49BC
:10259000365E9FDEF08E512433C2AC3BABC7AD300C
:1025A000F33F32946297B55F3C43AA7203CC829E9C
:1025B00041A3AF415B5F52CCE71DCD75C267D8998F
:1025C000EE75832B05BC0037AD7C757D0A2A25622C
:1025D0004764B527F33E18F37F85ED5BD8F0EE93A3
:1025E00099DC6FC2504DC46AE7F26CE0557519F280
:1025F000F446F5BB56F636716D9B5ACE6CC9A014E5
:1026000032754A17063D8E5D3B8B145B9C9A05998B
:10261000378FC96F15C957410394ED6D0E4EBA8EB1
:1026200079FF40652533EA3B207799AFE9493D477B
:10263000C223764634608A6BFB0D2FAEE5FF7D8F9B
:1026400034C61B6159A0C671B0147A7B1E8DEF9BF6
:102650008DA2C870AC84D800F07ACC9A2A0385A3E6
:10266000AC7B7AFC86A079BF285F195C6DAE00A5B3
:102670005485F63FEAA9A6BEE31722D2ABEDC00E01
:102680002F2620BC42AD8F346CEF1FFBDE6ECAC01C
:1026900014566B334D48AB98B675DBEC49E578FCC6
:1026A0008C1C20AE5720CE31808CCC78CC8C3C7AE0
:1026B00092F378E9AB0787B7B491ECC87A0E5CCD9A
:1026C0009A12FE1446861397104C968C689A170D32
:1026D000D4E51B07CDB94771077E65F4C74A0313DC
:1026E000B13513ADBFC0FF6CE942C29E35243C7DBD
:1026F000A5C245BFEE246060419AE2C24F477C9973
:102700002E59CA092BF98DAD7DC5CE0F8A2748D128
:1027100015A25F7E409EDE04D45B9B6E43DBB798C0
:10272000F43285E822630A4A6438D6DC13D9FC0DFA
:10273000F7A2F6626774EC4A9AA6510468B6F5C827
:10274000E6A73C7FF5CE0D30D6704BD251BB2605A7
:10275000627FC498FB29E0E84DB5A3BF985F879ED0
:102760006E282EBD250C69DA31A5B188150502E861
:102770003131865F0B806CC6109282EB418384629C
:10278000F91C282CE91B2AEE79ED3179095855D22C
:1027900083A652839550B685E41ECF50E4914A3704
:1027A000796247A1AD33257FD353309227C7BC3020
:1027B0003B8663500F395BD634AE5FBB97AEE158B2
:1027C000E2D637348E8FABDA097542D63F2DDFF96A
:1027D00081048298E114B3714A2BF02384EDA01296
:1027E000ADF54904DE145A2209B129BA76D3872FF0
:1027F0003FC78934E847D67ED7D2BE9B68E2ABF4A8
:102800005784EF2AA6C4299466EBB228C267DE017A
:10281000A4DAB388F5D832A46F7BD72C157F23CDEB
:10282000E34E71DB1FFE2B18D5DB9D4D6F43373C0C
:10283000A5B59BF64C5CBA3B0A6E4F80F04124CAAA
:1028400054F4EF1738919C8FB2EEED8A9D01365803
:10285000774E30D426AEF2F585CEF34173B4EBF269
:1028600034C3019414A1336C79B54646BF653CB1BD
:10287000163F03732F7D73B71F942CE7AC39BFD776
:1028800011A67F558956E1494CE7358E1D925FD7D9
:10289000C2F9A7FF08A59AA3FC1116B5BC2C6EF1CE
:1028A000FA1F5364A1625DA074F18CF1538E5DEE4A
:1028B0007D0D1585C6588116A60F13A05A4F89AAFB
:1028C000065957621C513425D8172C45D01D4D5A36
:1028D0008E7A392C711D7CC7867159E54E88A97591
:1028E000CD3A9F34EDAA3C228725E17E58E601B916
:1028F000001738E48694AF6C6F713B0DF6F15FA55D
:10290000ED9CB2FFB9E89DD735AD3B3E83E65E4C0A
:102910002403FBFB761684FF14672F5BC438A9F3EE
:10292000868194985B35D3FBB5D978163B3C1187EB
:102930000A2E11DA251D02318D20D88EBD49FEC721
:10294000BE61A4346300548F84CEE82E423B6D6296
:102950000CEA07EC6B7E61B4D7CA8F3FFB505C5426
:102960003F8AAC929260CC843E986F59AAD367811B
:102970004491B21A967655C5506A370A2D08DE92F0
:10298000B487AF0F5F460F3226AD03515A48E6E9D0
:10299000113A128DE782DFB63FE34C3F1255C00675
:1029A0004FA3461A757E2C19A3FD4B6C9035DE4A59
:1029B000967BCF47100CB3664A9289BD0238ECE48F
:1029C000466FA33F3384545CBD94BFB25AE7FF5AAD
:1029D0003B427843BCE07328FD748B2B650A60F1A1
:1029E0005163869D2A24741AA4C8E8EC1B00E5D81C
:1029F0002AB4F3E70780591B4AE24AD1390D12F095
:102A00002E89BCDCA3EEB1052AFBADFA0D6FFD1AD1
:102A1000D325DE77023401E404D35EE89047260133
:102A20001E39F6F7177A37C044EAC174B9B6B4EA6A
:102A3000681EBFDA31FC787362BA51580FB591A1A4
:102A400065E608FBB475F0EE8C909D608083899BF1
:102A5000626C4B610C48CDDB83EE887A71C4845282
:102A6000CDFBED96DF8B297DC295A588169211ECE2
:102A7000FA4925938181A331E4A080AF0226371B58
:102A800024C810DFAC14393F464F5DDC01E6234417
:102A9000B191CCD17067AB21EB665E4525EAEE3192
:102AA000B97ABDC468989BFDA050C9161E50A350AA
:102AB000C802B1A02E38F12F60521C6ECFEF5C1A05
:102AC000E32FC3ED10222EF5F98B63CB1D45A3D266
:102AD000C99598AE03AC5A8EEE99CEC909A3A870D9
:102AE0007A0D9B53D76170049F0243E40004E1B464
:102AF000FCE0CB50ACBFD816A7D1C557710BC56948
:102B00005C6FA6B0A49FF8108505598EA00CCB1F52
:102B1000F38CBAFCD94E183D7DB38F77B92AE9CA38
:102B2000EA235621917D83ABC005E68A28E69051C1
:102B3000FFD80971B07EBBBACA77180127AB45BB75
:102B400088B84C876D8A499C0BF587DF9835F574FA
:102B5000B82F3FAB48F86550C9BD6E6114DE515CBB
:102B600020D6CD2C3BA484CC443684E84324DC8E90
:102B700078CB787B2FF325351A04EC176D0A4A863B
:102B80009FAD0CDFB12A4FF5ED1D2FE35116D0DFBD
:102B9000E06AE683E50F04B542B1C3E5350BB95FE2
:102BA00077742B36BA014797AC0293203EB1F6C337
:102BB0005315F4B55F02C40E29AC3A80013E27C814
:102BC0001CF1FD09F5639E01CBDDB832593230317D
:102BD00076EF58EB850C20D89A84099C7AC148B7C7
:102BE0008717E1223385849AB87B349146155B7050
:102BF000B71F7C0DB348090FC62BABB6DF0345C327
:102C0000B6B5390EFC04102E863CD6637D0AF693C9
:102C1000C2C2E1593CC4B685C13C9A1880A1F1F901
:102C20002A306C9E0B3115C46B64A45CC83D9A7B42
:102C30000DF091B6E2698D8604D5BE2944931A1A27
:102C4000674E5F06CE17926040FC7DCCC9EC07E969
:102C50004DCEABB560BC2A64E9FC8E5724AD310380
:102C60007717DCB0E76A9A1D04420968714DBF48C6
:102C7000FFB796DBE1601C2932A0A37AAE6CFFE2BD
:102C800068BE5CECAD31ED4059A9CF848AC45F5574
:102C9000E16F83F785790EC28316C4DF83172F4255
:102CA000C99E1C44AC4B9E4A056CA9F02F6C47AAE8
:102CB00075652FE2E3CF7ACCE33BAAD6D929D09130
:102CC00031497BE720C37D7D73AADAE74FEA2CAF59
:102CD00085091CC382CF22AB3F1901EFF9142745A8
:102CE000B89F04D17EEF260D301C84182D97AD03BC
:102CF0009932AC105E50DEA0E71C60DAC24D67D49A
:102D00007C02B076EC67E1F06E504914E2F309B74B
:102D10008391D9DB6A3189790FE3444024AB303E9B
:102D20001E8C28ADC4C5BD55847E4E0BDA708A2535
:102D3000D435749C08C319B8508E4DAFA614EABEA2
:102D4000425E3010153798CD6BE6EF2D5384464A1E
:102D500064221E9F92012A5824B0353DE180537EA3
:102D600013FE70B222E1EAA343C1D49CE11048B142
:102D7000CEF1746AD59F7DF06DC157550344E9E4E7
:102D8000BCC04A0FE1129A34CCC13F61ED1B45FB38
:102D9000F18A1BED91E14E6BEE2AB5AB4DAEF223FD
:102DA000F04775397C4724BCED24BF8131D46911CB
:102DB00070E5950AFA456C98D0DDC64895FA553C01
:102DC000620E8309D4F8DFDB31529EE93DE8ECBCAA
:102DD00033DE28293A0271941F7C9828C58C8B79A0
:102DE0004E049A9FF94131F8450CBB83F62C685389
:102DF000E41B30B7EC4BA25F4B11F0F55A804AE769
:102E0000EF3BF3E3B351E1A97C31A09B11942F8EEA
:102E100073039C3AA3733B06A85A8400E686C8C194
:102E200006A6F3D1FDAC01B74B0C08529C72207082
:102E300093BC896161CF326BEE9F83AB8E16A74145
:102E40005ADEEF418441056BCD3328B47617A35287
:102E50003A4627B72075C11DB91BED378CE8E76DE1
:102E60003208ED952C48F9B03FFC68CFD2B1D8CFED
:102E7000259B55144DC537A10AF47EFCAEC782CF01
:102E8000DDBAF0258BF7070685776AEDB8872F4501
:102E900051E6BA9F47C5E835C4C23AD3D5AE76FBF2
:102EA0002AFEB1886C06AF35A40579FE847CD7165E
:102EB00083C73635E549368130AEC2C2773770E90F
:102EC000F056BDDD4EFE53D44675D31A65E7D0B13A
:102ED000C1A7EA58EDF1076A791111B01E585FF6E3
:102EE00088E35D0EE35D209839B464EDDFB98F8728
:102EF000D71D486E9EF0361E31B54C33E7729643AF
:102F00004E88DD92918B4F03F00FD3CC4AF66CE3E1
:102F1000D462D7C727A8B87CCB97BB8004B44CDC5D
:102F2000232CEEA9F497584E00060742507660878E
:102F30008AD6A7482D14920F1E4616B53AC09DACEE
:102F4000EE044E185AD09D23A4A48BBD7301BD720C
:102F500011949CBC4904DE57E8C3BDBA64B360DE7B
:102F600016F4F87645218C893A7B6A4785B3E812D6
:102F7000441607C18826706D4904966BEE6E70A1E9
:102F800009F378CEED48544BC41A65072DB34B6353
:102F900042EC4113E9E1DEDA44F286895A383FBE59
:102FA000B98F27BEBCD9A74B6826AE9D6938EF2ED6
:102FB000EF7D3D5FE300FE2D4109E6A5BFA7CF925F
:102FC0001A7972B6D00C2470F1F3836607E386BBDE
:102FD00070E03034DC2B14EC8E7D4A1645E66C43F1
:102FE000A61B75DD7C64543F4BBC4EED2A61DEA20E
:102FF000B3BAE099B2335578D9F48DA3AA3CBCF9A1
:10300000D94D790DC71E77DE0A5C2406CB65E584B1
:10301000E5392EDD362C6B02B8CEFBB5C0F10106CA
:10302000B40C31FDEB776DD7E4A3D33E36EFD389F3
:10303000F915E08EAD5618C221FDF05FEC78B3971C
:103040003E48BB09D7BC81F23239D99A89DD20616B
:1030500028A6D75B4EDC3B9CF26C6ECEA9F0B08B01
:10306000FEBFC54AAE2DED7A7406E0D738D9448745
:103070006B05245AC658C3CC6AFE5F5503F1BF7F67
:1030800083EF5D9146B04778CA3BAFCA8C898321F4
:103090000347A5A2B6345358AE0D9A831DAA21F456
:1030A000DC0A43B2AA524BC27BDFA7BE1F1B35AC62
:1030B000F2BA319334D0AFD7458BCF68AB525EC5EF
:1030C000200BCB04999D955772EE332461164A0D5F
:1030D0007F426FE1467D31A69CA4027E78E69FB1D7
:1030E000E8CAAC4F04B7500BBC0CC9441686035A4F
:1030F000B6B4D2BA6A4ACD9B84FC316FE23436EE64
:10310000D03241759354EE700BC66025D66D19C44C
:10311000E652778A119D7C42AF73445B593F1E0B88
:10312000F9750D11217E5EE8365E883A8C90C9AF44
:10313000214DC0A11F9C0DE6368175FDE4E7A683F5
:103140008A5EA8E03C206CD0B7316A13F88688E923
:10315000BF56F6EC6D6AA6F4161BC4999BEF8C64FF
:103160002AAA4C42A66E29302BA672AB2D264F4FB1
:10317000DB4A5311483185E5AE2E26742E45286171
:103180008876AA4BD716969BD6AA72A41336BE068B
:10319000D4E02DCEEFFAC64242A982105CA3848A05
:1031A000D4BDC9FB7842E9B21CC96145E677928675
:1031B000CE70373F185D3F827B10B4777D7F7F9C58
:1031C00043E30FD3E969295F09C521BCB5FC224F50
:1031D0002FC8FDA96BF3AA10E5AA1544F947457E4F
:1031E0008E4FBAACBCF6FBD9CACDE5CAE4CBE32A14
:1031F000220E23D506AAC65170385D46CFF2C724E9
:10320000731D600D37B6D6A1323E1FBCAAD9263534
:1032100017B8FD83F7D7155FF03AC3290FDC087F95
:1032200033D64C3AD61BFDB636ED1132944D95B2DD
:10323000418E9295C52961FE9DCEBB9C60F44F7571
:10324000133EC655C853F3E0710E722900191BFCDA
:1032500016C01A72E85B38A09412C2297B3FAA4DAF
:10326000DB308F6C6D255147A1A2AD50A3DD3E5AD6
:10327000D30888E64CC500365321F819ADA249F9A8
:103280005A8E39D9DEA51E5C2878C3A7042420B441
:10329000F6E3B849D3B15A5641999D715903A0E755
:1032A000DF3619A265BA24F18CBBC936FEE19562FE
:1032B000C2D14ECBCF8CE77524B59E5474B54FFD6B
:1032C000C117EA7E006BDB54F717868B4251274DFE
:1032D000BEAB58188CDBBAF1A8F4BDE7083A4B3600
:1032E000D9477B03E204E07EB767B998D315D9B319
:1032F00036094316C4070048DF541A11B14DBE4BBE
:103300000334F104F30C1DA7BFF4008488B408AEA5
:10331000B9B3C05029FA9E22BC18145123479A6FA2
:10332000A1DB70AF4B020E1E25496FE98D59D0739A
:10333000992B9DDBDE84E9C69721D24AA2C5DFD056
:10334000171D46EABBF0C8DFA28F3E1EE2EEACFCC2
:103350006E3CABD5FE9D9B14ACD7E97988AFFF24BA
:103360005012D79844D3B72615843E06DA82605BA4
:1033700093A1416E146AB87D9BA2EB00C280EDE37D
:10338000387DF6FE9DC62B3600F4DF219EFE4A8472
:10339000A8BAF74AA1160E48EAF1D57254E9BC3D25
:1033A0003F44670FB10B34B009CFFF94A82CB3D8BA
:1033B0000E50946F9A846AF87ED5B0F7D1BBE411B1
:1033C000DCFEA2B31FDA620D7BC7D308480FBAE652
:1033D0006E676056E7C2CAFE2626D432E32B8159B7
:1033E0000892352CB9026A38C2829A752287F24A4D
:1033F000332850BBE6580F9A103E9ADFC95C2F87DE
:10340000BFDC3F810562B9E2F259F112AE49D785BE
:103410000BD0B3B8E560FF705241812FD43F5C58A8
:103420008374F39ABF2289E241AAF1E7B72799E4AE
:1034300069B76238AB72A48D62F6FC92E9C220755E
:10344000D871190255D0F9CD89B577B6DDA3FF51F2
:1034500006669268F05D493F9E2E7BBC024F0505D3
:10346000C94CF67869393412C712354713D955015A
:103470005CB7CBD7E0B4A5E6C6BE5C5BAD964610A4
:1034800062C91C955322B3F89FAE706E21B19D6A3C
:103490002A0FB0179C2600D77D07E5428BB4751E16
:1034A00033F401439DC72068D55B967B236B83FC77
:1034B000F39D804AB8A95146CB0D626FD2998D0415
:1034C000D42E64A4853072B1D5F3F7270872CB3DB2
:1034D0007EB599CBBE76B3BD9D230FA2CCCCD73D94
:1034E0005B4CD70A7E512A652C076283148334D53E
:1034F000572D5437AAD2A19A4420741A56773A7C91
:10350000E7BD07E8AFFEEEFF0C1E66CF5E24081491
:103510004DD7FE726DA9DDF8F228434A62C5C95540
:1035200019CF866D72AED938CC887CB4536BD32C4E
:10353000F203E2F96BF8F6CB4009F73E7593B61645
:1035400096F2313ED60B2EDF66C05FBE31130235D8
:103550001E177FA0FC08CA06AB1BB4E2296DF4C796
:10356000861E87031E596080F85643978DE3556D7C
:103570006D2C7E33EE7A796E12C22D24ACDB306C6A
:10358000183978F140A295824378C80BCD66741241
:10359000BCCBFBD3011FAF1D3A6E928B4004F64D9E
:1035A000FC948F4367BF07FB2FFAD17BAFF0042455
:1035B000B0AD28B76AA12DCC4A3AC0C0B99612FB6B
:1035C000E77D77867227F74A45FD99FEC1F41826F4
:1035D0002F906DFB5104FDA54F11440D020CA1323B
:1035E00013D5361172921479331DAB2AE6ACD8DDAF
:1035F000E41A859953EABBDCB967E5F29834489C34
:10360000BCBDB469306C8C504C319F24D70FAE6F69
:10361000BFD33D1400B1DF24DC83C0850D178F9824
:10362000A4595570A4161E8A059DC5519F1768128E
:103630007323D66D5E5BEDFF71563157861E5EDBE0
:103640008F95C1167FFCE8A67A3013CE1E5810C0A5
:10365000F7692416644CF50B12E310653E9907CB0D
:10366000C8052C16A273D9AFE698FD8E88E56CEAE2
:103670000623FDF880D1DB8FC13807AF018771CFFA
:103680009BD2A491A56FDFBF2E6124EFE38A683E31
:103690009E1A8990127D382361FAF3C9B2B73AD6DF
:1036A000D9B44ED15104591A5782E9388C50DBEE07
:1036B00085B17DE3EE50D69F3C77AF07C539F55114
:1036C0005702874B26B85A920C845BA8B3526DD42C
:1036D000BF3169A3DEB81E827B53A68FC518D0E325
:1036E0006ECA5201D6A6BF32192D1347DAE78DED07
:1036F000193385331E55F97CB1C01113CF6B4AB015
:103700007D02A3CBC8732B6AF2C3E6F65A17B96ED3
:10371000A20FC13CDE94EA4C5146CE9D15B4C918A7
:1037200062C24197960C68792DDF94FADD5F85A01F
:103730002C68F697C4207BC5331A13635D8B2D3537
:1037400005917AB58F3BC98503C6C84DE5CD333E9B
:10375000D0B879C3671532AB13098C4B80A2BAF18C
:10376000CEC0CF57360A807CD4601A284462BCE4AD
:1037700067FD78CDD50DAC2B12EF9778EB0FF726C0
:103780002ADC4E05C1F307E7A0B9EB18A2C8906781
:103790001166DA980EFE98AC33C0ADE621EE515AB0
:1037A000092256589BE717EC8E0C4644FB5D8F8D23
:1037B000B21B8DA686DDAA39DF202AD7364AB0177C
:1037C0006312DD9BE21BC1FB6868186B1E87E0CDAE
:1037D00070147E19A721BF10628E07B0566239FDA2
:1037E000AE0A92EFE9AFA5101DDF79932F57B821EC
:1037F00037F8A27F4D08CDAA6B17438E3C34FCA34B
:103800006AF25E72B71E71033F46D157258636E5D0
:103810003515CD0648B2622790A4EFDDBB5B488921
:1038200096F726938781FC288387041E4DB7DE0E0A
:103830005E643628DD0DBB2FC8D039E93941D4FD8F
:10384000375BCF0F46A2C856438111BAC50F63BA82
:10385000E99DFA814591B63DEF51DE752F980AE951
:10386000D84DE55A18DEB774FF76B249021DBB2069
:10387000D05DEE892DC540B245F1D436AA2D19E0B0
:1038800005DC7218D4D731F6D711F0684A0BC19C09
:1038900054588601359FEC4DEF13320ECD069BA98F
:1038A000CFEAD42283FA1AF013F1C2393B2CCF4865
:1038B000789EC09671ACD16D75D380D94DCFF7C7C6
:1038C0004B44A410E5CB49049CCA261B42CD1717D4
:1038D00081F241EAEB0BF4E542A617C9F397D20D4A
:1038E00013B40385EC0E6406801B4156255EB103BC
:1038F0007C2C19471E39C171289829111EE5219188
:10390000C333E5AB3EB64D1171687D7A7AE79024FA
:10391000B8AEDAB47DA66B7AD91296193E0DCB8A71
:103920007D271824B7A693BF470EC19B2DD1ECE885
:1039300047EA05B1EA272F626F36B92F5AE7DAD185
:1039400066AA3241E5497C5C7AA21828FEF8C1CE0D
:1039500082F3E6C83F2DC89AE5C1BE238BC9B5AA3C
:1039600026EBA7FF8AF0A72EA8E3809400197532F2
:1039700082266681C9CCA78C9B8B39297FD7D893A7
:103980006C989D3D1E056B70153AADB21C7ECAA1A8
:10399000A8DB7776C79DAEBBD68901C9F7A0069391
:1039A000685D52CB4B0E4C2526C8ED1B8C0EAE48E5
:1039B000152C1E60EF6278A53D6B9AB04910F94650
:1039C0004F6E27AE6F814FBFE50A97BF60A085A3FA
:1039D00032C62EB7EA84828C5DBFA4B1DEA8F2AAFB
:1039E000DB249F811D65FB71800A8D4DFC9F07A024
:1039F0002AD24E08D45CB7C226AF1B52B515C90AED
:103A0000C8ACE2399CC33C24CA1AD4E79806D0BAA1
:103A10006BE6D69FBD4E280D6D4561E4DF07431F61
:103A200058C0A0AB66ED982DB92B4940BFA02D75AD
:103A3000290C911D2AB4006A68475B3C0165E3AB21
:103A4000D0745725AB8B546EE6A9E309D1A4E1B33A
:103A5000DBD382AB9496FBD8359D22BDD5C57B4088
:103A6000F9165B16CC827ADD10EF226F8199CB3488
:103A7000BC793507E739E6C5534A07A9A94420F2BE
:103A8000A0172C38E0A4EC5A99428911578CBB4EF0
:103A90004B1A2E490577F95B26F6EA53DE9B56F85A
:103AA0001608EEEE3234E86E076A46F02E98E49B74
:103AB000CBF6875A41E61358770434166A949A1C59
:103AC000B0A6119EC035A8A385C97376B7BBA9045B
:103AD000C4C9E254E5D91EE7F23DDBA457C491D333
:103AE00048FB837EBE930F515F1484DBF5FFBEDD80
:103AF000802B179DAC2828BDA70856C1419D88A8DA
:103B0000BA83F41B11108505898DC8F2BFEED871F8
:103B10008F06636548C8FAD88A305F0ADCCA125D2E
:103B2000687004FFD5066B3219D82D814259645C48
:103B3000431C0068DD374057F33FE0146CE1E8BFF9
:103B4000B7F07032D800DD65C95792327C6E0090B4
:103B50003599561784BA744F1F687DDA4C5C5DC77F
:103B6000908F8A411C169D2676215852C221B5C0DD
:103B7000BEB93D35C96138F4ADF985F968EC02ED9F
:103B8000E09F8B0659205B7AA37B147D3BE11F2FBE
:103B90007F7EFCBE2EE8C617216D4B38C2165E2113
:103BA00018B99F1F78BDBF39F7EE7E9B629C107FCE
:103BB000DA70FC5FA65BA0C464FB203CF022BCEF83
:103BC000AD43AE291922E598BAE60199871A5159F1
:103BD000767760291A98ACD142C6856A9C59899338
:103BE00099153AF00EBC27B65CE18E724FA1901584
:103BF000BFBAF120E8916338EB903B790393C0D1D1
:103C0000D81EE899DEA47894EF30986C30EBAD8E36
:103C1000639914565E70C47A72084C4877154E62E8
:103C2000EC257F7943E49BA1A84B5279F66DD9909E
:103C3000D6ACB78F43782596519C3E3FDDC37F9627
:103C40005A947293AC82FCCB62AC9E1A41F1490645
:103C5000CFDD6E524FC626D7E3E6008D309CDCB236
:103C60002B534A18BC6B00371A43425504757D2408
:103C7000C9882CF2AFD95162E9A54358FC85FD23D0
:103C80006CB7790CC92006D07475499D08684061ED
:103C900083B24A9F82EE2F6C06434E24E370414F5D
:103CA000AE7E77165E3B766135AFBBFD672EF5E3E2
:103CB000804CD6E25E28E1EA43EC8A6C1CC3764174
:103CC00086DB28F4B9BF9244C782002011F8D57C66
:103CD00088894ECACB8C7E028B3C4DBFEF17D4E651
:103CE0000E92F1684D3FEE7DB85998414AE72AE9B6
:103CF00025424A17C6CDD08C3074956E3A4EDAC83C
:103D00006224FB8D41CBB4E33BB50A992A87AE50C0
:103D10002769B52340E425E46441D243EFE6F987FF
:103D2000240F854EF0B630E8A5FE2B251C929A751F
:103D3000219098CF9D7A4F88C118E38193B315687D
:103D4000F9155082672A35C6F1E71C645F0817062B
:103D5000E97B9CB93627144CC21DDDE6C1D43C502A
:103D60000AA07688EB8458183D5CA5F9889605DB97
:103D70001CC9BB37D7769D78489B544DA508368F14
:103D80008424447D708F28574B00CDDEFE4B63B5F5
:103D900097A0D40141C7ACBB150C2D038249B68F47
:103DA00018A7DD25227FC2550143D34E7DA1BA3825
:103DB000FF7B0C44A9F1A0C454B331EA2DBC5C686C
:103DC0007C44CD74E0C77897E9FDE84794CF5F76EF
:103DD0003AFA37DB37C5962B0FC5F8FC8FEECDDCF2
:103DE000E7CEC21ABCBE7044B1A54D202775715AEA
:103DF000F4C3B8D189512E9DB81ED3E0266688F64B
:103E0000997A1BEF7C0C6296AC0AB262ED8DD7B04A
:103E10001B8083CF2D01BF4CA18FCAC3847E4CD59C
:103E2000519A021C1CF0E1D150A902DFF2B8BA4548
:103E300064D83F142A84045E83B1F0E3CF9731B88D
:103E4000D56B3DE24A51E443B68AFB9E17CF2DDA8B
:103E5000C48DB4BE788A8E4EFB5080C34095C28913
:103E60006EF4F378E9A25C461EB527388DC903438A
:103E7000F79CF198834E7D660866933BA4ABBB6AC2
:103E800069ED08068F952802682C2EC75EF80B0D89
:103E9000FC72EA5CACEF54DF8F9C6F55DE7F43D041
:103EA00097C0D2EB069AAE7F9B828EBAE4882E6FC3
:103EB00096317269C89CF1BED76CAB106395B9CBD3
:103EC000CD9447B1CE33DA9A62F82E75505C232830
:103ED000CD03CC2B9F8EE65B0DC4AD02BC0C74FBF6
:103EE000656AEE999A1B609A892D5EBB242EBD22CD
:103EF0006B8241166ED2D11FC23C4A0A07B20675C8
:103F0000BC47279BCF31747D85612ACFB90A0361F5
:103F1000802871D866E46E6368E77B28775BEDB232
:103F2000B2759CBC08415B8EEA43301BBA1592BB4C
:103F3000DFD746B22A1A722FD8A280EDD097B330BD
:103F40002DCCEE199490826BF254434DA7A00178CA
:103F50009E6DD02655DD7644CE04D7CFECACF3E988
:103F6000960EEFABF6460784FDD591CC549143965F
:103F70009A666008F2B58A0B6BD2E03038E6C6610B
:103F80005A58F6B7649CD7F70B4A268967183BFA4C
:103F9000F093B0D302251FF8B3082CC93733813111
:103FA0006A992F4449DDD7E64486E83CDDB70344EF
:103FB00085DFF693FA4E6C730D75A4B4FE15D25ED0
:103FC000BB22E437C43CB57D705280588599A23E2F
:103FD00080201E1642768EA0C6DD2F5DB6E1A4E2DB
:103FE000C7421DDF2777507A7F99BB0083351C4A73
:103FF000CBFF9405B745E8278EBA76101E495ADBE9
:104000000BF22C617844EA74032A5AB3CF48280B88
:1040100095EC64A929EB93BFF97CDB23073D35DEE2
:10402000878FEF59F39A7BF6B1066164B41BFEF7F4
:10403000D220835CDE01ED55FF68E227D61A15BD5C
:1040400041ADD82D86C1E347E44657275118F30EFA
:10405000B9B58D880D4D7D9A7CFD8BD2052BD7DEB1
:10406000C2EC1CE15332D6F01A870EC21BB1E52018
:1040700045C866DE6442D620B1EC63F6A16FF9F95B
:1040800097EB8A32324DB21075E9D8D85997AE9E67
:10409000B5AD5FC483642180C1A44612CDC2589AD5
:1040A000D13FE57A2CDAAE163AA64EBEA74112C62B
:1040B0000D38E6757F6D71A135681FC43F45245CDE
:1040C0008584CF59015C03E2552C055374C2EC5F23
:1040D000930AE61C60491EE678F620AFBE1C602FEE
:1040E0004D76A089A332F9FDD4D1D9CB83EE91FED0
:1040F00052FE4F41A2E0B5EE5CC43A34AA82914828
:10410000C61FAB4BB98D0E816814B2A76ED39BD07E
:104110009A967947B8B24B9294C4CCB174226E9CF3
:104120001016D1BE1D2F9511E769D3971E7EA1A948
:104130007E85465A8440310538C0DBDD21C8A8E5BC
:1041400051C56F1A5EFD76B5CCA034A0541190D73E
:1041500054404E0AE1466145443F4834CB5E353D0C
:1041600032CDFA373F660A5EB5D06A3F242CA0B83C
:1041700039A46F1F1AC927A21801CA60203F9E3EAA
:10418000606DD50D36912094E4DA130075A021CB33
:104190008BAA84966FEBD09BF904B202E1CD448BDD
:1041A0000C023DBEEE61B743C07AE06F8279971D85
:1041B0006D2D2889979D68678F22B526646AA74070
:1041C0006C9056A5C54AF96951E69F1A5B52DE9A72
:1041D00046BCBFC93915D5196532415913AD069F83
:1041E0003863B1614FEF7453C7FEEED165FC56AB37
:1041F00042803B527218D6DC6DC61E42EBF503AF0F
:104200002DB7D02AD196B62BF3106D3CD6754F0939
:10421000CF303E405218B39779726150FE4A132E48
:104220008E778EE9C66EADDACB2598613A3024746C
:1042300022189FFD5E1BA224C3A4E81BF186DA6A44
:104240009E0A696E5E9D868FEBE2B2A9F1A6D3222B
:10425000B027786010783183660EF3C77FD7D70315
:10426000272E0ED2FA23E8E30FFB5593AE45FE73DB
:10427000B51C3202525F3E77E29B86E0F48BE9ABDD
:10428000F6E3B484B191B5359A2E8F32F99E8C5EE7
:10429000B0B440C9073742AB9CFDAEE2B2339131B6
:1042A0005C6E18D1CF85C8B013DCAF67AEF27593E2
:1042B000E5F180A583C400BC5BC0D4DDAF0C0C0766
:1042C000AF5C26A050024785A2202D9E7C0461167B
:1042D000DA6F6BCB0D27E18ACCF5AE62F5C19A722D
:1042E000C7A7B11A698E81F2978833CE68421950F8
:1042F000DAC78C4E64A27BD3006D9142227A925F22
:1043000081DEBC5E00298321E44FD06D473B124320
:104310007505F6D737392648E97A1978E5351182D7
:104320003F622DDE2F0BBD459E32D2F84765739755
:10433000FE2A9759AC178A68E0527BF0877E6F207F
:1043400067B3F924C53A781D80CDC3B8663466A931
:104350000CC6B50BDACD8BDC22EFF1D25F64C95EFF
:10436000E0CD24B5C4ECF6B6678EA180F980A0A19B
:10437000F993F1B54E5A105D4E8913525DCD385AFE
:104380009895185FE4B76F52D7342D22273E65E524
:10439000663689418A04691BE9A20C0980139BBA1D
:1043A000005331FD0F974C5474E2007D6C8075D83A
:1043B000B5F7D0D681077027DA9D036560F3FBA2BD
:1043C0008E3F8CC1E3BB577E8ABBC32917D4AB0099
:1043D0008E9F0D541D0CA08BEEE426A1A5CAFF11E3
:1043E0003A226B553331C011871722EECBE33B18CD
:1043F0005A5725C0BA73B0B555A4276A8D26E7D49D
:1044000001FCBEE1864D200F7B416B58026FD080CE
:10441000CB9ED877A8728049231223546AA205291B
:1044200066C4ABB897F5EF849FC8F61B859001D79B
:1044300052507538ACFA5AABD0463CEC2216C6083E
:10444000EC3517C0D3AE0CC0CB60B309F554DD1A00
:10445000A8B535D77F75DD65B8A56855AE1496EA61
:104460009DAA94EDDE81413DFD5281CA46A17CFFAB
:1044700046ACBD684E4F0B0F9CD5300E9BBA5269AF
:104480008608401C0EADF86DD97D3AD33E69DE78C2
:10449000ECD967D838515877204968B38CCC10E7ED
:1044A00038BE5945EE2681BD24E68964FB35838CF0
:1044B0001EF15473D3CBB3BC4B571D52B5255ABC18
:1044C00049CFB5ACBDF091C748D7F4CA6AFC82BEEB
:1044D000A2056FB7A891DE5209E4432162763AEF54
:1044E000D1F04FE2ED38F55BD493B77DD14317326D
:1044F00003F1D2CAB2C19531AC98DC496E52B5BE57
:10450000EDB59692A44D85BEF995572D469CD3B92D
:1045100011C7515CE3615C2067AC9ABACC8F7F888D
:1045200040CC3FFF3E5FE58D0E600D4D356506A129
:104530005F5AFC51A0C9ED86D23C4AE202F515B0A3
:104540006D48B7A2C912A0DE0CDD6724DDE3FBECE9
:10455000C4D0EA9640DCA24069367992A9378B37FD
:104560009E027CF087E495631251CB00D4A91D32E2
:10457000DB47B28D901354B00DCD243AEE4AA7AB71
:104580000003FB5C705AE5EFE2D9ADB07F4B28DE4B
:1045900082893A29525A82B981846D1E14FE31DE15
:1045A00045FEBBD7AD06B739627FB30C9B66F105FC
:1045B0005ED0E571B9B6D052EEC89335F0EA82AA62
:1045C00020E2F0AA1E5A97881DD40BF5B7F8775A47
:1045D000569C3C49EEC4181D5F17BFCE6CB4B0A901
:1045E000CC71BA43D54648E5C025B3D3B70539E603
:1045F00014978F928F01A4C946B6513F0495F94C88
:1046000086F2B3BE99B234749D3D7966538E029999
:10461000888841832BE45321F5FDCA644C3D3F4E0D
:104620000EE8973464B9EFDE2BB1EF4D95D6BE7529
:10463000645BABC1C7C9C22D26317AE86802B0C736
:104640002BE10FABE5BF691483C2A1A05FFCF16A47
:10465000A031CC255CAFA75C74E583D8925CF78C65
:104660002454013EFF55C532E5D0378CE3DDE37BB2
:10467000F788376356BC0675E0FBFB5797B58F91FB
:10468000478BE98D48E9F520315968E02950B0E5BC
:10469000696FF39F169DF8DC4C2916DE5A870F418F
:1046A00065A11AC08B4792396F86D8398CA5B75847
:1046B000B8C7380071AD12FE030FAFBA50CA8BAF46
:1046C000548EEB6547F1846B47524E653D84293427
:1046D000EB9D477B30F3B98D2FE3AF5C03B4697179
:1046E0006C432D702D3C84608935D67DBF0CA4EEC3
:1046F000CD8BC1E18EE8EA1D62A90E2590C539BBBC
:104700000BD876ECA5457C8CA768BE3A6950217C15
:104710006E2D3CDABD1640A20EFB6C67282A76236C
:1047200011C61AAA4AB5548436B489DCE717AD8E8F
:10473000A1A5FDBC618041840D60979792653E0103
:104740006436D70C694FBC9D71D13B2ABAF99C04E1
:104750007D3215A413DC467919376789A7526AECB4
:104760006D5D93438757E4A4B65AA1FAB3C044B42D
:10477000DDD141B9DF9E768B552EC916D5718E5489
:104780009AE7BBD1D8C25568064C75D77C22610A1E
:10479000E0F558C7C6D6ABAEC24BEA759D87CB7D58
:1047A000DA7510DAC83A4AF6891386620FC6B29DE6
:1047B00069491F593DD54CC9CB85CD07168B8373ED
:1047C000242AF4E176EF32AA08323C473C9A83EF80
:1047D0009F84C53BACA95C50BAEBCB6D67E44DAA96
:1047E000F04393D4343A5794726B24AD287C100E66
:1047F0006E517B0FF16B5175405EC14250FBC41B83
:10480000BCCC6FE50910B55857875F52C92D11B35D
:104810000540CAACDA56796BF1D7E7EAA21507A0D2
:10482000885427922F448D5D70A119AF6B9CD8C519
:1048300057CBAA89AEB2F879C545A38BC285042AA5
:104840005ABE836B959A4505150A6BC52D77C7DD52
:104850009A6D85F5A58FAA6699EFBF622A29F5544E
:10486000BC1C297E5DAA8ABAC5B6448B85150B7F10
:10487000CAC491F76B506E45AC70E562E8368F6242
:10488000399E722B5F90DBC8A2424A2EB8ADE2502F
:1048900027C745D7A104ACDE224040311E5ED96255
:1048A000E3895003A571E956F27EBBCB63DBE47963
:1048B000B207C7DA5C9319AF85C9A35E8034B2BF73
:1048C000D04B39B8EDCD745B9F93CF98F575FFA3AE
:1048D000B40A9093A4B50AFA3E15A7FCD9F466CFA2
:1048E00098917F962AA29210B8AF23E232B72BE7B5
:1048F00038AABB25F6C0D58620017E7D868DF36261
:10490000D9769F00035B833CEE491FBBB1B110FF1A
:104910008C8AA852C3411769DE089123F9FEC57D30
:10492000B3C15452539785A218F16FB05F170EBDF3
:10493000C49EE6B3EF65DEA2909E1524370A1F865B
:104940004D2F8C34A7BA4E11AFACFE52FB4F699D70
:1049500037BDA07F53370C87331329065B2F6A4678
:104960004ED081DCC34F13D053ED00FB97DF96C3CD
:104970000044F4633BA66F81250F30B611FC260975
:1049800064759EE81E3B499E440D07B51D1DDA6601
:104990007ECDE882E8636851AD9A7C3B1BAA3DF26C
:1049A000C12BE68D61BD8D15E9602AE5C838B5E5F6
:1049B000D4F4F95C0F8D1AD371B67CFCD00DD97983
:1049C00098C90991EB4559004DD7BCCEA792E34B4E
:1049D0006A2A658458247D2AFD83F30398D41F96A0
:1049E000A58A6D1650156B239D2A1CD91D61D813FD
:1049F0006A98AD47E05CCD8243FEFEC7711367B293
:104A0000A3BCB6ACD5AF160BABA08A1C64A7FB51F8
:104A10004417081EB7B4309C1642EC896D25B80BBC
:104A2000D37BB215F61FDDA86E5B2F7C057C1F457E
:104A30002A32A18463DF8F10AE661C8432DAC36B26
:104A40007B7FA739E108FCF08039A054619FE77CA7
:104A5000953BEF275B80F48F27E67BC178F49C843D
:104A600065F66461F888DC329E4697902B621D647F
:104A7000BE7182A88DB5F35301964EA88FF8D3600E
:104A80005C73A04B53EC8B9A2CBCB5C7ECDB2902B2
:104A900025330507D971EFB0A12F52F8D64ACE744D
:104AA000B2E974F23C2FA824AE9176E57E713034E1
:104AB0000E435EC794A738FBCF68793A459E72DFF4
:104AC000BDB914DEB1506A51509DB2B892AB837338
:104AD000FF1D272706435CED369CC166E4B2845176
:104AE00055CD00B2E574B80E604458B62A5D6E7CB0
:104AF000445EE857ECF4245CE801E5D252644AE4F1
:104B000058C4563ABFD769A4CEBB382C1F1A8BCDD8
:104B10006B30CE89F6CC1B4CD777EB523F0854E173
:104B20002731089F598F26E9B2D80C1B9CFD23051D
:104B3000C8D7C6B74AA4916B5DDADBD2F21C821EDD
:104B400026E50C8B821E8DA9C67013F1A1C0549767
:104B5000F2423D9200587B8BB5EC0F97C347A21AE7
:104B60003F4DE2053DD787F6E84AEB688120E934FE
:104B700044B0E199A3D3AAF07FD1ECBEA2A33D78C3
:104B800060DEE975400DFC029A9F8AE264953180EF
:104B90005D623278B6EB2E3E4013029C8F5F72CD81
:104BA000F89178C276183D54822976A6C658485A9C
:104BB000A164B6E72D08E448E03CD1ED1FADF2005A
:104BC0007E72A9D47D27ED4BEAC599A5F6BB802856
:104BD000B55F1C0AF09E7F5B2A02C018FEFE82951C
:104BE000EA3745C629E2357D41A5647298CEFAEED2
:104BF000067EAFDE5C7EA0514FF8F6FC67979156BB
:104C00003AF450E6FFDB82D2980B0B6223559502F3
:104C10004360D4A7C1E7AD7763DE2E28AE66C1D16D
:104C2000EFCF155BBBD6274425A10FFF640FB861FA
:104C3000DF218072E5798F4CDF75AEBBB63982EA31
:104C40008DD6B391CAD49CC3C3527638FA4EB0788D
:104C5000906DDB9E7FEB87191DEBFA857B38109EEC
:104C60001FD391DBD1FB390A71C24203D7DD9933DF
:104C7000D3A1833DBD95BCD3DFCDFC7D8AB474BF89
:104C8000B03C3C9224479D2DCF472476C5340EC5B9
:104C900065051C51BECE33E2C9999B038447620C63
:104CA000D23285DA4F0A2437A48071C1DF0114762D
:104CB000CB0B218819145432E2CE11089F41067D96
:104CC0001B8AF7A79143227F5A71D5C713FF082982
:104CD000CBA92FCF55052E7C179A7B862468291ADD
:104CE000A4E8EEF15CBEC13780355086A71880F687
:104CF000F1B932306F2E1BB7B80D6283F2033AF66A
:104D000089F2E623D705B36647406DECB1E34D70F9
:104D10000B7128CF57A27B86F9E94420FA3F191F6F
:104D20006B86D3B25C271A88062DD13F9E643DA4C2
:104D3000ADE2717972659CD573F5642EC1D7C57FDC
:104D4000F1099469FA446138B71F81A8AC2527EDB1
:104D5000AE95DE2819A810F1A0E55012E1153EB27B
:104D600042C6D36EF3F7DA8D77B5850D6F9D64FE7D
:104D7000A928E60F19D1072B62D7F6B7882233B3DB
:104D80008C54E93E3F835E3E0985CBFB50E5D95A02
:104D90007E06C24032586A7F7C573CCDF7A16742FD
:104DA000811A87D408D64748542F63EB09C00F9661
:104DB000CE2A59C59870C7BB18FB5E7704A3D37B76
:104DC000D5D64E032C5E8599E1FF82D92AF0175380
:104DD00082F62F0A75835D663F889F3D98DDE7DE8A
:104DE000C13D9A97BFAA9D1A5E1DECD798DE35F299
:104DF0004414CED2657AC7FE64AEF9F132418A8A94
:104E000083A50A2786DED6961D4A95E40891854338
:104E1000046D4C8AF8D9183ADA4EEAF663D3A5ED58
:104E2000DCC2B19D7CF2E9359534BD1688F01A627A
:104E3000742CFDA633AC728B5955865F50DE678D9E
:104E40009075E57B51C8EB9EE057C6F0F75F5310B5
:104E50008DD55F040F3B5BA17D20640D336F84CB48
:104E6000E9A41069E60C56673C6C7E7088A2538BEF
:104E70000867D38AF99A627F477A191EDA241CC818
:104E8000352C1338D2EA59248B67B3494312ECD03E
:104E9000E68FB8385105DE829A2050B0274E1D9417
:104EA00044D702BAE08CE64FD20D389184265DC01B
:104EB000E9F3F5A4EB02C4F0BFDDB2468E583AEA3E
:104EC000EA6E5FC48F700D36BD11BA007A4AB653D0
:104ED0001880105F9066F3A1E13035D59A8ECF8DA2
:104EE00083D50BA09088AE4A1AC50BE6A903C96CFE
:104EF0003FCF49257E176F02928677D368265240AE
:104F00006A339EAE4C2F969A5959C3C26968EA55C6
:104F10006C9E76C5E4AB58DF45014A852AA022F78E
:104F20008033D9735CE9768613B0519B64E6FC2329
:104F300074517FA167D3B36ED1D18F08A574DC9C67
:104F4000AC4F60590FF8689980BBF2F61C597C9CF5
:104F50006C87BC3CA0913C93F41F059EB3137D323B
:104F6000552DF972E7BBD917FF6E199C6370861F28
:104F700030BFA1EB9C48DA9DCE82A910C232FC95CD
:104F8000EA09EC411CE714D7923F3927E066195B28
:104F9000DF0B68BB5A9379B56209D115546B2F8D1D
:104FA0005A3755F61780D1085F340FB49108033A89
:104FB0005CD9AAEB51F0569D18D31DFE7D2913F53F
:104FC0009CA879F5F8B36CE93087CCF344093A969C
:104FD000CFC028E0E73B04C93E38E41568EAD21E9A
:104FE000298E707C1179BCAAF4D4C4341CAB9BB359
:104FF000226D1A45FBFAB28C8282BBA1D2CA2A75F5
:105000007D02B40E6901A4883CDE811212B5476DA1
:10501000858FD13C5C758DBF7A353D7A8D65FC7D81
:1050200099C66A003BFDD3AFBFD75EBF72B9144DBE
:10503000EBE391D14FA028551CE734E8FF01312D57
:10504000840E7DD474AD6082D64A0D1B5AACD679DD
:105050008B45D6920DD9584A46A8C288A01243471C
:10506000C55DC65638C617D10086A5133ECA7186DF
:105070005FD37339426FF3C037FD31AF800309430B
:10508000EB73F6525D21C0D35F9D242167CEF3B050
:10509000A8244D6A90FF464D146687F0BE589BB316
:1050A0000649F388EE40AD053AFB79056F792D0E80
:1050B000688D87330A9E544764770643121D70C477
:1050C0002B1ACE07A9A1508F7980865DC66786739B
:1050D000E67274ACB9D013699482326244A005BB05
:1050E000F3859D6882DDB2902C35AFF9303805AE7E
:1050F0002EB0A0341B5A4B2275CE0BF6B285B6C229
:10510000FCB8CE7A1E9EFE730589E5664502C6BAD6
:105110008E0ABC2A9ED3C8D1B95F8B52CE22918011
:1051200067AABFD3595F876AD823478BF01C5942BF
:105130001BB64A982A18018379519F829E2D4C0EE6
:105140005868B45BC001F6592246B7BBF134C48D30
:105150002AEA523B947E63E6B2BD29B83BBBB20457
:105160007A747962182D85CA80B9133A5BB31F89A6
:10517000D785788B2CE4E9F9C335C428528E212FCA
:10518000783045FED58277DA3351E79D16740A2DC3
:1051900081C438D43087AF3EF0CA49D5A6B5EF5A9E
:1051A000855AAA77A4A031D6A3FABB435ECC6DD5AD
:1051B0004C02384256B19867E2A669B88C7ADC7620
:1051C000D599AD4DE1F2A1D7D95D6E8142E14BA1F8
:1051D0009E90D3CD463255242534C45E6D9FDCDFCE
:1051E000221B50ED2157E0BA030E2508264E92F4FB
:1051F000A29A69411EAA470BA9D654F947EEE04985
:10520000283D2190AA8E2FC9F349CD8E411B2B9AA0
:10521000C8190936ECA31BAC42342A912D17702C07
:10522000284DA9D5F680CAB6A14C3F9A2004C6D114
:1052300043DA7BC537801484280DAF21C2DE2DFCF4
:105240006953BF93344E27F3A52D6CFA210E14CA6F
:10525000898FDCDC772F5FE478A40505C29CA9C3A5
:10526000B2EF1B0AC7319AD6BD51375EF96E6FA5F2
:10527000D7F82A8F98BCF0D9B0B8374C7A0A0EDF2D
:10528000D245BB1DC53482EB4D6BDD312FC3292CBC
:10529000AB1590837CA7BBCD370C3D534B618CB7CE
:1052A00019FADF8079B0696CDA0A0BD69E94FABCE1
:1052B000486A449F760F46E3D37D1A1F2BC99C5C36
:1052C000DC3DC9B4E1A0C4138EBF0420F73048E12F
:1052D00035544A57CFADEA1230B19BDA23176EC26C
:1052E000F4EB6DA230C73685B8C782FD3CD04428A8
:1052F000BE6E6EAA44A04E9C60476914D2DB1E3E6F
:105300003FB5CE1F4D9C8BEB49512209470B1A919B
:10531000720740A08603D6B456A77D37E8C199919D
:105320001E5DB1175313CAE1574A8ED641A29CD9CC
:10533000A3A2F34DB95D21456A563A15AC3C2F7ACC
:10534000F605D7310F2C0E619DC1C1BF2B93427C56
:10535000E98F61CEF5D8DD1FD8E09F3E7786463EC7
:10536000AF8DFFC985551238F9D605075880550508
:105370009F8E924EC84D725B40526A5837EFBF27DE
:1053800038FA4BBC6CA09284EE3B8D33F1669BAC3B
:1053900064828C4CB31D535F283E148CED7AE2314D
:1053A00001F6D10DADC1F3C12044CFA870A5EFCD5A
:1053B0009C37516AA8DD06C5755802B62FD0EE722B
:1053C0007F5C72C0E7E4D743DA85049B255286F000
:1053D000ED3741C393D02564F69D59F7A776B1F216
:1053E000ABD64431EE4E8B5E8B0A67ADB4E1D38908
:1053F000C2AE5486CE31DEBFD90C42E09165AEB06C
:1054000083872A3948D07212440F18B9951D538EDC
:10541000CB5DDCB3AA4FC79334ED977D41E2BF95D6
:1054200088C859E7AF07E6CA3C55CD75936AA32FE4
:105430007BA1BC41ED750D6D7DA94D339BAE42EE58
:105440003FF6F41591741FA44C02A8FF4E5FB9DC1F
:10545000898554954FA8401412370073998729D332
:10546000B04CFE4893592CB77411D77FB9AA1BB61C
:1054700070E98236FC2C500BB30E800CC9F3919965
:10548000EAD33A400A6F061E5453E78F9C4A662DB2
:10549000EEB47BDB15E77C8A03B5500CCC61B4F924
:1054A0007D5CD664806541BDB4FEE24913128E7402
:1054B000891C5F712F814C360AD360DAD996491F57
:1054C000FE8BDAC33538F663FCD0A2590D809EB648
:1054D00005F6C491D267C73FB5DE7C91376DBF3EFC
:1054E00086F9CA969C4FD67DBCBEF2CDCEE5EBD0F8
:1054F000EF1CAEE9FB938BBF55533E56C6E2D69BDD
:10550000345AF873D973906626346CDA6DDDF3681B
:1055100016E78D729A257EE31C7A79CA77778527FC
:10552000A6BD5C204A8FF1688FE52735571066C805
:105530000CA95D0215CE25F6A3C26B98CFDB33FC18
:1055400084DA12A5FB406B97F22FA93DCA4D0FDEFE
:10555000A94AECA3C30AF85D67AB2C7769EFB308DF
:10556000F66ABABA303FEAF66C09A5A45BF1A01F4F
:1055700088EBDB5C722F2372473A23F8710F882B7C
:1055800028995BD5DF8926E8C18186DE70998ECDAA
:105590008997FF82E2409F69080582E329B555D9C2
:1055A000CD7B9B1B336DD756D6D2D244C72D7C47BB
:1055B0004D0B0B87489F8FB8D1C90BE867649D2AB4
:1055C00099A2535C0A5475F93501CF6CED35F6B4E8
:1055D000BD88C626CC803FE7AF97A2E815EA11D672
:1055E000C6B2DEA5786A73D78C0C09E4C87F6E4317
:1055F00084BB384D0B3C434D12876340B0EA282EE4
:105600009013AC7A42101B5F2EB0A6350E16B79FD2
:1056100090AD7883956288224E0251ECCAC0BEB12B
:10562000B9AAECBE641B738F90B39BD5CB86751E55
:1056300095CB19B970AB5E071C9ECDA789ABE7204F
:1056400006A96A638CEADC1DCDCA2951DF79483C82
:105650008AF9635793ADC37B168269AF254D4850D5
:10566000BF66DE819C47510A23074CEE7E9799BBAB
:1056700029B7C9066C6A7BBD3E61C40B6D798F2664
:10568000335052172C1A67C874D7EFB5AEBE55AB5E
:1056900073544E4A5BA8BF2B780286FC4354EB48F8
:1056A00032E267C905EA8DFEC6981DBFCC8B050F97
:1056B0002A36CE18341D909E0B59AF591BC093FC4F
:1056C00091B68F2BA73126E0C3B67273072F00B6B1
:1056D000562A5BE8C168ED16232DC687801CC4AC32
:1056E000AAA086C9C48061523A5C8F6FE492B20C62
:1056F000C1CC1E343EDF88CC52549DE99054BE5537
:10570000D9D9A9D4C36E145F9CB35994B8D2345874
:105710007BFB7461DB23B3E40B7ABB907B3DB1CEA2
:10572000003EF4B13E5DE4F37FB738D83101A8D92B
:10573000565B300D3E93930D2678A24B07459C8D0A
:105740000398B6CE840A7B8F1F93A869CE3E16CCF1
:105750006AEC3A36FE7DF2CF5F3F79170F708A0907
:105760004DFE5C1217F4A949D892CABE6220CF0C34
:1057700093AE046F293320A9D74FDA68FFA8BE5033
:105780004A3FD3FB2F89A796ADA4D23F95657A8374
:10579000EE55723BBFDAC2E591C1C8B55A5EABC1E6
:1057A000EB5D5AF9362DD040C568745463FF5A0C2E
:1057B000600F3E05342095C5F6DC0D293571CF16F6
:1057C000251EE1D14B0A9557E8D1B1BE9B667CBC42
:1057D0000F55FC9CF2AC5FA75243816DB973D21E8A
:1057E00072A13107BFB3823D0656AD576142C4D4A2
:1057F000E6D23612D572B7DB54A7FD0DA4377A8BEB
:105800004E1386F09A988992B0AE6175AC5E229E76
:10581000165B4FC9ADC64A44921504FDC9AC533B53
:10582000BB6556ED1746F2729D29617AC9F258B6EA
:105830008FEA1C1ABF4AC71403CD4F758B0F29433B
:10584000BE1D7178237AA7662789FE52D637170ABC
:105850008BBD746E45A9A2E183A7DC8A66679FC5EC
:10586000DF2FB113E205C067CB7481ED484F60D6DE
:10587000047411CCE91E50A8521222726755955833
:10588000ADECE2FC2A80729AAD79480D657978908A
:1058900039468AF14ED5ACA3959684B9AF321D51E5
:1058A00038FDA95C07C8DCAB119BFA32CB9BD280D8
:1058B0002D494CB2870DAD8ED4F13F6FF37E2CD0C5
:1058C000956F7A2835574950E3722AB6E717B832F0
:1058D00028C3C7099E1A946E7ABE4B74FF9E5AD392
:1058E0005ED3F640A964DC0430E20C977FF1A49704
:1058F000349043720F2C411D59ACFC0A2EEB48DE4C
:105900002F66456E09D7D20BAB512501294592E28E
:10591000A19608684AE85A9323496406F40D8E0A52
:105920002A502EBC2F07BD95298209F2D10EA9ACB1
:10593000814BD7A534D76361F258B1DD55B23E6DC6
:1059400074F01460AA525F2D25ED9EF9374017EAD6
:105950002D47D993A69C01DEC1BE124D6B826DCA44
:10596000B6391EC33C7E22C73DB573936E270193A3
:10597000BEE98096ED02014FF0F4DE1BE3753C803A
:105980009C1E16835DE83D48B326152B5F25C9A9EB
:10599000940F096748D5E0B9C41502168070596C98
:1059A000590EE63CB68B05F5ECC7857744B42775F0
:1059B000D3D586636E8AED17E473F44497300050B4
:1059C0002281AEBBA8D105F9F4F9347C2DBECD59A6
:1059D000E16EBFD005BF3761DDC2BBFA928DDBDF60
:1059E000AE94D5B7C334D726F9281A287E438BBC8A
:1059F000EA06345C2C80EF40A0CFB84F6D06603EC5
:105A0000BDB89CA94FB3D320CC8CD53D6F5134BBCE
:105A10005CB815C9F265EE4CFFC8434A3CA0791842
:105A20008E6B0F53C61118576379F8E98B48BE5730
:105A30006B901397DC7D7A4933185905A314A7FDA1
:105A400066065D8D57ED7AAA5A3FD72E31734FE621
:105A50008EA3349E63058C5959C9D8D15C50DCD5CE
:105A6000109AEF95659E630F6D9C861716EC3A2C85
:105A70000032300F73F41FFBF0831A7CB541C688E7
:105A800058DBD18F06EBAA3EFFBBE675C1D422A33B
:105A900040DCF503EE5761565C13D8950FF74903C8
:105AA0008F1F362E8589EF5D96C7DDC90EDCBAC023
:105AB00091E757D0277CB3B5667FB0E2600D59C936
:105AC0000A693085E172088C5C0724D2AC14E5F8D1
:105AD0007B92098F68E7E6F3BBB4C5CBB26E752B3A
