:020000040000FA
:100000002F5B610089EDAB0071B3F50053312E0019
:10001000F209CA00C7DBAD00A33F6B00250BD3007C
:10002000D42C3B00251D85001E5D1200FBA344005F
:10003000423DD900A6FE1E008198F200821767009B
:1000400040927A00300A2900F2496700537AB000E2
:100050009C5ABF00B4460100753C3B00C190B400FF
:100060006786720091D6A70081F60600D1ADEE003A
:10007000A1538B003A98C100D077D20089FE9B0033
:1000800033726E0015AD91007680B4006DC5D80056
:1000900021F38800A60ACA0035B53600464A570043
:1000A000FF764E00EC7971000F35E70025822F00B6
:1000B000A44F47000BA91F001B74F500A7B3B200A3
:1000C0001D8972002A33B6009C6F4100799B1E0087
:1000D000E40D0B009EC2C7004F8F21001ED5BF004C
:1000E000525AFE0047B14C0003C89400EF8BCB007E
:1000F000517356003ACB56006FD3DB0063B834001F
:100100005514C000A0176C003F91CD00906D4100C8
:100110008C487100DDCB4A006FE5E700F1FAE8009A
:1001200053E34300F4CC5600DCA75F0069E64B00C4
:10013000EC8B1A00296313001879870088022300CA
:100140006E50DE00E70312007D900E000C251300B8
:10015000FCF3CD00E455E90084D71500A941A700C0
:10016000396CB70082D3550057E62A000CED8A009F
:10017000FA41470078AFD700A4B51D001D8CBB0025
:100180003DC92000B1DF3700B3199F0084B30600DA
:100190005A642D0073729800BA5AE3006F7B900086
:1001A0007846C000C4915200707E650091CB8400F7
:1001B00042690F0008D92600DF169D006DE3C200DA
:1001C000D9A95900EEE06A007EAA4100D3A28200BC
:1001D0000B411D008D2529007E09D400AB56E70098
:1001E000C50A4100C9AAD6006424D700F00D6C00EE
:1001F000C6504600FB029400D737A700FFBA510053
:10020000950CC000D19B2500BA61770012A5F700BC
:10021000B5D4A700717529007DF3EA0006EE8A00C7
:1002200016E9F700E4A7CE00B015410064300200E3
:10023000CD127500B25AB500D8905E009E792600A6
:10024000074B0A00C812E40086CF6A009824BB005E
:100250003B5DC300A27A2900A46D72006A58EA00CF
:100260009EF89200A508100012E9D200642F340015
:10027000DCE4E300CC27FB007147580051CA7A0048
:10028000044EBC0087C65B003DC52E0000D4A5000F
:10029000C35B3500DF6F640021E25700FF38FC00CC
:1002A000D4877800DD528300865E7300A917FB00B7
:1002B000B76797002CDC6A006CFEA100632C5D0020
:1002C000A0DDA900FDC5D7007D255100223E7600A6
:1002D000B2E4E9002AC2CD005FA01B002F4F3A0014
:1002E0006C6C43009E22F200492FDD002E968000A8
:1002F00063F74100F3233E00D8A5DB005C838E004A
:1003000031F1AC005CBEB80023B4C1001756F70051
:10031000ADEFBE00C42082000CAD5400A306A100C6
:100320005B53F300373A7900D9DD8F002A888700C4
:1003300026FB280081F56500024B650004A7E30059
:100340004CFF8F00140B19004CE60C003907EB0032
:1003500099A7C3002E8D9C001692C8004307B300D6
:10036000D710D1003B929E00F2859400178B1800A5
:100370008435FE0077A1F10077E8A00066F32A003B
:10038000C54D2C00D7C5940054B2EA0020C5B80072
:100390009BBAEB00296B6F00A82E170039C58000AF
:1003A00053F0060079690B0091AC1600AE8C720018
:1003B0004314AD00B7E2590002364800CAD8950090
:1003C000B241BC0096D63500DA5F2100A51BE000E3
:1003D00017AA3600B69021003187FA00ED10B4005C
:1003E0008604ED000455EA00F40FD100E85A3F00FE
:1003F00067001C0061EEAF00B378D600B86BA600B2
:1004000068AF610081038400B957BC00E13E2F0052
:10041000B41A4B001556AF005D951A0008A79F004F
:10042000647709002C50E90097774E00FD330C00EB
:1004300036AEE100D683B000D5520600FBF4A00032
:100440007C2AE0000A01B9000FF496002E9BBD0043
:1004500056248600C9A54F001818750074C05200B4
:1004600023DAC40082CCDF003784FE006756060022
:10047000346DEE00B8FCBA00F69363009B818100F6
:10048000C2558B00E181180039503B002465AA0059
:1004900022A27E00910C3D00916359005AA2B00047
:1004A0003675D200D7C11800D27F1E00DF90FB0046
:1004B00026782900E75CAC00E208F100E1727500E3
:1004C00050336900F9466C00D31815009C299F0031
:1004D0007C82FC006FC9E2003431F800222E8C00CF
:1004E00054984C003DBE4000A42D76005ED29E0084
:1004F0001245020085629E00A74BE200550ED9000E
:100500007A748800802FA400BC5BF800AF5D1600F1
:100510000B176400A5DD6D00AE6F87007671C70014
:1005200071EA840003F6F7002A9AE8001CBA10006A
:100530003DD5F500F2958A0091936900C20DB9008E
:10054000D7C98A00EA489A000F58FC00B7EE650048
:10055000B2649500B21CC200EC12FA003E3677007D
:10056000C2B98800BC53080022EBD8009427AC0025
:100570002B050800CF59D1002E859900302FD800C7
:100580003A336300E6DEFA002A4EAA004CD28D0010
:1005900098733F00583CD3001BE44B00A4920A0020
:1005A000BC4B590038883F00882F63007DCA160075
:1005B000A1DC3000FEFAA4004B025B00E8C4380066
:1005C000B94F4800668B5000AA4F80004796CA007A
:1005D000209FA70097E46100A9516100107976007F
:1005E000142DD800881AED00992F6900D0B295001B
:1005F000A5DEBD009FC05800F4F9760073452A00BF
:10060000A8ADDA009A4634006C0FC800C1F0EB00C8
:10061000F1E5E400B2BF1C00413F7B002B486500C0
:10062000C0816700FD770400D23C7300C8E0A500DC
:100630007B59A70013FC93007738B40099DBDA00EC
:100640009D1A7F00F476A1008DB1C10014506F0097
:10065000EE398F00298A2500D1D53E00E05A6A0084
:10066000F4543E002804E300F1016500DCD4D80016
:10067000A9B6D900FC1869006037090065F66C005E
:100680006DF3EC0025016E00699B2200D86A5E00C4
:100690003DD0E200BC22FA00875351005598390042
:1006A00025E97000DB28BA00F3520600C61FF500EA
:1006B000F3CA72003BAD50007DEDE1001FD9900000
:1006C0002D74F0001D58E6009F43E800E7CFF100CD
:1006D000447157006E9AC100CEDB8700F603E30039
:1006E0000808AD0025669D0013FD5F007FF25A00EB
:1006F0005F26F300EF880800DA9E7900502BA200F5
:10070000310861000E8D8D000A027F005876F700D7
:10071000A6C8AB007E44FD005547AB00694D1200F2
:100720009352AA0059623400D096EC003FAEAC0060
:10073000316463007BC65600C6AC4800C1884900DE
:100740000F9A4B00695F0100C8DF3C00864DFD0039
:1007500049B564006EC69D0008F4CF009A6052004F
:10076000FA904E0006FA1000E74F9D008174BB001E
:10077000EE7A6D0080DAB000CB6586007B11A200B6
:100780009CE35000DE4C02003667300009CD3F008C
:100790005299C000FF277C0013954100B0F554002A
:1007A000B2028600FF4FA90053C1B200FCB6B700E9
:1007B0005C0C6A00DEA3C600B8D5BE00C7F9E20033
:1007C000ECBD37005FA19F00F0734300BA845C006A
:1007D00026AA1E0032E33600E502030014213E0083
:1007E00070AECF0054DDF50053BD6900AAC7A50067
:1007F00080B56100B67BF1009A957C002E1A8D00C1
:100800005571B3001C878700D502B200B3ACC80095
:100810006A40DA0048F472002A0BE20070E3F30049
:1008200029B27D005781B300631F7C00C3681600A6
:100830009D5E02006A458700BD9B0600797F1C0013
:100840006C055E0088167B000002D5004CB50B00DD
:1008500003289A00C2E98000CF401F00ACB97100A4
:100860001293A90097914900419C7500C25C230036
:100870003B8B88009A7E1100AF0B3200B1FA3D002D
:100880000591E6005166E600CF2041001ED7BD006D
:1008900016F0130060F4650001CCA900F22C2000D2
:1008A000A18DDC00E7E95300E991DC005EF6AF00C2
:1008B0001DAA9C00274F68003D0648001FB1880014
:1008C000378A73006B9B9C00DF9F390002A34A00AC
:1008D000083B430025F748002E3AEF00AA6230009B
:1008E0008AE56B0056FCD00098D72E0091A8ED0049
:1008F000486524003399B1007379FF004CACBB000C
:100900005416390005F9B7000D21770012927700CF
:100910007E0E150050974300014E3F007EACFB0059
:10092000C235890037E1F300CC8DB20093962400E4
:1009300001F207001E0944009FF08A00016A7F004F
:10094000F459430091F09D0075774200A695AE00E2
:100950005D238700634C970068CFC300571867007A
:100960007EC006001A679A0040EE1A00DF23C0001E
:10097000CF60EB008A256E004D64BA00476CAB0077
:10098000EAC87400BF3127007677E30057A70C0050
:10099000CA353B0020704600915B0C005D004B00A7
:1009A00034BFCF00D0226700F41B01002C849F00CD
:1009B00074EDDB00575F21004B0A310067C90F005F
:1009C0004C76B80081BAEB00ABC66300FF58340028
:1009D00029557E00864E1100E7342E00F99ADE007C
:1009E00098B214006A7F7F0022F33000744BAA0093
:1009F000F74EF100A6218100A525AF00EABBC20099
:100A00006F64680008E7B200F2ABA500B564E400CB
:100A10002134C400D735D70019137800D58A2700B0
:100A20009FB22B003ACEED0049D9C900F0FDA800D5
:100A30009D07E300D9E15500A9D66F009932F20075
:100A4000E7D4E700C481070068DFCE00D43C520041
:100A50009678960093865B0012F3B900D96E6D000C
:100A60007EBE2400CF56A700258D330018A061005C
:100A7000EAB49100902F6400E4EA9A007D603900A6
:100A80008B98710067D3EF006A5A0700F59B480006
:100A9000AC0BF8007DC36E0001E720002F72B1009F
:100AA000AA0C1200FC663600B4F6E600A746F80071
:100AB000A35F8400ADC4A70022ADCA00DF4C7A005A
:100AC0006D5F1A00E1B2C90094278C00EF140A0090
:100AD000CA693C0095A17B0052E6A60040DC2900D3
:100AE000D95A0400D062080032F70A0094A6930095
:100AF000CECB59005095720071B5A50048633B00FC
:100B0000E508070065954A00C5321600DDA2F7002A
:100B100093F252001B187800B29D1600B4A0C100D9
:100B2000FE3DBB009ED45F001C39E50018A54500C2
:100B3000AFC82D00DADF6F001DB98C008203890079
:100B400086F3D600619EA300181995001739FB00A3
:100B5000EE38860092703A000E3FA30074EF9B00BF
:100B600050720900F67CEA002F001F00AEE7370044
:100B7000CC80F200ED3C8B00B45A5C0094115B0019
:100B8000264D420089AFC900EBF83D003653B60050
:100B9000FE52AF00B956320093511400ABC49B0013
:100BA000442BED00AA62FB0069F9DD000D641C0016
:100BB000E9C9BD0069AFBB0002FA4200C8857E00EA
:100BC000DA62EC00CC78E100DB41EE0014857400C1
:100BD000292ADD0092E88500AE818500BF78EF000C
:100BE0008D635C00C9E26800060BB1002FF0E100E4
:100BF0000C750A006FB4B2001584AA00A7FC0200AD
:100C0000F6F069005C88CF00C584E200C90AE20002
:100C100015CB6F005EC692000C71BA005B50A0004D
:100C2000212DC500A5C00E00842451004DD2AC007A
:100C3000799EED0061536F003A433600FA462C006E
:100C400010737B00A95AEC00C543C100AE58860062
:100C5000A5B5A7009E22D3009A860600680C260040
:100C600036014200D035F4009F0E3600E0501300EC
:100C7000B6FD3F00E02DB500FDAED400CBF9E70096
:100C8000FD737B00656ADC003AC2F9005CAB0200D0
:100C9000FF2CA90013D2260086BEC8000E7AFE00E3
:100CA000401082001A021600543BFF00A0429E0032
:100CB0008735BB00CB8F67002C3CE50061FEC6008A
:100CC000D1DD000081408C00BFD47600AD971400C8
:100CD0008887F300BE5B80003B7A7B00B702490047
:100CE000F4916500947BD400E095B000879E8D0060
:100CF000F1230B00457FC800D32C720046227B00F5
:100D0000E249B5002D84500032B1A500B99A5C00CB
:100D1000E57E4C00E008F600685058000B3C660089
:100D200048154E008F9E0500C152C300CE0BE10056
:100D30003A32D300AFCC9B0040607E0043A7D8007E
:100D4000C5505F00DB0A2A00B0BED000D9A9E80078
:100D5000FB7F1F00F9F43600F8DC8F00F3779B006F
:100D60006FD022009C1DAB00B3BF0A00EE71A4003F
:100D7000E7A4A700A9222E000023670062D35B002E
:100D80004FDA20003CE82D009565CE00A7C2820016
:100D9000EFFA5000CC1D64001A9115009A54BA0065
:100DA000E0F008008C714C00B4136D00A088800046
:100DB000BCEBFA0014164000DFFE5900EA80320056
:100DC000946DE900407E110080DF0300FA7AC300D1
:100DD00026B3850058734D003A83FF00664CCC0063
:100DE0004FEBCF0071E9F400FF3E7000DC678F002D
:100DF000BEF1FE001236D500EA8ADE0065AEC900FB
:100E0000EA801C00198DDA004C07BC00ED90E80068
:100E1000450FDE00DFE71200043F7A000246C20001
:100E2000B1CB11009ABAD50014BB9A00DC1775003B
:100E3000336D7A00031CE700703B74009D0EDF00E9
:100E4000E6C96B003843B3001729D200D97A6F0086
:100E500031692500E27F290067955000572428005A
:100E60003C8507009A108C00AD5AA8001921BC00DF
:100E70009F2F9200887BFC00FB314400999816005C
:100E80005C8DE5004D4DE2003ED2B00055F7730099
:100E90000F5E75002262C4008F6C07008D56DC0067
:100EA00063421100411D0B00C91993004B1C7600D1
:100EB000C87586008332A4005B0DE700A3171400F9
:100EC00062EF36004AE6E6005EA1A4003C9DD20037
:100ED000441E4D00A0E7A100E98F8D000E68CB00F5
:100EE000DDB4F200A0282A00A4ED6F006C422000BF
:100EF000B23764001459D4009BB93E0045BB1800BA
:100F00004D4322005FE7B80054168300A66B0F0024
:100F100074BD1C009DAB3C0022807F008290AF001E
:100F20009E65C30008A1D600BB941F00B5FCCB0092
:100F3000A278AA009D512D000840640046A7240015
:100F4000B15B2900FED72C003C62A500EC590000E3
:100F5000868244009A9B60002843FF00D343D4005C
:100F6000DB0493000A2BEA00CC66D3009F748B004D
:100F70001E97E300BED820003097A900B1839C00E3
:100F800064DA6B00D8FD7B0075373700A8E73B00BB
:100F90009E37880057072400263420002AC2DD002F
:100FA0000ABAC10078B1A400D3246600E32322006A
:100FB000EB9C32005815FD00E072AF00CD0C7300C1
:100FC0007B80B900DD6CF0009A99D900B2AC4B007F
:100FD000207AF600D7B044008AD3E600EEA794004A
:100FE000DE730C006175CA000EC988007964F900CF
:100FF0000D8FD4008DA8DB0024148F0024A3D6000D
:101000004B7ED8003F17B50089AD990023E9A200B7
:10101000B30A440059DCE8000297DC00CB7DB50040
:101020004E384D00181E6600F856C3009B0059004C
:10103000C9BD9500BDBD74004A19180080DB62006F
:1010400068C3FF006FDDC9005E893B00541559007D
:101050003A1D9B005F60C40079B93700A848C400FE
:101060008E74EF002DC92E0050AB4900C2C2E300C0
:10107000A5143B008A1AD600DF4D2200E80ED600E8
:10108000A84E85001D9E1B007804D900DF71A800C2
:10109000DCA8DE00AAB5A1001E0B9700AE19E40083
:1010A000134D1800711A9200134CA400A7055800A4
:1010B000656ADF00D42EFE00AF7AF300A7EA4A008B
:1010C000207EC0003B46C0007287D4009C97300051
:1010D000FCB761003B074F005DC15100479EB20065
:1010E00093ED8200F54B62007D382D004244940060
:1010F0000FD14400BC245B00C735B9004400F600A2
:10110000245F2000FAE056002BDC1F00A407FD003E
:1011100040B812005342EF00E2465B001BB02700CC
:1011200001D910000A3E28000BB96000CDA9DF00EC
:10113000E7E51900A4F02D0075B216008A55670086
:101140004AFE7500CAA78B00BEFDD60050BB4F00FB
:101150008ECA1A007326AF009C0BBB0014E5780002
:1011600094390E00428719007A2F0200C1A176003F
:10117000732133002C61D1004691C60081F44F00E9
:1011800067B772005D12C00089E82E003AB42F00E4
:101190000913F1005C55DE00B75498005A1F010096
:1011A000C0302A006C84B200C8E61400D7675B0028
:1011B0007727B800352FE50007B05000717BCB00D2
:1011C00090855A00A4E6D600296AB8003A8CBB0084
:1011D0001709E2000E636C00A00CDA00571D2C000A
:1011E0003A2723009B68F40031E3A80008986A00BE
:1011F000F8164500E10D5D00C3F9D300E5AC2D0004
:101200001953EA00CF4824007AF1F600690540003E
:101210005DC70A00CCE5C90004935A00B409660012
:10122000F81C27001F4D470032B27B008CBEB30074
:101230003CDAFF0090BA7300CA36E400A4FF530002
:10124000984972004FCB81009B5E4B00219A12009F
:10125000C05BC80015862D00D08CAF00590B0F0065
:101260002DF9E70089410000893A6D00DDE715009E
:10127000C876A100E40C8200A7DC7B00B92E7B00BD
:10128000E1212400D77E8600E7D23200F90C30003D
:1012900066179B00AB0E3D0032B485006FD572001F
:1012A00050DA6300AA5B8B00328CC800B430200097
:1012B000605D7300BD06BA0028DE01006BC99800AE
:1012C0000B7495005602E300FC80D900CCF89E0018
:1012D000B2DE7D008F7C1A0095A890006037C400B4
:1012E0001566610093C739006AB060000956360080
:1012F00009BA40003DE4C500597B630045C338008E
:1013000069077600FE92E100B77C0100B3609600A9
:101310004A79B100030FD500A7BE0E00D5AC1C0062
:101320007119A00096D7B300AF7981001645F90076
:1013300009C43B00C32B4B00881142000F04DF009F
:1013400090227A003F1C0A00348B3D000540680063
:1013500012E2FB0085573E0056D0E000B6ED7F005C
:101360009A98BC0042140F00BD53B40055ABF30073
:10137000E40DD700F3BD510041EB3400D1F7EC0090
:1013800057DB7800CB47EA00D2F27F005D1A3000CD
:1013900031975B00D9492300CD0C36002C7EE30049
:1013A00004FFC8006A4C8800911359007C868A00AB
:1013B00060D59200ABE58E0052101F00D61E0B00C8
:1013C000D166BE00938D01002C4BFD00938B450030
:1013D0000BEA2E00FF4BE9007BC8CB00A23E3A008F
:1013E000632F99001EA5E10069C7120087B4310080
:1013F0008153BE000E689400C7159900A69D160083
:1014000054699200C743D100214D6300C1D77200D7
:10141000454FCF0038468F000C4DC100BEFB830006
:10142000AE23C300AFA96400C1860800AD83E40009
:101430008D0C2D007D94E300EFED6E000ACD92003F
:101440007446F200D9AE1000CCA263003E7BEF00E0
:10145000C4AEA00004B312006CA9FF006BFEE00054
:101460001A3D5300AE5B88005642FA006842E20023
:101470000820E0009854E40054B831000ACA9E00E5
:1014800007717F00791105008AB79200A5BA1E0086
:10149000ACB3940025AF3800CA813500D29BA900B7
:1014A0001A943400EC423B002694290071CFAE0020
:1014B000B898A300403CC000C691DD00F1056F0064
:1014C00022BBA1009ABCFD00FA879A00CE3212001E
:1014D000641C22009D09BB0092DF66005BC5890089
:1014E00065484D007A7DD1006D8F1600C1295700E7
:1014F000A1BC9F00969921004F64930047D64A00F3
:101500001AA6DD006A1FF400F871C100D368D0008C
:10151000900AB000AB53D90071011100B098A0003F
:10152000EFD04E00AACF9600A89010009000FA00CD
:10153000085DDE00FC84D6003FB76600D5040E00CF
:1015400083B25E005DD74F00A004C5000B5A5F0058
:1015500014537500D1F04D00542BE200B9EFA300F5
:10156000ED4B3A000CB40400950D9B0059439400D8
:101570007326C40013F15700217F3F00A35F2E00A4
:1015800033B0B50022C0CE0050D00800110C93003B
:1015900017CECB00D026A700687605009FF0070085
:1015A000D4CE9800706B9C003065A600D3B11100BA
:1015B000A6F07D00BABA3400C2EDCF00FC48450069
:1015C0003F0ECB00AB039100A5361900BE1CA00056
:1015D000FCA6F700A92D04001BA10200CD9D2A0046
:1015E0005AB66700E90C6500B6AF9C00F76BA10026
:1015F000A70E620015B9600031429E0068471D00C9
:10160000FC2A0500282A49007C3A820029527200EF
:101610006AAC62009C3F360018DF3100E965830048
:1016200072F6B800C7950D00A58E420000824E00EC
:10163000BA9E450082CD6700B8982200B09543005D
:10164000FEA3A2000B2A9000F24FFA00AD2AC700B9
:1016500044A04B002CA945004DA9C300DFB3D60020
:10166000536A07009CF9B200B9FC6B006584DC008A
:1016700065DAC500A4F38400E7BAF800DDB21D0006
:101680001BA6480005785D00632CE100E26C0C00AD
:10169000B087E90018D95A00E88D5C00D57E6D004E
:1016A00071243F0037324A00EF1D8500E013E80047
:1016B0006C6685005B519D0088EF250038F2820042
:1016C000673DC5000617A3006D961200A1B7020082
:1016D00014FB020063700B005400450037DA500021
:1016E00081BE7900AB4FAE00850FEF006A714B00F1
:1016F000D5A25D00C9461F00ABCA7200490BDA00D3
:1017000039A5050040A80D00EE350D000412240097
:101710001376F9004C520B0040292D00AB8589004F
:1017200079A96E0047885200F6B730003C0EC7001A
:10173000E4FA83004E7EC5009BFDD800DBA9BA0009
:1017400023984000247BE80001646D00637BCE0099
:1017500093A7480055B4410098B684001D7D6300EE
:101760008D7D97009E4898000297FB00CE1BEE00EF
:101770001E35A3008CFC3D00E6260500F6FD120098
:10178000FD9F5400629D250003FBBB00577B320088
:10179000B9C179003F2E420088AB6600B388B5001E
:1017A000324A08008043C900A3950400DA1B5700A1
:1017B00049C3E8006230B50058A2EC00E34BD10009
:1017C000DB655A00ECEA890093269100B9B1050067
:1017D000EAC98A000BCA29007F301900D9CC2C0035
:1017E0001DE6FB00FE81B50018D6B0005970100050
:1017F0006A120600F4024500FF5877002B7C1100A6
:1018000011026B00F21DFD008C330B00A366F90082
:10181000CBE8C900FA13E00029632100365A9C0086
:10182000433F14006973F500DD83960083EB580095
:10183000C5DA2500A0E7470027913D0097ABCE0011
:10184000344C9A00E7DEFD000D6099006C1AF5003B
:1018500041BA24008D2ABC007326EB00B3BD5000B2
:10186000D9AA4E0053FDCF00B0A3D100D35F9C0096
:10187000DF6FD50009EC8F005EBE590030BB180049
:101880001B2B250079D4390071AB1A00B015150057
:10189000719DEB0084CE8D008AF204007A9067007F
:1018A0005535AC008B8BC4008DE32C000030B400A8
:1018B0007E10E20010C8810070514E003FE0CD0064
:1018C000D9E4D3009CB3490056A6500045F96C00FA
:1018D000C0040900E2720A00DCA4EF00F3072B0049
:1018E0006BF28D002420B900B16A1E0004DF6B008A
:1018F000A6362A00D5ED13006B88FF004D34D800C2
:10190000C46E90007F4F91009942A600464E8E0013
:10191000D3C5AC00E64C9E0014508200C88571000F
:10192000104DC5006E63CC009AA9980018A049001C
:101930009DE76200B999B1009C3EC1002345EF00CC
:1019400071BD300094A9430056A34A000B16D30082
:101950008F696B001364A100200CE200E2270100F4
:101960007A575800F9B3CB00042AAF00B4E69A00C6
:10197000E703D1005EE201008FBC7800CAA4DD005D
:10198000B41475008B018B00ECEC9F002D5A6C0099
:10199000187CD10028A2F0002EC60D006858F70070
:1019A0001C1BFA0098364D00EC5E0F0092F6C40046
:1019B0004A97F600A4C892001288D2008B794A0098
:1019C000A3573A0056E5D400F614FE0085BC340057
:1019D000D5DC6A0027E3EA00A910FE00C65D3400EA
:1019E000ADE836005CE66D008F744D00AB73D90036
:1019F000CA283400AC47680032348C00EF0D070071
:101A00009358E0002641420052B2C9002D0747001A
:101A10006A0E3E005105D20040F35800A3EACA0006
:101A200021A8540094A433006B20050038F26E0006
:101A3000AC0A5E00D8646F003B31D200BF60E000AA
:101A40001829E4006B6F3B001DCDDE007DBC580003
:101A5000BB86BB0027F98F00DEBAB900E8AD730082
:101A6000AD28E700D34893003C71CE00B186BD009D
:101A700076AA4500C83FD500BA9CB10005B5F40070
:101A8000086AAE00D7482800B4AE4F000EA7D800B1
:101A9000EFFE200069D1DF00B2C98C00BFE2040074
:101AA000C6701800E8B01A00009F0600D155FF006C
:101AB000EDE036005E2242007D119E0008228D007E
:101AC000789B95005A344C00B3B17700BA69D100C5
:101AD00069C350001AD3DA0028677F0091E0ED0057
:101AE000220EA500E6D03E00F3DA6C008F2415002C
:101AF00014426900B990F80091770B0052237B00E3
:101B0000BC6C14002737C600F9116200990F9000D1
:101B1000D0031D007A85E900ED8F830006ABB60087
:101B2000B5658C001DC34D00921F930025E86E0023
:101B3000336D65003D59D80042D41B00AC28FA0033
:101B40006B0C3400AD04B500A1BC8400049C0E00F5
:101B50000723070009C21800EEC56700078283004B
:101B6000B30375001ED804009B0023000B563800F9
:101B7000CD5C5E0089A445001E1A61001F26150079
:101B800058782A009D0E7F000920CF00949A2200E9
:101B90003507730089C4D20058E00200BE719C0072
:101BA00094EBC400BAA6CA00097BF600FB73C90017
:101BB000A7B67E007E05F400F2F8B200F423900090
:101BC00098CD2C00E9943E00CEFB0C0023AF6F00B3
:101BD000BD694E00FC3AFC0098DBF30094E2F8008B
:101BE0000AE86D00021C8D001CC50400EF275B0095
:101BF000C61B2A003D899500CAAD1800B5CE550018
:101C000082987500C2B55100CC309D00C8251E00D9
:101C100045272C00A15575005BA9F5003129CF009F
:101C20000CDB6D00488B43004E1E23001DC8FF00D7
:101C30007178320028C76D00F3D2C6002907690009
:101C4000A9247F00987D0E0022917C00DF82550040
:101C5000B38FD300FAD6FE008E00C7007F1628008F
:101C6000CD0D03001BBE14005E9F990001ABDF0089
:101C70002A540100DFF0C800FB2F31005A725A00CD
:101C8000E2CC71001DF79A002BB0A400FE127B007D
:101C90002AB64300C82383005F2DA600A6877600DE
:101CA000C48094004E042100480A8C0052B7B90049
:101CB000B821B50044E25600AF89300091094200D6
:101CC000444BC600423BE90086B2BE00007B3400B4
:101CD00010C12A000B53C30039E160000FF6320037
:101CE000A53B4E00F143F000499A36000BF4A700E3
:101CF000208F320077316A001C723C0057AA3C00EA
:101D000022091C003781D7000E1E2A00FD472E0035
:101D10000A3AD100063E6800CB02F80065077B0056
:101D2000669D710055098400DFD3FE00631828000A
:101D3000A6D52900DA3E1B008E18B90076A66D00E4
:101D4000126F43006E2E7400E0A957004E7FA6006C
:101D5000FD5D790038907700007ED7008E1DB500BC
:101D60003AAC59000B970D00C6545800D31B6800BD
:101D7000CF0910000D454F0092195900F55384000A
:101D8000E8347C0098E665005B0E78008C2EBB0082
:101D90000E6D320064D72C000714A200B5E63700A0
:101DA00098653300E5F54700FCA37D0016C6D60014
:101DB000616B0C00F168A300F64E93001E9DC500F8
:101DC000BBB1E700A59B77001BD57E0091FB7C0093
:101DD000A2FA1F00899336004C2B910043EDF500C9
:101DE000340E6A00F2047600BD01FD00233FF800C6
:101DF00060B5D900A7C93B00C79F2C007B90990014
:101E0000DD2B2F00C79D4800FC28790075B4C50064
:101E10005E3D3500E94657007B9F6800E0272D00B6
:101E20000382C7008589040086371900349F7E002D
:101E3000126E9B009190760051D0D500D3F09C009B
:101E4000E6285E006FAB20001CA6380091DFD200B0
:101E5000275F640006866A008391FE0076891A0077
:101E60003B8448002D3FD0001468FE00C27EA600CF
:101E7000FB36A700500183002252DD0030C536003A
:101E8000A9BDF0004D01E800D82952007F4BA40005
:101E900022CD41009F07CE00903757002D91B10011
:101EA0004F0FA500BDE70F0065DFCA008586D7008C
:101EB000E11C4200C489DC000614F500DCE8B10036
:101EC0003DDE1500536A4300CDA27000169F1E0030
:101ED000B3871B00B5B42E000FAD54006FDA570066
:101EE000F6A48C00455BE200B5E26B0078FF880049
:101EF000C8E751000ED2A9000B520C005E9BDA001D
:101F0000F4AD2500B14FD400D7E0FB0072E9F10039
:101F1000817284008BB8B900ADC2FA00E4ACA400B1
:101F2000249E96001698800082804E00D2626A003D
:101F3000F66A020090CCFF007E653D008110200013
:101F400066CF4B00D9C89C0015651300E9314400E9
:101F500070A45300A190B10058CE4600768C2400A6
:101F60000E7BE600C2D213008760E4000CEACF00CB
:101F7000EFD45E00E9C50800EB94CF004C003A00B6
:101F800066B465007CAB8700E231DD0015082000F7
:101F9000A4B71700B71C67003B7B9B004DC920000E
:101FA0002A33840018862F00C393FC00E11E6300CF
:101FB00078FFDE00FD740F0020E44C00093752006A
:101FC0000AEE14008A9B1400DC9A2800D013A700A4
:101FD0008419FE00D0AE9600C499C000D30F6B00E8
:101FE0002B8568002B83EF007364F000486B1700AB
:101FF00097BFE800EB0A6E0029E4AB004225B2006F
:10200000A67C0500351B2800E014650032A50800F9
:10201000B45A2E002B1B2900A1EF7600B1F82C003A
:1020200008473D004A01BA001326A4007BA96200BC
:10203000903545001443610054838D00BE6FF40059
:10204000D11F6800EE9AFF000B06ED0095443C009E
:10205000187F99004AC85800BD07A000CE98BB0061
:10206000F5B5D10008AEA50060055C00F3B3B9007A
:10207000E91C8A001973BF002DDD8E00887FBA002D
:102080005EA6A00065894900BA95A4009042800030
:10209000D74D3D00EFBE3A004702FA0056116F00DF
:1020A00067C6420035BD830057D8640069F550000B
:1020B000671C7700DC9A9300820AAF00E711E60004
:1020C000623E28008C636100897CEC00FE479C0026
:1020D00054A1DB0019BAAB00AB646F00B01F7E00E7
:1020E0001474D700E2F88D0036EE9000D5F8200089
:1020F0000D1647007E749C0060F1C80066C856004B
:1021000034C5A30094C4AF0056D4E800F7E5E70057
:1021100035B725000937A10095E9FA0085ADDD0046
:10212000EF11910061D1B80079DF880072F92E00BB
:102130002277F5005E84AF0013152100CCB82B0088
:1021400067172E00ED752E003FE81B00D525150002
:1021500060805B004285DE00F4501F00BF602400F9
:102160002F9A6F00416DA900DD5DF000B772190074
:102170002B8877001F2900002966070024FD8800AE
:10218000D160D600497F10009E0455003019BF0071
:10219000F8F05E0084D60D00F42FF300862B720059
:1021A00048FE690055B94F0060045F005DB0E8006B
:1021B000ECBCE900A2AB4A006E128D00B543E10011
:1021C000866C520099368E001347F300E169BC001B
:1021D00063503B00D04E3D0002C1C00044DC5B00B8
:1021E000EF761A00AC7824003E272D005F5E2300B6
:1021F0006B04B100074FE300F0544E000A5FC300C8
:10220000DCF4E4000D50D5007A6E7C0001EA350064
:10221000468920006614C000CBB33900A2ADDA00B5
:102220001AD41E0099540B00F4A31400F4182700CC
:10223000EC189000AF60A900FB455000EBD52B00D7
:1022400068F3770016EE1C00EFAA8700E9238100EF
:102250008679D200C85F73003CFD3E0088D63F00FF
:10226000FCCC2C00ACECD80040B1A50096FCC4001E
:10227000F4CFB0003C48DE001DABF20060735A00A2
:10228000FFF0EA0067B1DD00D06DFC0033EABE006C
:1022900048428C00B88B670082A73C001F1A2C00B4
:1022A0000C50DA00B6E67C001EAF8F00FE3522002F
:1022B000496AA1008E97E00023C7F500B4D62B0031
:1022C000B5559500EFC82D00BB39A500B7E73D0017
:1022D000F19757003525ED000BA21900D1578B005F
:1022E000FED21900C9FECF00CBF6BD002492DC005F
:1022F000F0E34500C61ACB00192A94006F03F700DB
:10230000E0B8FC00E00141008A7216008E2FA100A7
:102310002612D80081FB05008291BB00471B940068
:10232000C8A26A0034170600C5AA4800430E73000D
:102330002C44BD0046E8F7004D81B00059F1EE0095
:102340001531BF00AAD70C005D2DE90012CDCA00DF
:10235000CC7B8A001D303A00D69F1E00692CCB0032
:102360009D33BD008A48C400C8863900D267F20098
:1023700085ED3A00AE7067004B6717007D1C0800C2
:1023800028A4B100FF83100090004A00DB538A00AC
:1023900008237800CA46D100324C0100601F0B00B0
:1023A000F4700B009AF1DA00D1AF24008BACE50099
:1023B000BDEDD300E08E0B00E133D50023156200A4
:1023C0002F173200D00E4100BFD3DB00C26F0F00C9
:1023D0003F295E0088356F00053B240096E48F009E
:1023E000800DA50077C7A3001E84950066CA8A00E9
:1023F000DC4D4000FC97F6001CCC9F00D30F35004D
:102400007FFEAD004D5E1900C8AFEE00E074200005
:1024100016D348009A741500FA051E00B458060039
:1024200039D32F0071E503002B6B4F009D1F4B002C
:1024300024629000636B6E0048725400587543002C
:10244000AD8D5C00E846CE00C88E0A008FEF140008
:1024500072D8A2007F0E8800000CC300A2D49F0097
:1024600051F35B0019DD1100B5A56200AA0A7800DE
:102470001C1AD600B782E300F3958900BA72CF0028
:102480008D072D00519BA6001C2CCE0067349400B4
:1024900077B4B800FAAF1600434121008ABD290085
:1024A0003E564C0040C65F00BA1D1500447A4B00F2
:1024B0008950C200D801CC00E9A33400418914003E
:1024C000350EE9007B3C770061D4210041F0170014
:1024D0008CF5AF000AB8C90030FF0F00D4142900F2
:1024E000B6EBB200F84EE90076369F00647D2C0012
:1024F0006F1B3600E8C6620038D66300781E4500C0
:10250000FAF28A00942943007335BE0036B83200CF
:10251000548DF200F147F30074D453002A08FA00F6
:10252000ADFAA00090CBA500669CBC0045D3370057
:10253000131CC800477A4A002C040C00270C0C001E
:102540007006C8001090FF00712E0700A0999A0035
:10255000B6200E0030532400FC5456007481F30062
:1025600058710B009B46BE00481511005E7B0C00A5
:10257000FBCE3D00969E14005372EA005730920045
:102580006DE8CE009EDB7B00B69F3A0017AAF700ED
:10259000D657070088AF8500F5E97100DBB68E00DD
:1025A0002C350300E9906700185061006945DC0094
:1025B000ECDBF800B7A0AC007AA27A0051FD07006E
:1025C00006D8390030C66D00E03AF3007497760003
:1025D000182E2100FA249500CDA1D100CABA92008C
:1025E000DF72A1008B51600013B59F005F61C000D6
:1025F000E9655800CAE7A600AD2300009D09B300B5
:102600008F033500F667A100CC52FF00D1371F00C1
:1026100022421800C77D46002F00E500E70B44006A
:1026200064EEA700D2151300B735CD0078EF510046
:102630003A5B0E0031E573003A62A40006A07F0009
:102640009ED8D80062474D0096AB8B008519EF00ED
:10265000DA25D2006F96880009CE67001D25980004
:10266000F252D5004F615C00C01CAE002E90860077
:1026700061C568008C247700AD77A800944F1600E0
:102680000854B80025698A009D4AA2002B13B8009F
:1026900063AE8000B56D2E0089E9FD00950D6D00DB
:1026A000FD82ED00D4BDF4002BDE52003AF4D000E0
:1026B00026198F00BC5B0200D4FAAA00907B75003B
:1026C000E251A3002F60F0007C46FD009CD3C200C5
:1026D0002344390098343C001A166300B7E8C4005C
:1026E0003BE8750070CB7E0036E77400956C850082
:1026F0008B86B300E37A3400BBCF010083EB0E007E
:1027000080DD9C00B25D550011972D00EF71350002
:10271000C03200005A5E98006BCC2E002D8605005A
:102720009FC32500765039005D6EA700787A82003D
:10273000D748380061BCBC00B0F72700365B6900A1
:10274000788105001F41B20079E515007FFD3D004D
:102750001DF947007DB02000680A2C00E0F13B0025
:10276000607D0A00764955005D435C005B5F1D009B
:102770008FF6C800D7B4810040613F00B20A46001E
:102780009F97F90026A82A00115CB900E40D01000A
:102790006099E400C05223003D234500F703640024
:1027A000F2F45F0040F9EF00349FBC00F8AC520037
:1027B00077D1670027632C0037B8A600404E4A0047
:1027C0000999E300B9FE380076765E00F8524C00B5
:1027D000EEE8720025DF3B00598F0300DEF0B30006
:1027E0000AD11C00E8F8B0001DF4550048D53A00A5
:1027F00094166F0072409700A335A300691E2D0048
:102800000C6E4200088FFE0084D10500D2240D001A
:102810006CE03300EC71940068BCA3003BD9EB0082
:102820009DCF3200BC470C0098BD9A0084BAC2000C
:102830002C4E860017502100D06F1E00F6A76800AE
:102840003DBEA3008691B70059FB3400CD138B0029
:10285000BFEB5B0098B98A0057DDBC00FA59A900AC
:10286000E11583004E5B28005F503700243FA8002D
:10287000C39B8B00B92FE5004C2A7800F0DB6F007A
:102880007040D200E13C530053431500817866004C
:102890000C3AD600E906B90053BA7C00421CBF00CE
:1028A00049808600702F680071AA3A00E2D5BA000C
:1028B0001F0E71003927D400E4256C00A0FF6700CB
:1028C000BC0A38000DD62F000D8AE600C8035B0055
:1028D000B80D7C00DF5C6300CA8077007C659000E7
:1028E0008CF2A900315699000A431300B711600019
:1028F00044EF0D00B738B500A4F00B008F3C660024
:1029000074E2740039C0FA006411C600B94EC60002
:10291000680CC000BD80480067930B0052A7700090
:102920009EA75E00E407C600A8DA5F00DC355C0005
:102930007814E40094300800DAB5CC008630310019
:102940002D8C2800D78CB400774CC900AF6AF200F8
:10295000008FCD00020AD700185A5900AC0F0700AB
:10296000B581DE001933AB00074B9400C9C5DE000A
:102970003F2ED90071B5CC00120EA9008E7D8600C5
:10298000BD1BF100970BD900A1AF6C004271240070
:10299000A7F11B007072C6000B12CF00B418B6006E
:1029A000445AA400A18CD200245772003815D300D9
:1029B0005F18E40030582D001ACF5600F059E4009B
:1029C00039449D006B5AAB00818056004C146F0057
:1029D000C1E3750008261400AB9D4800D31807001A
:1029E000025298008D9F50003D7B560022D8740003
:1029F000DC29AE00F2A30E00FEDB90003520D700EC
:102A0000F6A7920084F5A500F2A56D00E52D49001A
:102A1000F3B774000B936400A754C300B1D219003C
:102A2000E320F0002FDD2600CDBC5800C0B2280006
:102A3000FB842800172E82000CF5740026DFCA00E4
:102A40008928680052C70E00127844006650E800DA
:102A500021B46F00FA39C800EAD3A5003705180081
:102A60001C66C30016AD4900947A41008BC99800DA
:102A70004267150040A61D00D187F500CCE9600033
:102A8000C636B4008738AF003D90D70068565F0067
:102A90007261DF0096BDE400A3CD9B008FFBAC000C
:102AA00022F85300157D4A008C3C52003B51150022
:102AB000767985004EE63500197F5F007067490022
:102AC000C2220F001340B0001299A000C4F280008F
:102AD00049DC3400DFF281003ED90500221D81006F
:102AE000AB340A003BD1A500F483E200CA1E3900D2
:102AF0009B1F49006302FE00F212F4009BE3A0005A
:102B0000D46B490029739A006C1EFD009440860026
:102B10004D24250018F17A006843FD00987DB90026
:102B2000AB502500DB53B500489BD0007137D20075
:102B3000F6C85500E0588A00A898960016DED10025
:102B40008F10D60038157A00695DE900305379009E
:102B5000616C6800C02113000EDEEB00DA6C7B00B4
:102B600057A81F0085E545004666C600A8600E0010
:102B70000D401F0064A2B700C9528E00EB5AFA0044
:102B8000C9DE6800F127270067140F0032C6630012
:102B9000AC6AED009A50AF005DD0B7001207740028
:102BA000240FC7000BADD100EA3152002AB0EB0070
:102BB000A4FAE400D201F60021415C006172D50064
:102BC00097C3C800467BB10000532800714D4100F7
:102BD00091A88000A5BBF200C2668300A9C463006F
:102BE000C71F09007C275E007184D300EE1BED0037
:102BF000C169F3004B14F800BEF0A40002E1280004
:102C00004D1BD60068BDF000144AB6000845B6005A
:102C1000B6D2E70023234000EAE20000470AAE00F4
:102C2000368C73002A38FE0058ED3B002E0A130044
:102C3000A849D9002F014600ED4B2E009797B6000A
:102C40008101C500C78A3800BF1B0C004F418A00B4
:102C50000009710095D99E00C24B5A00D6B8EC000D
:102C6000A46D6800A738F8005DD5A30062E11700E5
:102C7000DEF190001F8AB4003A6AF100294BB200DD
:102C800008A18B00157E30005DABAD00E09EE60034
:102C9000952EF600BCD30300783DAD007EBD8700C5
:102CA00088940600C30890007C4EB3004598F0005D
:102CB0002AA59D00FD1AC000736040000205BB00FC
:102CC000F68384004340D0008C6D020092125900BC
:102CD000D839540099B8FE0077B91A00A8A150005D
:102CE00096D8C5008F1E7500F3E3DE00CE45910037
:102CF0008EE11C00E9D9CB00A4100000A9B2580055
:102D0000A1E3440081987F0029385C0080399A0053
:102D10006F8456006CF1CA006EF66A00FE1A22003B
:102D2000C468C7005C96D4003D6A780037B1F500EE
:102D300051B0CB0044B744001BFAF500E8B5FD00E4
:102D40009EF8A600417C5A00511252000229180038
:102D50003F1B1600B8B9C40048304500699B83008A
:102D6000451BDA00BB420F001ACF9300F8E16D005B
:102D7000F7F5FF00B07DA80064092A00C8748C0034
:102D8000C24A0800341F990061046F00B2FE44007B
:102D90006D0ECD003C2F42003478FB0011E1500055
:102DA00090BD32007DBC130084E9BF00CCAF2E0083
:102DB00046C295000EE270004E685C0093E9600028
:102DC0002101BC004A031C00F5E734006870A9002B
:102DD0005EC11D00FA61D0009D84EA006086650036
:102DE0005964D800B4725C00BA499300AA52260014
:102DF00043A0D0007D93E200E34D8F00D032DE008F
:102E00001132B100B5081C00EC3773003D5CBB000B
:102E1000B73ACE003464D40032816D00FE914C008C
:102E200095BBC400AFBA910038090D00CCF2140074
:102E300031E63000604BC00072CEA4004923800010
:102E400027334D00E67DFE0061E0F1008A587800EE
:102E50005D74F700695A9000DFDE6500D506F40066
:102E60007A56B80001E0CF00BB9AC900AB38E90040
:102E700098053D0058DDE10088AB100008D27000D5
:102E800037E979008D2F4D00B20E7000E843C40081
:102E900075ABA8005B8B8C00D12357000D746400C8
:102EA0007BFFC2007A349100419A0B00FFDC600086
:102EB0003ADB3E004447AF00F2239E00542AA200B2
:102EC0005718E8009C78D2007C01F70031D58B00C0
:102ED00063B0FE000B70640075BB160010857C00AB
:102EE0004F0880002B203C00069D9800C338ED0061
:102EF0001EFFF40048C17F00BCC34900B87B6B00D3
:102F0000DCB385004352D9009BD880007D2BAB00F9
:102F1000CE36AF00B9C3F70078C60F008691B00077
:102F2000EA9906006531550088016A002ED5DB005C
:102F300089143800C2CDDC0033342F00FB09AB000C
:102F40005A2E2800F46391002E65F300255E980048
:102F50009A250800E893FF00C8EA1A00592DCE0010
:102F600081048E00B92C550083BF3100BAFBC2002A
:102F7000FF1994005549A900E50B8B00279D6B00B4
:102F8000A8C96A006013970090F96E00C30CD200C4
:102F9000EBE66200585007009023EA00B1B8C30086
:102FA0008A0FC600F91C2300F437B3001F46320015
:102FB00045B9D500E27A2C009F9ED00086110E0004
:102FC000D8E6C00077949F005F39F1002FEF110021
:102FD00028B80B0009DBC9003E910800F8EF6B0030
:102FE000B849E300346332001805F000572EA700FB
:102FF00061978B00882301006DCDD3009FE7F60019
:103000004256BC006BF9480078E94B0082654300EA
:10301000F4F99C003D98F20080496E00D67B5D007B
:1030200002595F00BDC644006DCA28009C9EC500C1
:1030300098A47B00AB8EE8009DD606003DD4BF006F
:1030400079A78700AD420E00F8BF6F0015083E005B
:103050003680CE00767E42004127A8003581BE0032
:103060009C4A6D002485D000AF04B2006481D40076
:103070006E6C0C00E9A18100BC25CC006750ED000E
:1030800053799400ED6E5F003B340B0082374400AF
:1030900011E2B80073261900B09A93003E311C006B
:1030A000FBE221003A620A00DBD99C006B517E00F2
:1030B000A865A20025EDE3009623DC00682928001E
:1030C000E5C97D001D8BDD00E04E7D00A1AC450013
:1030D000ECC98C0036DB61003879AE0059594600E6
:1030E000D5ED4F0010B893002FE93300A9A9D50002
:1030F0004C42F1007FBA1E003806BF00C710FB002B
:1031000083461E006EC2BA00C2791C008B08E6001E
:103110006A45BE0000AAE40088CDFA002FF32E0015
:103120001D8E1800F786CC00271B4C0056D59D003D
:103130009E3F4100591E9C00F0A05A004F2C1400E5
:10314000C39BDA00506E3E00FF4FD1009A644700E7
:103150007115A4005272FB008CA77600AAB4CD00B2
:103160000A8E2F008185C90080716900EC5FD7004D
:103170002376A800530768004B34940007A60A0082
:103180007AC51F0075266D00F46D050065E2980094
:1031900027FE8A00ECF5AA0071EC2700F29F0700D9
:1031A00010AFD3007D30EE0038D7B70023A59000D4
:1031B000A22938004F4E5B00153E06003A3CA8009D
:1031C000BD5E1500CED0D4003E41E600C73B69008D
:1031D000EF163D00D1E81F00A426BC0071939A00B1
:1031E000E4F97A00FEDA2A008BF0D700F660FA00E4
:1031F0001D191E006DC62A005C49CA006FD1B600B9
:10320000E0F183008BB17C00BAD8FB00D852BD003E
:103210006F1AFD0040019000D255BC00D0D90C00BF
:103220007C0E330054BEDE00F7EA7F009C3FC000F6
:10323000DBCEB9000E4D5A006DBE560071FC510038
:103240007948EF001D7BF90084B41300F2C1EA0055
:103250008CB6F500BC077F00E8BE5400F7B9A000AB
:103260000B74B500100A5E00374DF0008F6DA5009D
:1032700061F0A500D4D91300D4B270004898BC0006
:103280005CBBE400375EA500FA957F00AD6B3600AD
:103290006BDC1C0004E7670013BCB0000F074C0098
:1032A00008E92F0003F41B004AC73C00882765008B
:1032B000738EB5009F8EE2005FB931003C54BA00B6
:1032C000A0827D00C819FC00B94FA800E20A3700AF
:1032D00071108B001ABCC900C18CEA0082B0B30027
:1032E00027B3C0003EC878006D0269007F4AD7004E
:1032F0001675E50090C751001AB22100D8436D0041
:1033000098051500020B1B009E95F400AAC2FB0055
:1033100043BA46003FE698009D258F00F9512B00E7
:103320005EEFA60013F933001B715900AFE358009C
:10333000907B4100092B7000539A6400E46EB70043
:10334000DA2A3300553D6500C6CC03005FAEF600B7
:10335000C6748300F41614009600B6005CC3B8006F
:10336000E0E12600112F8200131F98008FC0780023
:1033700065D4BD00AAB93600965CFC0068612000E7
:103380003AA8AA00737A4B008DDB3C009871AB0021
:103390001F5E5500FA61FD00D7ECAC00D4A81B00FD
:1033A000244622000B59C7005281ED00D9FEE700E8
:1033B0005B5D040055DED300B1A01E00AFBB3E0034
:1033C000CE52EB004D5A380092F9B00031C82100BE
:1033D000B367D800514D3700CFDE3700CB02D9009C
:1033E000DE9E640011BCF4001346CD00859CAE0047
:1033F00076EF35002A7EDA00B09B9E0041C2A50020
:10340000EB6E88001353A000B07F520040161C00E2
:1034100027A6CB003CE1C50029C06400EABD4A00F4
:103420000386A30074038B00D5249700CE07A40065
:10343000FCAE9F008A085500E1DF6A00E6ED560009
:103440002500F30037C9350005B87F0020F81100CA
:103450005FA1A0003BB83300D43FF3001943B30091
:10346000C8FC3200C550400055AEAB002BAF2B005E
:10347000715B64001787BC00D12C1F00A97BB700CB
:1034800053196800691F4100EEADE10068D2EE00FB
:1034900082A4FE000E0F5B00FCA1500082075500C5
:1034A000A2BB6D00D54B4A008E1C550056913500CD
:1034B0009A9F1900B1ADD3004C3FAA00D2FC09007D
:1034C000882C13009CC61C0008FE9E00F46194002A
:1034D000F40DBA00B7D492000E9027008D1C8E0018
:1034E0004782D100B5324C00BF22840047CD820014
:1034F0007D6159007AEA650060A10700EAE66B0089
:10350000195B6400FE4DD5002FA6E200DA4B2100C6
:10351000599F3F0077BA3F00B7E88300E3BFF70049
:10352000AB67CF00B7E9E80065BD600039322E0017
:103530005F124700D275EA005A7A0D00B92357008E
:103540009DC59A000373ED0081D5B60075ADFB00F3
:1035500098CD7300CF43C900E48F8A006FEB8900D8
:10356000032A50006B0BF9003B02AF00A3CF780099
:10357000C4FE08005A620B00C65E4E004AA1A700B6
:10358000E7DB82005A3146005CBC33005DAC9F0033
:10359000D410060080D6F200C23EC50057E5C20036
:1035A000C47EEC00A1F8640040F007003F85DA001B
:1035B000719E3500F4AC100071200F00E5E124008D
:1035C0000CAD6800F5D22A005B5C02006B0632008D
:1035D000743438008BCA9800BE53020006D0D20063
:1035E000A462D9006CE8A200B03FE6000693560042
:1035F0006CE43400C04C2F00699E5000138C8F0087
:1036000063373E00040081005B583300B8A1D60048
:103610001BA71900317AD10086A2C800253ACB0039
:10362000966988001CF8D8000932870030291400F8
:10363000F98E95002043BC00FB94ED009DFA32000A
:103640007FB8F500F9CE1C007BC469009E1CCB003E
:10365000B0CA3600F251720005445F009CAED20041
:10366000D10EFC00433BA30007629F0037F83A00ED
:103670009E775600B4AB4300B36DCC008BCCFA0000
:1036800036FD0F0085D4380017F65900B55D4500AA
:103690005644BC0091E0F8006A66690095445C00FD
:1036A000C904D000B0CB7D00A793E300D4C01300C1
:1036B0001FE323005DCC83005F0F250028750C00FD
:1036C0009CB15E0098331200CB539C00D6231600A9
:1036D000734C0E000DE7D700201D1600782F6300F5
:1036E0003485F50076D9D2002784650000E46C00AB
:1036F00081D188003D254C000CAEDA00FCCBE40003
:1037000008B1FA0064ADA8007525D4001B960F001F
:10371000ACFED300A9682800D630E400EF4EAA0022
:1037200005A12300E4BAAC0003BAC400F4F24200DD
:103730000B4E1400B4804000069BE900D09CF900B9
:103740000D566E005AB1A20032642A00DCD32F005D
:10375000E7A97600E4BABE0078EFF900E2BEFF0008
:103760007390FB008DFC0B00F8543300283FAD0034
:103770003FBF720063038000DB14E900AD37DF0058
:1037800080CA13002A6D55005F8A1C00B2848F0026
:10379000472015008095A30032FC10007B67840051
:1037A000F202E1004171E10004DE4E00566A0E00B3
:1037B000E4367B002C3C30005717A100DC00F200FF
:1037C0007857A700C6DCF00098639F007668140065
:1037D0003207EB007E22F100731FF600238DF70005
:1037E000376F86001142AC006317CD0077F6880072
:1037F000FFC130002F34EC00872BB400E6008400BA
:1038000048B50D005EDACF00BCDC950042E7E7006A
:103810004D272C001F0E1400E7169D008160060046
:1038200037632D004EFEBB0092CCFC00C4D5B70020
:10383000D3B8B700CE7E1700BA375D0094748E00FF
:10384000865B4E00652EEC00E6D39B006EA1B100B6
:103850007DBC5300E39670007B65C800818E9F009D
:1038600028D49A008AAB16004EA21A00B5FAAA0014
:10387000E80E3F00A94915007B4F4100EF5CE700CF
:1038800006D1C100899F760074E8240093FF95005B
:10389000E7C5E7008D9D6B005C2345004AD04A00D8
:1038A0007D6EBF0094D5020095E6790004E82700FC
:1038B00001A3DD00A16C630097835500400FFB005E
:1038C000DEFB7300BE029300034BEF008AC2F800D8
:1038D000F055B0001CB5D700F7CDBA00457B840089
:1038E000EDE513007F9E3500A4608100AA402E0004
:1038F000238F6300D87999001CB2D80010C5090045
:103900006371BA00334B3800708DCA006D930300A9
:103910003DE26200D332C600FA170F001C111D00F1
:103920006C45A9009BCEA400F6207C00E057C000A7
:1039300093781F00AECD4B0057566100282CE9004C
:103940002AC6FE005A9A3400D872B2009493F0004E
:10395000B293C100313EBC0050B95D00B7CF9C00AE
:10396000303FED0078E4FC004A513E001EC1EF00FC
:10397000D8DF9700C59ED200D458FF0091F64900C9
:1039800007DEBC00E34F550097BF3D0098EC1800E0
:1039900076962E00F8E04B00273F84004041AB00B4
:1039A000AC7C2200EA24BB009C049E001EE02D009B
:1039B000B4703800FD0DF50061DF7100946A81007C
:1039C000103CB500C019B3004B0961005360C7003B
:1039D000ED69B30029171100EDDB410020CC7A001E
:1039E00097EE8C00FFAAEB002A07C000D978E00010
:1039F0002E52F300783678000B1D7100BAF2D60013
:103A00009A52530022042200D1868500DCD8CE00D1
:103A1000BB307C0005DF12004E37EB00FF42380060
:103A2000E51C520009788B0070AE3800883F3A00E0
:103A30008B76D600953D92001E220C00CCAD550031
:103A400039D347007989C50046E0F3008EF8E400D9
:103A5000C700C7000D498800363EB200C6747E001C
:103A6000CB760D009A838E002BA90000A468570026
:103A70004FEB9400F762410027AC1A00D3FE2100FF
:103A8000C3FE560077A2C80007FF920002AAC0003A
:103A90003533470002880100D4F281009FBCCD007D
:103AA000BEA2180081CB890058CF3D00E5389E00AA
:103AB0003F2904007F108700F4F5C200181D530051
:103AC0004DF55A000CD63900B1DDFA000FB0FC00FC
:103AD00069B4FC00E500F500943C6E00F39107002A
:103AE00074CE8700D163010035F2DF004595630095
:103AF00061648D004DEA86009287130025A4500072
:103B00002C067A006B490B002058DB00D035BE0034
:103B10000A547F00F65AB00023B8B7006A18EE00C6
:103B2000E1FED900DA865A003EAC1100FD92D300C6
:103B3000F9DB9200C2DE89004D06B100C123B4005A
:103B4000F4FF900003D0360072FBB6009D5E1F00AC
:103B5000FB14BE00B88FAD006E876300EDAFA70009
:103B60003A605D002DA5710031317D0085071E0092
:103B70008D2AC9008036E500B3049800F6AFAE0088
:103B80007B80D10085FB050004D6F1000FD65D00D7
:103B9000627D3200EAFA4B00A2216700A68446004B
:103BA000F49547009B75D4000A1E65009818E7003D
:103BB000E195840067A4C50091D2F2000D71F20076
:103BC000D5449400E32B7E00734734000060CD00A1
:103BD000A5E687008E6AED002C236800FE1E5400C7
:103BE000C40A82003505A000064991002DCCFB00D7
:103BF000FB5EFA009955DE00F34C03008F33200082
:103C000059795F004E9FF0009CD0210088688E009B
:103C100067CDB600E52E7700B91D10009DF360005A
:103C2000A0402A004DC70200A2910F007E984A00D2
:103C30001F1276007601FC0026AE200046F8B80080
:103C40009A0921003682AE009BE3630000940800CD
:103C50008E219400702A37003668F4006CF39700C8
:103C6000BB20C60072A562009CB0C80003F41F0010
:103C7000D3D682009FF97B00B85DC90039849300D8
:103C80006DF09C004DFFE000CFB30800014F29000C
:103C90003F96D400F0E12C00D1EE1100961B5600A7
:103CA0008C4B2C00770F2700F007E90077E5A60082
:103CB000DBBF0800F639A70076C0C800B2F0D50017
:103CC000E9870F00844F8500D3053600655E6600E6
:103CD000E0F18300668CB600F502DD008105C600C8
:103CE000C86820006C0B2700DC721D00D193AD006A
:103CF0003C1B5E009B78F1006D0871003A3B73003D
:103D000061D903000BCA8C0085FF2F00446F84002B
:103D1000145EF0001223A200502BE500D8767F003D
:103D20006277A300A245BB00DC15A4004BD6AD0012
:103D30003CC24C00EF351C00E804E9009BD52C0088
:103D40006BED5D0054F4200002F8B300F7A62100EB
:103D5000C1B709007771A200D0F30C0084F12A00EA
:103D6000901DF800AA207400AD2E31005EC4190029
:103D700060690B0094CC3D0077F28D00DC351800B3
:103D8000DB1B990010920B00A647A7001733040015
:103D90000CDF340054252800A1BD5500AD43290097
:103DA000C8F85A0056C573004CE4A700C245EC00A1
:103DB0006CF02A006A81AC00E54A69004766A800F9
:103DC000C85B3A002FB5420010181A007ED92C00AB
:103DD0005A079300ACDE9E002F8F3F00BD173F00B7
:103DE000BEED6E00B5326C00F716A70071A27D0023
:103DF00065B277009393CD004095BA0065953B007E
:103E000085937600E3CD98001B349E004488AD0076
:103E10005007BD00BE3F0E0029E4BC005C84440096
:103E200067785D001A4E41002A30EA00A4129C0017
:103E300091D5CE006F4CC800D435950000A62C005B
:103E4000A7E80C009DBA9000E5D7F100C2E5430059
:103E5000D3A8F2000CFD1E007B7DBA00749CD80034
:103E6000F9FBAA0014F34E00A3F27D00D44EE80043
:103E7000749BE7009F0F1D002F3E92001FBF68003C
:103E8000051055000DD85500CB80FE0092E0B7001C
:103E900007F9BD0057ED830052313B002DFF18009C
:103EA000E712BF00760353005D4AC900BA1F7600CF
:103EB000D4B01000056B20001D3D96000DDC88007D
:103EC000B29D81002511D8006ABD2B008C3FFE00F9
:103ED00053980A00A019C7001BBB0700F1675D00DB
:103EE000E8DE20005077FB00981C6A004EEEB00020
:103EF000B57DE100C1265A00AC0EAB00515C6F00ED
:103F00000355160015EF0B009FFD0500C9311F007A
:103F10005B0AB10028CD7A00838BF200683EF7007F
:103F2000F0586700F36C1800CE17E600CA538400FF
:103F30005C75DF003555C80029ACED00B59369000C
:103F40008F7892004FA94E0086623900A2DEE00011
:103F5000040676006FA5CE007898AF007C26F500A9
:103F600034A1DD00F1387200BE832F00A7A9C8007C
:103F70004F6617000163060020FC8F00435AD500EE
:103F8000291A4F008435EE007E8EE000B1F5350031
:103F900072C57D0038A28800252D40005590EA00AA
:103FA0002A4FDB00197643006411FE009D99F3004F
:103FB00053CAAA00062758005EA2EE00429C4A009F
:103FC000E76A9100A457D50022752700CE3E700005
:103FD0000C56330082356200F8B9F2005D48BB0030
:103FE00085C1D0007E155700FDAAFB00A7AD0C00CF
:103FF0006C16510066F29800F2CFBA003DEA480014
:104000001E0BD100E1B15B00502B4200122A370099
:1040100075E8A3009053C9009FA4F6003C076B000D
:104020003C6E0700706ECA000744C500FCDFE50067
:10403000DF0ACD0081A00E0027133800FB086900BD
:10404000625A3200ACD4390025B7B700D65F4200BF
:1040500094204E00E182050005188400DC01F10087
:10406000833216007F4E73003EA9BF00162B9800C6
:1040700032035600F9A620008A278E00878112009D
:1040800089C73400B54EA100FDDF0000B450D80050
:104090008C65650037ECC00059D4970066790F0035
:1040A000CFA209007E09EA009F50C000AD1944006C
:1040B0002946F500AE25F300E9C52E002831B500EC
:1040C000A8209500EEBC780077FE7A0084C5100029
:1040D000C4318900936AF50006FF4200414B2F006E
:1040E000D65A40007E89370068298A00BC561600DF
:1040F000CA55D700C1F6E50051744F0069D9860052
:1041000013E3630088DABB006ECCAE005F6FDB00A8
:10411000DF62F000369B3D00BBF28E0019813F004C
:104120008B4DFB00CE5E2700156C1E007A3D900083
:10413000593F910094BEF7000E56770011B0C400AD
:10414000608B4F00F390FF000035EB009E77CA00B4
:10415000C3890800A1ED8900640FF500D5E098003F
:104160002515A20000D03D00646AE10061691400D9
:104170005CEB5900C7FB0C00AEFB20002BEF780076
:1041800064E52200E1071A008A243400DB0FA10055
:10419000953A890095B339002E8A6A009E7CE50025
:1041A0001843BB00E6E95100505F93002A46B70070
:1041B000976D37003B171B00FD327000FE64C40092
:1041C000335C770043B5EE00A9588500EE01A600E8
:1041D000BB5CFB0012319800863D0000DE420C0003
:1041E0001AB098008F8FCB00183F1D00CD9F530051
:1041F0000F5520001274370009D7FB001504AC00DE
:10420000244A9B00496D5E0039306900F03FBA00D6
:10421000D87AB4005BACBD00197916003E8E200040
:104220001ECCB7004E8A8500398731008432E30006
:104230000AFC1000AD7F8A001EA0AB0037736A0035
:10424000C948AC0064725B00597BE3003B743300E7
:10425000D2124600EF7DD400D4D12400A6B555007B
:104260005BEED500B39953006E0EC100C83A1B0037
:104270000DD81400ABC12600CAF3A9006F9D4500FC
:10428000FA80E50047852100644BB00066917A0012
:10429000CEE560009020C200E4F115003F9CF600DE
:1042A00044A5B8008F832C00B6D4430052054D00BE
:1042B000DCC94300EFEBC300DAB469000542E80053
:1042C000CAFA2100E1F49100F8C2D6004C626E00F7
:1042D00031482C003F413400B7683700734161001A
:1042E0009006AA00F423F8004ED3D5001B7F8A0065
:1042F0007C6DB3009AEA5D005A13C00081843F00D0
:104300008FED920064AEB300F2E58F00061A8A00CA
:10431000A07111003DCF1100F87ABD00EB500600EE
:1043200034FFA800317D0100B2CC27005BC50E0030
:10433000336A5C000CF4B700985C1200AE7CDC00C1
:10434000DE0FAA00404D57006F698100EBE3CF00FC
:1043500000CDFA000B0C500096F2DA008FB26C0020
:1043600063A34D00D9C70C009F1C44008CB5EA0024
:1043700085C2F300E698C30020CB970094C6D9000D
:104380008CE73700272BDF00CB834C009673770038
:10439000764807006A9B2B00BCEE6C00881A390037
:1043A000947E6100BB82110012882700677DF500B2
:1043B0003824B8000AD4EB00C056AF007B12450089
:1043C000AD19BE000A702B00A4BC7000DF94600021
:1043D00067A5B1005B93C500D9B33A004099390095
:1043E0007BE32B00EA829800490D2E00E42A0100AD
:1043F00050383300981A440085844900EEB40C000C
:1044000096BAF5001922AA00D8BC8200E0BB490088
:1044100077C86B001E8C2400987BC900602B750048
:104420000D3C7200B603BE00C0B353003E3C5300C7
:1044300013F3EE00F16B9B00BB366600B5367100DE
:10444000DE9D8900C6358B00821EB700F094CA003D
:104450008D09AE0036B09900E844C400D0493F0051
:104460007F592C00B0B6D700345C4900EC2F6100B6
:1044700005E41E00B7617300F07CA600D8E4FA00E2
:1044800058A60400C19D1800003DC100AA94120066
:10449000CD837A0062CC8900F5A3F700BA794F008A
:1044A00046C4EC00AAD3BE00A3905D00A814D100BE
:1044B000EC853D00CA3FDB00F063F200A260F30030
:1044C0001A16F400FD5A3200EE040600E6876B006F
:1044D0009C655400A45F9A002C92E10086DCDC000D
:1044E000180CFD00B328BE00485439006A19BE00FC
:1044F000CC8E9D004C042F00C9C532009B2F630059
:1045000079DE3D00A88CEE002BC42200BE23800083
:104510009E40AB003EAB42003A3ED500DDBFBD0041
:10452000E9172E001D2A2400A3F370006D1D410021
:10453000EA3FEF009D77BA00C7191F008C4B93002C
:1045400009F0AA0036805D00D2F9C700899566009F
:10455000BA59BA00AFC2C0000CDCB200A92D8B0062
:10456000EE755C007A0279006ED4E80028403D00C8
:10457000CCB5B9005E3C400078441F007EB212000A
:10458000A08AA50056C171004126E800E2126F0022
:1045900013F9DB00B99B7200CF743300137CC800A1
:1045A0009CABA8009AA25800A8450E005571700057
:1045B0003638C80071DF6400A9674100B9F63F00D2
:1045C000538D2B00FA290C00159B3A00A269B60006
:1045D00010BA50005C1E9300F0B6C80083DD0E00D8
:1045E000A98563008ED1F0008E4FE400ED00C80075
:1045F0002E8A8B00F6E7FD0066B24300C8CE560057
:1046000076C6F40052F22B002B4B1200E08F7C0098
:1046100054DB7A00DB345B001DC61000A3F03C00C5
:104620000868AE00A73C23009B83E400282FF90014
:10463000F8396F004EE74400FD30B20073A5010069
:10464000A043CD00D0C04200A09A8800F7333F00BD
:10465000C58E8D00B6DB8600410BDE005B50AA00E4
:10466000F09DCF0076874B008ECCB30081BC5D00FF
:104670001AF122001B89EE00FA9C1800C3296F0072
:10468000A3A1230025BAAC00D02EFC007F4C9800DB
:104690008949B000AD313E008B04D300D5235F00C3
:1046A000D5A93A00CD5BA900643EAB00AF791400F8
:1046B00058C4D7003EA325002B2D480001DFEB0096
:1046C000975CCB0041914C005ABEE30051A8E0003A
:1046D00003149600C38762006615920079AE4F00FE
:1046E0006D954C00BB796E0058E63400ABD7650081
:1046F000B8837100D6456A009C65B100B6ACFF0076
:10470000CF1FF30056974B0019E1F400877E960007
:10471000D9D9880037713F0081568100F1DF9B00B5
:10472000AB41BC0093C77000E99AFC00B0776C0005
:104730007E0AAC0046CB54009BE7D100AB6E0F0065
:10474000E1154F00D5CBFD002BE09E0078FE8700E1
:10475000F0B9E8008BD39F00C865220025E4D200A1
:10476000C6B6BE00E5618000D3CBF40035BB0100C6
:104770002F8F34002FE83C00B541B600E88482005A
:10478000A23877006EECE900ED85D900C0DFC100EA
:104790006E561F0080F646006736FE003FB33A00B3
:1047A0003274DF0081AB610014522F00F453EE002D
:1047B00091F3B60071BBC400B6BF8F00B8636C0044
:1047C00026A179001385F500FBED470035F2410085
:1047D000B62407001794CD00CDE02400A7A11B004C
:1047E000A4C08C007B5D6B00E83F8A00E6D35E00CE
:1047F000A914DF002DDE4700AC3A5E00A323BA0007
:10480000C3D7A000F4FFB4003455AF00F1AD6D0084
:104810006EBDC60091E8E200A672410007F00F00ED
:1048200011FA57002197C800CCB03000443D9C00DD
:10483000BB1A4E00C5732E00E3E8AD007211E40010
:104840000E246E0084B5DF00B3E9C1004EC34C00F6
:104850007B2C20006FC2F100DFBE4100485B570097
:10486000AFE5E90005EE5E007E99EF008692080054
:104870004CC98300D9392400E92D69002E3E23005C
:10488000DCDCC70071FCE700D69A3D00E4AA870093
:104890000241340071922900A52D920091AC2E00A6
:1048A000F1FFAA00F97D5800FA975E0066665F0086
:1048B00022CFBB004A9833008B6ABE00200F2B002A
:1048C00041B85B00AF39B7003AE95E008D352A0088
:1048D00067DDB9009A7BEB00658CED004E492B003B
:1048E0008ECC1F000CF951007DC3DC00DD6B3A005B
:1048F0004116BF003AB1C400D5CC1900D1CD660035
:10490000931B35006DF08D00BCB6A700611C2A001A
:104910005147A90029639B00CDDDC00026C39A0042
:104920007A26F90091B72C00847C61002406DA0015
:10493000EF13A90009718000152033000A38BB006D
:10494000666B87001DD207007816FA00B990B10097
:10495000A4775B00A000D500C82923000268E60008
:10496000EB8FD80018C88400CD3C2100B3D83100AB
:10497000B018A100599E1700D79C2F00D40FCC006F
:10498000915BAC006FCE4300CD1C07002ECC2D00F8
:10499000856A1D00C1ED0400844D61000CD2FA004F
:1049A0005482C80072FFCA00546706004557390098
:1049B0004AA087000AEAED00E9B8D70078ABC50045
:1049C000273F56005523300056AF110099A0210013
:1049D000596F37008BB665006FCB1D00AD77B30004
:1049E0006CBE6800B00803005718FE00D155800067
:1049F000C1A197003DFFA80057F7E0008085AA00FD
:104A00007D58F600006DFA00F15405001408BC0052
:104A1000C478680040E96000349B04008D3B4A0084
:104A2000279CCE002475250052F5180090980700A9
:104A30005ADFFB005493A3006FB84B00B3CC2400A3
:104A40002A295700E0B5A300BB05E100F7B4320006
:104A5000AD6CD50061265400C2F9120095FCCA0065
:104A6000BA5A19005DCC250002FD7F00FD635D0090
:104A70009B365800EF754400BE09D5001BF4DB00DF
:104A800001C26A00A786B80011FB7500DBA1E00037
:104A900037746C00AE30BA0045397300EF258B00D7
:104AA0009A70BA002E9C9C0065573D00CF0CFE000A
:104AB00049F04600F0A0390010767C0001434E001A
:104AC00018134D0045F62C008F7F7A009AA128001C
:104AD000C94BBC002AFDB7002A91EC00033FA5009A
:104AE0007DDB7100A6881500B625D9000088F80086
:104AF0006710CA007748970072D51D00EE642E003B
:104B0000C33B7A00EDB95C0014BFF0004CEF1B0012
:104B100006933F0014C30D001EEEE6007C7B780078
:104B20005770FE00185C01007552CA00C9FAD60021
:104B30003DA6B000E5EADA00331D1F00ABF94400E2
:104B400098DA38000E352F00BB96E1004ABEE4002B
:104B5000D51C1C00EF0B6C000EC20200404B2C0059
:104B60005D2B820014174C005C61BB00A34ACB0094
:104B70004E1CF000DC60D200DE2F32004125D60052
:104B80006C5D380059895F00E2646B002DCAF40047
:104B9000593F56007AC32C0027D444007AEA3700E4
:104BA00004809A006C0097006A3FA30046AD1F0086
:104BB0005F88F1003CED660040AD2A00FA1F8B00D3
:104BC00054516300C0A6E80026D92400CFE6F700C0
:104BD000F9237800B7477000D610D60093F1ED00A6
:104BE00001A92C002FB51600DB12B200AC38EB0087
:104BF00075FBD200264D4C0067C2E7005DC6DF00A2
:104C0000A4B2E500745B950064C4D30047908A00A9
:104C10005817AD00E7789E00C859570033E50B00E0
:104C20004AF8E500AF3815002D0B12000E730A008C
:104C3000D7D19C00FCC79300A0F95100342914007F
:104C4000F23C6700E563B400B8E87700F17AB4009D
:104C50005CD950008BC94B00EA55C90043C64D00D2
:104C6000132770007E0418001B317C00E4E25B0017
:104C700007036B005F3F2300770A6D00881DA200C9
:104C800013BB7900C57AF00080C9A900632327000F
:104C90002AEDF200644E820069410800EDA1050092
:104CA000D0A559006C18AA00A536A100E99E4000C5
:104CB000CC718A002E3F1000BAA97D00A2CC36002C
:104CC0001B573B0005694C005A7B4D00785E400045
:104CD00027E9CD0073CE6E00B3BDDB009A21B7008B
:104CE00039ECB1008A0ACA000547660014DE60008C
:104CF0002B3C8A008C0DDF00755943000C443000BA
:104D000061EA2C00D51543002174990047E9D000D1
:104D1000F9C6B200F9D2710073A19A00F21AB70075
:104D200040C959002917FC00BAD6F5009F87B40086
:104D3000680B4100DABAA500F63846008D059F00E1
:104D4000774D3C00A7960B00F25A71002CF9A60093
:104D50008333680076B7940098C86200DF1FCF00E5
:104D60001CB30700DA3000008073A40003C3CF0037
:104D70000864C600B8311300C9D438002F97CB009F
:104D800035A802002C3F01002CD81400BDCBDC005C
:104D9000EBDE7D00ADB962004EE4E400890EE50073
:104DA000401700006E102C005494A900F88773007F
:104DB000D1F55F0007475A00BCF66D003C13400078
:104DC000AEC1360054B12F006B652200D536EB0022
:104DD00096CC93009D092600014BC4005AA1A60061
:104DE00063AA8100F74469007469AC00782E620000
:104DF000C7EB6200E9C90000DC7562003BB85500F2
:104E00003850530051ED02008B1DEE008C388000AD
:104E100028A3150088D9880060C88A00FAFE3800E7
:104E20007AB8E500C443D7005CAC2400BCFE770030
:104E3000303C0900BE93920075065B00F678460090
:104E40006849710094611B00AA8C2C003B871900F3
:104E500088FC6900EF6D9A00576D3000534AEC00F2
:104E6000B874740068781100CA6F8F003DC10700E4
:104E700090F83A0027983800150A1600778CC2007F
:104E800012325600CDFA45002580F1007C216300E6
:104E9000DAB59500932D3800136037008D32F3009A
:104EA0009349ED00B3541900BAEF7700B44E7B007C
:104EB000AD9D4B0006F53300895F910005FE0900AA
:104EC0004C6EB600EE33980099D6020026DE5900EB
:104ED000833F530075B1DA0001AC5B0012831E0002
:104EE000C128C300B660E40069615400192038008D
:104EF0008B63AB007B023D00DD32E4002A3D8A007B
:104F00006B91AB002726B000E34F7F0054FC3100CB
:104F100028ED9D00D6D4C600CE11D7008AB39C00E0
:104F200036DB0C00C24A8E0054C33600A6DEC70032
:104F3000708D8C00E862C6005ECD2C00B0ADFF0025
:104F400004AE5E00EA9818001F5DD9005FB301004F
:104F5000AD45B10037C5A20067D73800DF77BD0087
:104F60002751290068F72E0039AD5100D4F34400D1
:104F7000E0B97C00ED1224009A6592009E371B0078
:104F8000EBA5E600E811D100ABF02500DEC22F0052
:104F900039537C0058126F00FA97D1003950B9008C
:104FA0000AF217007A915400142051005B190B008B
:104FB000A032F2006B7996005EEF5A003FD7AB004B
:104FC000367A5A0011E5F900244EBF00AC02A60063
:104FD00030F388003CBEE300F213B30002197D00F9
:104FE00092EC8400079A21002256870036E9AB0034
:104FF000B63CCD0084773900B6EB14001A2D4C0076
:10500000399B17009744A40067DA3B00E1F2C70020
:1050100036265700224D3100FE004400E29A790006
:10502000B686890062F80E00E192ED009C6D2700C3
:105030006668CD009878D700F038D500FA0D940056
:105040008A383C00EB50C60091EBB800D74B2D00DE
:1050500032602C008CD5250009DA6700C31A77006E
:10506000AA6D20001B0A52000DF3F80007B168007A
:1050700036E1FA004982A00098E28800E612CE00EC
:10508000FE905500BD285300FF987900258E200022
:1050900047D856003B10B60042AF3A00CDE96C004D
:1050A000E3054E0003B3E600A43C43002F4E060088
:1050B000EBBD03007744C5007CF15A00292931007B
:1050C000AA424200FFF876004D8BD900A692E1007B
:1050D000DBD8E4003068EA0014F660006AF55C0092
:1050E00017BBFC002B6D3D00E1AE07000F00470031
:1050F00088508D004329F600A93B2E004A229E00CD
:10510000E29A4800E20CF7005ACC9300721AAC0005
:10511000940FD000AC0A30002E59EB0043573300F7
:105120003A508D00E4588D0043D27300DE316A009E
:10513000547679000F65C6006B342B001444E100EF
:105140003DE66000D6DDB50041975D00E35E82007C
:1051500055DD9C0030F70D007C88CE0040E5A900AD
:10516000802F1B00C04CCA008748CC00168F34002B
:10517000D4E71F007B06F30050BC61008ED8770097
:105180008DC0B3008D235B006028D50091A1BB00CA
:1051900044A66D007D0F3E002B09EF008AC12F0051
:1051A00060BA74008EE53E00A99C65007093C00053
:1051B000CC887B0068068E0024F17E0003BED900F7
:1051C000EA644C00F8E31F00538DC40055BC560040
:1051D000C7218A0093272A00A805C1008BEAD400C2
:1051E0008F99C7006196CA00E6127100E41A930015
:1051F00042B84B00F8570D00F5FD9600FAF6460050
:10520000A7FDFE004783BE00F974B80048B1100046
:1052100081AA5A00B515CD00A01D7C00EBCA39004B
:10522000000D010089B8C300BB789D00ACF1F3000C
:105230007AA029008BF83D0010EB02003E3A1900DD
:105240005AF48200ECD386006DFFEA00C33A3F00B7
:10525000588ED70062C2F7000036E30094C982007E
:10526000EA3BE200979B7D00E6F48B0041648A00F4
:10527000F9869100C3FF1A00016E5200D682990090
:10528000D841C100972696000E8E8200605B6F00A9
:10529000715E6C005C38FA00F548A000AFD94F0091
:1052A000C084C8005C95720063D718005CCF3D00D5
:1052B000851CE00080AF880095B951000DA0590011
:1052C00035BE56003A5A330077932400F7EDC700F5
:1052D000313F4F00A5B4B000ED353400A40AB8004A
:1052E0003ACD2900E91112006F697800F62F5A00B3
:1052F00023CD4300E483F300DB4D23006BC5110095
:10530000C7704A0006EC4E008663DC00A135300011
:105310003D384C007CB6F40093917A001C1849008B
:105320004AD2C40090A3320088BD270047B3F800DA
:105330001610A2004E43D3001DC86D00B81A02001B
:1053400023E0F7006B07270057035600B86D3A00BB
:105350007A840400620F7200D575C10001FA0A0058
:1053600026788500E01228006A7FB100C946AC00AB
:10537000E6B77000620E1200EBB29D00FF4BD80042
:105380001D622D001B960F0049F96C00D459D20004
:105390000DE2A1001AF3DF00E15175007C74870073
:1053A000441A1D00AC6E7D0012C446003528720000
:1053B00055428300FE6F570010563B0088191900B4
:1053C000CB6B7E0007505E00F71C0F00CED5AF0000
:1053D0005BE2FD00A4079E0023BA6000F5A7D5009C
:1053E00058DB4E00041C5300BED92B008475E60028
:1053F0006B28CC00456D370099865400DBE70D0023
:1054000082E1C9005FCB7A003F677300BF658D0002
:10541000083A3D004175B5004738800016A1A90043
:1054200057F5EF0039E66000EA17F900EEBCBC0062
:105430006A2E120098954500D476FA00C34F3600C4
:10544000D766F400958C12003EC2A40001C622006B
:10545000FB10DF0071F63D003C1B6A00C7E86700E7
:1054600076099C00DC0E9C0053AFAF00ED8C7C00F5
:10547000D9B3990097120C004E86D30048AE3D0078
:105480009EAED6005916710051D960002C7BE30006
:1054900058524000F6E726002E474A0031143D00DE
:1054A0002B701D00BE5D8100F779A2003A048200D6
:1054B0007D03C20023B8E600D311C100B3B4740069
:1054C000EDCA5F009EF9FB0015E94A0019628100F0
:1054D00083FC9200D25864008A057200BF543900E0
:1054E00029898900F030030012CB3200CE614200DE
:1054F0005AA396005D14C200714399008CF8CE0047
:10550000187DEB0092E5D200668F7200E13F330018
:1055100023714900441A8000FDD47B0017087000F5
:10552000670B1100C48C1B00213F6100E194D40083
:10553000B5A45400A77FBE0075E2F4009E8364000A
:10554000B685CC00A9B79300639B2E00DE51BF0047
:105550001CC5F500CECF8E007439030024481B0013
:1055600019558400CA2B0200E28B3200EDCCBD003D
:1055700014F4E300A22CB7006B231100F163770051
:105580009AF40A00928B420067DD4B00A8DD4900C7
:1055900092109D0031FF88001C8CF0000F7BC3002F
:1055A000B4BB8B00D28E06005150E800AB0902005C
:1055B0003CA944002D38AD002078C500CE3BFD004D
:1055C000DA7856003FCB550010F78F0018C1E7007E
:1055D000EBBE7E006E20080062CB580040E36A00FC
:1055E000EEDB9300EF0C0E00ABE40D0014AB780083
:1055F0003057F0006CB91600A25F8D00BED1AC0030
:10560000CAB02C00E03EE6003B2B90004802F500BB
:10561000CDDE4F00C5AD6700F46AF100612FBD001B
:10562000BBE96D0071E3B5006E2A590060016500A9
:10563000385C2F00BDD111003E36A60089A08F0036
:10564000007A3300E71C0300052EDC008F5F2F007B
:105650001B72EA00B9334A00BD2318005A0A4300FE
:105660004F00A400EA451900555C5F000ADD5200B6
:10567000D6316200C3BC7B00800541003A67170049
:105680005141C700051A2A00CAF47C0088DF940043
:10569000FCBD700009618200ECC36E0055AB99003F
:1056A00022728100296E3B0060DE1D00C91E37009A
:1056B000D2BC3E005EE0EB003654C80019B9B7001A
:1056C000D252BD002A79E3002886C7000C6106008B
:1056D000D39AE400B8166000ECFE0A00BA65AE008A
:1056E000E618CF0041AC1500C90D57009747D4000C
:1056F0002E9D0100B0DC92006DF63900AF8D0300E5
:10570000D7295A00881B8200FCC98300322BAE00C7
:1057100046C43200057861006C3D3A003339FE0022
:1057200091A54300817649000F11C300AC086300C6
:10573000317E9300199CFD0071DD9400C5D04E00B0
:10574000F6C07B009090070063596700557D2A00E2
:105750003A29B20072FA4700576DD900A861D90002
:1057600059F0A7007C797600EFA7140082D37E0061
:105770006066A2003B63BC00CFE75A0064F2D3002E
:1057800003E2F700F2252C00BA4EE4000D1F7C0066
:10579000D43B1700C0759100DCD1400043E7AA005C
:1057A000B248AF0002A8340064FBD100D2695600B1
:1057B0007F07AF00F6E0ED0056B12600D5765D001C
:1057C00015762E00A0F78A009E154C0033F0B80025
:1057D0007941DB00F033550067D3C3006C2E4400E1
:1057E00051C58300244BB200AD6D0100956D2000C2
:1057F000930E0E006B3EAE0010635500A186730041
:105800007FD5CF00CAFFF100EB3A4600E178820075
:10581000CEA2170043018500A5CFC400CD872C0080
:105820002B9406003312F600466AAA0004F1D30056
:10583000E273DD00FB2E6A004D83C400917E0D00F3
:10584000D717D700E326D600C03C9B006F794000F5
:10585000B83BD5003A3C920083E95C004FC0F400AD
:10586000764AC400C122C500ED352A0097062500FE
:10587000F0CAED004900160098C5A300AE7FC7002E
:10588000F163B8009953EB00785A5300767A1F0001
:105890005CABCF0096E576002ED9970019B18E004B
:1058A000A6349D009D282D009EBE5C000851C500B9
:1058B00083929F0033AA4800BEDA5A0041FF9B0042
:1058C000E33FC300E07AE000B1642900D05CD3007C
:1058D0001FA4AC0057B0220013BC430097CFA80010
:1058E0006FA62100DA65B200966B99005093E8002C
:1058F0009F84B400DCDE3A00CD408300D356210003
:1059000002E1B800E7AF3F00478D510094E91D0068
:10591000A63BA700BF114C00E0E4540070BD0D0091
:10592000C94AA200C8C2210053ED8300A8400D005F
:105930008AE61400A41AAA001213F6002D544B0094
:10594000E37B960020347200593794001D621900E1
:10595000D63AAF005051A50080ABDD008DD80700CE
:10596000E673F400F7DD0600900DB100890C090024
:10597000C8D888002DB49F0019DAED0058C9B000CE
:105980005A9493003B87E80042C7BC0003104700CD
:10599000D46DFC00C9987500213D9A0018CBC80051
:1059A0003C6BEA003B1CC6004D7F1F00AB7A5900E0
:1059B0001FA7650057EC1B00B05B3C009D1C550009
:1059C0007D4D54002A776600A1725C0020D56100ED
:1059D00004F415002C049600316C1000791BD500DE
:1059E00081C17F00A2B85A00C4AE8400086FB8001D
:1059F00093182F0043FEA400E36A940085D8F500B5
:105A0000A1B94F001E3073005110E1008CBBF400AF
:105A10000D904D00BAB1D2005B8043005ABC7300B8
:105A2000A99EB9007ED4B80074916D00D8BDF40071
:105A300069BF2C00532FBA0000B8E700D93BDC0047
:105A40005A2A6A00874CED0070E8FF00A085B50077
:105A5000D3F7AE00F4D1AF008E06FC00A49C210069
:105A6000E9113B006187D3001976330096BB0E0025
:105A70002749F30027DF2A0094A0D800A2C93200EA
:105A80007E80C30017E5C2005A847400F53DA30070
:105A90007A2463009BB79200F6A0A3007F37090029
:105AA000B7618D001AEF4600B1D4C400F9CC98005C
:105AB00092CEE100A19751006BFF3F0029D9DE0093
:105AC000227CB900BFA0CD00AE7E130064C7E80001
:105AD00069A28700AFE74E0000D7B40054247E00CF
