:020000040000FA
:100000008D8D4000FFD87F007D1702007777DB00E1
:100010000155CB008F5569006BBC7F00CBA79300C7
:10002000C0A34C00BE027C0010B5600055919C003E
:10003000E11742009F0FA200E45E2F00D3BB9B009C
:100040008E4E7600662B6B005238F90065A8B10021
:100050008EBF7D0075FBEC0065B898002B61A60093
:100060001F3EED00956D2600C36D98002CDF5C00EF
:1000700009333700836ACF00D998B400796A7C00CD
:10008000EFE35900AFAC120057B59F0091588D00B7
:10009000E75B5A003FBF4700DFA6010007CDB8006D
:1000A0004DC92C0059699F00F87CF0006260310056
:1000B000D4646400A209150048029D0043D14400A5
:1000C000DD35120001A61B00028BDC00CD2375007C
:1000D0000B48DB00A7B3A5009CB6DC0040D3F900B9
:1000E0001626C40053DB9200C518E500E7F9EF00BF
:1000F000E0ADB800D23D7F0096FDD50034938A0074
:10010000C591B400C5FCA30007BD5200283C020005
:10011000361BE200A60B3100A4517900F815160039
:1001200088024A000C8D84007F26F000EDAEE500C9
:10013000097008002E40240068502E008B15060020
:10014000547AA800A5C2A1005BA67100F57932001F
:10015000E6B5880075AADA00396D19008F011B0019
:10016000F0A940004DBC9100BB8A5300E5B0DA0015
:100170006E3E28000EC26E00A3737500CB8FC700C1
:1001800078779F0089C5460033493900C46BDE008B
:10019000D711C6008DB36600E3D9AA00A7DC3D00E5
:1001A000DAD4370020ABB6004D7917007F6F3A00E4
:1001B0006AAD5B000B7D2C006CE30E00B31BD0001E
:1001C0005CE620009B1F6800059FB2006666D300B6
:1001D0000612E700A61ABD006493740020D88600BA
:1001E00014790200CC2F98004BC53C00ADA85F00ED
:1001F0009C221800FEC26000276FF90045C50E0062
:100200006FC9A90044C7E90085E81B00EC94910080
:10021000B152DB00BA337E00C310B8001B1F600070
:10022000AB990000DB44D1000A312300A078040020
:10023000DFA41B00010EDB007B894A00C29AC100CB
:100240005C9860002C1F2E00A8FDC800A808AE0016
:1002500053F955000143DB0045944600FAE60800D7
:10026000EB167D001699C4001EBE2300C869D60097
:1002700051ACD7006C9091004C981D00ABBC3A007B
:1002800012105D003C868900A39DB70029C9D800E3
:10029000AC84C200F60CB3006E7B0A005D7FEC00FC
:1002A000617E1F00861FF2005DFD5E00D7842E0078
:1002B0004EF22F00D8C4BF00BE44F700C06D090045
:1002C000BC0284009EE7B900EBBED70042E4860082
:1002D000B69C0D005066F200038F84002662DD009C
:1002E000DBDA7100749FD000DC5EBF00BE60ED0001
:1002F00075418D001FFEC80038CB9C000423870089
:10030000C927F700BB4A620036DF0700037E4000C2
:10031000B0E2410009C438000A533D00754334007F
:1003200066847A0069442B00F0812F00AD327B0097
:10033000A145440059F7DE005D4B5F00B793C8004C
:10034000E5EB18003B638A007753C500BCE09200E0
:1003500016C1F8005ACBC000C7562A00AB21D30003
:100360004EF069002E2E03002D85040016DEEB00F2
:10037000F15B5000DF636C001318DB0059C9F20019
:10038000FD40240007212200E5979000018DA60082
:10039000A63B9F00BCE18C00C08407006A550C009E
:1003A00021815C00CC00F50069569C00A90447003F
:1003B000C06262004A7F430080072B00AC2FF4002C
:1003C0003E6E580049408900F49F0500A04979001D
:1003D0005CBF8E00E7BCD700B972A40092A16D008B
:1003E000AC5630008D742200B90230005816F4006B
:1003F000AB894300749D900007C38F00B1A4A10096
:1004000015E0B8006AD91A005A26A800AB33BC0020
:1004100075F2F900D5F2C800B8B1250045436F0068
:10042000FB1D6F00F8E59F007106DA0054614A0079
:1004300091218C0074BA90004E178B00AA88370067
:100440002FF8600012F1BC000AFD630074CE550065
:100450006E84AD00BF896D00011E3A00E301070004
:100460005BE14B00D7E56500279DD0000D224500DC
:100470008E6CAE00A60A0C003B446F0016CE3E0008
:100480007ADD6B002A0874003B5DC1008A13880086
:1004900005FEA4001E88F4001A2F44000D3F1F0023
:1004A0005AD8B40033C9C600B011D40036935B00EB
:1004B000FE6D5500A08A9400F14C6200B609D6008A
:1004C000214C7000DDABFA006137CD00C082BA006C
:1004D00036917300AA842F00C7477700A506F20063
:1004E000C537790056396800200ED100BDFD7C006B
:1004F0007FBA17003D8F8800D647D5008D825E00F9
:100500009365900091055D003183B5002632E800C7
:100510003FE980005D3657000D06E900CB1E48001C
:10052000A9018300C7C3C000CDEBB600D6C8300018
:10053000EE477E009555D9008FAE6F00DB418D00F0
:100540007B801D00F16A9800A18F19000DDEB100BB
:100550009CFA19007004140032939600E0179C0076
:1005600052D52400506A19004C038200F089DA0049
:10057000683D5F000193950001AE6E002023E0000E
:10058000C8F8CF00E6ED3E00E4520E0006F9130075
:100590000AD355005C96CA00BBF35D00865C21005F
:1005A0004DBF7B00FA32130072FC7900BC142200AC
:1005B0004AC38C001A053800517678001FE4760093
:1005C000A5FF920098EC1E0071BAD600E2BBC000F5
:1005D0008669CE00D9632C006C57EB009D41AF00BB
:1005E0006809E5000FB8B000531EA4002C8B7F00F3
:1005F00030D3D700BA01BA00E48AE300D734500000
:10060000816BE40071A1EE00FCFA4F00B3351E00CF
:100610004E6E2D00E1440C004A699A004716900086
:10062000B00A880016B8E300459F6900716DEB00C1
:10063000F9076700F9066A005F1272008AC7EA00CC
:100640000888C80019B3FB007AE01100C85BE80015
:10065000DE1A8D00AD0177009B9F4B00E433340020
:1006600071F7F300D9A59E00DCF47100FCA9B2007B
:10067000C06D6100304B8600A7268100B9604A003A
:1006800027E651007AC4DE00211E4300B41977002A
:10069000F301AD00B6E20F00E38B2D00150EC9008B
:1006A00039B1D10062386A00EF23B1007DAD6E0030
:1006B000E351ED00F94C9B00E124AC0025E760001C
:1006C0000B2CBD00BC043300649E21004761A800D0
:1006D0008BDFFA00B540B100E72A7A00BC42B400D3
:1006E000D496A900F8FA7E009110AA00E6722100C3
:1006F000FF1283002C63A60072FDE300CF73DB00C2
:1007000021E5200049BF5100FAD23E00923A6E0026
:10071000E2686F00A2145100AE342800F9A9F2007B
:100720005054BD0025DD620018CEE40067937500CB
:10073000F0F09300E24CFC00FE83FA00F8615300F5
:100740001652B100C9EB1100D7047000E6D30000C7
:10075000761C3F00B78729007A6C90002E665B00FC
:10076000FAB2F500B3C20A0018EF980072562200E0
:10077000D5DC840074C1F3006CBFA100215FE300ED
:10078000D738980026BE8B0030A47200D491B400F4
:1007900003125F006D832500D2F00600FBF3C60054
:1007A0005E69E400A913800067D58B00B8C17300AF
:1007B0000949FD007B005400E039DF000A7B20007E
:1007C00091B460008836E0007A9844002E1F7400CF
:1007D00086CADD007D4191007B8B6800413A1A009A
:1007E0004AEBD900524C0A001A0223002AA9F6004B
:1007F0002AF98900D1618700BE50F300B63777002F
:10080000B205F70059B104006B903000037DDE00A3
:100810003C001000DFDB0E0079019C00229A3500BD
:10082000CA390F00358DDC008665AA00F8BE480085
:1008300015D293008EE59100AD84B4006499EC006C
:10084000E5613C0041779200F7518E00A612090045
:10085000A3769100CDDCCE0011630700FEFEC70039
:100860002CB3E3001D2B47003FAFCE0093A30C0039
:10087000E7A9AA000CC4CB0090C95E0096364300DD
:1008800019C42E002A4D9A00530A3700A7BDE5006F
:1008900077CA1900C0CE0C00C95BF90077EE0500DD
:1008A000FCE22E00113F6D001B9E4B00AEF50100D7
:1008B000FC172400E2FD5F008ED6D6000E488400AF
:1008C00079BCA4003D047C00F49DAD00D7E14C0050
:1008D000B541250071CCCF00658206006D984400BB
:1008E0000852A6005C367E002F50CE0038624100D0
:1008F000F3440E00EBEB8E000A766100CBB8EC00FF
:1009000074409D00E109C20090F8FA004779AB00FD
:100910009B9B7100D810EF00EBA85A0001E778000C
:100920005D56570085627300CF920B0062B49C0045
:10093000A7BA760040CFB400AAD5CE000E363E004E
:10094000B67A2300C2F700001A5D3E004824550025
:10095000A5E04E002F875A009F2CFE00958E9A002E
:1009600047E334005789510091320A009EE5220086
:10097000363405003861140054D619005A3F74000B
:100980002C9BC600C723BB00C9B5F1006C397A00A7
:100990009032C400EF5AA70007460F00C91DEB00B4
:1009A0005459B900D974EE004A4BA1009D2DC800DE
:1009B000FD6DEA006E6365002B5C7B006F36DD0029
:1009C00003A7A5001930480011E4E10082D5C10059
:1009D0005A9C8800D187E000E758EF007E0D210087
:1009E00050569C0056833A000F982A00501232004D
:1009F00099F52200BA2F2700959EF1004D6F9700C0
:100A0000A8480F00229BC000A710DB009DEB8700C9
:100A10003FE2CF00CD699B0044446400D6D076000D
:100A200049859C0055370E0034C36800E777A7005E
:100A3000E7F90D003548B70037783B0037407200C2
:100A4000C89FB5008B4FED0081FB08000D55BF001E
:100A5000BD51EB001E4D500064B2AD0032E59D006B
:100A60008B6E5D00A1C77B004FB6A100D4B02400FF
:100A7000031B580038E72B00F6B64700AC113300D3
:100A8000501176003C343B00D24B0B0063E1770001
:100A90008F91BE003BFEF600CC688E0031E29500DF
:100AA000A447590042AFA40034EAEC00C78D93007C
:100AB0004B3A3A005D8FF200F76B18006F6E3E0004
:100AC0006D17B5005EBCB20011E0BD007066080095
:100AD000B4710800DD59E70040984900B689670005
:100AE00061C3E600803D1300FAB6B500B26D270081
:100AF0005C4A0C007C9B3200A03B1A007F13A500CF
:100B00008C114E005B77F300F21DB50045D0DC0080
:100B100069BB7F00FFDCFD00C52C9400E2D7C30059
:100B2000CEE15200E6259800F4A37100C64DDD0029
:100B3000131F2C00AECEF30093ADEF001E00950006
:100B40005B141700DCA033006A426E003431E80009
:100B50002901C400D8340400A11D7A0015138700B0
:100B600039C00E003B10AC00B7B78A0073D91F0024
:100B70008D3D38004DE40800B87CB000CD852E00D6
:100B8000C5B9F800C9B04300AFB13300CCD1BA0049
:100B9000B36E2200E2CE5D0058BD3700F0DB1F00CF
:100BA0002E69F1008A2855001AC87D006B7A8F00E3
:100BB00026AC9E00F11FBE0033E79C004C58BD00E0
:100BC000F9F099004BEB95003447B500E0403C004C
:100BD00004992E00D668F800B0090700543DDA00E9
:100BE0007BA48D001BAF900030CA2C009F68EE00E4
:100BF0007DC27F0073DD4B0069FE44009E9D550061
:100C000062CE9F00CCF04900B0A55400806309007B
:100C1000574E2F00ADA08000ADFBE00064BC0E007D
:100C20002DC79B00778840004F2265003FBA3000F7
:100C30006DF9E400EC200D00FFF6230003FED40064
:100C4000AF5B8100F54D3C0017872500FD847600E1
:100C50002B665F009F84DA0095D732007E683500EE
:100C60009083770066CD9C000BF49900BD73B000B3
:100C700014BB4B00B6267A00DA78AF00FBB347000E
:100C8000CC67EF00AE0B1A009F0CA200E86635009F
:100C90003D9102002623DE00EC7C870045EBDC0062
:100CA00032B9B100F35A29003A72D200CA978500CE
:100CB000CF32840069F3E6001EEFDA00499CB100F0
:100CC000E656D000213F7800BB0E130012519F0062
:100CD00088294E00FB1A580077B6240099988500A1
:100CE000DF44B60066622F00F12ECC0056370200BA
:100CF0003B1DE400DEE3050032D80E00EC453B006E
:100D00006AF2CF00B699EF00226DAC008D21A300EE
:100D10004B022600172B4E003C8A9C009B7E6000F5
:100D2000A5D0850047F9BA00856B51009381520028
:100D30003498CD002E3D2E00BA1594002602C30033
:100D40000539830016F93B00C85E5D00A85C5700BA
:100D50000338AD00B2C2870080895200AD75F20041
:100D6000D0A3830061A91C008A68C300F1D34000AE
:100D7000D8F28900B3BC66009A3C730078F4D100C5
:100D8000A42E20002BF75F00E2C15400F63C300097
:100D90006B00AB0046915A00C720F50070309B00F5
:100DA000EE725700BC00EF00D6B5D80022CA1D0075
:100DB000857D780005283400F9E4C700A322F500FA
:100DC00074ACC9001E7ACC00E56B390047C3D9006A
:100DD000827AC3008C16BB00D6E7EA00C44B000041
:100DE000CC2FE300A121A0007E828F00174ECC0003
:100DF000D6599100FDDC2B003AFA8700A8847A00CE
:100E0000E2306F0057448C0086791600ACC6B500FE
:100E1000857E84007D329100B3F1B300CA5E5C0030
:100E200076D94C0099527F00D7EC530000A8F1000E
:100E3000A84A3C00B5614A00040BBF00C8149200E8
:100E40009BAF400080847300BB9EFB007604FE00D5
:100E5000EF6D460052B55000A21C3F00E30AB200FD
:100E60003A4C1C006D8E4E0075525A004F8E490050
:100E70001A847B0085F40D003A993D0083DFD2008F
:100E80008D61B60081655300B876510036308A0016
:100E90007F03E10083EFD50029623300B10BE3004B
:100EA000A4116D00251458002EA02D00B5351E008C
:100EB000887B6A00061C5500026ABC009C13240053
:100EC000E3942C00849E3100F2D3E100BD033A008C
:100ED00031233400CA4186000C272D001547AB0092
:100EE000823034000CF7070016A271002261E40082
:100EF0008EB7100011370100C1D5730012120A001D
:100F00000C7D1300F10284001E1094001D4F03009D
:100F100043AA840020ADB400518BEF002EDD7F008A
:100F2000E0FC9900AAAE09008353D900C871FB0008
:100F30000AA08800BF0C5D001D182700277E5700FF
:100F4000B302B30072127000325CDD00A508A40089
:100F5000313FAD00BD624A003CBA89005F385200A3
:100F60000CE86700C8A6E9000A2F51001877910025
:100F7000194E7A006A5C4700F99FA3005C4D42005D
:100F8000C7938200EF880E006210E500E85CF8006D
:100F9000B82123001C54B300523A7000491D370099
:100FA00093508A006FCF3A00807E5D00C23EAB0056
:100FB000185CEA00AA6D21007B5FB40072D7DC00E8
:100FC00074F3140092EEB20023FC5C00B6BEF40091
:100FD000D6FACE00F4C20E00593D8A00CCBAF10018
:100FE0004152A600E82C4000F9AAAC00B8645000B9
:100FF000A3B55C0059A08100081C89006AE6F200D4
:10100000270A9800C32737002AB60D0020F74300AF
:10101000C7ACB9003ED1A30056F0320009BA620055
:101020002496C300BC671A00CC8CDD002B63DB0068
:1010300099674B008EFCA90045BE910085C64A0009
:101040008DB5E8002C054B006CEC16007735890057
:1010500008238D0035119A008DCB2E00624EDB00E7
:1010600088220A00B45C79008BBB79008BA26D00EA
:101070001570F100A4C2C20017A2CD0044564A0068
:1010800093983A00B6D3C7001EB4E3004D1F460044
:101090005622E9005015F60083E29400774554008B
:1010A000FB2A9400D9ACD1000EDE23008A89870088
:1010B000758E690033FBD800A3E68E006816000029
:1010C00066EB530089EC0700B6D9D20071E06400EA
:1010D000AF188C004A00DA00FE33AC0029178900F3
:1010E0004AE05300744D160068FAF900188DC400E8
:1010F000561321001507A1004EBEB100F139900032
:10110000734B5D000E454200E8309300F63A6600EE
:1011100050ED4F001A150A0002FABC009AF5F600CD
:1011200081400D000E18F600EFC52B006740BB0094
:1011300095B09E00612FFD00BDBE470022B60500A0
:10114000678B4500EFFEE900A9E433002C973300DC
:10115000B4D0FA00F946B500D5F9D5002ADDBF00B4
:10116000EEE66300705A9D0038F5C400E8640100A3
:101170004F499D0072354800D530B7007A5287003C
:101180003083B90014F811002FC7E800A4139500AC
:101190009A0CE40062C98100FBD385007BA4710036
:1011A0001DDCFC00A366FB00178CAB004BFA530060
:1011B000E0C17A00E0E26300BA604E00BBB8F00024
:1011C000F9DFAF00A75AD400EDA182002F954B00A4
:1011D000FED36C000CA0DD003A5488006D0CB10009
:1011E000DC65B400F0228C00A22DD200824EE30018
:1011F000E6CFFA0085998B00D3ED4A00E684CF0054
:1012000030F48800112DBE009A859B00DED6CE00FA
:101210001E134D00F12E930096C1670021D0C80027
:1012200037D7E700E099A5002E6C9E00BE0DC300E5
:101230003ECA5D0079E3EA00C41A55003C55C4007B
:101240008387C200FAE13E002A1A7700027AAF00D3
:10125000763FB4004ACAA100542E1200F9B41C0013
:101260007C60D3003C8A49004F1983006F527E0096
:101270000579CB001503F800711D6F003EDA4700B9
:10128000DEA63F004BE81B00D2EE96002D169D0017
:10129000C3273E008F465A00FAC76200959A800025
:1012A00038DF03000DF77A00DB95CE0047B5CF009D
:1012B00098E51100F2829200016F5800ADE6D3006C
:1012C0006D7424002E3BE80007CA02002E4910006E
:1012D00002C4BB007A88BF004C279F00D78A7300E6
:1012E00037AEDC009CB71700E721AD00375D7D000D
:1012F000942AB800E9C5E500D71B6500897F700016
:101300009FF745000BF27F007FF9440018C7980053
:101310007105D00004152B0050A0E800DFC93E0085
:101320008675310073073600C72C5F006F0F5900B8
:10133000D543650014970F009A13C90015ECA4005B
:1013400020ED2D008DD087002DA21A003B6ACF0022
:101350008CA6600066A135004B92A1000EE6F80055
:1013600074FAF3005916060012A5A300613F640049
:1013700079DE9A00CBB98A002D795700D0C5CC0010
:10138000DD96B2009AD6F0004810D8002843EC0051
:1013900011FBDA0019A3E300C0B7C60006C86C0051
:1013A0008CEFF500589837009A485600BD1E18007B
:1013B000DD28C400A8795D00B7F2B5007D08D10032
:1013C000038C22005DD07F0045078100B0A800009B
:1013D000FCBF4C00D5DF150077763C00A7C2E400C7
:1013E0009BC4BE00B955E30077F4410075ADD10050
:1013F0009EA29800823A0C009BF903001B22450034
:10140000FF8804003FE65800D7119500E547D50056
:101410008AEB500094FD3D00722F100012A3D900FA
:10142000AF76750005BBF800FCF42600BAC9610070
:1014300099ECD200740850007F2AF600EC02E80014
:101440007E3F6B00E82C8F00F4D18F0016346C00C7
:10145000387DD0008F125700F98EAD00A9C08500ED
:101460001560DE0005692F00BF55F500FD3FC10086
:10147000EA983B00D627910049956500712D8900B7
:101480006E26DD004135B800D2501D00D6F626008C
:10149000C44D97003F3522008EDC07000D0D5C0027
:1014A00059086D00C3C47C0095313B00EEDAE800BA
:1014B000F0FA070042A525001C0D53006BC6510031
:1014C000FA49D000749C8300E54E0200F49F90001E
:1014D0002ADFBC005C0CA700F84AB7001D2463009B
:1014E00049F4690086870D009302C7007E73CD0022
:1014F00046F78C008FE553005E785E00DAA4710039
:10150000901BBA00EA9B5600E293B80083D5CB004B
:10151000A82CE100E05EF8003C480A00FC5B740087
:10152000F1752C00D84EC3000DF27D00E000800064
:10153000CAD34500D8351900B420B200016230008A
:10154000DE41B3004B99EB00BF3EBF00D3E3A400E4
:10155000BA7A3D0004A43C009ECD0A000BD55E0083
:101560009F7C6800822C36009928660083A8710051
:1015700099072F00755BB400030362006069620085
:10158000D068AF0081B6F500AF159F0075CD47005C
:101590001D2789004193FA00A3AF7700EA89EE0086
:1015A000DF6490008E363A000B1EE50018CEDB009B
:1015B0000F0B75000024F400701F3F00B7084200B5
:1015C00092114900B461C80029D6A2003B5B9A0081
:1015D000CE78B2004FB4A90011EEB1007A5FD70007
:1015E00080C84A004317E90079E9310091234C0093
:1015F000CB27770051F5490060C91E000880AC0078
:10160000936221004EE50200E1844300342C3A004D
:101610000B706B0029EF8600EC039E00DD34840024
:101620008C4EFC002B9D2F003891FB001FB95400FD
:10163000A8481E00815DA00078F795009511C300B1
:101640007FF7D300F7F73F00CCBD4800B3C51E00BD
:1016500050968A00061CAD007A37790073F3C900F2
:10166000527B6500104BDF00DD5A4300330D6000F4
:10167000C4C98700E9A2F5009D932800DD11F000A0
:1016800043B17E00994CC90020049D0048A3DF00AF
:101690005BCE3F005F9371003FEAA200DD9E7E00BB
:1016A0005F805400F9E743003C1B6B007D1CA900E0
:1016B0007C4804002254BA00F4CAEC00A2F74F00A0
:1016C0000C86DD005C224F005012D600C3469E00FF
:1016D00027241D00EFBD040001E95900FD64F4005A
:1016E000800C6B00300F3D006B867700EF71570068
:1016F0006D736A0006D8F300E15DA200E56B7E0021
:101700004751FA00AAD4A300132A71003748940065
:10171000F49CF300ADA45600C4BB6D00F3AD5800BB
:10172000C11BF8003FC0DB00BF7F8600B936BF0099
:1017300074DABD00ADFD22000BF03D00E659C70094
:10174000A1A370002B6B7B005D64C300F5654500B1
:101750003C078400D3803F00CEF5E300212CF70046
:101760006FC7E500EDEE8300CD6979004D42C500FD
:10177000ADBE2900718CEE005658E80028FFBB0072
:1017800007934500C9292F0063019E008C945500E2
:10179000BECA0300DA4BEC00A385910027EC600081
:1017A0001816BB00451392006976D3005C2A6700C7
:1017B00077E24F00E9D39100E6F071006BFB2B005C
:1017C000A68A5300AC2085009BB8A600CE0E03006D
:1017D00076B875007B4F8F000805A800E664770097
:1017E00089CBB1008EB98400A9F6CB00D75267002F
:1017F0006D59EB00F03B0F0022E73900AF6082002B
:10180000EC1A4A003EBC7B00B8086400CD65440079
:10181000A1DAD600AEB554000309370080875B001B
:10182000CE38E0005312AA00E1AA9400EEFD1C009D
:101830006D58C7009ED42600AE8B890036C3860043
:1018400084C9410027551900B187FD00D9908A004D
:10185000BD441F00AD189B00D871A10055CF4000BA
:10186000350C77005B825100A812D400125C68002E
:1018700094050A004CE610006EA2630082498200C3
:101880005DE1E30051C03F00BA32B00083FD2600A5
:1018900086E31600F11270000DBB0600075224000B
:1018A0004B211300B1328100D1BC5300F69BCA001A
:1018B0003E48D3009481FC0088B2C70052BCC800E7
:1018C000A2422600E4DE830048BEF6009C9F55003D
:1018D000F94CFE0033CF5000664BA00075CF670077
:1018E000DC5023009CA02F007197E20089FAA10030
:1018F0000A992F004E0F520062566900A896A50063
:10190000C2329B004A2E090011E665003501EB004A
:1019100054900B006B982E00E9C41200C3C1500014
:10192000F5406200A72D0100DF3F6B00FCD289006B
:10193000D3D15E0093E0B9009F8BDB00C515AD00ED
:10194000692C55002C58610008BD3C009F52A60030
:101950001306BB00D369B700DA54B300506D6B00B7
:10196000E434640099AF8900AE523E00C1AEDE009F
:10197000B7FD6E00BDBEE6002603300029497100A8
:1019800084AF5E0072C26F0064FDA8006B7A27000E
:10199000F41FF400E47EE200BF03C100BDF0D100FB
:1019A00036DD38007D001200B4BB9000895566001A
:1019B00013292B00637B24001A710A0097229B00D5
:1019C0003F11C600451F51009958BF006B25890083
:1019D000F238020057E3C0005C059200EB54570058
:1019E000B72721009A8EE10005062E0045DD1B0079
:1019F00084315E006080AA00E1DC27000F8667006A
:101A0000094C3D000FFD46005CC72700AFD69E0085
:101A10004C65610024039200B708B500FC9C960059
:101A2000750F59007BEC0B00F7AB5E0025BA1F0069
:101A3000E6956900CD5FB20020F15900D1598800C8
:101A40008FCF4D007856A700A3D97D0087F7D60029
:101A50007F425F00863A1C001488060050D6E500DD
:101A6000BD6CF500E760C2001F6702009BCECB0093
:101A70005846300001645200BC4BF6006096690085
:101A8000BC5020006A22D000A106650086E7C00095
:101A900046C78F00F4654900F818BA0089282D0060
:101AA0001BC5D500E97629005280DE00577BEB008C
:101AB00035745500971F1C00DACDB9007B56DA004B
:101AC000BE99D8000EE41E00CDFC50007D0C3700FE
:101AD000A11316002772070029BC570087E5A10053
:101AE0005C1BAA00C98DB200A41F20004BAF1700D9
:101AF0001B62CF0067FD7E00DFEB1F0024E71900AB
:101B0000025A8500CC3AEC00DBF101007BE22C00AC
:101B1000CA40C1001AEC6C00AC2DAD006C99650098
:101B20008FBF0C000F69F9006B9C1200A8F73600FC
:101B3000E733CE008AD0EE0070FD2D009CD7480020
:101B400036F6A3004D728B00C0F2B400D20B210018
:101B50004031FD0004912100C434B300971A0900FC
:101B6000FF1EB00086C025003CCD0900DE8F21009D
:101B7000B6BEF6005A64CE00728DB20064093E0013
:101B8000455838007C124E00B2330800146133000F
:101B9000BF6097005FDE0A00F9F36600AC99F300BE
:101BA0003994A00036D0D000EB5780009F716900B7
:101BB000E458F1006F0C1E000AAAF8003DC0BF00F7
:101BC0005EBF78007F6F8B00256093001001DF00FF
:101BD00044B45700E4A13C000D39970089B1AD0031
:101BE0000B379A0067E86E008E016A00DC644600DD
:101BF0000FAA4C00A234EE009D34EF0027B2200063
:101C0000EC8F0D00C139AC00CDEA3300D96058002B
:101C10000D4A6D008C892D0008CDA500517710006C
:101C200081AC7200A4FD3C007AFEB900C50FA6008D
:101C3000157BB4000CF19500D031C400651741004C
:101C40009E23E500EB0D3A00A15D0D00BF5B8F0008
:101C50009649AF008FB32F002CC43C00658A580012
:101C6000E9F69600B538B20044421D00CC0660008B
:101C700011867C00078EAD008719F40076BAF30058
:101C800060999B00E504F300D6A93D005343D500BD
:101C90009CB3B100673E2D0000CEF70064241D0008
:101CA000D0459D00A2867500C0CFE800A2DC8D0063
:101CB00061467F002A20CD00E926CD001D08C7001F
:101CC0005FA57600D843E100DF77450067EF260087
:101CD0001D32AE00CDD8A8004985010032292B0065
:101CE00002C6EA00B628D70004093C0037320700D4
:101CF000A1C8500051140F005AA86600591F3200A5
:101D00000761F5002F8C7600737724000ACE1A0045
:101D100055E84000BA5102000BC0A400ED36440063
:101D20008D716D007944CE0065FF5600BDC601007F
:101D3000B07AC50092BF56007E4F0C006CE12500C2
:101D4000071BF40090CBAB0086AF29008FF3720025
:101D5000C142F9006628FF008BDFD100F8B5C10051
:101D6000BEDF6900B4737A0077C32400A487D5006E
:101D7000A9FBCC0048EF5A003C811D00D7010200AE
:101D80004C276400E6AB24004DCE7700852A530033
:101D90001EC7BE004C1C97004F209800F4E81B00A3
:101DA00021155D006F54290010B5F9009EA0E400D4
:101DB000EAEBA0000B797400B7A560005B16EE009B
:101DC00001AF97005A2357003D793D00BF031B0028
:101DD0006AE4090022BD04001CEA9200C0FC540021
:101DE0008353F200F518E00045D385009C8BA700D3
:101DF00010BD4700B4CA30005678CA00F9A6960054
:101E0000948021005404B7000C9DA1004DE6E3002E
:101E1000E2C2F000E4FA1900F51F4B007F184800F9
:101E2000F2E90C00CE1769006A0CFB00CE20DD0041
:101E3000F8816B005C7AA800BC57B900F23D4E00F7
:101E4000B2DF48007E8DE500ADBD6300801FA300BA
:101E500001140800CAB5D80022708C00926DDC0015
:101E6000BB04E600C35BE500158E6700A6A6DE0096
:101E7000BFBE84005DD69900D095A400C6779200BD
:101E800049551100C0F9E40057463000E9F2EF006F
:101E900086E217004C4E4F0025A4AE0099471C0067
:101EA0006A7D3E00DD33E2001B154400D5E11700DA
:101EB000C13859004F754700B5C73F003813F500CA
:101EC000847FD600441050007ED9A8005AAA6D0025
:101ED0006E62A4002435B900C5F0D200751C300034
:101EE000CDAAA40065C3F200913D36004B25A300A6
:101EF0009DC6CE000BC61A00D1151200470169001D
:101F0000D2E17B0072B49500D8A02000E2A5D900F0
:101F1000F4C04A004B7BE30007461500489C3D0097
:101F2000F130CE00E491CD00CBD206003A62090038
:101F30002E201200AB9F0A00CA8B81003675F30079
:101F4000DEB43000F4753800589D0C00D46BBD0031
:101F500097F4F100F961D5002F9FB10072C12A00FA
:101F600022D10500221BEE005F1FCC001338260093
:101F700092AE110087D1C5008368520084F4C0007E
:101F800097B6C700B220120035F72700C0B8C400CA
:101F9000138DCF00A9EABC00C3521D0095E0440098
:101FA000ED39AD002A5FBA00223D480086043000BA
:101FB000265C4C0038B3A100226E9A00F3669E00A6
:101FC00029FAA200D64C9B00E34D4C00778FB70056
:101FD0006683400012671F008762140090B8CB0030
:101FE00021D7D20044722C0028657B0085F3E300E2
:101FF0008664F40097B44C000C3228008426D60086
:1020000001B83300C8EE36001708FE000A49180070
:10201000CC0976002E094E0080CB9A0087826000A2
:10202000C8A1DB00F90C0000C73F6A00410FD600D1
:1020300091246600BEED4400E66C5E00780F7100EE
:10204000CC1D0E0032E78100C6A3AC00CAA4650017
:10205000C25BF60035731E00F4D5F100D8015900BB
:1020600032F04000121C6400943418002A50E5003D
:1020700062EAF20005AF1200954A83004F90DB0040
:10208000771E9100FD92A6002606A70048D8000002
:10209000068EF100A247E700676581002694F600EE
:1020A000EA4562009850300063BAB500F2ACD30044
:1020B00057C5FF00051147003EBA8300CCB9EE00BA
:1020C0002F422200505BB400AACBC300569FB7003A
:1020D000945E6A002CB9C0009F48B500524181004F
:1020E000BD236B00D4AF9E004BA70200892A0200DB
:1020F0000D56780097843E0046BE2A00EE4E5D00E5
:102100006176FD009745FB000998BD00034CF20085
:10211000A9043300CD1A0900A089CE007CCB46006B
:10212000B9D74C004F2389009E80E40021EC500079
:10213000619E9500D562A70052BCCC00F8D4840003
:10214000BADD980079836B0037664300A2D685001C
:10215000C200BE00BD6F2D00B0BDA80005BF7D0050
:102160002B4DCC00D2082B00F4CA30002B432300A7
:102170006FD1F800177DCC0046CD660069A3A200A0
:1021800028A09C00DF02F9006AD8BC00C3ED29003A
:102190009DECC20077FBB500535573008F820C0095
:1021A0009FDCA30066C26600205AAB0057BF8700C1
:1021B00096231A00F6ACA300490D320003F46C001C
:1021C000D6BA6E00F3FD02001588C20037069300F0
:1021D000364BB700B2D196004FEC5E00FA66340081
:1021E000E31BB90054468F0038A13800973E8400A5
:1021F000719A0B004C64A000BFEBAA00C7F20F005D
:1022000032D052001D8BBF00EF554A000F6B3000DB
:10221000CB581B006866C400A8993E0067B7200031
:1022200004AE660025AFB500910244001CFD850098
:10223000DEDC8F00303D4A004D7B0C00F6CD8E0079
:10224000EAF71D00072DAB00ECB987009D4D8E000D
:10225000D8DA9A00D21D0C00A33F1D0038C95900DE
:102260004E13DA00A3CB7A00BF1F5A0056A5F50023
:10227000FA028500FD899700D7C13F0011C688008A
:10228000EA8E7E009A62FC004113800070D55B00EC
:102290001AF0010068DC3000C6DBC6000D0C1C0023
:1022A0004E798500D5AE64009929F700F75FEF00FD
:1022B0002266A3004CE50B0084083F00D93D620074
:1022C0005E07D800FE361B0063F852005B30150035
:1022D0008FE00500E5964B00D6D64500C719930060
:1022E000D28AA5000540B80031308900F0E31E0015
:1022F000F2709000F4C19A00B72BED004FCAD100E4
:10230000B5B8B2009CD11C00088736006EA25100FF
:1023100072EDE10040E26F00D754540088C6F80027
:10232000E73FDB00BCCAD600DF72A6007186BF00A3
:10233000496F450010FB4D0017EB6000B342D10020
:102340009BAFBF001E06430024B42700FA95B500DA
:102350004321C800B28394000E85C100B1309800BB
:10236000D9ADD900C38E1F0036B07700EC4AC0004B
:10237000425ECA00F863B0008739A40088D0F2003A
:10238000FD7D70006DE47F00EB9B4E0090AB8800FC
:10239000BC1F2600B600C00001F2CA00E2D0B400A3
:1023A00036D72700235055000C76560011F30B004A
:1023B0003BBC44004558FC002E8DE7008DFF190002
:1023C000080B2300B148FD00D5D1160001CAEF006B
:1023D000DCF5BD00032F790074D16900FC8955003C
:1023E000CB7BF60025E7870076719F00D20EF500C3
:1023F000D1585A00D14B0E006F2F2900C4CD980040
:102400002963E100546BA80094B0FB005E2ECB0062
:10241000DFE9920093C47B006D54940020B9F3006F
:10242000A4E8090053D08100C8BEB800600CC60003
:10243000E124E800B45A1B00F08C50006EBBB000E1
:102440000D88B500FE70C1001FAA0800F97B380096
:10245000434BAA009FE7B00030F77200B0450E0072
:102460000EC8B70074BCB90098394C002C487500F0
:1024700087020D0047D92B009685BD000CDB770045
:10248000A240910098FA6E00A9970D0061CCB800A7
:10249000C342A000A0BE6B0042D189004CB1A00095
:1024A00097F1F8009220C800BBCCB500E61C7D0077
:1024B0002195880023E4590087BC4B005FE121008F
:1024C00013E9C9004CB55500A909870069BFFA0096
:1024D0005FA210004E00EA0069E5D500D6277E0015
:1024E0000C3A8F00F6C5600045C2A5007FF3D70007
:1024F0004D116E0022F0D30026E8C9006835AD000A
:10250000CE42280083EA3300D3973A00218B48005B
:1025100051B5D300A3831800AA71DE006E8F90001E
:1025200079433F002A5AD0008C13F7002A53200029
:10253000E60C2B005C5AA3001922E5006700F400AA
:1025400081448C00E50F81001D318700DA0B9A0071
:1025500018100F00D8CF9B00493FBA007698FB00B7
:102560002C4D1E00F5FEFD0025B9B90056F1D40032
:102570000A4FE2002AF8360045378800DF3D210087
:1025800018EA24005C571100BA6B690025D44A0090
:1025900070601A0066AC1C00CBF208008DCD2300E1
:1025A000B203F40061DAF000E5FA7000B4C1C000D3
:1025B00015A01A0026A7B100CFF7AE008FCB890077
:1025C000BF043C00103FBD0021D53300D33C740054
:1025D000573D380006B1D800F65BE00097A399009C
:1025E000D750B000B7A6D900E0BF850036068700F7
:1025F000A699C10027DDFC001C87AD007A79E900AF
:10260000E50A96006B210D000642FB00F674EB0014
:1026100008F72200B0D57600CEC5AD00B289E8003B
:10262000A92BF5008142A0006CDEEC000D5F530089
:102630009876820048389F00D1ABEB00DF19040088
:1026400036E8650015C5E8005E1EB700DD91E300C1
:1026500002676D009E02200099460B0041F9490077
:102660007468B4008640F5001E6C0100AADAAD0063
:1026700009E37000E10E5700D31F14004091AA0037
:102680009FCDD400F8EC4A005FBD15001B9F3300BE
:1026900002C0B70049A0DB00DB0F8900E5853C00E4
:1026A000C688E100D077E700CA0D9300BD0573002E
:1026B00056CC07008CFF780046E0B7005EE62300AA
:1026C0004D011E003CE8F8007CA9040080AE4000EB
:1026D000045EB800692730005ABE6A007EEDFE0035
:1026E0006B8B3700A993FD008647280038FBEF006D
:1026F0001C317C0021811200917D65003A52FA0064
:10270000ADAE3E004B223E006CF4EC001DE88B00A9
:1027100045961800F8B007001AAA58002D28EF00B7
:1027200071BC120098A3D300A7CC74004B74220094
:1027300038F16300B972D000586B340015502C008A
:102740006CB63900CDB2AB002387A300439AE400F6
:10275000428725002F86D800613605005378CD00CA
:1027600025855E0068AB3C00C1CF030068D81C0023
:10277000C69DB000ADABA9008050C4006FADC100D4
:10278000777EEF00ACEDDB00D6710D0083493E0093
:10279000B9E8540087B01100B321C600927AE30073
:1027A000133C97002033E800AA521600404D8E00DB
:1027B0002449FE00978B4D002D57B0000B9AC400A2
:1027C000FBC1890010F33900FB3B7800AFC02A0041
:1027D000A6DB9D00B989CB00D5D52100CB350F00F4
:1027E00008F5DF000BD78B007776B500C4C66E0006
:1027F000F05636004F8A5600C67C7600E8B79E0039
:1028000066617B00633FCD004534A600D620F8000A
:1028100046BAA500BD4BBC00CDB750001E2BB20080
:1028200013512C00B0D790007DCBF8002417CF00B7
:10283000044C8600EEC74000EEE1D200492BDA00DE
:10284000633214004D3B0900ABC08E004BF17200A7
:1028500017E8C000CDA07000E077B200EC658400FE
:102860007F4E7E00D9A9450050A18000D1FECC004A
:10287000809EAA00CD9C24008C1A8F00ADAA460031
:10288000E1CFA800B8CBA00061AED2009E2F4C00D3
:10289000D5A1C7006233C80092613700D68B4B00C8
:1028A000D918380090869300C65624007E3CAB00B1
:1028B000C0858D0086293500C37DC500D68E820077
:1028C0000B6A4E00CCE15D00DC81E400A05F2300D8
:1028D0007ECDBE00353EB600A8ABBD00BEEC750097
:1028E000EFD881001CFB3700F4A9D4001A9D0D001D
:1028F00060CA3900F1E60200FA759800C5E2E70007
:1029000050962A00F30AFD00D2C6E400629B340010
:102910004DCA54003E1C460028C86200C59299006A
:10292000CE84C300087982002E08B200D60B59006D
:102930003F96210027368200D4D05D00BB73DD00B6
:102940005C1F5700D6000D003660320035A3AA0088
:10295000C1403200B7D8E30056B4C8004A52D7008D
:10296000C2AF32001BE695000ADE560024A23700F3
:102970007844B90081F0D500370F3E0039E18B0073
:102980001CD559005D39D2003FD8AE00ABED9400A4
:1029900097F21E0019BFE800B7484F00F0D9210098
:1029A000595A7400602C2E005DE75500B5B7400001
:1029B0006931660099F7DD0049B54700FFACF600C4
:1029C000BC5C3000B1762E0061B0B60093B78100D8
:1029D000CB8AFA001DEB6B001289410098C2680097
:1029E0005FC252001FCAE9003C7FEC007AF2C400CB
:1029F000AE8AC10047C589006D9AF600104B790078
:102A0000AB00F0003C578C0051B1CD000014BC006D
:102A10009A6D8900BCD8560069F4F600629FA70041
:102A2000E2328700E0611700FBEFE800A356BE002A
:102A3000261F2F00A4FBEE0049392F00AB31A80060
:102A40009580F900A6E5CE00053BFF0042FC2D0075
:102A5000818815002EF4BD0003D5E800AF0DD90024
:102A60002ED497006E4A070030C3C400A256E4007B
:102A7000EC2EC8000AF52300C2FFAD0053E9950013
:102A800068E1C000D9284500B094F200EA5FE60092
:102A90003E22E300ED297D006590BB0021C5CD00FD
:102AA000D17BC900D01EE100AF11F30027E3E300A2
:102AB0005F3B9A001054DE00FD9EEA00C71C7C00BC
:102AC0004F3D2900FEB3A100C93CB300C934430007
:102AD000CDAA7900B276180052F73B0098A7E7001C
:102AE000987C2500514EFD008FD36200247BBB00F3
:102AF0001AD739009193D5005F5B6F0009A9C80010
:102B0000B89374007D36F60004392D00F086BF00BE
:102B10006B8BC0007577E000D295500035D1B800BE
:102B20008F76930079ACC20023303500CA3B3B005E
:102B3000FB75A900A696E9008D5CA4005AAD8E0035
:102B40005199C700FF0BB30057665D00B18865005F
:102B500096F6EF0070F95A002803DF005AA88600A5
:102B6000042707001001080000CEA70089F0A80084
:102B70001E3D9400A6380D006CFD0E003B9B5B00D3
:102B8000058841006ECCAA00F5C835009BA2E40080
:102B90000AB855001D8AEF00D931A500A7EDB00095
:102BA0008338C2002198F900FD22330013238800E6
:102BB000E2D2DC002CDDF400211C05006D46700023
:102BC00003EFA700F3DB190055DC350081834B00D0
:102BD000C404EE003207D800ABBF0600FECBFC00F9
:102BE000DA12AA00F4D182002DC4DC00592B860031
:102BF000E22E800010008900116AD400F1F45D001B
:102C0000B682A600F6FAB1002BE3B6007330660078
:102C1000024BD000AB2E5500A245CE007FE8C3008A
:102C200016ABB10011B33B00E6B5BD008B3F8A0087
:102C3000FC69CC006CC51C00E1BB5D00076F0700A0
:102C4000CDECA20021D6A9006C37EC00C214C00064
:102C500040027000BF2E270004A8E2008B7207001C
:102C6000835357004374DA00BCBBBC001B84E900EB
:102C70004D8EEB009789680075592400320F0600CD
:102C8000349C24005C96D0004D9A9700FF114A00B6
:102C90003B7BB100E8354A005566F000C43367005D
:102CA000AF8B36009212290086A87C00BA1BBF00A9
:102CB0003267C2002C714800F44DD10031D272004D
:102CC0001795D000D070A50043847100FB8FA4003D
:102CD000F1AFD200DF02F7005AEB06000AA0FC00B9
:102CE00066D0AD0047DF7E0057AE7E0058376800E3
:102CF0004851230003F93E00C2B72A0006671300BB
:102D0000E540F900E736730004754500C88C0D00F6
:102D10009E1328009D74E70019DD29007FE5190046
:102D2000B66B9800EA0FBE0084AE78002726240018
:102D30006C0A55003686BB0083187F00F33EEB001B
:102D40004A3EC2004AE66F008443C200B5ACF200BE
:102D5000BF62AD005A1ADF00D76CD60083FCEC00CE
:102D6000EB441C00464ED500A489DF009765D800CF
:102D7000BA81ED001CF624001EA58400779D30006A
:102D80003431D800E138E000F86DFE00554A2700E4
:102D900012736A0091C3770017A77C00B7B70600CB
:102DA00093B08B006348C5008A6FA5005AB1F80044
:102DB00090A70000502EA800B695AC0053A8A5001F
:102DC000CE92BC00D6343F00D569B0007886BE00F4
:102DD0009303AC00F90F3200A1C3EC00FDD3C50092
:102DE0007B405B008A402A004B2F2C00611393002C
:102DF0008B3DA300ABACCA00B275EA008A775500E0
:102E00008681A50091BC6900D1F31A002F58890072
:102E10007F8C10008BFFC9007875B8007508A6007C
:102E2000AF932B00439D49003E876B00DCF37F008E
:102E300088A6C1004417C100B573EF005C25B5003A
:102E40000991F100BC1ECE00DF5FAD00CB9C3800C5
:102E5000540F69008282CF00E13A88008116730026
:102E60007D26E7005979A300F6744B003D29B60092
:102E7000A4B64A0076CC8900A6B1D9004ADE280063
:102E8000459A2F003FA69F0036E95700DD27230013
:102E9000CDE66D005509830062AD6400C1D95F00C5
:102EA0007122F400D4330800498532003508C3008C
:102EB0003B83AE00D972CB00A894570014F1EC000C
:102EC000658BBA00442A0E004A02940036D3AF0044
:102ED000EA964700BE14F600BFD1F3001658010071
:102EE000592E7A00FDFF31004B24C800B4736600F0
:102EF000EB32B1004689770021153F00BDDE62004C
:102F0000D837E900339E8100D1A42000E88E630009
:102F1000E59CEB00B6C56F00FD67AA00A2D12D00AD
:102F2000413EBC005D75E20053EDEA00ECEC52005E
:102F300091CD9100D7F63000B60E9900846AC20098
:102F40004928D200B6A1D900BEA1720042719300F7
:102F50003D3F4D00756D1500633BF100C5D0BF00CE
:102F600077638600BD1F8400F4FADA004EA31100D7
:102F70004A0C8500E39A76004D902000EBA92E00C4
:102F8000A76AA300B510B10048F1D800D7C6BA00AF
:102F9000AF5D6200761DD70073723E00203A3D009F
:102FA000889CAF00260F5000033798008A840A00DF
:102FB0007329840006DD9100092C3600B3142F001C
:102FC0001E628E005A93A500E30255007722750019
:102FD0003641FC007037A000F4DE2200955C6200F0
:102FE00040A5AF00E167F70097AA7400924CB000CB
:102FF000A9B06F00163D490050474700DD948C0092
:103000001B9747000D2EA300440D2700336D1C00B5
:10301000116C74005DFDCB00EA4D4B004401910042
:10302000ADC6480077F2D00003CEDA009795D00005
:10303000C84E86002EE35600C76AA900AA969200E1
:103040004B871A0078D13300605E0E005CF60A00F0
:10305000BC692D007521DE009BD775008F7B230096
:103060001BA74500B1AB8A00DCD8470009E8070080
:10307000EFA12F00A52FA3005392E9009B18B400E5
:103080009B75910083EAD2006DAB3D008483810083
:10309000F59EE70033567F008C2F5B0016B9A30026
:1030A000181A4B0098545F00F9117A009ACA590017
:1030B00079091B00174B4300197D8F0070BB9400EA
:1030C000383AB10058F24400DE6003007A60310003
:1030D000B819EA004EDEBD0080F48B00BB51E6005B
:1030E00071F0BD007502D0006D1FD3003AD2EC0024
:1030F0000476B2005AB63B007EFD54002CD2750017
:103100008F12C90060FEF2006AF22500516F6A005A
:103110004261FF00C01C92007F0042009D970900A1
:1031200032C8BC00D1AEE1008E56EE001BB2EA0000
:103130006C39E10089DA06002649D1000E720700D9
:103140004D71D60043504A00052BF4005938ED006C
:1031500011464600C124A700CBB8250020A758007F
:10316000A9DC2D0075C7DE00F10B6B00AE4B8400AF
:10317000D0D62E00FC98DF00F848980098829D0079
:103180005FCE7C00EAE51F00E57C090023FA6000C1
:10319000E0B1D600CC496700EC5D0700E276120092
:1031A00062D6E0006ABE9C006AE3EA00A3BE190092
:1031B0008BD22D004CDBCF0018E9CD008CCDC800A0
:1031C000F37691007F0918007D51C60080B96D002B
:1031D000AF773A0098AF4C00A45B8C00C6E71400B0
:1031E0002B9BC400F99945000F204400EC78860021
:1031F0003C823E0052238300EB682D00E90E540010
:10320000745D3B006AE1110084597C0081517A00B1
:10321000B823BA001FDA7500FA98D000EDD46B001D
:10322000101E3100AB84A50035F4E700BA469100CA
:10323000BEDCA500281BDD0015AB8400F104A50051
:1032400091E9A60055009700EEDC4E0077830E0052
:103250007ACB7D009A3D7E0033C8FB00B623C400C4
:103260005F2F4500495DFC0070D17C007D628000CD
:103270002F4AF800262554007D85A3002480810074
:1032800036C84D0029F54E00F00AC700F406D900F3
:10329000B1DD810081CE9A00D3B6CA00C5D3C20089
:1032A000A54C5800DC46530096B8AC00E784D1002A
:1032B000EB73D800E5EB0F004711BF0045733800F2
:1032C0008FBBD2000EDB7600FF491C00C799590066
:1032D0005BF25F008F91FA009F9D0C00F80E40009A
:1032E000AE708000AD385600BC892700E9F41500A7
:1032F00091140A003FF2CB00D7FA480054032F0084
:103300000B6B71006DE95C00D187300003102F005A
:10331000B49AEB00BB2B6B009D70140072396600F1
:1033200087E32B00458EB1003754D900B397F200E4
:10333000FCC7D8004C237E00D4D13A009197D1002D
:1033400056330200F003E0005A894000F863090098
:103350003931A3003F724100112F1E009401B500C6
:103360007F0ACF006D97F3009BA65400B70044007E
:103370004BDBD2006562C1002159D5007FE9E8002E
:103380005DF69100804AF300CF3A480037C63F000F
:10339000A7A9F40093FA85008133A800FD6FE80027
:1033A0002138A6002F28F200BEDE7000A58166003D
:1033B000D91CD800231B0400E4D6D300DD1453002D
:1033C0004DEB8D0045A92500A5FF1A0091AD0A001F
:1033D000FC60560071AA6500B183C00090F7C3007D
:1033E0003A7C8B00D228B400B4791C006F3AA2005A
:1033F00044AC7C0060D17A0083641300ADA7200048
:10340000936E8300A8682D009102300018E76100D8
:1034100074ED3300D347E600A72046006E85C10057
:10342000D873E000E025DF00D46363004629BB00C9
:1034300068CABF0033B1D600A13EAE0030B215005D
:10344000DCD1730054BD7700898522001BA67E0065
:103450008DEEAE00EF08DF00A7561E00F790A40027
:1034600048198C0022E0A800B148A9009B3AA500A9
:1034700064A91600F81EC00024158B00E7D68E0044
:10348000162CBC002F58BC00C031E6002D94010062
:1034900003DD330041243500370D5E00CC2BF100F5
:1034A00016940C00A1DC4C0020E317001E595C00B0
:1034B000933CCB0045471500315B6000935ACA002E
:1034C0006C29910064F69400AD67AF001DE1BC006B
:1034D000D3DAE20080605C001B176700CF11470061
:1034E00010099D00A7F40500384D4100C07DE000A3
:1034F0009308AF00F5AEEC002E972B003534950005
:103500004CDB0E005CF11800048F8F00FE5222008D
:103510003A83CC00A7A41B005882F90020B9A00070
:10352000426A6F00BBE58B004C50F600B4BF5500FB
:1035300041F3210020C35B00BEB21C000E1D5C00E5
:103540006488DC00BFCE7C00BB66C50020565500F9
:10355000B6BA0200ED87950034E8380020627600A4
:10356000FA46FA00A7E11400F2B45000696448007A
:10357000BA136D001F690100C74AF5009EA0A000A4
:103580009F7C640077D0B5000555C100150DE100A2
:10359000037F7D00CBE1940034BDA5007127C500F9
:1035A000C49B5A00751EDB00FE92F10090EF1400E0
:1035B0005B8271008B8E54006EFFDB00A82CD20062
:1035C0002CD99F00AC84210059B7DD00AC601200FB
:1035D0001FB7D300FC591D001CA10A00F30DFA000F
:1035E0006EA2C9006C66260087A173001B337400AD
:1035F000C028AB003EB9B60018C4A3002B218B0035
:1036000077647600C85531006B32CB00F70FF600B7
:103610004603C80077F83F00F1AE5D00C814C10052
:1036200005A2260016A8D900E08611003B5F2B00FA
:10363000C891870050974A006A2F870069E03100DF
:103640002D5AB200731A1A003002B10048C0FA00B5
:10365000F58CA90076B53300F9CC95005045B8003B
:10366000D5BE94003D8684009E2880006112E00053
:103670008EB910001A8F8E0048CB5700E3DEFD0094
:103680003B3B880097A58700DE4901002F0D3700DE
:10369000E9D688007209B200B8FC73002DC3060099
:1036A0006CCA2C00E8E7F80098FBFC003D691000AC
:1036B00070DDEB00364FBB00D96421005AB36000C7
:1036C000CE9DB2005C565400E86301007C98530024
:1036D000208D4000237D9700F3AA40003EDCD700F8
:1036E0009713C30061886400E1539000C10E2F005E
:1036F0000B4CAC007B5EE600815C4100CF26D30022
:1037000053FD21002CA8440005320600431A19007D
:10371000D65452008339C800B1FF7C00A718BA0004
:103720006236C1003287EE00CEB483001D4CE30048
:103730003B357A0004ACE800E5F5F100834406006F
:10374000778A4000AFC2C600296D6400D270A20023
:10375000889C9700CC975800342E8800C64AE20017
:103760001AEC130022F8D800F6200C00C3186D00E4
:103770001F7A0D002A1F0900E9A74900F7697800A0
:1037800027FBC900CF09B60089F51400BBB0320091
:10379000F46BC60074B1F90003C538003E9F5200B7
:1037A0004DDB2C003B7326002C6A2800642A2D0078
:1037B000127DFC0084276B00B46CAE00EB566E00EB
:1037C000905A3700B4AD22009B220D00CF34AF00D9
:1037D0001634CA0037F0A900E3FD6900F0ACE5003B
:1037E000C8671800C7A4C3008681B300F104510064
:1037F000B2F15E00ED4C4100AA11BD00623D5000E7
:1038000020D9BE00C83A1D0012134B0020AEBD00E7
:103810002C9FF0000C9EA900D80D7D00FB843D007C
:103820009782A7004DDD340059C7AA009A0AA30069
:10383000DCACC4007DBFC3006F87A4009BD16A00CD
:10384000829CE700B3298600E5FC9500FE338600E4
:10385000B160EA002D75B3002775CE00C3C2960093
:10386000087AAD0098A1C700395BA800D08B7E0014
:10387000AD7480008EE7EA00EA31F500185A1400B2
:10388000A58FB1005F6FE100487DF200FA53190087
:103890006405A00013307900564F1F00E69B7F009F
:1038A000A7C95100AF3A4800FC6B910046D7E7002A
:1038B00082D04600B7F5ED003E38E4009ABF3500EF
:1038C000B4325100F40C2E00B0E8CA00E5217A00B1
:1038D00042C3DA007719640029A3F20047F07200AE
:1038E00042EA7500DD453B00B6877800EB49C80029
:1038F000F7D82000D3728500D2D40200229D370071
:103900001E6B7F00DC9FC100D39ACB00D0474C00D8
:103910008749C100519C9900A6B2DE00065A5700A3
:10392000E6212F00A9449B00BEEBB300F05E4E00E1
:10393000EA07B300FACFF10049A56900F14F53003F
:103940008F535D00C0F12700A44673000C162600BB
:10395000B0902800DCD34300114BD200853DE2003B
:10396000DF535400DE2C1A00A7D42700C7BF710014
:103970007808D80086F6C50089FA570088074800FD
:10398000F30BEC00878806005A4657002A938600FE
:103990007AAAB8008F1B1E00F0144E0064D9DE0016
:1039A000BBD01F0083F8E60047CEC40021549B0023
:1039B000FE868F000FD87500B7284700A8D5730082
:1039C000798918005D36040069EB1B00FC8B6F00E1
:1039D000E391E500239F450007E4910085565900D7
:1039E0004626E500E335F700B2033A00EF517100D7
:1039F000190141006EFEA80039D7710051BE500078
:103A00008D665B00A9A9B40086CE200092A3A30016
:103A100027FBBB0093EA4D005B07BE0008D8AD0052
:103A20008EEFDA008697D4003E8FDB00614DC70031
:103A3000A6955200BC1B5100B250CF00C6C755001E
:103A4000DCB2EC0014FD8700A71FE1003D63880095
:103A5000C3238200167A99003299E8004E8B7B00CE
:103A6000E0A4F8003484EE0080CABC00E948B2004B
:103A7000C1D41300529A840008D38200860A3C0005
:103A800054C38B008847BE0000F607008D4AAC0087
:103A900075A22C00264AF60011CF2600F9B77B004C
:103AA000C86BE800F8A66F004D9EFE0037C5C00049
:103AB000C88FFC00CA2C1D0060DFBE0053C1A700E8
:103AC0002002DB002E2C5F0005A0380056DFF0003E
:103AD0003937A7007C677E00BC498A00E9CF3C00EB
:103AE00013E70C00197F9700B9D251003DD1560061
:103AF00058A93F00FC5D1A001F8A1C002E59350092
:103B0000AEBE4F006E6A35006DF38A00A6BD580048
:103B10004C9BF100107FBC00386512003F7FC10054
:103B2000D0069B0022F097001A5FAD002C1A2E00E1
:103B30004EE5B1000121C800EACA66005981EA00D9
:103B4000ACFDB500F16DCE002D9DBB00CFA7790077
:103B50002C5110001D6E1400CB8891005DBC030039
:103B600049D8C700DBD1F60005BA380074FBF9006C
:103B7000C7B804003361A900A6CCD900523B0B00A2
:103B800005494800A1DE7D0078711000639692001F
:103B90009574D1001AD26F00F9768600E3D75B00E6
:103BA0000E560A004C8073004E296A00C78E2F0003
:103BB000201A55002A922600783DD600DDEA5200F0
:103BC000E87F5B00A7306500C5BBF00032C8450048
:103BD000848A6500C0982E00889DE900B38CCB00D4
:103BE000EA377100C06B70000C12590016BCF1006E
:103BF000F5500E00BF3F0000C59E0800FA65910019
:103C0000C0A69E006B347F00C88E31004CD2F600F7
:103C10003751CC000A905B007C65EE00ED0F2D0063
:103C2000EAC20C00BFA8E00091484400914921007D
:103C300024C620000B9E850031950400EA04AC00E8
:103C40003CB7EE0096A6AF007614160004B0CC0088
:103C50002A9015002FF624001B83B800F22046009E
:103C60005C996C001180B90075604C00AAEB900063
:103C7000CAD38C0068198F00A33854002DB20200FB
:103C80004870BE0013C0D60004DE0300EAD257001D
:103C90001AE87500AA099900E94505006419BF00F2
:103CA000CD8A3100C1FEE7008BFC610012555D003A
:103CB000449541006EE63C003F64FB0085FA380005
:103CC0001026120008C6E800E733EB00D032DC0013
:103CD00005A32F003199A600ABE8C80023FDFD0025
:103CE0000964B3001786CA00E91E6800B946690076
:103CF0002FB74F00F691790069066F00F41C63003E
:103D000003920F00E0990900D5656300C55D3F008F
:103D100027844F00C093610067E1BF00518AE5002E
:103D20001EBFBA009C5B2E00E4788A00D19FFD0084
:103D30006747700019914000C8700000B91A9700D9
:103D4000CDA221004449AC00C21A7B001C889A0015
:103D5000FD973D008F988B006231F4004E4978004A
:103D600059D34E001839D10010BBC700CA6D8D0061
:103D70000B85DF0031D1A80040A8BC0056C7E10088
:103D80005B4CB0001C9EB600E3A03C00649C70003D
:103D9000450422001687600020B53600BB9C5F00FA
:103DA0004645970096DC660043E5AF0056FC9D0053
:103DB00076B08B00D647B300F5B4BF008CD89F0017
:103DC000DB576C0092AEA800AD3DE600704B88005A
:103DD000FBD71D000F0FA70066748C007AD1560028
:103DE000B2F6D1005E9822009296560066E5D200A7
:103DF00046DB9700E182DD004EF2FB005CF63A0004
:103E0000B8332F000E6DC800D67DD600501C6A0056
:103E10005CDB5700724005003AF28F00AB2E7A004F
:103E2000ABD65C00F9E2C400515D79002A211E0086
:103E300058B832006C387800EE5E750006CB4A0048
:103E4000A0C36E003A38510051852C00557C820089
:103E5000E65FDD007A1B9900E07CC600B0057A00C1
:103E60007EB1D30030E72C001707DA0014161400D7
:103E7000C86BC100CED6C100BBECF0000D131A0018
:103E800081304500FE6AA700555F1C0010CFE70097
:103E9000551057009E20D500DE7DE90028C2B100F4
:103EA000B70042000C146E00B6F0CC00D5A8630039
:103EB000F55A5E00A214C500DBD0170030AD8F00AC
:103EC00086B80C0084EC8F00564EF700537EC40079
:103ED000A6C0910098E0A000F8C92300F7F92200DD
:103EE00024BB6800D5AC69004656FB005D4C7200EF
:103EF0007AFCAB00C180FB00B1D30E0072AA7B003C
:103F00001E7F8F0034C06B000A1CE8002D0A65007C
:103F1000173EDB00618CBD0034F142003C7D540053
:103F2000D22418001659EC001AA35900DE111C0007
:103F300035A8FB004212B400E3A08100125E4800E5
:103F4000F45CCB00B895770064696300F118EA006F
:103F5000241F330032856E00D68EDC0058661500B3
:103F60000D9F9D0097B44F00C8C15100C9B897007C
:103F70004367C80080B83D0056172200926D0F00BD
:103F8000F7AF4900F8580F009BFE4B002F879E00AB
:103F90008A934F0083EC650063996700EC29240045
:103FA0006278450061DF9F00256C2100CEBE7E0057
:103FB00001C4850013EBD5002F999B00B3E01200DC
:103FC000532B0B001EC2F500231BCB00B877F1006A
:103FD000463476000E34F500A1B24900DAA6B900E5
:103FE000A0BCF000BD0D4500457B6C00DF6FF90003
:103FF0000C9AC200D5395B00D45BFA0076319A0086
:1040000075A7070092E59F00B1C5DC009D63140011
:1040100096D32800CCAD81009577D8004236F800C1
:10402000D104BF00341831007E3703002DF60E0096
:1040300040E69F00DDDCC300E8B786001C5C33006F
:104040000AF24100FEC384003A1C90002F2A3D0072
:10405000F74CA600F51B3D0083D04E0086BB3E000A
:104060004547CC008F0B910065A8DC00286A190039
:10407000BB969B00864458005179140026EF5700E8
:10408000FF9D6F004ADA7000F4A3FB00FF208C0054
:1040900024553F0004412200F040B60046B45F00C2
:1040A00087A70200D7B80200CFE4440082E25D0097
:1040B000DA5AAF0068A9B100342FC600541B76004D
:1040C00081D33400A0B1DD005299E500DF239600D2
:1040D0001C4A7F00B06F3500A237C4006348BC00A3
:1040E0006446000055454E00D0623F002B84C80056
:1040F0003A73C3005D9C7C00F57B4400A9C35D005E
:10410000FD1FF400696F4D000B402000DEA49200FB
:104110001B032900F31A09009D5EAB00FF59430001
:10412000EA11110092BAA300BE471D005592CC00BF
:10413000B88175007C96FF003B656900648D1100B5
:10414000204632004C65AA0013339A004FBC2D0064
:104150009FA007000666860027EBE0007A955400D2
:1041600066953C0057965C002DB84700717E68004C
:104170007159330020896500EAA35F0008F0FB0055
:10418000D70D8E0035A1AA00A0B42200C238FE00CF
:10419000645C930061B4F900C4EDD50076818700BA
:1041A00064C96700AD5A4100F4273E002FF84D0066
:1041B000C1CEA900E16DCC0027F43500544588003C
:1041C00050144C004B7D370025FEE10008AF9F00E6
:1041D00067596A00BE3963003AA2A400D38E560024
:1041E000B2E38A00DD1D530026AAC80081FD2D0020
:1041F0004687870099D617005765E6004AD91F0001
:10420000F69B7600F72FD90059908500328A70000E
:10421000E5739D00168A0B008DBFB100B228AE0079
:104220005C27FB00701A190018415E0098EA28000C
:10423000DEC99300607D87001EAAD1002BFA8A0098
:10424000785C9100E35B260030832000921BF40031
:104250005C11D100A2295C0002C8410075C45F0056
:10426000B0B4C8002F3F7200612EBF00E489620025
:10427000A34E19008FD411006368AE007808B60011
:10428000C252E100F89F3700DFD5BF00B7AAD800BF
:1042900088F03100DB1CFC001F590200BCF17800E3
:1042A0003B59300023BFEA00D442C3001724BA00B0
:1042B000F50EA500BF9682004989EC00F186DA0070
:1042C000009148005E271F00DBBEB2007485A1008C
:1042D00067F93D0079783000A87B8700696A7E0025
:1042E000C95F210096A19500872E5C002290A60050
:1042F00070151900C9565D0037898C00992A0C0089
:10430000A10EB6007E396400DAFB8600D90FF500F5
:10431000350D610076F18000A3F3BC009C228B0078
:104320006860D7000F526A00CED0CB00354336000C
:10433000F04D1300C70F8400D0C76A00B0EA29000F
:104340005178290002CA8200D021B90037D48E00EA
:104350006FD665000B6DA00055904B00B65853000A
:1043600064108800583026003F880E00C260330079
:104370009355A80011B5A100FBD7FE00B61033007D
:10438000FDFF4A00D3086F00F2EC18001F93D50020
:10439000D398BA00B0909900417CF20059A50B0067
:1043A0004B1225007A20B200AF82790079CA6B00E7
:1043B000B64A720041C25800DBCF8E006D48000043
:1043C000D22C970019F21C00B590E1006253150041
:1043D0005C018A0020523F002F8DD400650B340011
:1043E000E9C53100BE1A0C00330D8D004C301D00A4
:1043F000F69CF3002ECB3500D798D600D7AF6000DF
:104400003DAB1E003DDE0B00CE07860011725D0045
:104410004AF6A7005287E1002194B900FC07470043
:104420004C18AD00ADBBB4001FE4FA006C20850051
:1044300030DD4D00F30B6600923F230033E79A0016
:10444000EB1CDA00E911D600336431007EB20200C1
:1044500017675200807645005EAD43007EA24C0097
:10446000C1530F0011D4A0000983E0004A17950042
:10447000808D4C00E8F83100F243E2000321520045
:10448000CAE89100064EC400171FFB00384EC50055
:10449000821CC6002266E2006B9018008C7C5100E2
:1044A000D4EF5B00F1F8AE00C6743500968FCA00F9
:1044B00045F1C300A7CE3B001CE9A4000832CF00A1
:1044C000050B5A00BC5F6500F168CF0012059B0028
:1044D0008788A700F32C62000CE0FE0008E2C10010
:1044E000536147009713A1006AA36D0041122B008E
:1044F0001ADD4300072282007585970042A1AD00B6
:104500000AE5A10075B0290076790B001C2D1D006D
:1045100064963F00EAC16500477AEF0012D9A8000F
:104520004AEA70008CF199004CA84F007E46640066
:10453000DD861E0023702600A2D26C00F4B7EC00CA
:10454000870DD800D9D5020099DFCD00A7C29A0007
:10455000947A8C0041CC8D0060C81A000B32D300D5
:10456000076AB0009AD41E00FE1BFF00BC011000B9
:10457000AB55C30053AEF700893DBD009D9164006B
:104580006720A200D221070091D1FA004478CE0022
:10459000D68226007033C700DC0EE2009597D60065
:1045A000172D7800C8029D0058E63A00AC571C0051
:1045B000E1B16D0031DAC0004D36DA00002C9F0009
:1045C000D98EA80088321900D17CF400C4C6380006
:1045D00027E6F80032AFDB0081BDC400909EFC00EE
:1045E00046BD4A00605673006D8ECF0040AA57004A
:1045F0001BD5270095895B00548015001C7715009A
:10460000496FF600648293001056070039FD1D00C3
:10461000C394CE007E57460053BF41001ED6110002
:10462000A2B14400ECCD7F00938A3D00A9B92000DF
:10463000379A2100987A860042827C003365D00048
:10464000644DED0011F8F70042698A00F25028002D
:104650002708B3008E344C0098CAAC009FD71800CE
:10466000777EBA00331C31005F90930058B43A0053
:10467000534D5B0093238000FE950700C7FA6D0041
:1046800017FACC007576A3009DA9B30082EDAD00AA
:1046900010132700DBCE5800D4B0F700B456E10069
:1046A0005345EA003F381C00A5E47C00FD46C500E8
:1046B000CA7BA4001F436500AC583D00975E8A008A
:1046C0008F5BCF00BC6C850094412000B9049B0037
:1046D0007CB129001DBF9E00CDAE6F003F3183002D
:1046E00002A5C1005AED15007BAB83008AAC5800CF
:1046F00039C4EE0016705300B1FA4900A4E98C00E9
:10470000393DD8004C66DB00DEE21000A8DEFF0079
:10471000A7D814004F3EFC0087BC6E00607FBD0030
:104720009289B7000B6BD000363887002FBE45004A
:104730007FA6F40090A94F00B28F8A003137D900CC
:10474000C21FB900D19AF0006F165A00A0E94200CA
:104750000F474E00A8B5230047DD000079A33900BC
:1047600050FCB9001CD5FC006A5D66005F03FA00CE
:10477000B8533400E6E6F000935E8C00BE3464006B
:1047800017090900317EE1007C8C080032CAF6006E
:104790006F54CC00A24E0800946F7D002A5AB200DC
:1047A000C8F32F0097D3F000EEBCDD00C8C187002E
:1047B000407E3E00B2A7CE007B3180000B32AD00C0
:1047C00065549000985063007B6CB900306B5400C6
:1047D000C6C16E00F5828E00307D140054CAFE0002
:1047E000C7230F00C322D000D5179A005E0D5200D8
:1047F000B5295900CC83B300CDA521001BF11A00C7
:104800001A8248006DAE8F001FA5A600A90D5900A1
:1048100051892B009BAC8000220B500019950100A0
:104820005CCD05002B233A00749E7E0050D8DC003E
:10483000F47A76004DBB9300307C12002DB6BC009C
:10484000E107F0005920B4005F3C6700F058880091
:104850008CAE0F00CE95C700AE698900D9E57B000C
:10486000D18EB80096697B0061401F000F03C10024
:104870001A887F008EC6470088E8A900C3576F00DA
:10488000A920320046AB25006F9F6300956A520055
:10489000340E14000409E7005A8452003682C40022
:1048A000B63314000F4F430071FC6E004E6CC40011
:1048B0008328F30029E60A00F9E137009F4E6600DD
:1048C0009D9C62005C601800C4F2FD0069E61D005A
:1048D000462EC600F960BE00EA31D30010DA62004D
:1048E000D684B300DD80DD00B930A200FC001600E4
:1048F000CEC4D800F6B2BD00E972BC00C0C5180035
:104900002CB1CD0005ED7A0014626E007D06F60034
:10491000000EC500A5188D0064841A0088178E004B
:104920003F1859008B90EF008DEA44004ACCAD004F
:10493000D62607000EAEEC00FE08130067AA920010
:1049400002C99B00E92AD6005270530022ABDC005A
:10495000DEF51100405B3B000C196400002F900055
:104960003D217D00E083BA0084368500AA07D1008E
:10497000B949BF00CBD09A001BC5910017BC2900D4
:104980000B544900F2AF3000B547F600EA6AC000A8
:104990009D4735004494E6006868510018EF0C000C
:1049A0005D40EF00E764E0007070B100CD2ABA000E
:1049B000D4299B00C41CD00066CB1C00909C9600A0
:1049C0007697B200495EF600B1094300A4A2160032
:1049D0003B4E370069FFB1003C161700B1102D00A7
:1049E0006E538C00E7D1AD006993EA00A4FB64002C
:1049F000C494D000D42BEC004493AD00D3DF7100FD
:104A0000AF7DB30056F4E300FC1E7500638519000A
:104A1000F40D6D00AA38DB008E419E00ED46AD001E
:104A20007B4508006B8DE700C2890A005F9E7E000F
:104A300065F9C70013C0BC005B374E00201C150091
:104A400063665B00C29CF60089877700772CAA001A
:104A5000451419003ECC1200A2D499002D4FD1006C
:104A6000D1DECB003B0E1C00117DBE0070A579008D
:104A7000D6370700DB5358008EC58800F9F9DF00F0
:104A800080F6B400777E5F008F2AF90071A7D60008
:104A9000EC47E0009FC61800FDD48F0010013B00DA
:104AA000FE94E6005F0F79002B26D5008721C60013
:104AB00072717000C4A9BC00038F4A002044E10059
:104AC00031E821009E4C7B0081263500220C040039
:104AD000E5B8120086449D0065B3D600795EA50056
:104AE000CF5A140022202500241DC10096B12D00AC
:104AF000D7D8D400A75C31001F783B0094F7E300BF
:104B0000E4DA4A009FD6CD0016216F009B86BC00D8
:104B10006D70C800EB026500DF9B860089A38300EF
:104B20005070D7000B341D0052294F00CE92530015
:104B3000E281DB009D6F6E00874889009753E0009B
:104B40004623A30023980100439723002E692100E8
:104B50000241D20009EFB100AEC55E00A05684004C
:104B6000CF32A600E53296004A9190009FB05800DF
:104B7000B0313C0000DE860020FB2600AAE9D00010
:104B8000459B80001449EB003B2DEC006A3C010082
:104B900060967E0057B6EF005AC39E005F58F8003B
:104BA000D8EC2C00B888E200E06AF900BBB4A3009E
:104BB0009D2E4E00672B97000F0E80008DADEB00F1
:104BC0000C72C7009B6D910075FE170022CF9100FB
:104BD000854532008F56A400A5D2D300A8F31D004E
:104BE00039A6A300CCB5DB002AEBB2001317CD0029
:104BF0004810EB00AEF33700B8D29F0043053F00EA
:104C00000AFC290020E63700A5EDF7006646CE0035
:104C1000AC5CD500A9ADA400972C9A009BED4F0089
:104C2000FFF33700ACDECF007DB62100D72DAF00FB
:104C30008C8FA500EB7AB400C2BDCC000CD9B200B9
:104C4000EB82FC004C7F6F00C0F4DE00872D790002
:104C500054F31300E0098D00725552009995180025
:104C600076C88A00205CF3006E30A000793D9A007F
:104C700087565400793D050011B7970068A36D0071
:104C80009C159D0009822900FB74D6001686C2007F
:104C900039FA7200ABB97D00BD6CCA0044D528005A
:104CA0002C434200314B5600D1CB6C00AA88AC009B
:104CB00096D0F000EF7F8E00CA695F001A819D00D8
:104CC00049586F008043CF00CB860600E4D791009F
:104CD000590B3900C49B1B003D7DDB007C40330039
:104CE000ED80AF00271D5E00BC5ACC005A604E001C
:104CF00055FAC90029DFA200519447002141A500BF
:104D000061546C0019B55D00E649D200034174009E
:104D1000F0392B0023AFD400F6CCFA006325AB00AA
:104D2000C76B88008D27C300835E6000BB33D20051
:104D3000A3310B003DE0C9004D58A400BF74AD0085
:104D4000904846007EF484004035A800C2852E00BD
:104D50007BE21D0003A368002D2DBF00599C670056
:104D6000068BB5002B341200BD57B1003DA03800B2
:104D70009B0597008680CA00A18AD900757F99009B
:104D8000C378200097DBCB000E678600B420F300C9
:104D9000B87A5900DB66B500684A5A00FF972A00C6
:104DA00038D333000A11B2003D16ED00928118008D
:104DB0009B0636009CC579007403AE0004A7600012
:104DC00028FEDA008E90B700C5F43200A9523C00EC
:104DD000A361D30065BAC7006CFC050037F50B0072
:104DE0002A760A0072206D001809D900AB01AB00C9
:104DF00040961900584D4D0029EE12006D23CB004E
:104E00002A97F200CB15F7001B3B2800B2324A006C
:104E100079AF3A009ABD2F003C966500218BC800FF
:104E2000E8B25400EEE87E00A58EF800B8A8FB00BA
:104E300067B7B200D3DDB10067195F00F12E9300B0
:104E40007777F400F8D99200032E350020BE440095
:104E5000B805D900B28099002036DB001E3BF50072
:104E6000C0A55F0046A525007744E7002B6D3C00F8
:104E70002DDEDC0067F525001147FE001016EA0064
:104E8000FD178600FD472000B4A8D10084E801008A
:104E90001C5F47002794A9009A15D100D000160086
:104EA0003E18DC0083D4B7006457E700B5C33D006B
:104EB000EEBF5C00AC5A18004E7C94008D47610038
:104EC000E70601000457F900A2BD2600AFAB6F0052
:104ED000A2DFF600B2981D0071D9F6001802990001
:104EE00030512400EEC93D0081D3A30046AF0A0033
:104EF0004923B3007BAC8A00815195006764370079
:104F0000A4B7A200751A78008306CB00B317A200DD
:104F100088A48D004CCF3000AAE17200159FB50027
:104F2000A2E49500103D8F0022F4260010D1A800C5
:104F300019B04300EEF1770050424F00E04F0900F6
:104F4000DF525000FA5136004AF43200DF62850029
:104F50004A9417002EA94400899907002A822F003D
:104F6000E283FF00B2D9F400DD7304008478FC0012
:104F70007CBFCF005D2AFF00A0FD6A007A3FE700FA
:104F80008786EE007BF950002E1FD500C6F933004E
:104F9000A52E0B00D057CD0094C72C00F8AFFD0014
:104FA0007DCD2200DDCF4D0086DCB70052B3D000AE
:104FB000CF2B450061DD510096B5DE00F4CACD006F
:104FC000C8554D0022D9AF00A3960200388FF000DB
:104FD000975C2200EC5C82008FDD1C005F97D5009F
:104FE0003F1D4A00D963B90034D736006C5D030019
:104FF000AE20E100D3AA6600976F550050FC8200F6
:105000000FE9A700571551005E317300462CC4000C
:105010005B4007007B1AD3007F48D60080219A00AE
:10502000365CF200317EC4003A7CB7000331D50013
:10503000F8EAA600CDDA6F0048540A00CE5FD70028
:10504000095EB800C4BE980054DD85004140C00030
:105050007105D500B6629F00AAC01000BDC1AE00A8
:10506000AED08800AD3B1B002EA3AA0087D65D0002
:10507000C8C82A00A7ED15008EFF1700F1134B00DA
:10508000A3975F005162A400BBEF3400BBB0E40003
:1050900093B06C001508340094992600B6852E0054
:1050A00035EE3C00567DBE00E432EA00AAF423004F
:1050B0007CB9B000FA2B76008ED03B0079D916006F
:1050C0000A0EE1002899A2000675BE0083E9A90036
:1050D000C0EF9D00526D8B000312F2004C250700BB
:1050E0009825E6007578BD0072711B005C40D90000
:1050F000B14D9F009F36E500AD390D006623990044
:10510000AB9EB200B1982E00EC800000ACEC2E00FB
:1051100034EA23006615D200FBA39E00A112F8001A
:10512000E3B4FD00934673002D544500CF8C3A0044
:1051300044774600B09675009010A900FB26270022
:10514000335CE00096C2AF00617E890086620B008E
:105150006D1076008A332F00C2546E00158A7500D8
:105160006377AC0079754800AACF9A0074DB13000E
:105170005159FA00854D42001CDED000B7EB4100CA
:105180008F5E0400C034BD009B7F5C00A2A9C500F7
:1051900027EC6C00363BD100DC0473004AA26F00A0
:1051A000A7B5EC003097F800BD277900FB6B6800CD
:1051B00037188200B7647D00762E7E005C5B2F007E
:1051C000ED92D200575985000D8E6900D1E6EC00B2
:1051D0005FF0BA0024703E000FC03B00205CFD0071
:1051E00079F5BF0002D25B007C3F9A0056CCBE002E
:1051F00091A9DA00207E420002E1E900EB51F700BC
:10520000B88B3800C47639006EFAB9002415D7007F
:10521000534939004D76E9005F0D7600B8B2EB00D6
:10522000E9C978007670B4003CE97A00B6E89000ED
:105230003DA44D00D7632D0067780700A5ADC400DD
:105240009F501100B13F7D00B2AC5000EC1503003F
:105250007EAC0800EAE10900113F830074AB300026
:1052600042A31800567180009136F5008B1BE000B8
:105270005810DC003798B400896A74000B5FAA00EC
:105280008E2E6D000763DA000E74BE00BBC01E00D8
:10529000A028860074C7B800ABC20100F4654200C4
:1052A000119FC100AB17CF0051C80E00873DED0024
:1052B0003F37FD00D9E547008C70DB00DE78CC007D
:1052C000B1876D00EE1B3800F7566A0060F3B0003E
:1052D000B3F51300A34B5100F2704A001A2C520090
:1052E00025583C00BE7A1A00911EFB009BB51400A5
:1052F0008E73B10094EF3200D7D6CB001E40ED0084
:1053000077A3B400CFC1560023E38D00EEA1670060
:10531000F644B60071331500EADDE10006826B0049
:1053200088B691001816A500A6E85100F788CE00AF
:105330002401E90083C043000DCD04000E3C5E0053
:105340008C7E690054584F00867DE500B5E6090063
:10535000E510840017741500D8A8DD001936770011
:105360008ABFB80082595B00245579000D6BD200CA
:105370001CCD3E00FE5B350015B634002D465500B1
:10538000DD9ACF00661F170055B2140046120E00BA
:105390003EEDEB000DC35E0042CC3D00F5702200F7
:1053A000B565580005393900E16144008DCD5F00D5
:1053B000D44507009E4DDE0012782C003E9AA500D1
:1053C00097CF72002D2307000585BE0072BBD30066
:1053D000FDD6CC000E266A00ECED39007AC5A90096
:1053E000D9589D00EBBC3300F12BC50069F0A90032
:1053F000E92AB3003D3923006ACC860040E6DC0090
:105400002719E70012CC67004BC051004BCF810039
:105410005F0463001183D100DCAE8200C9408800C4
:1054200001D62300BB91A600AB3F5300D2F1670029
:10543000385D8600F36AAD00C38FC300755AC4009F
:105440003A691C00BF6E00001D46890020A188003B
:10545000E1B408005030480056FB7600447A0A0058
:105460007B77F5003F984500A2E8C50039DE88004B
:10547000DDAEA200196765000012D7005EB94500D5
:10548000BE7646001DDCAA00AF5FA00084FAC7000C
:105490004101CB004384D700DF5A4D008CA3C500E7
:1054A000D3049B0080759200AC81E2004EC00B00DB
:1054B00037B36600487AB10047662D00BC67B40078
:1054C000DE8D580054F1EA00750D3B00462B590063
:1054D0007BABD200A5655F003D4031008098F200B3
:1054E000D7424200C722D600DDC4FE0002B1FB0055
:1054F000E18E20005A497800FDB22100907C7A00AC
:1055000008601500CE278A00275702007919FD0090
:10551000CDEEA0006DDB5A007559540043EFAC008E
:1055200093C3F7009E7D9E008B1BD70088E78F00FA
:10553000B9C714006761E700C781E9001AD12900E3
:10554000EAD3B20033253700B79BF4006D512E002B
:10555000B34F2000D59CE800CBDFF30036081600DF
:1055600055B6F400CCD7BF004BEE98004FC96F0082
:10557000DC14D900C8C7FD008A0FF400DD10F1006B
:105580006FD511006C4B29005CE16900B415D700A0
:10559000EA6B890056A11700C4E75100F91D5C00B1
:1055A000A9B700005B87DA00F2F4200008FA1A00BD
:1055B000A62E0300168ADA006B9CBD0098C9740001
:1055C000C6258A00A448C8008925CC001D6FAB0001
:1055D0006FCA1B00A8B0770026B1A2006D55A500C8
:1055E0005DA1E7009576640094866D00A66B75005A
:1055F000B69E2B002B4ECF00CFBB16004D7B0C0070
:105600005B2B4A0041A75700F5AC0300BA3C2700CA
:1056100080ABAA00C5F2ED00F5F6ED00B4CDDE00DA
:105620007E5A030001B4360087E94400576E7700C4
:10563000E78F44001FE236005BA4DF003EA8630052
:10564000DBC14A00EF5DA60095539700DD433000B3
:1056500099D8FD00E67FCD00773FE4002EB06F00C3
:1056600058A7D90069029F005FA30F008FC00100F7
:10567000579E44004BCC0F00F47F3700EAE47E00D5
:10568000330AD700945FC2009CDC800016405C00A7
:105690007774060084F03300302CA8007C40D000E2
:1056A00079F9CD00D768F500F3C8E600FD9ED50076
:1056B00063A7250049DB5A00BFBB1F0013E8240085
:1056C0008F3AA8005C2BB0008042B50036F3DA00B8
:1056D00018CBE70057EDA900E6C98B0080EC040069
:1056E000AD3FE70092C2B500564ED60093D4B0004D
:1056F000A8993700F1B53D0021589300BA9AAB0044
:105700005F6E9500AD5C2600F70661004E35040023
:10571000B821D4005ABF07009DE0C1005A5CFD00CB
:1057200002B6A900244F1D00DE56530081CA8D0029
:105730000345C7005C6BE900BE3812001F28290032
:105740004D76D700333B4D00F582D800AF048A0078
:10575000D586BD00C4DF9D009B4303006C82D7004B
:10576000C5B5040057424C001F85E6003A98070073
:10577000902A1900E30245007D74A000C50D0900C0
:1057800047A8E000D44A8200AF363C00EA954E00BC
:105790002BA2DA000F88A1006421280056AB060076
:1057A000828554003254EB00EF4A0A006C13E20089
:1057B000AE4CB800200C5C0082A539006C2B0500B3
:1057C0007AAFC800BCDB1F009B19D100D063DE009C
:1057D000B784FF00F341DD00BD53B500F98D5E00D5
:1057E000072978000051550063393D000BE0B500F2
:1057F000F8FE1800EB2E91003139B80014D3820066
:10580000545C4C00519A48006CEA0C00733F8E00C7
:10581000B678CA006B77A500ACAF5D00775B02007D
:105820006031FB0048A94400D05048004680C000C9
:105830004CB68F005DBB940031C03000FFD85300E0
:10584000807461003F1FB700197F560023603D0040
:10585000A6D1A400AE0211007655770030CF3700F4
:10586000DB8C5300D5010500CA50B9008E64D80006
:10587000C6D89B00CF391F00653EC100AFA3DB0037
:10588000ED825E006D7F9100D6147A007173BB00CB
:1058900043BC970036BE75009E006500C63E1E00E4
:1058A00004573300AEC328002708910096FB8400FC
:1058B000C58D8600DBFA6F00F47AD400E33B9800D4
:1058C000C6A7B60004DC400018A0D1002EADD2005F
:1058D0008A0EF500BB142900EC57F30019AA490001
:1058E000A9A8EE001EACC200FCA425004DC23A00DF
:1058F000E48D550059A78F004150D9009D5C0F00E1
:105900007A6849006EF24C00951C21006BD7F500B7
:10591000B917D40038918400633DAA004ACB4100F6
:10592000D767F500AC5C23009D043900E453BB004D
:1059300002F3110062D05600F3FB6D001E831F00BE
:10594000B57F460053AC3B0041DD260079629200F2
:105950004C706200E46E2E00481E1200BB26E5006B
:10596000DA17610023EB1A00A0034300CD799900F8
:105970003A0863004F7F3800ED6EFF00E7FEB40089
:1059800063ADA5009DAF740050DCDF00E974060034
:1059900000CA08003929A6002043ED000C1BB00006
:1059A00040A996008A71BE00DACDEF00B93BE10054
:1059B000EA197D00BAC5D000559DDC00B801E300AE
:1059C000B386320075EE2800390B80008DFB3A005B
:1059D000D3BF6300F00B1500B21F65001EF1E70096
:1059E000D549FC002C9EB1005F2ED20099EFE30058
:1059F000AE4564007B4D370090CEBD0094AF600093
:105A000011462C0043373E00B1A21E0075B9E100DB
:105A100001A6100001C3620000A32B0013ECA90033
:105A2000A734C3009043F40086DF49009D49280055
:105A3000654A8300ABE8150043EDBF00BA2E6A004B
:105A40002A9B7900B0C43E00AB721600F257570093
:105A5000085A4E00A6EA8D00518790004B59DE008F
:105A60000382C50081E83300E2DA9D00376C7E00D6
:105A70002A589600A421830054D7D300ADB705005F
:105A8000EC7A7000A6CD4C005E321A0095762900A3
:105A9000A3127200589F48002AA28A0068A00F0033
:105AA00075F777000758A10048A94A0017F8370092
:105AB0005CE0E900FDCAA000E6ADA1002CA5AC00A9
:105AC00082EF31004E151A003ED0FC002FBB400083
:105AD000D12F3000D00DD9004E34B5004A532500E7
