:020000040000FA
:100000007354DA007379D50060DC5C009893C0000B
:100010005D054900512E5F00706771002AE45200AF
:1000200088B675006420C500E5D13800DE3AA0002E
:10003000FDF29200B47D4F00F3FBC700D847550096
:10004000E0388A00637235007C8CF40080FAE900A5
:10005000E647110012C81B00A2A6A20089C94A00E7
:10006000046321008397D3009CE4BF002EF77F0038
:10007000687934007FF01F00CDAB7200BE55CE0012
:10008000AC6A7700FA9B5300122EE2005B508100AD
:1000900049DA5F00745C06005BAC6C00FD3B460017
:1000A00049460700A15033007CCE6600BD34FD00F8
:1000B000405594004B5C08004524D800500B640068
:1000C0007C8F160077BBC800CF235600D0064400B3
:1000D0007BF7C700C723A30018396000C27E130056
:1000E0009D35EB001E187E00D2BAB40054918800F2
:1000F0001A4BB4008952C30077D83F00E679AA00B2
:10010000350015005C685D00A1D5C200CB4BC30073
:10011000B18125009B0CA9009726630050156C0047
:1001200084E174009C944D002A423600FCAE090024
:10013000CA6E1400EAA20600C23CD80019BBB00087
:10014000FC18EC006B1CA300B38068007399CB0013
:1001500061521500C4CB1B00D53729005F53450001
:10016000C325DD00FB56E600523AB300FEC3A800EB
:100170006673E5005E6BCF00C1967900C280D30044
:100180003589E800A343F100740775003146D000BB
:100190003E8A210050EC09000DE98000E9EC640082
:1001A00060598F005CEAC60057867800E32A1C007D
:1001B00043FB6E001628D20052CDBC00FBA45300B6
:1001C00087A3A500464CC6008FC1B700AF145B00E3
:1001D0003FE1A10091DFEE00BE3F740027863900A9
:1001E000A09EBE0021E41A0085E6B50074F27900F5
:1001F000F5E7A90084C30E00923866001CBAB0006F
:10020000D6ADFC00D5B68C00F34BE900D6C37F0019
:1002100098F64F00190DB900A49A3D009143F700DC
:100220000733EF00EAF3110069C8EF00BA6D8D00E3
:1002300052AA0E0059A68800DE712400BE9AC7009B
:10024000463168001026C400CB588700CE9E53006C
:10025000BFA08F00B7E27300BD811000E159F80024
:100260005ABF730099F31A00D1168500FFC3B0007E
:100270006F92970086C72200D223A300BBF9B40077
:100280003E4ADB00FA6E8E00867F4400000D690056
:10029000673D6B007EE495004576B600109E6100D8
:1002A0009FA7DE004EF70200CA094900CA802A0053
:1002B000A01FF7003BBC9F004DDAF1002BF27B0042
:1002C00061F80C00D2A8A000D00C0C0016224F0040
:1002D00087014400BEBCF200B9C2FF0057150B00F5
:1002E0001B5B67006A5DF800A0F63000E5230F0095
:1002F0007C500200EAC7C5006AD23E0067977000D2
:10030000966E37001B3D980096D29900F92D150086
:1003100053493600084C5100D64A08002F85AC00DE
:1003200051A443008FDE7100E11F160059B1A600F1
:10033000D6F24E0044ECA60087CAE50008856600A8
:1003400000634B0094F7B30005F8A500D14CD20030
:1003500040E831002DB9A5009A5B500050034E00D3
:1003600009F9F4009D9DF9005A858B006F415600F4
:10037000C3F3050039F90C0041D2D200E86EA300A6
:10038000055F97003F16F1008AC9A40007F7300007
:100390000479C6003E81EF00417BA900B485FC00D2
:1003A00045CA8900B537DC0017B4C700B0900D000E
:1003B0009AAFE900FA9C0900751A39001FB195003F
:1003C0004B0FE3005D598C00D2881A004591FE0066
:1003D00092ADA3008D87BB004939F7009472C2002B
:1003E0004CD4D20039D4BB006596A200E68F380009
:1003F000EE419000FA73AA003FC59D0006E04E0052
:10040000B593FE006F13E700CB3C830074FCBE0085
:10041000219FCD00A9254A006EFEC3006930E4008B
:10042000A36E8C00CA340700D243A70018F434002E
:1004300094D5D100E818D100FEB536003658C20078
:1004400069CFC5003639D000A081CE00BC2544005C
:10045000251E8500653B5900ADDCA900EBB56000A9
:100460000EDC7B0047C554002BD1390090C64B00F1
:10047000A3F46A00B6342F004D619D0089CEC700F9
:10048000CCB89700B3713100C0586F00879649000F
:100490005302E400D13E9200435F8F00141AB6006D
:1004A000939A8000D3ABA1007D20D100D7F42E0019
:1004B0006ED8D200948E66000A9DD50017E0E10048
:1004C00083A9410027262000D6F8FF007D041400F0
:1004D000A07A2D003E4C9C00AE5AB8001D24EA00C4
:1004E00075B39900CFD8740013B14400B7E0FA0097
:1004F0008BB94500F41B4D005270A80039A2C8000A
:1005000073AE5E0012925200D19D790088E1140012
:10051000425DD2003D36D200AABCAA007FDBD600E5
:100520003C0BDF00DB16E6007D6F2E0037F0BB00D2
:10053000CE1F03008710550081E352008832B800B7
:10054000C1D72A0037D3F800DC580000D0EB910067
:10055000AD772900A0959C00355CE700F217BB0041
:10056000ABB16E00D81A890086856000A11D7800A5
:100570004E32C0003DEE180036D08800DE468300C3
:10058000D288CA0095F9F90066E04200BEBD50006D
:1005900096DEDB0076D96F008AC9760071110F00F4
:1005A000C7314E00E8933C003C2A6F007F87BC00B7
:1005B0005E074E0048950B004CB1CB0053BD69005F
:1005C0004BC805006E1795001B606E00FD5D460070
:1005D000F23D050012576E00281E4A0033F09C00C1
:1005E000D6E13F006B3BDD00EB714E009800AF00A1
:1005F00093F4730018544C00E1721500402CB300C2
:100600001190770043516600E848B60073CF4A0066
:10061000F6280800035AAE00CCCC6F00B15CDD00B8
:100620005C338C0002E5DC00211E0400F69FA30071
:10063000C4DEFD005FF79E005242D7003F720D00FE
:10064000491D3100D5EDCF00FA2070004CA1D0003B
:10065000186A16001C34240072711C00A60F980042
:100660001F03BF008F8EBD00AA6D6D00E3503600E2
:10067000048AFE000EDA87003C5E4C002846AF007C
:100680005840D1002566C700BE53C300EE7EA000CF
:100690000C536D006D4D300057A187000962C800F2
:1006A00023E958003270700094EC1800E662E8000C
:1006B000A8E9450056F58B007CE6200014C73E00F3
:1006C000E2AC0F0074750600E101ED0005C0980072
:1006D000C70C46004734D100F8BA9C0014DDC500B1
:1006E000AD8874004D0C99002C443400C9194200A7
:1006F00047700B00A7F094002EAC6C005C0C7C00E3
:10070000CE49BC004329A00050D1170077F87000F3
:100710007EE779003CAD790013B67F0040CAB00097
:1007200043E05F00803FB400FE0A8E00963D7800F3
:10073000B45FCC00B3317900B00102009AB5AF00CC
:100740004081320052F1F90038BDC7007088810045
:10075000A6AADA001BC38A00A4F3E50046C3220060
:10076000AA992900AC502300D794AB0094AA950015
:1007700005195E006AECA700A08A1000A57ADD00CA
:100780009C904000A4AF280007E6D900572C8F00AA
:10079000F5E43E00F7D67100E90D43001E42230048
:1007A000E6592200F3001B00C6C2F2004EE1280009
:1007B0008E6C3400FE32F900D90B1C0099BBBA00D4
:1007C00089D8820078C8B10068611800D58C9A0079
:1007D0005F3C42001FB06A005DA8C90002316000A2
:1007E0003C115200B59B760016D3E7008B9675003E
:1007F000E6E9DB00E005A200783B4700CC10690089
:10080000EA2C33005032B0004A0A6200D4CEB30062
:1008100019BEB900268CE500BF3F40006B7AAA00E4
:10082000324BE10094066F0054317F0056432A009A
:10083000E02FA800C0634C00DC90F200D9DAF4008D
:10084000E6246C00ED855D00D85066007C23D20064
:10085000982EDC00DC2E91000CFAA9001299B6004B
:100860008C7E760070D135004E468300F6B4990038
:10087000913C960090595300A014AF0097D2970076
:10088000E06AE000500EFF00810AF5003758AF0023
:1008900091591E0052F208007F76C300EF27210015
:1008A000505D87006A46740011480E00F69C78007F
:1008B00050BD620080122300A33085002299BF0042
:1008C0007F0C0600BAD83600F141E200AD66A70001
:1008D000FA61C300DAD62600989D53003C72B70037
:1008E000C2249E00E479AE00E90918001D211F0012
:1008F000B05ED40003E8BC0000808F00D047D80071
:10090000A6CAB500ACC4B80015077E00C8049C0098
:10091000071221000393F9001171500072030400C3
:1009200068ED92007E5A8A0064CC1700766B4E0008
:10093000871C3A00C8715F00159FE9003C00DB008E
:100940007B693E00E7936300193FA000B134DC00EF
:100950002D2B9800A0A35E00E9DBD7004A371F00CB
:1009600006FBB80019C1FA004E0DBA00483A7A00E9
:10097000E9911D00C09552007EFBF2003E7CA00074
:100980006300EC006BFABD006C744800D0D40F001B
:1009900021B64000C05B40005C82FC00BCC9C300C3
:1009A000A20C0000D7804E00B557AA001E7096001A
:1009B0002C4929001D98D7001AA4E500EF9DF700E7
:1009C000044A03007BAED700BBA6D100CE2F270080
:1009D000D8524A00B6F47700E79166000367A70093
:1009E00080AC090018772300E5137100C0A36800EC
:1009F000E50B4300502B3D000419C100A8FF7F0008
:100A000041F4300096788E00F11ABA00958C4E00B1
:100A100088881000129E53004891C800963B17002A
:100A2000258032007E9B3D006C57650036B05D002E
:100A3000E932DA00098017009B1B89000384480013
:100A400040F06C007E4337003C2BFF004EBEE500BB
:100A5000A515E300A58DC0007B3028002E84D800AA
:100A600057988F00E90F420017B5B200CB44E3005E
:100A70004CF669003A559C007A7ED800D8E53100E2
:100A800066C25100352CAB0009170D0061B47B0024
:100A9000E43F8200810F1900BD18FB00C61D4D0008
:100AA0001AC1DF007B305600F20C7300067545005A
:100AB00064BD2F00140823007FF5C70041481500CE
:100AC00058D2E700FA91B80006D34200770ACE0068
:100AD0003A244F00F59596008CBC17009515DC0064
:100AE000B4D1700093A3A2004B5CDC00B2481000AC
:100AF000C66E150008A4C800C6E5280095C6AE005D
:100B0000FBBAE4004E26F8001ED909007A98CC0002
:100B1000DD06300094C96700A4277A0015399E00CD
:100B2000AAFCF800D569BA00AE8D8200D74BF5005B
:100B300046C0CF00C6F23700AE3514006F044C003B
:100B4000749A5E00F4FC050080F881009302A10015
:100B500040A328002D996A0002CFDC00FFA54E00BB
:100B6000BF1F64001FEEE500E948AD00BD1E350063
:100B7000FB8630003F8C9500D21CCD00A7BD3E0007
:100B80002762F300EC9B1E009725C1002A49BA009A
:100B90001A7CA600D3498A00E46025004C5A7F00E5
:100BA000FA1395009415520009C3C100EF058D009A
:100BB0003707AD00A5E68F0010F4F7005656130076
:100BC000BB266400770B2000124AA700E858DC001F
:100BD0005F2B8100D686C100C694A50034C41100E5
:100BE000A0FD1A00954F23005A8EC000357AA80048
:100BF000924418006966930086052500D66A8B002A
:100C00001470A40015E6EE00DD144600B89A330017
:100C100044B2AE00C771C00065FB2F003152F30033
:100C2000359CDA00C2A56C006A6AD70098B8160035
:100C3000DF5191003C6E22008E5CAF00BF5F5C0014
:100C400057895D0088683F0025CADC00C0836C00BE
:100C50003FC9AB0077B23600BFCE0000FC021E00D9
:100C60007F9AAB00FCCB0A00051407006052C40059
:100C700034A1A5000E6F5100C895EF00EAF1B10054
:100C8000E8D0E500D281C200561368006B25CF0082
:100C900004309800F886C10010C27A008EF5DC009E
:100CA00082DEE900643063003915DD0018BDF8000C
:100CB000E653A70011F8660010AFC20071C67400B9
:100CC0006E08AC0032E3B6001FCFC50062BD5E0007
:100CD00087FD060099D37D00D5D1B7001FF95400D8
:100CE00083D9FA005C0B07005295410088E2D700D7
:100CF000898A3700B5C69F0082D76400ABFA5400DA
:100D0000CCA416002A10DE006DE16C008D45FD00BC
:100D1000FFEF8200ED323E00CC13EE00291D5100A2
:100D200008D8C600856F3A00DE285900B9B06700C0
:100D3000F3B40400ADD616007C3FA00033B4980095
:100D4000291ED7007B6ED5006B03B90016049300F3
:100D5000E1BCC600C4056500F186A80065415300EA
:100D6000D5512600BE595F00AAA17A00F3A9190047
:100D700039E2BC00E771D1009BE84F00E1B0AE0062
:100D8000E83FB1002656D3008793CA00651B3A009E
:100D9000E060A9002F83620081E3D300CCA5E800C6
:100DA000F03943002BC14400C2DE3800C174D800C2
:100DB000AF1034009740EF00BC753600CFD68400EA
:100DC000B078B6006B21C8006E65FA00241A6E0078
:100DD000F36FBE007FC8D600FA6A9F00977A420080
:100DE0009D4EEE002AA75900749C8000EB6B990081
:100DF000EB7DBE002C59FE00FCFA280055C4A20071
:100E0000642AF500CD3CE3000E92E1003B8B3F00ED
:100E10004E65AA0045E9570018B831003E7012002F
:100E20006269E8005E27C4004C44CA007A2E720052
:100E3000C2F6BE0057507300B7CD8D000C6008009D
:100E40002AFA9B000B377C009247F500D4858B0073
:100E500066F32A0053FFDB00D88E31007B47AB00DE
:100E600003CF1F00A7875C0018BD5F00B72F3200BB
:100E7000492769000B4945008B542F00CD68D000ED
:100E80006820910028D15F006999B600573D37006E
:100E9000F053D300B83AC70077AC22004761650031
:100EA000867FE10027488C00E43AB6002B4780009B
:100EB000D4EAB7007704AE0056D76200B1059700B8
:100EC000C1B87D00630E81003E5076006E916F00C8
:100ED000E2977C00C7F19D0073979600DA4E4700B9
:100EE0002F86FE003E331100FE0EDC009F407C008A
:100EF000F99B97000CF20D00334F83001256A400AB
:100F00001B124D003E440E0000BAAC00019EEC00E6
:100F10006FF7690010B15A00896F3100AF61F200BC
:100F20008449E5008E6DA400F377FA001C6CE400A0
:100F30008D6444007D3FF4007F36C0008801DB00F3
:100F40009BFE1F007A2AEA00DB79E5003A4B390064
:100F50000E222100634B6800B4BD82007D3BD300AC
:100F600049DBAE00F78585008F71EB00EB2DBF00EC
:100F7000A48DDC00B8E84A00D9584000EDC76A00EB
:100F8000A623B40018EB88003C583F0081DDFE002A
:100F9000738EF600D4E93F003344B2003E5E960003
:100FA000834820009A85E900E084E300948E88005D
:100FB00094CF2600F1C7A6001CA398005811470043
:100FC000E1493F0059323100D01280008085540041
:100FD00094CA4D00B11BAB0082CE00002ABCE000D9
:100FE00078E99F00D8FF4D0032982F00E2CAE30055
:100FF000F2A18C0097A5BB0067F39600247E6100E8
:1010000031ADBE00BE3EA100842CBC001FF012001A
:10101000A4CB8D008CE6A9005F011D00BC474C00ED
:10102000ACB11E005322B00013BF0600DDE3D000B8
:10103000938B48005C48F40015E96000E976A8004D
:10104000BB4CBA0007F1170085BD920088D62B0073
:101050001A3EC90037D6FC00C62A4C00AB83A80054
:10106000E57FF500ECC4A700500A7000CE2E6600A4
:101070008B72C80030852E00C4B4E60081BCC90064
:10108000E43A7C0037DCC1004043FD00238E0500BC
:10109000AAD51A00C10C5300F4116700F1127F00A9
:1010A000276EB600C3796600F5573C003EE50D009B
:1010B00030EC4300454F9B0051E8A90003F8B8000D
:1010C00051EDBB008D558A006270B3009A98DA002A
:1010D000499DB5007D521C0067C7AA00C648DC00C8
:1010E000B821F200399D9A0050231400F6B447004D
:1010F000168D86000CC8C200D846D800CA4AFA002D
:10110000E78CBD008C845000D9FC2200D6331D0032
:101110002C47A900FB25FF00DB745D00A5B85B0030
:101120001C1BF100F0653600ED5499000050EE00F4
:101130001439EE00364FAC00B894BA006FDEB00040
:10114000CB45E500F3728000D075FB00FFE9DE00BF
:10115000C97C5A000CCCF2004D2D470045C67800E2
:1011600019066100C8F41A009A129D00A3FC000041
:101170003D739D00B3922A008C677700C97471009B
:101180006197BE00C41C1000B50D4E007E213C00CE
:10119000D32EAF00C15FFD00FABCFE00A0352300D6
:1011A000B309F600E264A700638F69006925F100C6
:1011B000E6ADE100B49E4B0032F62900F3F7D8000B
:1011C00050A477004080E000366C4100FDACCB00BD
:1011D00041E5EE006CE2950060790A00EFBA9700F5
:1011E0002F180000A0DB2B0096DB1F001BE973000B
:1011F000A69ACD00ABEDEC00C7E84C00450AE7002D
:101200007C82D000E8AD82003F7E5900655B120011
:10121000480F57009C4BAA003B11D500AA8A7C00BE
:10122000133FF400A2984000C0B42900C2AAD7001E
:10123000507A070049787300A828790058961C0056
:10124000098B7E007DD86000FC455300DE87FA00E4
:101250005B53630024994900895C76008BE9410067
:1012600024F7E900CA050100AD55BF00A7A1DD00C4
:10127000FA6CCB007FC5A70071B07800065F5E00F6
:101280005EAA0300FF644B00DCAA9400D1A94F00C2
:1012900030DFC90013DFF100862C50008CBCC60083
:1012A00066740C0037C72A006A468100536917002C
:1012B000F8C121007DFAB500005CAD00668F9B008F
:1012C0001EB0F900B1FA69008B493000E8E43D0036
:1012D000BDB72B00BC578200AF1B7F00E318410055
:1012E0001EF6FF004DCB2000462C26008F91C80033
:1012F000E0474900B5EA510073B8CB00D34A380043
:10130000309FD10012939000F6437D000C99D500D8
:1013100036097900AF73D100C15D1F000CD46A009B
:10132000D2163B00AB5AD200CC993C00642E4C0044
:10133000879C5500D827FF0025D4E900E63C3C00F7
:10134000B7FD0600E489F8004A11430065F29200F7
:1013500010770900BEE9E600BA8F6500BE13F200FF
:10136000461C540032288600C9DE00001C68FE00BE
:10137000027D0100D6117D00B40EE2007629450001
:101380001925C70029AD5D00F44D79005C79E900AD
:10139000016C6800F8C6D900D6878B00F3DD2D00FC
:1013A00080474200036189004BD846003E0BAA00EB
:1013B000A515B500E0E65600FCE809009E7C3D005E
:1013C000FC910C00204D7F00A18B9B009BA2D300C1
:1013D000FC69D500AF7E520093259100E4A8160069
:1013E000C424930080BCC2009FC0770094187A0088
:1013F0000652C00069D397001CD53C00B6DAD6006F
:1014000043342E004B4C05003F2191000B5F6600DA
:10141000385A780075FAB000AD21D1000AEB82008D
:1014200097DB9300498C290051FFA30027556F00DB
:10143000FA2CC9002002A3006F063B0058B0C80078
:1014400014BFE2006B2FC900F9FA2800D4AB680082
:1014500029DD49001AAAD60021DE69001DABA700CC
:10146000BF7E6E0040CC20002FF9A80041DA590061
:1014700095006E00F7AB2F0093415C005BC2D20079
:10148000D4F8B700802D83003D6A29006022EF0068
:10149000849AAF00AF9394002C367A001710DD00C9
:1014A000415C3B008532B60045E06A0069A5560004
:1014B0002ED61B001E28690065AC9600DABD83009D
:1014C000280BFE00CD3FDB00B9F5F3005788FB0089
:1014D0003E91CC008563BD004C4E320031F1A60038
:1014E000614D06007A3FC500E18322006928D100E2
:1014F00057B6180007FC3200029ED9002EC8C30060
:10150000F5D22600D231DE005929BD00A35F2000AC
:101510008D6785002D7CDB003D64B800E46501002B
:10152000A406C800BF4DFE008F20BF004AD90800A6
:10153000E8F8C10063EB9000C76EBC00EE0E23001C
:10154000603099004FB1D600496658006C7628008B
:10155000E5BA380078068B00FD9EE100E855F10001
:10156000D067530035A2D1001E305C0056C21A006D
:10157000F494FE002208330050488100F557EC0037
:10158000CE56F800465E8A00F8B297001B77C2007C
:10159000FB6F2B0078017800C8DEBE0038095900C7
:1015A000E9CB3600FD7B3E009839CB0014128F004A
:1015B000D170E50076C225007CF56B005B91FB00E5
:1015C000E41CDF00F8DADA00128B3F005B783000B1
:1015D000C402A9007C5200001B8DFD000BB8100056
:1015E00035599100792486004CA131004EAB6A0038
:1015F00014B29700CFF8A50066B26C00796158006C
:10160000874C0F00E7DBCA0084AF8E00128DFB0011
:1016100075D6D70017D57900B36C1C00DA1A4300D1
:101620003851DC004AFFC200C778BA000EB5C400CA
:10163000910D4F00DF0719006CFC1E00E8B6940006
:10164000DCF21400D237E7007BF659006C54AB0093
:1016500084854100196B1C008E69740060FA0D00CE
:10166000B860A800509A6300D64E5C009B2AE00048
:101670005E17A00097DA28002B621C008258EF004A
:1016800048B05D00BAF71300641BBC00CF8981002D
:10169000A5310F00930C9000E868150094BF660018
:1016A000B9EF4E00ACBD890085FFB2007F6BC90069
:1016B000D092F00028FA03007F53A3005F753A0030
:1016C0006F08C400E266BD00EC8E5900E794390053
:1016D000CDD3F900D6D71E003E197700B0034300E2
:1016E00081719700C07B4D002184ED0084CB770091
:1016F0007BC22100029EC10087F19100D93486008F
:1017000038B28E00CA226D00004738009A19CC000A
:10171000318CEE0073218B004EC2FD002D200500A0
:1017200094B450002C41E40038C3CF00B1227300C0
:1017300036B86E00D7BBE9009EDEB40087468F0046
:10174000C7E7E300322BC300CD8E2B001488360090
:1017500046F266003C84890014155300C4BE2C0078
:10176000B732DE00D1E4AB009760C800515DFD00E8
:1017700013A57E0097172100620E6A004472F100E3
:1017800080B6B0001DF2D200C1D6D300BBAC46007B
:10179000C264750040F1DE00CEFB92006D694B0023
:1017A000F060B900D1B719004A8D1A00EB0BC000E8
:1017B0006A29AB007453F900B095970028281E00E1
:1017C0000A4F0400CA6BE400878432003B406A0081
:1017D00099598500D2BF2200F7694C00621A3D007A
:1017E00084FFE6008C958D009FD71B004AF3FD0017
:1017F000CEA47A00DFFFE400A57AF6008D10170072
:101800004855DF00BB1E99000EC3D1007B778200D4
:1018100000AECF0082BD24004F2C56001CCCA4008B
:10182000F6696000A3F3080023FB8500759C48005F
:1018300015864E0088AB4F009E84B1000A9CEC00D8
:1018400061307700B233750081528000A493BB00F1
:101850006CF68200213EF700D0B877005409AD0045
:101860000EE77000F8F1C900A2B0DC00B7E4B900DF
:10187000549B450061F3D900370C58007A9300005F
:10188000B85AED00AE85CC004F58A1002072680018
:1018900092CE9F00C02B9D00B9FEE500027D0C009A
:1018A000CEF80600AC6ACA00297EE700978DB10029
:1018B000DF6152009A92B9004ECB2400F5A70C00CC
:1018C000F3B17A00F1B11300242F1000971CE2004D
:1018D00068298900B0165C008636940060824E004C
:1018E0007EACF9001E02230006873F00E0CC160004
:1018F0004D568500A6723D0000AD9800D502ED0062
:10190000F8C60E00FB279500ED369800F3586B00E3
:1019100022A148008345B200F4B15800E7B45F004B
:10192000A0EA4100F1365200C65BF10099DC1D00CF
:1019300070448B0034BB7500AA9D6900B1D52E00A0
:10194000EA2D63008F398A00D6A400005D391800A3
:1019500035C7860008C5F00001ACE50050805E0088
:10196000FBC627000672670035CA32000D8B910056
:1019700060975F0035E2FF00E95AC50064EA620043
:101980002FCE8200AD2A98004E53AC003DACB9007A
:101990005674370052787900E918960094B0AF0079
:1019A00094D063007D16120061AD2C00C3CAA00064
:1019B00070A93200DBBBF6009A43E800073334001D
:1019C0006C32C5009541B1000292CD003C0CCD00B7
:1019D0007A18FA00B128A10029760E00EB01570011
:1019E000AF613400B791940097BDD80086423000B3
:1019F00036148400978A0600D9270800F15942005E
:101A000086D83D00C9D65900DDF52D0044B06F00E1
:101A1000D70A2E00B69535007F9AB100CFB093005B
:101A2000D1EF6600566B9B006360F3005EDDAF0094
:101A300087007100190FA50004199300BD51C00063
:101A4000A3819F000B6551000D298A007E7B560003
:101A5000E1D9BA003285A700E785E900F909C1009C
:101A6000C05B55003A55F80092780100935A740013
:101A70007776360053986D00B839C20043E5D6003A
:101A8000268293005A999F00FFBA8100526DC900C7
:101A90004D9B8C0036D3D8009E31440061FA7A0009
:101AA0008141D700843B410033366A00B0DD9400A9
:101AB0005CADE7007613A100D28D80009C47CB007F
:101AC000B5118500F862050061F01A006931A300C4
:101AD000103CC40014828E0022606400419F060006
:101AE000584827009654530090E6A4007C7E4C0092
:101AF000CB5B5800F31BCA006FCAA50022A4E90003
:101B0000349BE0006603D2001E93DA00ADAF5400B0
:101B100060D09B005BCA86002F6DC60012D6FE0007
:101B2000CA72BC001031BA0039C47A0002D9DF0091
:101B300098073B007A0B8500EC2585006DAE3300DD
:101B4000CA0CC700651E1C0065C26F00479CEC00F4
:101B5000B0E3FE00DE2A3300C21D59008DCC4400E4
:101B60009D6E1700D4CBFA00F9C65C008A9D060072
:101B7000D9557300FC096C00E527D0005632D3001C
:101B8000DB273500F5C95E00A1C2F3009F072300E3
:101B9000B7C8D600AD7816001970EA00AB903400D3
:101BA000D5E48300029AC200DD73CD009D20D900E8
:101BB000E35A9C00AB1D27003879CD00F6A35000F6
:101BC0000CD19E00599E7A0081CDBD005EEE68006A
:101BD00069E90A0019EFC600B06B6800A4A01D00F7
:101BE000B7C9CD00FC9AFA0033ADDE0003EB41002B
:101BF0004AEAC200F83AA00002B4E300A7AF8D00A1
:101C00004260FE0010C61A00F1E1CA006EC9FB0076
:101C1000FB163500B33F940044F1F500F27AFF0063
:101C2000C9ACEA006168BE008882C300C749F300FE
:101C3000E5E6530094545B00A033780001CA8300AA
:101C4000A1F05700DD0D7E001E94B900F81DFD00C7
:101C5000E3D909004CA2D100D38AD3004E2E8A00CA
:101C6000D008970015463700A800760031DEE00066
:101C7000C7923E006F6BF200AFE42100DDBFC600EB
:101C800090B0B000BFF4A30074DD5900640D8E0065
:101C9000D5C17400F5E4C300993B1C00B1E96200B2
:101CA000D093E70036325B00A1017100C92D3D00E1
:101CB00045DF4A00BB9EB5000B1530005446CB00F3
:101CC000B3317A00F8BBDD00A2ECD0005CE5EE0099
:101CD000C5B56800007C330013505600538CAC002F
:101CE0000E8FCE0027F58F00C0FC7D005A32FB001E
:101CF000F6BCA300E83B6F00D3438500C08AF10027
:101D0000EEB871000977C30095F55000C8AFA20086
:101D1000EB436400FD91A200FF2DD800AF35D40045
:101D2000101795008831320091D69600ECE9D30067
:101D3000AD6B9500A9CE4B0062F1C500B9C253004E
:101D4000688EF300B31B8D0078016500D2C2960047
:101D5000B9F1A900BC172700592401007CD5A100C6
:101D60009B7348003B740000E1B0DB00C8E6CF0085
:101D70007FCA7F00EC30E600566FDB0018BC5800CD
:101D8000844DC200F791CF00B9BED000E2504E00A2
:101D9000E58B2C0050D4E8005E3B4600B3BB8C00C2
:101DA000B3671B0060446A00BEBA9C0077DF540032
:101DB000C3A7FC00E59A77008CB0CA00F76C0A0054
:101DC000E934420016C49D0005510400A2F8110038
:101DD00065762F00097543008C0413008F2854008A
:101DE0009D81BB005933C30075007800C23EB70027
:101DF0000C113A0003B32B002019DF00AD83300033
:101E00007A76280090AE0D004A212400FA5423006F
:101E10006DFC9A00799D8C009F6A7E0087DCDB0058
:101E2000DF6A9A00C6EC5900923B8B00B1B34F00B9
:101E300030A38800F79D9800714E2900D5F62E003A
:101E40005D879E0028702100B3ADA400148DF400BE
:101E500072A004006FF77D009481D30055A84C0058
:101E60003D382B0088467300E3A2B9008FC11400EF
:101E700043DA1D00B40E5B001A0752004895A80013
:101E8000F86FD900DD591400AF597A0058E46300A7
:101E9000296C6B00FE424300A956EE00F2FC78006C
:101EA000BCB91300C150290075BA0500E44FB80051
:101EB0009C610A006956D600F9DAC0001D96E5005B
:101EC000EE1B2500F1FE0B00E93DDD00704AFB0032
:101ED0008840A80075662C005AC06C00967B85006F
:101EE000A2CA5100D1652E009423FF00793A49001F
:101EF000CE636400877418002B131700AF28FE0010
:101F000025AA6300E6442D0050F8A00044EB3300FE
:101F1000C2259200677E0300642EB300BC85D50005
:101F200074A15400593A7400CD6C440057E1580034
:101F3000AEDAA500C126E2000D7AFE009604C900C3
:101F4000C2BC00007B731500107C2000FEBEBD00EB
:101F50004E9BD600A4ED0600C479C5001BCD3B0006
:101F6000F61F0A003BEDB600EFE11800C7B8A40069
:101F700053DF3E0005F9D2003C2B4C00ABF98D003D
:101F80002AC95800B244B70096E1BD00061ACB003A
:101F9000E0E785003D6D8700B8B4F300ADE36E0067
:101FA0002D23E0009817EC00045C0E0052D943008A
:101FB00010FA5B008755B9009463770008807C00B5
:101FC00002689400CBF49B008F36F600063D60005B
:101FD0006E695300831C2A00BDFA5A00AACBC100C7
:101FE0005FD3B900CFDC95005C11C300C18F5800EE
:101FF0007B72E000B6940600335164000548E600A9
:102000002FA5F70049528800E84D0900E6E4A60034
:102010002BE589000891CE008E403A008D87200084
:1020200011F4D80083FAF9008265B3001DED450074
:10203000689F9400440D670076E382003BCA3D0030
:10204000D64FA500ECCD8500CE8F3500D0DA450007
:102050008ED7B3009BE618002A241B000DAA50005F
:102060000634BB0095D83C0043B91F00AF56690049
:10207000ED36880021247E00FA9A410083D7D800EB
:102080005C4AD600B48A4F00AEC987002C84BC00DD
:102090004BC4F7004FCF9F00CDBCCE0024E67500A7
:1020A000467DEB0025996000AD3A06000016580009
:1020B0005F9EA8007F5CC6009C59D400F72877007B
:1020C00066DA8400E46D230035FE3E00A472C2008F
:1020D0005786280074A3BE00F56A3E000A9FDA0006
:1020E0001345C700942828000DB53000D9E8A0009A
:1020F000533A8B00CF67950079324F00EFEF8C0099
:10210000D9F88B00FB2EF7005135C40021F4AA004A
:10211000E79F89009A710B005EA810003A78FC00D6
:10212000F4DB3700834DDE00EF6056004391110071
:102130009DBE6B00C2354400ED39150004665100A8
:10214000D9A13A00BB6711002D4C3600CBA2CC00C0
:10215000718A4700950E710005D821006BE5DC00FF
:10216000AEBD5F00D4B8000021B451008765800087
:10217000537E5E0048047B0096559B00105D9100E5
:10218000CD245B0025A4060037C589000BF5EC00C3
:10219000A906A4007325ED002716D10097BA950073
:1021A00045E13B00A815CF00B0316A002EE01900D0
:1021B000CABBB600926FA100520C7F002ACF450027
:1021C0005974AE007A721A001D983C008BCDAF0096
:1021D000836CD6008647F20042082100F7BB31002D
:1021E000FF0839005F19BE00E739B2000130320044
:1021F00096F8A000128272003B56F100AD6EEE0020
:102200006176DB003B730400CB019E00330B0B00B7
:1022100037FB9F0060FC6D0013ADAC00032EC900BE
:102220006012BD009A93CE0056DA780009C89A0071
:102230008D45F10079C4B400B16C75003236B00040
:102240000C54D200296919006D54AA002D19BE0042
:1022500037299400D0D17200952C70007665E20089
:102260002D46A4003A7EC800C89DCF008FEF7B00AA
:10227000C4922500B84D1600509AF30090F837002C
:10228000BDC9A3004449D80072C77A00E27ECD00E0
:1022900039F41400E96B860007A86500475716005B
:1022A0006CA8B200610D5A004B5C24001C52B200B5
:1022B00090FF9B00FFD22C00F40A2000E2F06000A7
:1022C0001B77CC00CF4ADB0086474900FA6F02003B
:1022D00033310300FB949300E509F600AF28F900C1
:1022E0006148F90070BF1A002B0BEF007A8FB00025
:1022F000852AFD00C0B79900BB9B350080529F0026
:10230000092FF40049F72C00964608005F5C6E0028
:1023100059DC2200974D8000EDD53D0029BF4600D5
:1023200092902F00066D7200F68C7300B0CBE40023
:102330007981DA00AC1D520002AB040003D92E00F3
:10234000AE472100753A0100CF8B8E003980F20034
:10235000206933008EDC67001AF925006C505300A9
:10236000C39600000659640079819700083FA200D7
:1023700080918000B3F40A0066E8550045580500D6
:102380006DEA5F005272D2009E035700F173CB00DA
:102390003E12BC00F1DE7800AC99500072F2BF0032
:1023A000FA6B4C0091403E00C015CC000BC68E006D
:1023B000F156FD00060BC900C424A1005E4C890043
:1023C000EC63DD00227FE200B08FD40031BC20003E
:1023D000A6298C00125877001DE7D900742B7300D2
:1023E0007B6C5D00076B2B0018D40B00827194008E
:1023F0005F8D5A00181D950039221800A7690C003E
:102400001174770066D31F00F3D65900E259980083
:102410008F68EF0081C1E2002CEAEC00EB81D5006F
:10242000CC8F110009BAAB000F74EC00771657007F
:10243000A0FF0B0098E5530021640500B92C0A00A9
:10244000FF9DBF00DF836E00921595002C5AEE00B1
:102450006D3F96000E1BC000D5542C008F0C52000F
:10246000B1B8F70079B9EE0072AAC40031DE2D00D0
:10247000C8D79100782DC2001AFF7E006E6A2A002C
:102480001C7872008E575500FBEC9F007966900017
:10249000F5253200CCFA07005652EF005B021B0014
:1024A0002F05610077AF12004DF9E5003AD6A00084
:1024B0002DEF4E00E8DB940001696D00DEDF0700C0
:1024C0000DFC6200B3D70E00DC33A30071543D0055
:1024D0001CEBC5000B9DB8002A575200854A3200FC
:1024E0008C1E660064AC4700EE7FEA005B806A00E9
:1024F000641E93005A06BD00F348E60062C2BA00AB
:10250000B7D6D900D15FFE0021C60E00FDB5A800E8
:102510001805AA005CF48B0011F11B00890CB600B1
:102520004D89E000E29AD600E2CA16009E62FD00E4
:10253000418DD9007F00D0004D47DB00944F27002C
:102540003FB86800A72D8900F6546500486922004D
:102550005DE1440091B95100059775001F4071007D
:1025600035F55700D24F0C00F5A3CF004A978D00E8
:10257000DB023B00476C9300ABDD1C004B5D1000A1
:102580000AA4310038715300CA369C00B8284200B2
:10259000A0347700B97BED00457978003F3DB0006D
:1025A0004C8DE300539A080035E22300E95C9E005D
:1025B00085351400E449AD00EB26B100A2E9ED0039
:1025C000BD40A200C35CE10049370F00F81A970034
:1025D000D64ABC0027B0F8004D518E00234C59005C
:1025E000D447FF00C8537100EE396A0045A61300B6
:1025F000D41AE000C60778002BAF7E00F2AA87004D
:102600003D28A300CA349C0060670800F1625B00AB
:102610003457FE006AC20800DA31A600443549008A
:1026200055365500D26F0900AE0CF30065AAC700FD
:102630009F3746009F92FA00C6434B00D29F53003B
:10264000AF373B000E603B003CEDDB00CBAF2B0017
:1026500030C41E0055249900EA563D005AD1F300BB
:1026600091D57A00500C2C004139CE009374A4000F
:10267000F9EF5C006065040059C30E001D9F9800CF
:1026800077DFA600907791004AD49700F0CCC20083
:102690007E833200F85D9900B9F53B005F994800F0
:1026A0008F5DA20066812B00B5EBA4005974410038
:1026B00038D71F003A996D00C3ED9900EBE754003D
:1026C0003C73E3009156BD0037DD47000832B90086
:1026D000135E7200A41D9F00C50CA6008C36DB00A3
:1026E0009411400072719400576DA7007E0D050093
:1026F000F0FF19009DF57A002034910095B1E800B3
:10270000E279AE00912ABF00F04DCD00FD92480065
:102710002444DF00EB47BC00C93320005A125000AC
:102720002490A30017D95400B3F48E000D28CA00DA
:10273000F74B44003B006600CC88BB00B5BB84006F
:102740008DFDF80053837100A2C14A00F86F130099
:10275000269D9A009C07F900C56B480082E60C0094
:1027600005238500361FC7009675B3004DC00900CC
:1027700062BC1700040D0900652FA50023DE5C0074
:10278000A4DBCE00D662E600BBF8230060A5F00013
:10279000CF97F200CADD7100F3EEE200FC4C2D0091
:1027A0003B0F8700EE24A1000F713500C976880029
:1027B00086C1D3002A4EAF00C88C9600F8989E00C0
:1027C000CB14B2005D4D2800E6A89100E1FBBA00F1
:1027D000137A2200C5B11900D200DB000250BB0001
:1027E0000BE5AA00A355C70069C53B004820880037
:1027F000F78AF8001EE4080012F7DE008DA42B0013
:10280000E61C6A0067595F00124DC90062B82400D7
:1028100027F1C6001DE11F001EBE17000DFA2B0098
:10282000FBCFBA00F3B60300317E4500D5557D00DD
:102830008B57F50090ED42009F8573007C81180056
:102840001C2B4700B63F5A006AF5B8000C2C8F00CD
:1028500080610600A54FFA00D4EC2400D6E51F00E5
:10286000CFE6A600C1F8A00035A48F00B704490048
:1028700057C50A00729743000EE1E1009D08EF0082
:10288000D089D9004B6B7B005D1757004944E600A7
:10289000D3366D006E77130032CCAF0055CE670093
:1028A0008D7BD6002D85E900820D8F0079FEF50025
:1028B000AF216100F42C0A003A13970009FBB40021
:1028C000A8E61C0067090A00975D8600C11A80000F
:1028D00016347E00C7781C00B4E4D700C51E4D0036
:1028E000796B6D0099908A00642D7E00E288FA0071
:1028F00029B952008927330041577A001992B6004E
:102900008AA217008B19E70004788D005E8500000D
:102910007DC3F600422A030017D853009C821E0094
:10292000196F8500A529DB0068E4FE00FDEDFD00C0
:102930009A27EA00E03EA00080E9DB00670F15005F
:102940009921EE00777DA600D3EB220049A6400036
:102950007D46C700B1288C0059316A009675000089
:10296000316A5B00334907005D50D000110C220032
:1029700016A89400EA78440094D7B700CB4C19000D
:102980003B1B6A002E090C0070E30C00E97B3A0047
:10299000CB65BF0023E79000B634BE00ABD3010087
:1029A000C6BB700063E21E004E9C9800A9E5D000F3
:1029B000F4640800D939140059D04C005E4C4A0028
:1029C00015EAF500EF92EC0088FE5400EA70F8007A
:1029D0005D61EE00EBBEE100ABAFF0001369740087
:1029E0001E8EA00096F2080088D0C2008C310E0026
:1029F000C7C75E001E541900EEF306007AC84700F0
:102A00000CDC0B003D0373000922100033EC88003E
:102A10006660B70099FFCB00F6C8140048828900B1
:102A2000BE2629006E915A0099A27000C5EA4C009A
:102A300064C962006918AB00AEA3BE00B7C36800EA
:102A400045821900D764C9001E48BA00EDE0F500C0
:102A50005DC19900FEFE430093D0F800037C320074
:102A60006A36A900CB0012004E4580009CE0C800E9
:102A7000E1411300AD65CA0037524B00EE181E004D
:102A80002501D700BFF4250035502600825E4000A6
:102A9000F669AD002C29B300C00F43003C5345003C
:102AA00027291100CEBC3500B338A6009946640032
:102AB0009338590018B9A10066536A00380B190001
:102AC0005160120036323C00FCCE01009B206000B9
:102AD0002617D30072106A00F89862002E35E500C0
:102AE0003B768800D98B5700161A9B008744090053
:102AF0000F34F2001E3E290058ACF900EED5350027
:102B0000AEDAEE00BDEE11005EDEEC00201F4700E5
:102B100023AD9800637DB600FA175400500F2F00C4
:102B20002AF046008C8EFB0003745D006E868F00D9
:102B30002A8A8E006EDEEE0069E38600AA3C2A0037
:102B4000612E9800155E38008AED25003B1EE900D5
:102B50006087D100CE7E9D00C3A13A005B1F2A0092
:102B6000BA146200C94FE300488E870096CC250056
:102B7000F8AF2300F951020038D03100441BF800AF
:102B8000CFEC69003F266900EB90C900543E470036
:102B900094C8E200C67939008E84CC004A83FC00D8
:102BA000EF5C8E00B0D43C00F23DB9008A7B3F0060
:102BB000CF897200F12E0500A06BE300D6F523004B
:102BC0009DCA8A007B6F87003052A600148C7F005C
:102BD000B3AAC3009B39BC00DA17940054C9630040
:102BE0000F8DD400A2ACB5004DB51500122C060017
:102BF00043BBC100C7F95E00BF9FD800B788AF00D4
:102C0000B0EFFB004CF404004580A4006590E000A8
:102C1000F3CEB100DEFF1400648C0400F47F710079
:102C20009E043B0041017200E753D500363B4F0044
:102C30002AF7CB002C359500F21781008258D80076
:102C40002C471C007111AB0056FFC10070E0000062
:102C5000C78D990061943A0027BC6200E0C58B00E3
:102C6000610E63006DA6E7008C76EB00415A1500FB
:102C7000994FE2001072C700D510B2000F429A00BF
:102C800078CF9F00ECD5C700D218A2009DADDA0026
:102C9000E64632003355190062FA810014DAB100B9
:102CA0005E301A00482A9D004A47C000BB1E7600CD
:102CB000E5854200A55F4F0047282D00780AF60001
:102CC00037EAFA00FE12BF00654BB1009655EB00E3
:102CD00044B1CE00A646250091E35400C8AB0400E1
:102CE000DA7BDF0032E5CC006D8DFE006D923300A3
:102CF000A25AA1005BDB8400632D7B0014EFFB0074
:102D000050AC4100286CFF00FC1ADD0043F2560075
:102D1000162BE1004C239000722D5200746A930030
:102D200059DD5C00CC09EC00837D75005FC3B90000
:102D3000A6DDE800E500A60088F01A007E359A00BE
:102D4000E72D7B002B675B00C5E0DF00CEE90F00BD
:102D5000D1093400F56B23000177AD00D2156C006A
:102D6000A06CD400F8B4150059890E00DC53A800FB
:102D700006BE2A00313AE300511304008FBB2F0036
:102D800060DA6800087CC6002B9B20009F7E020052
:102D90002AEAD500B277BE007B186400DA0DF00095
:102DA000B5BC8100D6FD5900FB2FD7006C0AE000AE
:102DB000169AC600734F8F009BD87D005E87E20095
:102DC00061C0C10000257600DCBD26005F5F4400C5
:102DD0001700BA00D48378005EF31D00C7A26C0010
:102DE000DC2BEF00C805F100B7CD1E00D861140040
:102DF0006D4FC4001A77730085F449004657BA0036
:102E0000D0E1E10093EE6600C601A200F936480069
:102E1000CC660C00ECC366006642E20010A5F70029
:102E20009B333F006E085200196CA8002919E1007D
:102E3000DE4A6200D76547006A5C2300DF317F000D
:102E4000D083ED008487450014350600933C1500BF
:102E5000BE703A00CC7106009069A0006FF58F003B
:102E6000B6B86900A96B2E00EF91F000A8C363000B
:102E70007ED8D7009D5E4D00E916910002F65B00FA
:102E8000C77E6800D2D0BB00350BBB0099C382005F
:102E9000A2F7AE0083DD4A001AC68C00DD14820062
:102EA000335B6D009BCF500045138700DE585900FF
:102EB000A3734B009B421200DD0B0D00C9EA4400D6
:102EC0005B8E4100C0ED2100D4ECDF00B1CB770078
:102ED0006EAC4200647D4F00807E510093B41000C0
:102EE00056C67400A41E600069E17C0093C4BF0054
:102EF000E216FD0042A1510064D47E008C4F2200F6
:102F00006FA15100CD539300E0C7A300C7902E00DE
:102F100055676000FFFDAD007F5213000946610058
:102F2000A400F000659D8600E8DAE500D276FB009B
:102F3000108CA40045C8FD00DB8A0A00E4EBBE004B
:102F4000292A4F00BBDA670085DF3000021B7C00B6
:102F5000CE77DD0024527800156B4A00F98AAC0068
:102F6000E3BBA100C0FAFC008E9B6E00E3F380007F
:102F700041BC030092D36B00DE9A3300AA9F7A0013
:102F8000EE6D35008BCC1000309C2C00CBCE1B009E
:102F90008DF48500E7C2D6007E2A6F005C25B30061
:102FA00018A5A000D55F7900694C06004F640200A7
:102FB000CBFFAC005DBDA3004C915300F8F2C00004
:102FC00063D51F007EF559008E5BCB00CCFCFE0064
:102FD000880B5D0096FF490037FC7A006A2776006F
:102FE00087B44C0006808200C5739C00DF2421005A
:102FF000436EFD00156ED40040EC640025A643002E
:103000006D3C990014B40E008C407800ED71A00066
:10301000F2519100C32D9100FD243D009EA3330089
:10302000B57D3800F3A8A60030C5F2009C56A30079
:103030007E2E4B006CCCEB0018EB2100CD41F9004B
:1030400031425F00100903005703110058075C006C
:103050004214250040F93300CE928300AF3CA70014
:10306000687F06007DD2960077F18200CF6E2D003A
:1030700090C6470052CD5200715E7700C6A6DF00B1
:103080001499990072A780005CC1B5007532CA001E
:103090002CA64A001CA4B000E6AC170097B58E0021
:1030A000A4733A00C6AE2500A676780001C77F005B
:1030B000CF6B9600F983CD0028784B002B9E8200C1
:1030C000BB5685007A04180048CD2C00EE941F00F2
:1030D000A5B27400AA164E00C3238F008F81720020
:1030E000AF9FFE002FBA2A000A70BE00FB2C3800EA
:1030F000CF529600D2317F005A9B98005469460007
:103100000A449400AA67D500087FDA00AC8C9000CE
:10311000E28B1A007AEF910021C1F0000F54B20047
:103120000D24DD00574B490032662100C67217009E
:1031300067FF60008E561200632CDC00DA517600C7
:10314000282D0000C3FAD900CA034D00D7C3B80028
:10315000597B30005D935A00FD372D00D1B0D5006A
:10316000834C6D0021A39B00E91E8500ABFECA00C5
:10317000AA94FC001DC00400E160D9009639170034
:103180007931D200C6D95800F92D5C00D8C00600AC
:10319000BE115400643D9D0095F46B00CE7B200071
:1031A00017E0F400AEFC41003C6D2E00335B3A00AA
:1031B000ED24C200B09A1700B10FB000A22A7E0021
:1031C000A2135E00F422F8004445DD0059762B007E
:1031D0000677AC00E10EC80065EC2B003F896B0060
:1031E0000E71FD005D9DD5007901210028C75800B2
:1031F000C701F800BA80E300F080470056E7AA0054
:1032000087893100CE06960097D6EA0042D38D001A
:1032100066BA7E00631FC8002A6E38009C2D4100EC
:10322000ECACDD00D2E4BF002D39910091C57A00ED
:103230000B0CA000E98A9000FB3D0D004B7A660064
:103240004F8C770015D871001E84C000BD52C2009B
:1032500053227600BD8CB300E1F17100A0CD3D009A
:1032600076AC3600EB5C750024EF6900B8AD2F003A
:10327000CF037A003160B2006EE107005BC6250023
:103280005DA8CF00CA1BB90048D52A00338C0600C0
:10329000837CA000FE8A1700C8E86A00426EB40072
:1032A000B2436500CBC994006B4BE600263B9F0000
:1032B00067D83900C145480028E73D009E16B00098
:1032C000584D99002D997800C1068B004CC3C00061
:1032D000E96D1E007974EA005B8DD800BC4497004C
:1032E000E551E700D239EA0051933F00A41D6B007D
:1032F00069F8F1000B2FE100447C70006DAE89008D
:10330000231EB300C169F10076DA6E00F177030085
:10331000BCC28700BED9210058B3D7008646A4009E
:103320009211B500A215560061F96E003B89140098
:10333000AAA1B100C0CDE300204F2A0061592200AC
:10334000E540AE00450952009467BC004CF61400FD
:1033500070BE03009F91EC00BB9705005BB9D500E0
:1033600081688E001B309800686D030034C6E5004C
:103370003F315700D0A1FA00595F220054FBC7002B
:1033800001AF7500BB65D30088EA7100C6E6FA009C
:10339000BB6B15002BC99000C1B06C0032C3160086
:1033A000B4373C005FD6FE00746C0B0019C15F009F
:1033B0007C7396006C09A400CCCDF2005E205D0009
:1033C0001D85690064EF3900FF94F90007DE0900EC
:1033D00090EC1B00B413EE00E77D450044FA3B007F
:1033E00072ABC500CEDFF900D2D01200B19A2B002B
:1033F000F7F332000751E60095AC2300D88CD300D8
:103400001E53EE00C1A8BA00E75D1100F9EC780088
:1034100026CA8600CC7AA300EB578B000CF53F0040
:10342000408B990009BE91000EA23400063890002E
:10343000854D6E0050C3270013CF89005BCD6A0015
:103440002A6C7000933644006BD14600C430F900FA
:10345000F144BE00438ED900C940650042DAC30082
:10346000E289AB00F28CC200F6E4400061D26B004E
:103470003B7AAA0039B92A00E199F900C1C6B20025
:10348000A436DB00DBEF2B00F9E00600D16251002F
:10349000A6A4BF002A74B000BFB36200DEF0D30060
:1034A0005E958500A922BB00966BF6004C87B100A3
:1034B0006D234000F2A92D00DDD24D0022465200BE
:1034C000327C8400D9ED3E003FB34100CB68FD0063
:1034D0003B886D00D2F8510049758C001A30F0001D
:1034E000F7264D008F1F00003CA550008EE86A00B3
:1034F000B1F18800ED3A2F002471C200D7909100FD
:10350000B9B98B00101C37002874A20098E4D100D0
:10351000E3359400CC9EA700246349006ECF580089
:103520003593BC0046FE7200746EE900318C3D009C
:10353000DBDC1D00DB4F5600126DA30079F4A80000
:103540005E6FAD003F489400E3245B0063C4A300BA
:1035500015EBA100E9AEB4004D44170095D69E00CE
:10356000DB591000AE233D000CE16E007E9C740020
:10357000017C4900AC1A7E0046904F00E256D30011
:1035800086708A006932D900DC6B840095D2F30022
:10359000852C13003B4894000299170086AD7800F3
:1035A000EE75E800E9EE9E0011242D00FF678E0005
:1035B0007855AE00922BE6009B458F002AC624006A
:1035C000D6336300CD9C2C00C0641100D6459E000C
:1035D0002816930011701B00BF6A70007BACDA00E4
:1035E000B4AD1D0057C9A200CF3BAC007BF14D002C
:1035F000D52E2100FD8006002F693F00AA08250076
:1036000033234700ED5B5E007C70570010518E0045
:1036100033ABCF00FE211F00421C8100EDAB5300F5
:10362000B1E28A009936B400D4D96100FC7F500021
:10363000EC5CB7009F9787005F185000FC2C2E00B1
:10364000C1EBB7008A6650003D052A006BB37500D8
:103650001C260200D25F5E008639EB009494AD0018
:10366000AB61CA0091E41A00ED2C7700CC2E270044
:10367000D3130900697A5E00C8811700F8198F001A
:10368000E7CDC000A5E5C300707E8A0051488800E0
:1036900097482B009E411000CA476F006BEFD10086
:1036A000A632E7005FBB590025B1A200727DF4008D
:1036B000DFB6A7008CD20C0047B5F800B71E720029
:1036C00049ED81007F448A00C2ECEB006A973B0021
:1036D00099AB0300B30516008B959D00A975F20008
:1036E000E768020065ED7100CCFF1500B9DF8D00C1
:1036F000A528C80078F70400F8735E00928287005E
:10370000CCA02F0098401A0020E60A00A0640A000E
:10371000570FA000A220D100850A5B00C7A0F500CA
:10372000F472EC0043070A006D9F7F00A84D210052
:10373000F91A2100DFFE31003A000A002215740058
:1037400094C28500B3F98800B75559001B403C006E
:1037500046ABC9003D4D9D00B5F73900803A2700C2
:10376000926AB200DAFF7800D6D3200089D35E00D7
:10377000F15EFD00B1CCA300A8EDB50041BE030091
:103780000800AF00CF01E700F54BFE004516B10081
:103790001C7E0A00939CEE0058E7A600CBEC2C00A0
:1037A000C5641F004C48B500136EF700E6212600E3
:1037B000E134820020235F0020F10C00070E20007E
:1037C000CB29A0002F6D010085CE6900C7BFB000D6
:1037D000CD9D6D00F7851300EC6CE900E3D13E0050
:1037E000D2C13100F9DB2700729CFB00861DB800B6
:1037F000609C29009DB25100BEB0F400CECC8A007E
:10380000C483E70052E2860056A87C008891BE007F
:103810008E87F300F9F69A002DF5F8003E04A40017
:103820003F7D8400835063007FBA7100746F6C0029
:1038300040A47000D8296A00E1932C002D8B5C0015
:103840001615F000FAA9900093394400B4EC70000A
:10385000D46FBA006A635E0018962500982E730034
:10386000D07DAC00CAE5BE0008215000F714EB0083
:1038700099BAB900C345D40024934000FF314700F2
:1038800028F8B80028BF8F00AB474A00B2CE4C00E2
:103890005492DA005BD52F00EBDE9400E81B970012
:1038A0008BE58900EF95D5001AF6B8009AEFE9008C
:1038B000BFFC62008EE158006608D0005D929C005B
:1038C0009DAA00001DDF9D004ACD78002B61A50058
:1038D0000482F6001DFD2B0022A892006947170004
:1038E000B4618D005425E90001FD870024556E0068
:1038F00046871000AC06E200C27E28009EF5180044
:103900005B5DE4005A9932005CCA9100098A7F002D
:1039100018797F004241B0007BE3B500926CA400AF
:10392000D17AF100993229004B66F400A09F9200F1
:1039300003C62A00CCFC2200968234005DAD7100E3
:103940008844F300A05F3C0010143B00747B7900B6
:1039500005A9AD0099CEF400F16BD9001C176900E0
:10396000A6E4E700A046DE00C49F460056BDCF0097
:103970000DC49000DF5964007F71BE0072A3A700E0
:1039800087E7B500EF959D00D2249E00D643B60090
:10399000808A2C0035A84A00C3D5E80002331E00F7
:1039A00039CEBA0088E478007A24A200CEC0CA00DA
:1039B000B77B7E0017127400594A0700F6E91D0014
:1039C000FE70A9008AA20D004FEC9B00D85DCD00CF
:1039D0007F2D7B0066B7FD006E3E81007B9C6300FF
:1039E000CE31E200B5998400BA4CE300D370A60052
:1039F0009726A700E587B900437DB100424B7400CC
:103A0000D2FEAE00F0FD5D00759F94006240BE00E6
:103A100035890000BDDBDA00AD1C660001B05C003A
:103A2000EA240D00C50D7F00101E91006CD8D8004F
:103A3000828D8300F99B6D0098BBFF00F0D92500B3
:103A400028F2EE00E34223006F88C3009DEEE700FA
:103A500019CCD3000BFB59007F10CA004DDA90003F
:103A600053281F009B129300491BE300E4D68400F7
:103A70008C58D40046BDF600F6C76700D880EB002E
:103A8000653F3000643EC200ABD62E00F3870400D1
:103A9000DFAB380061116C0021B36B0057281000B8
:103AA0000D78210058B437007414DB00C3AF570001
:103AB0000B5F5800FAF868003A4679001393E20069
:103AC0002EBEA300B4FFE000D66E2B000DD8280058
:103AD0007CB5CF001141ED000E6786005AD7DB00A0
:103AE0005E5B28005C49B300DBF67200D19AEA0005
:103AF00094F7B600890A2A00808B1800FB5B7700D8
:103B00006879230054E83B00DEBA7400D3E6C700AE
:103B1000269D7A00AAE2BA0005289700CDE492001B
:103B2000CA742C00488282000E9DDE001954A80041
:103B3000FB479E00A26BB900276E0D0028AF130053
:103B400038FFE50005BCDE00EE79D8006E88BA00CB
:103B5000508EF400FF946D00035BF5006A9E6200D6
:103B60001712D800FE79A300D89EE100E3AB36001F
:103B70005695150036649C00CA15E60073789100CE
:103B800003B1A500C8B0C1007590760049ED4A00A8
:103B9000B17B1E00204DB700439E3F0029323B0001
:103BA000497C48009EC5C40046213900B716640010
:103BB000FA930300771A6E0048CB2D00F54B710085
:103BC0006E133C00DD7ECA001FD894000A32440008
:103BD0003D6FFF005E66650044999C00453E4800CD
:103BE000A647C30089845800A6A61900603D990025
:103BF0007CB7E800D6A21300BCC8F70008F6D400D2
:103C00005D1EB100C7703100D9EF06009CEF0500C2
:103C10002ADA78004AB20600C3CCCF003561AD0085
:103C2000B2A35F0061708B0085DEC000E68CCE0021
:103C3000B082CD00041014008309BE00440B3E0086
:103C4000F78CBE0045734A00CF0B2A0028CB9B009F
:103C5000EBE4AE00B5883500BB622200B3C9860034
:103C600033ABA30006ED1F00AF751B0091C6050026
:103C7000ACD76400F18214003C1A940082781000E2
:103C8000A02DC7005925B20070C574001606D900D2
:103C900037BF2400B0D785006BFE1F00B7C62D00CC
:103CA0002DB415009A182D0032E67E00EC8F4700E7
:103CB000C4476200CF3A7800C3E8AD00DB12D900F8
:103CC000FC31420045E8DE0068EB9A00100E7800F7
:103CD00002F08C008D331700508C27007C57C100F8
:103CE000E59FC1007DDBC1005B477700BF02250077
:103CF0008F6304000EA5240034943A00A9275800CD
:103D0000F27E9A0088EF1500A4514500FE0C3E009B
:103D100081A54D00DCE6CA002512D00079BBF20077
:103D2000E12AB20050F86B00B61DA900133DBD009A
:103D3000E00AD300616D6900ED3C9300840C5000F3
:103D4000A5FC8100E450C40052A15D000979220065
:103D50002905B9006D021E00E97E210068021600E7
:103D6000E53C5E00F51BA300102BC70031F14600B7
:103D7000CDBC9100B68D0C008BD4BD0045AF1700B3
:103D80007CE6B80059143C00DD28EE009CA47A00C3
:103D9000AF7BF900536DA700D97AA100429C760051
:103DA000F7380A008CED1700773E9C00A1F51D0046
:103DB000AAE76500415E7A00EBED43000626F100BC
:103DC0001A1B49002A44D500F3AB95005D4E29002B
:103DD000090DB200DEF43900703734003FE9EF001E
:103DE0005B4D1D00761EE700380429002ED55400D7
:103DF0000D39310071A519002A8D5D001F3F240087
:103E0000666C3500D7FC720082338F003831D200E7
:103E10006BA45200A05CAA006D3FD100D9C9C900B3
:103E200097C36A00557AB000DFD5D500E05ECA00BE
:103E3000CBED1F00F7A7C300A4F76F002911DD0029
:103E400083EF9C00207D6C00B5DD4D005394110084
:103E50004A642000686E3900CC460C00C92ED90097
:103E60006F506F000AF791003A8AB8000036C3001D
:103E7000F9216B00C6386000F883E000FD8ACE00AF
:103E8000D74C52000836DA00FBADAC001ADBB700A5
:103E90005BF6F100490AA200CBFA710008A9E40020
:103EA000E9638200B4C406005645EE0017620700BD
:103EB000EB204F000DC9A500016A3B00B403990037
:103EC0000710E700CEDA4600FF5CB20033150900A8
:103ED00094DB9F009236CB00E6D1B800CFF94C00BE
:103EE0004979FB00B65DAA007F480900EEDE830039
:103EF00037B535003D78FD00DD92AE00A8CAF4006C
:103F0000F9F72A00F470C400B028E9008A8E000096
:103F100029BC2800D62F1E00DADBC50096A2F900C6
:103F200015674B00B196DF0042C292008E2C7000E4
:103F3000B278140009248B00E868D80071B7A0009B
:103F4000D0461F003B6065003AA44A00455F9800D8
:103F50008EB78900E5788000A591850017758900E6
:103F600011AF090085AE5B006E9EA00040DFF70038
:103F70007024FF005F785900C1A7EA00E9B9140076
:103F8000F2115E00A48219000A88BF00D0FB140061
:103F90007BB44A00D0EAF10083A598004B23C70008
:103FA00042CEF500535E95000D567F008D2F6800C0
:103FB000C7E0ED0073FFA900442C2100276AF80038
:103FC0000492F5007034EF00CD813300D2C4540068
:103FD000E2B0BE00E8C4CE00F1D2D4006BCF6100E5
:103FE000EE8CEC007DE917006FBF6F003E8AE100A8
:103FF0004C95B700B43169008DC48C0086985D0083
:10400000EB72B7002064B80070043D0034972300C1
:10401000F911F800BFBCB500ADAE9900EF9BE90007
:10402000994ED100A32DBA001FDE78005C208D00D0
:10403000D3384000D485C600FAFF31009EDDBE00B3
:10404000CC23FC0074A2130020185900205C9200BD
:1040500036F47000240E1200B276F900913B100085
:1040600009626B00A6B2B900EAB24D003077560083
:104070007221DB00C380F00028FF7B00492AC200C8
:104080000C27DA006F32D9004A2ABB00FE98520092
:104090004D7B67002A8B490040E2B5004A812D0024
:1040A00042513700A8BAB900DE0B470043F8280098
:1040B0007E54E100B3C5F400F44303009E57BF00F3
:1040C0004F62D1005019EC009BDDB00078FF150065
:1040D0003322EE0021AC8E00D1F1100053F0070026
:1040E0008A312C000952A600485471005E81B1004B
:1040F0008CD67B001526C4007A81A800F8B60A0089
:104100007C6EEA00992E6F0000DA990076FDF100CE
:104110001D0BB0009A9F560024BF7100244CE10093
:1041200065F374006B5F7B00B464AE008AF4A30097
:1041300070FBA1009AB15A00196C0300EFA10300B3
:10414000B7E749000C2C5E00A79C7300224DC70006
:10415000814F6900665A7300354DDD007728C7002E
:1041600099B21D00AEB3EF00F052EB0010C884000E
:1041700040B64B0032C60B006C8925005D0AE70093
:1041800065BD3700A8BD8A00FB47F900E584AD0096
:104190001350130096A7D1004258430045792700D9
:1041A0002A06B500F319040008426A007996F60061
:1041B00051E9D7000E20F2005100B1005A0A660002
:1041C0002A829A00AF91FD00AB73570067A7620087
:1041D000C804C5007B38DB00C7259F00C722A900A3
:1041E0005D50E1009C6776004A3220008EAE8B0065
:1041F00037B6A600A1E98300E56843003F740000DC
:10420000EDBBE600A268BB00A3FC730091B3BE0047
:10421000D54C4700A7B47C008154EC007689480057
:10422000B80EEA00498C180043D1260058A31B00A1
:10423000C8CDE70099CB4A00859C3400A5622300D5
:10424000D23382004125EE000FD5C9008D342B00FA
:10425000AF3E5D00E9C9CF006DACEF000A22B800A7
:10426000002A3500DCA10B00BF49420020DC9C0085
:1042700019C09C00EAFCBF00CD85A90066C80B00F0
:104280003D469B008FDC71005ED4D800C4D11E0077
:104290000C78C000543C6900C9EED3007D010500D4
:1042A0003946B80075FCDE00CC137B006F24820019
:1042B0007F4CCF00C3524C009CF0FA0099006D0077
:1042C000D5327400CBE5C5003C872900DEDE9C00BA
:1042D000DF6DD10038F64A0012A69A00086D7F0003
:1042E000A8125E00753A9300B6C4CB000E3C9C0049
:1042F0008EB1FB0096506C000D5A7000995EDB0089
:104300007D6C220078EA610096FFE400C4EBB800FF
:104310005FBCFB0026187A0003F66000236AE70002
:10432000D3995F007E5481000BDFE20007677F00B6
:104330001CFDAE001438F8007EC04E00FFBDFA0030
:104340005BE9C10055F66E0099A40000A0541E0060
:104350000077CE00EF0839009B6B7800894EDD00B6
:104360007E91910070AD250097A2F800A1FD6C0030
:104370003E5C59002D1990008C733B00A212710015
:10438000D5721C006487E400B202FE00DBD19B0002
:104390007878C800A485E50016CD5300315096000A
:1043A000AFAAA5006D22CF0068DCB80066FCC00093
:1043B000486B540012E22B0013E4F2009DF89C00BD
:1043C0008EF5C400E69D09008E9B3E001D08B300DB
:1043D000BAB2D80097B17A00F2E947005515D50076
:1043E000AAE15F00D41A3200CBB640001F94E3006C
:1043F000D0851D00366FCF00327453004844100042
:104400006CD1A6005CCC59001BB6EB0050182C00F8
:10441000FD7E92005826B700EA6A20006D4426000F
:10442000F4CDBF004998DF004C893000D5B9BE00FB
:10443000AB16C400489B62004447BC003D92CE00CE
:10444000942909008747CE00842E72009C2FAD006E
:10445000B5ED1500B703E700FEA188003414610034
:1044600053F21D00AA46A000B9A8D100D2B6B700E9
:10447000EDE78B003A4FAD00E811C00053D74F0075
:104480006C34060068F68A00374692006A175600B8
:104490009716AC00C7FF5100685A4800A1DB6B00BB
:1044A000CC0C3D001B8CB3001E3750009DB82C0077
:1044B000EC72C3003C927700F9E92B00A5F04600AE
:1044C000978B76004082EF00E273030065C55F00C2
:1044D00099681700D8764D00A7A85400EEA14400B3
:1044E000A3664F00FA98F200C9F308000061760055
:1044F0003D30CE00C099CD00941662008B332C0065
:10450000FB7B50008F660C007033AC0073EBBF0078
:10451000EEF997007B7BF20077BAB40093AE4D00C2
:104520005D24F000EA77D700470BEB0005566D00DD
:10453000B5E7620077D9670018E008009FFD8B009F
:10454000BD557B0018017C0010D66D00BF87D000E0
:104550000DD8A30082E67700D5A63A004B19DE00FD
:10456000C0951000CB1D680064E7ED00F3D1730027
:104570006800FE005113370021600D00B944190096
:1045800042BC1600DAA19F002E528400B274FB00D8
:10459000AA575300FC663000FF3D10000D5A16006C
:1045A000D085D900BF7905002EFF9A00543303004F
:1045B000ACD08700806714008B51FA00F22684008B
:1045C0002FF63500179B400077137A00F4F8690046
:1045D000BA6481003C922C0071D9170013D9F800FD
:1045E000D38A800026851E00F1A6AB00F28CBD00A8
:1045F00016EE2E007464950074E0A200A37A1400F5
:10460000683D0F0050519500D8CAAF006F57B800F1
:1046100073D29F00D1F38000E92B2100D67EC60023
:104620004D561100A153C7003BE0BA00D43503003A
:104630007A7D7600DF160400397A2100655E080075
:10464000140F9F00464BAA007E3E78004B5FAD00E2
:1046500048AB3F008E1D30006311F2000E449F00F6
:1046600004052B0012233400D8290B0044590C00F8
:10467000EE827800B2197B00779D2A0012C9B6003D
:10468000977BBF00FA412F00D619C800F2FBF50056
:10469000F0804D0083B7B8001C5F2300B6C16600F0
:1046A000FC6EB100996B1800D64F6000CC86860076
:1046B000C7315C001EA625000BAAB300C219760004
:1046C0009676B300AD30A8008DBD79000CC5E4002E
:1046D0005FBC01000290470091B3D10005C1EC001E
:1046E0007B77720098EFE900813BED003342B60022
:1046F000993C000093A3A30011B1ED00CFA74600A1
:10470000F5262600E0640200900F2500838E350018
:10471000CAED84009AAB8D008046220075CB59000B
:10472000055DBF00AFCB070068C3550083931C0035
:104730003A25D900C3B79100E7449400D052410014
:10474000DB369E00538E8D000C4B8B007FF8D4001F
:10475000A71C48001D553A00E5B89B00BEBADF0013
:104760005F09FA00BF86C500557BC4000697A0000C
:10477000BF8C03009E5635002A499000A012CA0043
:10478000AC23650009CF58006FD096006AFFAB00DC
:10479000A91711009D2D1900FDE45200DB48AE0061
:1047A0008F611600EA215A0058841400430D3D0021
:1047B0007D838A0056D24C00B7C2EE005787860030
:1047C0000C8EE20041CBF30064F5EE00ED8B6F0040
:1047D000C7C4BA006A3CD40046AEEB0003A02B006D
:1047E000DA950F009028B300BB5C0F0005EB310099
:1047F00008D9E1005C6B0300ABA72B004E891800C1
:10480000E2896B007DB99300DAD41F00EF027400D7
:104810003571A90014FF59007CD16D00B0EA700019
:10482000C371510053C02B000EB0BE0053E9B90054
:10483000366C94006060090063AFD0001FB99C0023
:1048400051EE85007E729C00FC1E56009CD58400B3
:104850006821F3006E79E7009DB4ED009AE30A0049
:1048600012AC150013B927001C27D200781544009C
:104870001C7B260054FECF007B226800A20FED00B7
:10488000C0A59F0045818D0039E9AE005B11C000D5
:1048900016E13B008945B600E4360900BC65FE0020
:1048A000C936B500F19C9200F2371900FB60310067
:1048B0000EF32B0068B0E900D1AAC300F06DA70089
:1048C000D2FD3900133353003D7E1B00D5EF750038
:1048D00032134600B4A34E00D08038004DFC1000C7
:1048E000308FED004FC04200DFF51000A7311600F9
:1048F000A2C092000F108E0083239700632DF80052
:104900006DF7880069A7FB00F42DD900F4660C0050
:10491000F3C13600818A7D001ED4F200C7725500B3
:10492000C90D1A00CD5140006DE1850083F17F0073
:10493000AD1F2100F8F44100EB68670092AF28003A
:10494000B696860008E0CF008D1D7D00E0B8E60039
:10495000CDEE8D00C2B6EE00C95BA700E264FC009C
:104960005B3661004C6AF0006CB84900DA9E3E008C
:1049700044EB27001485A300A928CD0058EEF100D0
:1049800013337A00F0D0D000741794000304510060
:1049900075E2D20087BB6A0010FC890099CE6800DE
:1049A000EB07D600EE1C2400E745FD00345C320026
:1049B000BBED680095445A0099B10B00CE0B9300F3
:1049C00027C7F30064709800565BD60006D36F00CB
:1049D000E17CF4002012B90070223400239C88008E
:1049E000BD4C8D0013870B002B32EE0059009D004B
:1049F000A8303100EC252B00D7C3FB004BE2AB0005
:104A0000D8403B00E3C69E00216EEF00D1AC3300DE
:104A100044855D00202A2600A5951900FA39710009
:104A200056EAA6005DE00C00C6D2080054A6F700C6
:104A3000DF4CA700C9993000C1604A006A94DB00CE
:104A40004BD133002FFFE20000EAD9008DA45000C3
:104A500015FABC005779AD00AC45D100D724400011
:104A60007C314B00AC8A7F0085FADD006C3D4C0048
:104A700077BA4D001F9F3600F59A0B00031D2300E7
:104A8000E53CB3004A76F800614ECF00A4E9390056
:104A900008618200D78BC700C21B3200B3793F0088
:104AA000342E9C0022224B0074C9BC002C19130028
:104AB000C320B9001CD33A004D66A1002FDF0B00C4
:104AC0004B2B4D0073CB7700F1CFCB00BF572100AC
:104AD00012170E00EF13DC0065CA4300C6854E00B6
:104AE000C2F79A001F8D6A00E17CE0005C819400AF
:104AF00058A67A0034811000E967F6004836920023
:104B0000627792002CF0D3009E28A600C606FB0018
:104B100069A0950032FA5700519D03008A568E0015
:104B2000AB000100440C5300583FB2000442CE00D9
:104B30000D413E0016B3280025C60C00E605D40042
:104B40004F7FC400353893009367BB00E2DA8400DE
:104B500081F8BB006F6D67008349FD00B8495200C2
:104B6000B5660D00724A3F00A7F81E006F3BDD00DE
:104B7000F5051D00B3407E009DF8E000E24983008A
:104B80007774FC009169EC003FC12E007D14520047
:104B90000EE2DD00B9F2530039BDB700489D540064
:104BA000E4424600CB6C5E00DB1D010025F2EA000A
:104BB000667923003DE0A5002F98A00055A61C00B3
:104BC0007EABC60080CCC7004E5FBD0040E0DA007F
:104BD0000737120060758600EFEFF50075FF2E00B5
:104BE0007DF92D00B022E70040819E00EE1E9F005F
:104BF000F4DE0B0025360200F82E350099F7E100AF
:104C00004BEC3100823B2400AD30260013E78F00CF
:104C1000A138DE00F5562D0062B2CB00B61E17009B
:104C2000068AEC00C1B50E0063223A00D53E15009D
:104C300075892C001CE51B005508230045E29800EF
:104C400002C252005933E00088B9250020DEF1008D
:104C50004FDF9D004A7F8600907E8600C539DF00C9
:104C600044DFEC00DF19E40013FEB90022235600F4
:104C7000FE2A9A00129E1D00E300BC0035630D0061
:104C800008CB3A0007E3E6004EE30500CF16AD007F
:104C9000C82AA0006E6CCD00B5476A009AAF3A00F2
:104CA0003B1F6E002BFD0E005BDE60005E81550039
:104CB000E4247E00393074007E56A6007F5F5800E1
:104CC00001096400CB3BC100ABCCC100C90EB900E7
:104CD0000072F700B342CD004E4A4200708F46008A
:104CE00030FB080007D87200882A9C0051837300AB
:104CF000BBD7A000019992004578B7007E34EA0046
:104D0000D430900027018B008C99BD00F9FF7B0007
:104D10002CB3FD00ABDC160019DCC500BE28560024
:104D2000A9FF280014FDB50028B7E500065782004A
:104D300059F327001D14DA0093D62200CA47590000
:104D4000A4FA1B00DCD84B001F4312008570F20050
:104D5000C1E38C0026DBDA00113CD1003E9B03004E
:104D60006BE4790031A9AC000896B900C5BE4F00CC
:104D7000D3C688007B2BA60006B3FC003C97F4004A
:104D8000D871C600EB5AB400CF676D00D9C2DA0003
:104D90007540EB0035B5670076627200E966840005
:104DA0007ADC48008213A80034E69F0017A1B20005
:104DB0007E90AE004FC77C007BF01000ED481A00DB
:104DC0001345EC0094213F004A1B85009BC5E4007D
:104DD0003B9D6B0029C84B00C2D0C900F7FB4100C6
:104DE0001BE6D900657DA900F9A34A00C5981C00FF
:104DF000EECD5400083E62000EE30D00373B52003A
:104E00003B1637005AD9B5007EB61F00B643E50001
:104E10004AB5C10093671B00B461BF00E24AB60007
:104E2000D41AB1007D427900E678C700D884AF007B
:104E3000F98B9500576451001E200300B2942C009A
:104E400076CAC000FD501A0096A7AF0053940D001B
:104E5000167B0A0045EDDA0049198B0063548C007B
:104E600069FFCF00AAE8A100C68BC5009818D7003B
:104E7000B3B6AB002F9DD700464E34003754E40044
:104E800027DAAA007D89F30001428300DA2A27008D
:104E9000546888004EC90C00BCF4110073B90400BA
:104EA000DFD3E6000E304F00A650EF00906B660097
:104EB0007269E900BFE9D40064F53F00E0E0C50095
:104EC000F4A029001CC6FE006A8E8800F526D300D7
:104ED000FACD1300019263008CBA16004B4B9E0072
:104EE0007CE3790009231100D458580088893900DF
:104EF000CB3EE20078F95F00954E9A00059A590082
:104F0000C2AD03005B9C4400C01AA5008CE4CD0038
:104F10003C243F00EE13180075CA3E00639B02005C
:104F2000C5D4FA003D268300DD22FF0089025B0024
:104F300093A0C9000D3ACE0036145C003F675200C2
:104F4000B7128500FB0392002FCAA100C98B36005F
:104F50008F5A2F00E661E30075EDEA00758B36008D
:104F60007EF9D5008A08D7008DEA6200DC7AAD00B0
:104F7000DF1705006CE7DF00E4516500674840007B
:104F800036B5E600FD66550024A5AA0015A1DA0095
:104F9000A8272800FAE49C00C825E4007ADD0E006A
:104FA000AC9E730011134400F2782D000A3B1900E7
:104FB000039DF200C91B10007B34D40097E5060066
:104FC000E59D2900A2B1DF004BA96200179585007D
:104FD0007C59CC007B6C7C00EB7EDC00ABC3E80032
:104FE000955C2D0034195A0058F4F000DCBF3D00E8
:104FF00094E7E20093DF080019DACF00271F1800BA
:10500000A94866006B62090093998B00BB54540059
:1050100040251200FA3D00009CDDC3008070A60010
:10502000BE663700938838004DB0F9005B4AA70090
:1050300069BE47007C393B001C22A700B09D72006E
:10504000A7F48F00199A3B0029CE410028D90C0003
:105050006A77EB0049257700D7CFF000B3A6EF00C1
:10506000EADB7D000F79A9009EFD3300D06F880038
:1050700095471600743E9B001F7D43000B62640041
:1050800043F4AB00AC2BDD007804CC00C7B779004B
:10509000AE43A20077842E00D95C1D003D49B600C6
:1050A00021167600CABC200057FA2500C4A9F700D3
:1050B0006E585D00AE218000FFBCEF00525511001C
:1050C00024FD7C0066AC23002E2FFF0042B2C900F5
:1050D00001D5E800D76344001FD5370057EBFE0029
:1050E000A5FAE30024F09E00C561FD0000E6B000D3
:1050F00089C50F009844A800DBE47200DDD8BD002C
:105100002E78A200C9834800384636008146F30055
:10511000991D9E00F9811D0067A207007960ED00CE
:10512000FD499300BF897800775CB1008D165B0064
:10513000BAB20200E64661000EF97E004556DD0077
:1051400086D12B0094FB2100C416DE00AE3E1C006D
:10515000E9064600AE637F00AE17A6005E4C150060
:10516000EEEF04007BEA000037503800B4C1510074
:1051700017E31F008716D40037CF730064CFE40015
:1051800091C89F00C94F20003D1395003241050092
:10519000A8C1350007644E002F41CB00FDB20E00C0
:1051A0007C531000796D190015B0D100FE91F2000A
:1051B000F508CC00ACFF740031DE7500516EE100E3
:1051C000F3BF7700A9BEAE005223DF00B5607900BF
:1051D000CA15740056C4EF0069B4EE008F884E0003
:1051E000EDA678001B78A4005CCC630034E66E006A
:1051F000E8158100C8BC97001A0ED9006715D300C6
:10520000930D0F00B598F800EE736D0020ACC1004F
:1052100084B24D002ABC4F0018603C008F4143000F
:10522000C5377600018ADC0099A2ED005F6121009C
:10523000C68A9C00898627004E88DF003FEFCA009F
:10524000944A0600AE5012004047FA009DBE1C0072
:105250004B7E9D0056898B003A5C5D00B462B500C0
:10526000C9BE33000D4D8F009BAD0C00C97A67009D
:10527000A4C76100E32383006C87CC00B0FECD009F
:105280005DA31A00948B8600B4C4B800954F3A0011
:10529000D5E6C800EA7F3F000BBA1400F8106C0096
:1052A000FFAF3F005FA53C006CB59600F90DFF0015
:1052B000D65B300005FA7C004F274B00D5AE7B0053
:1052C00091277100AA304700F7C85800B0C2BA0051
:1052D00015317000361A79000854B00094A11500F9
:1052E000AB8AF10058C119005C9F4700B9EAE7009A
:1052F000F355EE00611C7F00163529000663780027
:10530000171A56006F790200F6B59E00D7B7B200A3
:1053100042C9D200CD084D00EE9D4D00002A740018
:105320005329C3009A29F800F53D83001265C9008E
:10533000CE93A600A85CD3001CFF6500DC069C0091
:1053400012417000A501DC00DE428F00349B320068
:10535000D192E70080421100BB74F200F70FCE003B
:10536000BB119E0005D1100007212B004DE5DB008D
:105370007C125B00CA5A0F00FE249500319EE400A7
:10538000E93568004ED789001C4C2F003035D2001B
:10539000753829005E143B00ABEE79007099A200CD
:1053A000E9C41C00BA24B3009D658800F377560059
:1053B000533E0B00F994A4009B6795001DD52C006B
:1053C0003FB50300A98AD5005DA3D700733A40001A
:1053D000247C1600B931E1003C2B5500A57CA200CD
:1053E000210FC0001B1CD80005864900CE5D60005F
:1053F000E942EE00A57794000F799B00F98FA60093
:10540000FAEEB400383E81008EDF1C00E7DBD500E9
:105410001487660023C4E1002A2320000E70EC00EC
:10542000E9571800C9489900CB299400E59B8600EC
:10543000105BE100806D4800B6CC90005E7B1900E7
:105440003FD69D00BCB69000DD2C4B00B4562E001C
:10545000B939F1006C7BAC0072780A0066BA8D0035
:1054600005F2E200A3E68B00BCF52A00828BB500B2
:10547000E0200A007BEF8D002E67C600269CE50029
:1054800073710700356BF600B51C76004384C200CB
:10549000C87B4B00A59DB00051461400A4C2460035
:1054A0007A6B1B00CCEBFF00E75BA7002E6AB6000F
:1054B000ACDDAC00C694B60054AEFB0069DFC90099
:1054C0003C2A4D00E694A400C5751C003E6A880085
:1054D000378C17001F176F0045F11E0002A09300C4
:1054E0008EDD0000A5182300976BC700B3E93000DC
:1054F0000ADA3600D322DC004539B90080AA6E00F2
:105500007D1D3C004F3F0200F80360008ECA9600EC
:10551000395109006B8A30000AF7D100F9A9F80067
:10552000C63C0F00CE07080059A1CF0018C03000BC
:10553000CEAD7C00539D48005EA0FF00056BB4001B
:105540005C6BE6003058C4007D68D1005BB3CC00D2
:1055500045A89E005A605F009EBE5300410893001C
:10556000E5A8EC00283E9100FBB60000A7372F000D
:105570000E902C00365602003B4D4A00CF26C60046
:105580003E87EA008BBF2A00C0E9CF000F0F7D00E5
:105590000FB68B00FED785003C68D600D442ED00E4
:1055A000F3BC4A00D53A40008A732100EABEA0004D
:1055B0001FA77400AEFD7B00BB4AE600F90BF000AC
:1055C000C7872E00A257A1006E437D0052341E00F3
:1055D0008C36DB00A616F000649DF800EBD11700B6
:1055E00032DFBB003587E800527B1C00A87806003C
:1055F0009658DD002BB26800F9149D00DC003A00DB
:10560000DE760F00F414C500737645000E76FD00BB
:10561000F2CCC200E537F200D060FA00FFAD050021
:105620002A917C00E9C64600E11FB200EBCB830063
:10563000479957005F10B4005369B3000F34C60098
:10564000A7A10400430ECD00FE98FA006BB3F6004C
:10565000B4532B008B5DD2007FDEC500C9DF2C0068
:105660009DBF3000D3C77B0003303E00FDF3F70041
:10567000493D7F003B439E0066163C006DACF30045
:1056800087E8B600908C57007CA68400D3E72F00F3
:10569000892CED00A9BF5600AD3BCC0041106B003A
:1056A0009212950013926B00C6C7910065909B0003
:1056B000EE471100F013FC000ECCBE000ED94400E2
:1056C000230F8C001B1B9B00984F2500EEBAD800BF
:1056D0006590C00090BCF700D766B600A1182E00F8
:1056E0004E3D24000B7800007720E100ED342200CD
:1056F000CE3B9600EEF99A006AEB32004B210A008D
:105700005F0CA6006797FB0040CA4F00A610EE0092
:105710007DDFE100D1E8B500BBE7E9006292E0007F
:10572000554EB0005B265200A260C5009FF95F0095
:10573000BC6A4000E72AC900D5564E00BE74D000AE
:10574000625A560034410300A1A1140023990100BC
:1057500047F169003E1F940055AFE1003C679A0095
:105760006DFFEF00E4B3B000156C5200C20A730085
:10577000CE45FE00CBAA0100ED4128003FDB93009F
:105780009046050082CABF0029862100CF6005002F
:1057900076645A00E690B500E3E75A002A611500E6
:1057A00099050000C8B19300DCB34000E1387100F6
:1057B00058ADC000CC5BBC008F013000E704B600E0
:1057C0008D418D0093678300831D550052601B003F
:1057D00001EF5D001CD51F00E0C4550063BAE50071
:1057E0002161D800673B6D0045062B00C3889900F6
:1057F000F140F5005B0E6200D8DB77000FDAB800ED
:10580000402F0A00E9DE09009DD2E600960C6900EF
:105810001CAE3C0070F920000B53EA0061ADF600AD
:1058200088ADB50062066100DC5EE00073C309006C
:105830006CAF34002891640024D85300510BBD0094
:10584000CCB61C0043990100A5A52200C4E6EE00D9
:105850003C760400B39159006148F100DC044B0030
:10586000937176009B72DF006FB6C9003806F800AE
:10587000DE06250025C17A00128F4C0085A1C400E8
:105880009792A100A3B1F80007FCB800430C640094
:105890001723E500F6C76A001DD48000CFAB0100D6
:1058A000486FEC00339A24000BD363009D527000C4
:1058B0009E049000839900007DFA6500C48DB900B4
:1058C00047E0DC004A05AE007070A200BFC61500BC
:1058D000A0E7C0008A6C4800BF6E3D00713D9E008D
:1058E000EBF3210089619B00FC17CD00691E960037
:1058F0003F65AD00B2437B008345BA00673938008D
:10590000BF701900B843C600CCA297001F1CCB0083
:105910000E9E700001062F0001AA7E003C959500A6
:105920000228930041872400D0556700A7E369004F
:105930009734A10064274100819C680008161E006E
:105940002518BC00B0FEE4004A081D008C5EAC00C7
:10595000D517BC002AE13D00E2004800E95E1E00C8
:10596000515F5B0039B44100539A8D009EB0120024
:10597000BA1D2E0089FA450014FDD7007F2DDC00EA
:10598000DFFDCA0032BA290056BB220070BC2E00CF
:10599000AA6D06001821B5009EA7150070A6450047
:1059A000DD685600948B240093005E00D9B7AB00ED
:1059B000FEBA9B0053D10A0019064E00E5B18D00D6
:1059C00090ECE8007EFC10009D4B380074D0030082
:1059D000834FAE001BCFD700B25B7D000B68470042
:1059E000ECDE3500B2BAA100DD8097001FE0950023
:1059F000F8E5D000332EB200ACC7D900948DD200A8
:105A00001EA2C400165EB9000C8E540080310D0039
:105A100093542200C4EA7100DC33A30033202B002E
:105A200003778A0035090800BDC08B007B544D0008
:105A30007D07A200D91138002B93920023F36D004B
:105A4000AE1FFC00BC998C00D16C3100BD0254002B
:105A5000514BA900E479020018708200A15BA400F8
:105A6000E651C100FD68DB0000E324003514C300EB
:105A7000A1675300380BCE0033CB2A006DEDA80090
:105A8000A5F973006F9C4C0057B73B009583040049
:105A90007189DE008C988900A3490A004E473700BF
:105AA0009A4B15002B067400B457FF00D5823A00BC
:105AB000BA7D4F007E475B00A1B3D6008BEF780024
:105AC000A8A72200719584004CF21600B19F6D00CA
:105AD000E93BE2000E89FA00FBC20E007240A10011
